:1000000020A30020195D0000615F0100495D000030
:10001000495D0000495D0000495D000000000000EE
:10002000000000000000000000000000B95A0000BD
:10003000495D000000000000715A0000995E010057
:10004000D95C0000C3690100D95C0000D95C0000E4
:10005000D95C0000D95C0000D95C0000D95C0000CC
:10006000D95C0000D95C0000D95C0000D95C0000BC
:10007000D95C0000D95C0000D95C0000D95C0000AC
:10008000D95C0000D95C0000D95C0000D95C00009C
:10009000D95C0000D95C0000D95C0000D95C00008C
:1000A000D95C0000D95C0000D95C0000D95C00007C
:1000B000D95C0000D95C0000D95C0000D95C00006C
:1000C000D95C0000D95C0000D95C0000D95C00005C
:1000D000D95C0000D95C0000D95C0000D95C00004C
:1000E000D95C0000D95C0000D95C0000D95C00003C
:1000F000D95C0000D95C0000D95C0000D95C00002C
:10010000D8F81C00D9F81C4000194FF0000B4BEB3D
:100110000B0B4FEA4B0B0BEBD07B13270BFB07FBB7
:1001200020F00047B8E80F00B9E870044FF0010C68
:10013000ECFB640BECFB651BECFB662BECFB6A3BFE
:1001400099E8700098E80007ECFB684BECFB695BF2
:10015000ECFB6A6B5F44704798E8FF00B9E8001D4C
:10016000B0EB080071EB0A0172EB0B0273EB0C03AE
:1001700099E8000F74EB080475EB090576EB0A06A5
:1001800077EB0B0768EB080828F0250910EB09004E
:1001900051EB080152EB080253EB080354EB08043F
:1001A00055EB080556EB080657EB080758F1000811
:1001B00028F0250910EB0900704704B587B03CCA48
:1001C000B1E80144A2FB006BA3FB007CE2FB6A7B6D
:1001D000C0B4A4FB0086E3FB6A8BA5FB0097E4FB9D
:1001E0006A9BE5FB6AB7E2FB6E8CE3FB6E9CE4FB6B
:1001F0006EBCE5FB6EC7B1E80144E2FB6096E3FB31
:1002000060B6E4FB60C6E5FB6067CDE902894FF0AC
:100210000009E2FB6AB9E3FB6AC9E4FB6A69E5FB32
:100220006A794FF0000AE2FB6ECAE3FB6E6AE4FBF8
:100230006E7AE5FB6E9A51F8048B4FF0000EE2FBEC
:1002400068E6E3FB6876E4FB6896E5FB68A651F890
:100250001C894FF00000E2FB6870E3FB6890E4FB50
:1002600068A0E5FB686001B40A9A10323CCA51F8F4
:10027000048B4FF00000E2FB68B0CDF814B0E3FB54
:1002800068C0E4FB68E0E5FB680751F8048B4FF0B9
:10029000000BE2FB68CBCDF818C0E3FB68EBE4FB96
:1002A000680BE5FB68B751F8048B4FF0000CE2FBDC
:1002B00068ECCDF81CE0E3FB680CE4FB68BCE5FBF4
:1002C00068AC51F8048B4FF0000EE2FB680E08900A
:1002D000E3FB68BEE4FB68AEE5FB686EB1E80101D4
:1002E000E2FB60B9CDF824B0E3FB609AE4FB60A6C2
:1002F0005DF804BBE5FB60B6E2FB6897E3FB68A72B
:10030000E4FB68B7E5FB6867B1E80101E2FB60ACBC
:10031000E3FB60BCE4FB606CE5FB607CE2FB68BE79
:10032000E3FB686EE4FB68E7E5FB687CDDE9074515
:1003300026234FF00008E3FB6C484FEA480848EAE0
:10034000D47824F0004C132408FB04F807BCE3FB2A
:100350006508E3FB6918E3FB6A284FF0260918BC1F
:10036000E9FB6B38E9FB664860BCE9FB6E58E9FBCA
:10037000676808EB0C0703B000BD00B585B0A0FBB3
:10038000009AA0FB01BC1BEB0B0B4FF0000EEEFB29
:100390006EAB2DE900064FF00008E0FB628C58EBD5
:1003A0000808E1FB618BA0FB039AE1FB629C59EB1F
:1003B0000909EEFB6E9BCDE902894FF00009E0FBD5
:1003C000649AE1FB639C59EB0909E2FB629BCDF85F
:1003D0001090A0FB0598E1FB649AE2FB639C59EB4B
:1003E0000909EEFB6E9BCDF814904FF00009E1FB7C
:1003F0006598E2FB649CE0FB669A59EB0909E3FB14
:10040000639BCDF81890A0FB0709E1FB660AE2FBAD
:10041000650CE3FB64084041EEFB6E0BE1FB679863
:10042000E2FB669AE3FB65C95CEB0C0CE4FB64BC85
:10043000E2FB6798E3FB66A90022E4FB65A25AEBA6
:100440000A0AEEFB6ECAE3FB6728E4FB669259EBEF
:100450000909E5FB65A90023E4FB6738E5FB663283
:100460005B41EEFB6E93E5FB678258EB0808E6FB09
:100470006638AEFB0E45E6FB67426441EEFB6E4814
:100480005241E7FB678252EB0E024FF02606E6FB75
:10049000620E4FEA4E0E4EEAD07E20F00047132542
:1004A0000EFB05FE03BCE6FB6B0EE6FB6C1E9B46DB
:1004B000A4463CBCE6FB6A2EE6FB693EE6FB6B4EBF
:1004C000E6FB6C5E40BC4FF0260CECFB686E77449C
:1004D00000BD2DE90041FFF750FFDDF80080B8F1C5
:1004E0000108CDF80080F6D101B00DF1040888E8CC
:1004F000FF0000BD08688A68CB680C694D698E6989
:10050000CF69496870472DE9F14F9246FFF7F2FF36
:1005100020F0070047F08047FFB45FF000082DE9A6
:1005200004015146FFF7E6FF27F00047FFB45FF0F4
:100530000109A8FB08AB4FF0000C2DE9001D2DE9C7
:10054000001EFFB4A8FB08672DE9C01D2DE9C01DE2
:100550002DE9001EFE20002341091DF1A80252F8DA
:10056000211000F01F04E14001F00101CDE9280154
:100570005940D1F1000E684610A94FF0040B90E8E5
:100580003C0091E8C003724002EA0E0A96EA0A06AD
:1005900072407B4003EA0E0A97EA0A077B4094EA1E
:1005A000080404EA0E0A98EA0A0894EA080495EA9C
:1005B000090505EA0E0A99EA0A0995EA09053CC007
:1005C000A1E8C003BBF1010BD9D1E8460DF1200928
:1005D000FFF796FDFFB4FFF7D0FEFFB40DF1400822
:1005E0000DF16009FFF7B8FDFFB4FFF7C6FEFFB4D9
:1005F000694610AAFFF7E1FD0DF1800888E8FF00C9
:100600000DF14008E946FFF7A7FD0DF1400888E825
:10061000FF00DFF84CE2DDF81CC04FF0000BEEFBF2
:1006200067CB4FEA4B0B0BEBDC7B13270BFB07FB7A
:100630002CF00047BDE80017EEFB608BEEFB619BE2
:10064000EEFB62ABEEFB63CB07BCEEFB640BEEFB99
:10065000651BEEFB662B5F4401B087B42DE90017E4
:10066000694610AAFFF7A9FD0DF1A00888E8FF0070
:100670000DF1C0080DF1E009FFF742FD8DE8FF0024
:10068000694608AAFFF799FD0DF1200888E8FF00E8
:100690000DF1C0080DF1E009FFF75EFD8DE8FF00E8
:1006A000694618AAFFF789FD8DE8FF00E8460DF1BD
:1006B0002009FFF725FDFFF760FE0DF1C00888E86F
:1006C000FF00E8460DF12009FFF746FDFFF755FE54
:1006D0008DE8FF00694640AAFFF76FFD0DF1E008C5
:1006E00088E8FF0020B0DDE92823501E7FF534AFF5
:1006F00008A8FFC8FFF741FEFFB4FFF73EFEFFF773
:100700003CFEFFB418A96A46FFF757FD8DE8FF00CD
:10071000694608AAFFF751FD0DF1200888E8FF009F
:10072000FFF72BFEFFB4694608AAFFF746FD0DF15F
:10073000200888E8FF004FF00508FFF7CAFE694669
:1007400008AAFFF73AFD0DF1200888E8FF005FF0E6
:100750000A08FFF7BEFE694608AAFFF72EFD8DE8DE
:10076000FF005FF0140888B0FFF7B3FE694608AADF
:10077000FFF723FD08B05FF00A08FFF7AAFE6946FD
:1007800008AAFFF71AFD0DF1200888E8FF005FF0C6
:100790003208FFF79EFE694608AAFFF70EFD8DE8B6
:1007A000FF005FF0640888B0FFF793FE694608AA6F
:1007B000FFF703FD08B05FF03208FFF78AFE6946D5
:1007C00008AAFFF7FAFC5FF00508FFF782FE69460A
:1007D00010AAFFF7F2FC8DE8FF00694618AAFFF7A0
:1007E000ECFC4FEAD7784FF0130908FB09F84FF0FB
:1007F000000A08F1130810EB080851EB0A0852EB45
:100800000A0853EB0A0854EB0A0855EB0A0856EBA2
:100810000A0857EB0A085AEB0A0B4FEAD87848EA5D
:100820004B0808FB09F8DDF8289110EB0800C9F81F
:10083000000000204141C9F80410494642414341AB
:10084000444145414641474127F000478A60CB601B
:100850000C614D618E61CF614BB0BDE8F08F00003F
:1008600042DB01007BB972B90029BEBF00204FF006
:10087000004106E008BF00281CBF6FF000414FF0A8
:10088000FF3000F0CBB9ADF1080C6DE904CE0029C2
:1008900009DB002B1ADB00F061F8DDF804E0DDE98C
:1008A000022304B07047404261EB4101002B1BDB87
:1008B00000F054F8DDF804E0DDE9022304B0404222
:1008C00061EB4101524263EB43037047524263EBD9
:1008D000430300F043F8DDF804E0DDE9022304B04F
:1008E000404261EB41017047524263EB430300F029
:1008F00035F8DDF804E0DDE9022304B0524263EB91
:100900004303704753B94AB9002908BF00281CBFE8
:100910004FF0FF314FF0FF3000F080B9ADF1080C1F
:100920006DE904CE00F01AF8DDF804E0DDE90223F9
:1009300004B07047430803F05533C01A830803F02E
:10094000333300F03330184400EB101000F00F3058
:1009500000EB002000EB0040000E70472DE9F0474F
:10096000089E0D4604468E46002B40F082808A4247
:10097000174646D9B2FA82F24AB1C2F1200105FA0D
:1009800002F320FA01F1974041EA030E94404FEA46
:100990001748230CBEFBF8FCB9B208FB1CEE43EA77
:1009A0000E430CFB01F098420AD9FB180CF1FF35FD
:1009B00080F01681984240F21381ACF1020C3B4466
:1009C0001B1AA4B2B3FBF8F008FB103344EA03444B
:1009D00000FB01F1A14209D93C1900F1FF3380F07D
:1009E0000181A14240F2FE8002383C44641A40EA90
:1009F0000C4000211EB1D4400023C6E90043BDE8ED
:100A0000F08702B9FFDEB2FA82F2002A4FD1CB1B87
:100A10004FEA174E1FFA87F80121B3FBFEFC250CA5
:100A20000EFB1C3345EA034508FB0CF3AB4207D928
:100A30007D190CF1FF3002D2AB4200F2E780844610
:100A4000ED1AA3B2B5FBFEF00EFB105543EA0544C8
:100A500008FB00F8A04507D93C1900F1FF3302D28A
:100A6000A04500F2D7801846A4EB080440EA0C40E9
:100A7000C0E78B4208D9002E00F0AF800021C6E904
:100A800000050846BDE8F087B3FA83F100294BD191
:100A9000AB4202D3824200F2B780841A65EB0303B3
:100AA00001209E46002EAAD0C6E9004EA7E7C2F15B
:100AB000200C01FA02F3974020FA0CF04FEA174E8F
:100AC00021FA0CFC1843BCFBFEF1050C0EFB11CC0B
:100AD0001FFA87F845EA0C4501FB08F3AB4204FA1C
:100AE00002F409D97D1901F1FF3C80F08B80AB4203
:100AF00040F2888002393D44EB1A85B2B3FBFEF028
:100B00000EFB103345EA034500FB08F3AB4207D95F
:100B10007D1900F1FF3C71D2AB426FD902383D44E0
:100B2000EB1A40EA014178E7C1F1200C8B4022FA30
:100B30000CF71F4320FA0CF405FA01F34FEA174EA5
:100B400025FA0CF51C43230CB5FBFEF91FFA87F8B8
:100B50000EFB195543EA054509FB08FAAA4502FAB6
:100B600001F200FA01F308D97D1909F1FF3047D2EB
:100B7000AA4545D9A9F102093D44A5EB0A05A4B24D
:100B8000B5FBFEF00EFB105544EA054400FB08F8E7
:100B9000A04507D93C1900F1FF352DD2A0452BD92E
:100BA00002383C4440EA0940A4EB0804A0FB028957
:100BB0004C45C6464D4619D316D05EB1B3EB0E0276
:100BC00064EB050404FA0CFCCA404CEA0202CC4077
:100BD000C6E900240021BDE8F087314630460EE723
:100BE000AC46EDE6184601E74345E6D2B8EB020E07
:100BF00069EB07050138E0E72846D3E760468FE751
:100C00008146BAE7614677E708464BE7ACF1020C4C
:100C10003D4415E702383C4426E700BF704700BF5B
:100C20002DE9F04F8DB002230B9330B909F0C6FFC8
:100C3000054628460DB0BDE8F08F634E96F8C850C3
:100C400015F00105344601D00C25F2E796F8267020
:100C500096F87680272307FB03372946F05DC0F31B
:100C6000801003FB086808F06BFC06EB070909F12C
:100C7000020B01468246062208F17708584615F015
:100C8000DCF90622514608F1020015F0D6F9F35DB1
:100C90005B066FD494F824300121C3F302030DF1F5
:100CA0002B008DF82B3015F09FFB0028CCD0F65D83
:100CB00099F8012098F8013006F00F06022E00F195
:100CC000FF315FD11032D200504300F5AA70642387
:100CD00003FB010094F820303C49E461002666F3F0
:100CE000000384F8203031232360C4E9056634A36F
:100CF000D3E900236660A660A0FB0101FFF702FEB6
:100D0000E060B4F8CA8015F094FDE368304A03F25D
:100D10004711116009922F4ACDE906422E4A074633
:100D20002E48CDE904324FF6FF73CDE90263A8FBEC
:100D3000000191230DF12C0903FB081120A3D3E935
:100D40000023CDF82090FFF7DDFD0321CDE9006001
:100D50003B460222304608F023FB494609F090FB4F
:100D600000287FF471AF94F8C83043F0010384F891
:100D7000C8305EE70621584615F00AFB002889D1E5
:100D8000122556E7012E15D0DB00803366B902F13B
:100D9000100003F52773C200983303EBC00302F57C
:100DA0009A7001FB003095E7062EF0D010204FF42A
:100DB000AA73F0E716204FF42D73ECE7AFF3008031
:100DC0008D49FD1A07000000E834002000CA9A3B54
:100DD000B435002075A4000099A80000002AE7841B
:100DE0002DE9F04B8CB0022304460B9390F824308D
:100DF00090F83800364EC0F3400003F0F90360F37A
:100E0000861384F8243004F1250108F099FB94F846
:100E10002030678EE461002565F30003A7FB06011F
:100E200084F82030912303FB0711C4E9055526A35C
:100E3000D3E90023FFF766FD31232360636B656010
:100E40000933A0F13102934232BFE360E26065638F
:100E5000A560074615F0EDFC1E4BB4F832B0CDE9A5
:100E600006431D4B0593B146E368049380469123E6
:100E7000ABFB090100250BAE03FB0B1112A3D3E959
:100E8000002308960395FFF73DFD104619464FF4E1
:100E90007A720023FFF736FD0321CDE9017000953A
:100EA00043460422284615F0A9FC314609F0E8FA29
:100EB00040B994F8383043F0010384F838300CB06E
:100EC000BDE8F08B0C20FAE78D49FD1A0700000001
:100ED000002AE78475A40000A1AC00000000000017
:100EE00070B5054600201E4609F09CFF044610B36D
:100EF00090F8383066F3420380F838309DF81030AF
:100F00006186DB0003F0180343EAC51094F824302F
:100F100003F06703184384F824000B489123A2FBD5
:100F2000000103FB021106A3D3E90023FFF7EAFC4B
:100F30006063002070BD0C20FCE700BFAFF30080B1
:100F40008D49FD1A07000000002AE7840000000018
:100F50002DE9F84F044616F03FFC257B064615B1F7
:100F600015F067FC05460FF26809D9E90089DFF83A
:100F700068B04FF0000A60680EF0EAFBA3689B1BA4
:100F8000A360636833446360237B0AF1010A4BB9B1
:100F9000A368002BEFD1A068003818BF01204042A1
:100FA000BDE8F88F15F045FC294615F044FCB0FB70
:100FB000FAF70744606942464B46A0FB0B01FFF776
:100FC000A1FC20F07F408742E2D9E4E7AFF3008044
:100FD0008D49FD1A0700000000CA9A3B000000007E
:100FE0002DE9F04F8FB0D0F80490DFF8E0B00DF1AC
:100FF000370106460DF1360015F070FC9DF83730CC
:101000009DF836A00A9315F014FCD9F81040A4FB03
:101010000B4529A3D3E90023002780462946204613
:10102000FFF770FCCDE90777254B059306960B90EB
:10103000D9F8140020A3D3E90023A0FB0B01FFF78C
:1010400061FC0B9B23F07F491E4B20F07F40A9FBE6
:1010500003BC072303FB09CCCDE90370B4EB0B0001
:1010600065EB0C014FF47A720023FFF74BFC0A9AF0
:101070000097CDE9019043460321504615F0BEFB91
:1010800030F0020415D1104845F6B31113F054F9AD
:1010900068B19DF837209DF836000094234603215F
:1010A00008F014FA6FF03B000FB0BDE8F08FB068A5
:1010B000FAE76FF04700F7E78D49FD1A07000000D7
:1010C0004DEB00008D49FD1A643B002000CA9A3B9D
:1010D0002DE9F047057B044615B115F0AAFB05463E
:1010E0000FF28009D9E90089DFF880A00126A36802
:1010F000032B07D81A4AD2F80034DB07FBD50020AF
:10110000BDE8F0872368606819680EF041FB6368EA
:1011100004336360236804332360A368043BA36043
:10112000237B0136002BE2D015F083FB294615F016
:1011300082FBB0FBF6F70744606942464B46A0FBD2
:101140000A01FFF7DFFB20F07F408742CFD9044A36
:10115000D2F80034D907FBD54FF0FF30D0E700BFFD
:1011600000E001408D49FD1A0700000000CA9A3BCB
:1011700008B50A4813F0D9FC002007F0B3F801467F
:1011800020B1BDE80840064813F0CFBC054B064827
:1011900001221A70BDE8084013F0C7BC7C9B010017
:1011A0009E9B0100AE410020BE9B010070B517F070
:1011B0000DFF4FF47A730A461D4DA0FB030103FB9C
:1011C0000211C20B42EA4142296891421DD81C46D5
:1011D0004EF6602617F0FAFE0A46A0FB040104FB57
:1011E00002112B68C20B42EA4142934210D92021DE
:1011F000104815F092FF104A0E491048FFF783F986
:101200000F4B1B783BB9012400E00024204670BD41
:1012100033442B60DEE70B48012113F04EFB0A4BF1
:101220001C78002CEFD00948012113F046FBEDE7B4
:10123000D8100020F1790020079C0100117A0020CD
:10124000357A002028BB0020377A002050BB0020D0
:101250002DE9F04397B040F20113ADF8403004237C
:10126000484C8DF80C3003AB119340F20323ADF8DA
:1012700048302346123433F8022BADF8102004AA6C
:10128000139241F21662ADF850200AAA1646186869
:101290005968154603C50833A3422A46F7D1186892
:1012A000394F9B88AB80DFF8FC80286004231596BB
:1012B0008DF82D300124B9463B7873BB07F0B2F9A5
:1012C00099F80030CBB198F800C005ADBCF1000F23
:1012D0001AD02E4E0FCE0FC533682B60002300931B
:1012E00010A9032205A814F0F0FF0146A8B1284870
:1012F00013F01BFC17B0BDE8F0834FF47A7012F0C6
:10130000C7FFFFF753FFDBE7224E0FCE0FC5336851
:101310002B60CDF800C06346E2E7FFF747FF0546C4
:101320001CB300241C498DF82A4010220DF12E0018
:1013300014F083FEFDB198F80030E3B1134E07F0CE
:1013400071F90FCE05AD0FC533682B6000230093F4
:10135000032210A905A814F0B8FF4FF47A7012F018
:1013600097FF0E4813F0E1FBA6E701240C498DF826
:101370002A401022DAE700231A46032110A807F0BA
:1013800049F8EAE7B0960100357A0020C8960100D6
:10139000D59B0100DC960100117A0020FB9B010027
:1013A000217A00205CC10020024A137883F00103F7
:1013B00013707047377A002070B51348134C12F041
:1013C00055F92060F8B18568436840F211121B6836
:1013D0000B219847B8B92B68206843F400632B6051
:1013E0004FF4B82113F046FA68B90949094B20684F
:1013F0004B604FF400638B604368DB691BB1BDE851
:1014000070400122184770BD279C01008800002011
:1014100008000020A91300002DE9F0432D4D2E4EA9
:101420002E4FDFF8C880D7B00023CDE902332B68F8
:1014300002A8D9680BF05AFC2B680246D96804460A
:10144000274813F072FB002C11DB4FF4847200214B
:1014500014A814F01DFE14A902A80BF0ADFC041E84
:1014600005DB9DF8513043B91E4813F05EFB02A81E
:101470000BF022FD57B0BDE8F0839DF85030002BF3
:101480000DF15103009308BF4622559B18BF44221B
:10149000314604A805F07CFC04A90546384613F043
:1014A00044FB4FF02003EFF3118983F31188BFF35E
:1014B0006F8F2A4604A9404613F00CFE89F3118869
:1014C000BFF36F8F084B18684368DB69002BBAD0F5
:1014D0009847B8E798BB00204C9C01009DBD0100D7
:1014E0002E9C01003E9C010090000020E010002096
:1014F00010B5064C20680BF089FE23680246BDE853
:101500001040D968024813F010BB00BF98BB002000
:10151000849C010070B5694C23685E69ADF50C7D53
:1015200002A9F0B203F0DAF8021E254608DA644890
:10153000314613F0FAFA4FF0FF300DF50C7D70BD17
:10154000029A604893680093D3685268314613F05A
:10155000ECFA20680BF0BCFD031E216807DACA68AC
:101560005948496913F0E1FA6FF00100E5E71A46BE
:10157000C968564813F0D9FA236806A9D8680BF051
:1015800059FD011E07DA524813F0CFFAFFF7B0FFFA
:101590006FF00300D1E7099B21680193089B00933A
:1015A000C9684C48DDE9062313F0BFFA23684A4AAC
:1015B000DB68FF210AA805F0D3FB4AA90AA80BF0B3
:1015C000EBFC0AA904460246444813F0AEFA002C8C
:1015D00005DB8B9A42480DF2291113F0A6FA414817
:1015E0000AA90BF07BFA021E08DA3F480AA913F099
:1015F0009CFAFFF77DFF6FF002009EE702220021B8
:1016000038480BF019FB0146384813F08EFA35497B
:10161000374813F08AFA2B68364ADB68FF210AA89C
:1016200005F09EFB4AA90AA80BF0B6FC0AA90446DD
:1016300002462A4813F079FA002C05DB8B9A2848D9
:101640000DF2291113F071FA0AA904A80BF046FA59
:10165000021E04DA24480AA913F067FACBE7002433
:10166000042203A904A803940BF0AAFA039A0346E0
:101670000AA9214813F059FA2246214604A80BF082
:10168000DBFA0AA902461D4813F04FFA039B042215
:10169000013303A904A803930BF0B0FA039A03469D
:1016A0000AA9174813F041FA04A80BF067FA0AA92F
:1016B0000246144813F039FA20463EE798BB002052
:1016C000949C0100BC9C0100E29C0100FF9C010075
:1016D0000D9D0100209D0100589C0100669C0100A9
:1016E000739C0100940000205D9D0100709D01002D
:1016F000859D0100929D0100A09D0100B69D010005
:10170000C99D0100E99D01002DE9F84304460068E8
:1017100011F0ACFFE668277A2061F304D0E9019864
:10172000054606D516F4406F03D0F00748BF86F48F
:10173000E0566B6832461B6839462846984720BBFE
:10174000D8F800200123F10703FA07F34CBF1A432E
:101750009A4316F4C04FC8F800201CD0D9F81820BE
:10176000CAB13004696826F4002205D5A86800686B
:10177000034218BF82F4C0228E6902F4C0233946A6
:1017800002F4B0322846B04728B10146D4E901320C
:10179000044813F0CAF9217A20690022BDE8F84311
:1017A00013F07BB8F79D01002DE9F041364F374E1D
:1017B00090B00446DFF8E08063685B6C53B120466C
:1017C000984738B163681B6C23B12046984708B12D
:1017D0003B7813B110B0BDE8F08163685B6B13B365
:1017E00020469847F8B1D6E900123369914296BF76
:1017F0005B1801F1FF3303F1FF339A1A63689D69A7
:10180000402A28BF40221DB169462046A847054608
:101810002A466946304613F05DFCA84203DA291ACD
:10182000404613F082F963685B6A002BC4D02046FF
:1018300098470028BED04FF02003EFF3118883F3C0
:101840001188BFF36F8F40226946114813F09AFC4C
:10185000054688F31188BFF36F8F30B963681B6A40
:10186000002BA7D020469847A4E763685B6923B1A3
:10187000024669462046984703469D429ADD054840
:10188000E91A13F052F995E7367A0020BC100020CF
:10189000E0100020319E0100229E010008B507489B
:1018A00013F043F9064811F0E1FE064B186020B929
:1018B000BDE80840044813F038B908BD409E010057
:1018C0004A9E010090000020549E010010B50020A7
:1018D00002F0DCF80446054813F027F924B1BDE80E
:1018E0001040034813F021B910BD00BF6E9E0100E7
:1018F000789E010037B500232D482E4D019313F03B
:1019000014F92C462868436823B11B6D13B101AA52
:1019100004219847019B1BB9642012F0B9FCF1E740
:10192000254813F002F920684368DB6C002B32D0A5
:10193000082101229847014610B1204813F0F5F81C
:1019400020684368DB6C4BB31021012298470146A5
:1019500010B11B4813F0E9F81A4817F0ECFA2068A8
:101960004368F3B11B6DE3B101216A469847014614
:10197000D0B1154813F0D9F82268536823B19B6C95
:1019800013B1124910469847206843689B6A03B117
:10199000984703B030BD6FF02201CEE76FF022010F
:1019A000D7E76FF02201E4E700990948E2E700BFBA
:1019B0008E9E0100900000209B9E0100A39E0100CE
:1019C000C29E010040420F00E19E0100A9170000E5
:1019D000059F010070B5154B154C1B68154ADB6857
:1019E0002678C0B0FF2100256846257005F0B8F9BB
:1019F00011480BF0C3F80146104813F096F86846FA
:101A00000BF07EFA01460E4813F08FF80A4869463B
:101A10000BF064F8021E05DA0A48694613F085F8EF
:101A200040B070BD084B26701D70F9E798BB0020D0
:101A3000377A0020589C0100940000201C9F010070
:101A40002A9F01005D9D0100F051002010B50A465B
:101A50004FF02003EFF3118483F31188BFF36F8FEE
:101A60000146064813F036FB84F31188BFF36F8FED
:101A7000034B1868BDE8104012F049BFE010002089
:101A8000900000200FB437B5114C06AB402153F83D
:101A9000042B0193204605F093F902464FF02003F2
:101AA000EFF3118583F31188BFF36F8F0948214647
:101AB00013F010FB85F31188BFF36F8F064B186886
:101AC00012F025FF03B0BDE8304004B0704700BFFE
:101AD000AF410020E01000209000002000B5134B23
:101AE000134A1B68C5B0CDE90010DB68FF2104A8CC
:101AF00005F036F904A902A80AF0F0FF021E06DA82
:101B00000C4804A9FFF7BEFF45B05DF804FB0422B2
:101B10000DEB020102A80BF071F80422694602A83D
:101B20000BF06CF802A80BF029F8EDE798BB002049
:101B3000399F01005D9D010030B5124B124A1B68B0
:101B4000C3B0DB6805460C4602A8FF2105F008F982
:101B500002A968460AF0C2FF021E05DA0B4802A974
:101B6000FFF790FF43B030BD2946042268460BF0D2
:101B700027F80422214668460BF022F868460AF04E
:101B8000FDFFEFE798BB0020399F01005D9D01003C
:101B90002DE9F047E2B002AF80220021384614F070
:101BA00077FA2C4B2C4A1B78002B2C4B1B684FF0E0
:101BB000FF01DB6822A814BF2024642405F0D0F8BC
:101BC00022A968460AF08AFF021E06DA244822A9E2
:101BD00012F0ABFF62B0BDE8F0872248DFF89490C6
:101BE000114612F0A2FF0026B0462246394668464A
:101BF0000AF0E6FF50B968460BF03CF868460AF078
:101C0000BDFF19483146FFF73DFFE3E7844207F87F
:101C10000080EAD14FF02003EFF3118A83F311889B
:101C2000BFF36F8F22463946484613F053FA0546F4
:101C30008AF31188BFF36F8F0C4B186812F067FEA0
:101C4000AC4204DD0A4822462946FFF71BFF2E441A
:101C5000CBE700BF5DC10020589C010098BB00206D
:101C60005D9D0100459F0100839F010090000020C1
:101C7000599F0100E010002070B5184B184D1B78DB
:101C8000184990B0002B4FF48052284614BF2026EC
:101C9000642613F077FA082204460021A818C5E943
:101CA000001114F0F5F994FBF6F20E490E48724358
:101CB0000AF0A4FF04460C480AF0FAFF0B4B0C494B
:101CC0001A6822441A600B4B68461B6805F060F8DE
:101CD00001466846FFF7BAFE10B070BD5DC1002036
:101CE000A0100020F041002094000020A41100204A
:101CF000949F0100A01100202DE9F0471E4B1F4DBD
:101D00001E682B68B3421ED017F060F94FF47A7248
:101D10000B46A0FB020102FB0311C30B43EA414344
:101D20001749DFF868900C68164FDFF864801C1BB9
:101D3000154BB4FBF2F41B681C443C23B4FBF3F4D6
:101D40002B68B34201D8BDE8F08706F03F0109EBEC
:101D500081118B68A342F6D2402238460AF04EFF2A
:101D6000824638460AF0A4FFD8F800305344C8F839
:101D700000300136E4E700BFFC1000208C0000209A
:101D8000DC100020940000209C1000209C0000200B
:101D9000A4110020F0B5A0F1620395B00146182B04
:101DA00000F2F780DFE813F09D005B0041003E0089
:101DB00090005500F5004500E60069007C00F50044
:101DC000A2001B00F100F30072008700B100A70021
:101DD000200082001D001900770000F043FB15B0C1
:101DE000F0BD00F059FBFAE76C4D002403AB191964
:101DF0000122284613F0C6F90444012CF6DD674D94
:101E0000002404AB19190122284613F0BBF904443D
:101E1000012CF6DD624BBDF80C201A81BDF81020B4
:101E20005A81DCE75F4B012201E05E4B00221A7011
:101E3000D5E75D4B5D4A1B7801935D4B59491B7893
:101E400000935C4B12781B7809785B48FFF71AFE09
:101E5000C5E75A4812F069FEFFF79AFEBFE75848F7
:101E600012F063FEFFF7B6FD564A57480023136091
:101E7000564A136012F059FEB1E7554812F055FE6C
:101E8000544A137883F001031370A8E7524812F004
:101E90004CFE464BC7E7514812F047FE434BC5E79F
:101EA0004F4812F042FEFFF7B7FA98E74D4812F09C
:101EB0003CFE3F4BB7E74C4812F037FE3C4B00224C
:101EC0001A70FFF7D9FE8AE7404B3E4A1B6812683A
:101ED000464904A804F05CFF014604A8FFF7B6FDDC
:101EE0007DE7434812F021FE324B9CE7414812F057
:101EF0001CFE304B9AE704A903A8FFF71DFEDDE99D
:101F000003123D48FFF7BEFD69E73C4812F00DFEA5
:101F100017F05CF84FF47A730A46A0FB030103FB49
:101F20000211374E1D4FC30B43EA4144002571197E
:101F30000122384613F026F90544032DF7DD3168F8
:101F40002046FFF7CBFD2F4B1C603368049304A899
:101F50000023059305F02CF80268C2F13C03002B26
:101F6000D8BFC2F178034FF47A7202FB0343264ACA
:101F7000136034E70A4B254819895A89FFF782FD17
:101F800023484021FFF77EFD29E7074B4EE7064B2C
:101F900049E7204812F0C9FD21E700BFBC1000202E
:101FA0009CBB0020357A00205CC10020347A0020E0
:101FB000377A00205DC10020C79F010001A0010009
:101FC00008A00100A41100200FA00100A011002012
:101FD0001BA00100337A002022A0010029A00100EB
:101FE00030A0010037A001003EA00100A29F010027
:101FF00045A001004CA0010053A001005BA001001E
:102000009C100020DC100020D810002062A00100ED
:1020100080A001009DA001002DE9F3413B483C4E0A
:102020003C4CFFF771FB3A48FFF76EFB3948FFF76E
:102030006BFB3948FFF768FB0525344812F056FC66
:10204000304612F053FC204612F050FC324812F099
:102050004DFC013DF1D1314C314EFFF7ADF91C2261
:102060002946204614F014F84FF480682D4B636124
:1020700040F2FF371C2229463046C4F81080A76181
:1020800014F006F8284BC6F81080C6E90537274E2D
:102090001C222946304613F0FBFF4FF400533361F6
:1020A000234B736141F6FF73B361FFF733FA1748AF
:1020B00012F01CFC154812F019FC144812F016FC22
:1020C000124812F013FC114812F010FCFFF750F800
:1020D00000F0C8F9FFF7E2FBFFF7F8FBFFF70AFC97
:1020E000144B01221A7001220DF10701204613F052
:1020F00049F830B9FFF700FE4FF4FA6012F0C8F863
:10210000F1E79DF80700FFF745FEECE728BB00204C
:102110003CBB002050BB002064BB0020BC10002052
:10212000E0100020F1710020F1750020A0100020C7
:10213000F1510020EF41002070B503788AB00446C9
:102140000E4607AD032B20D8DFE803F002191B1D54
:102150001149284613F014FF63780493A37803937E
:10216000E378029323790193637900930B4AA3796F
:1021700005951221304612F0E5FC0AB070BD084901
:10218000E7E70849E5E70849E3E7084A0A2128465E
:1021900012F0D8FCE0E700BFF1A0010013A101009C
:1021A000F8A00100FFA0010009A1010028A801007A
:1021B0001FB504AB03E90300BDF80C3001939DF893
:1021C000083000939DF80B209DF80A309DF8091007
:1021D0000248FFF757FC05B05DF804FB36A101008B
:1021E000F8B50C4B1C6805460E467CB10A4F013C05
:1021F00004F03F0307EB83108368B34206D3062243
:10220000294613F00AFF18B1013CF1D54FF0FF3415
:102210002046F8BD8C0000209C0000202DE9F04FE6
:1022200095B0002583460F469846ADF8005016F04D
:10223000CDFE4FF47A730A46A0FB030103FB0211A3
:10224000C40B44EA414402A801A905F077FD0199B5
:102250007648774EFFF716FC019BAB4200F3A08057
:1022600005F068FD01467348DFF8F0A1FFF70AFCAE
:1022700004A95846FFF760FF6F4804A9FFF702FC66
:102280006E496A46404605F077FB7F426C4812F083
:102290002DFBFFB29AF800106A484FFA87F94A46B8
:1022A0002531FFF7EFFB684B684A1E681568C6F5D5
:1022B0006A4660364FF47A732644651BB6FBF3F624
:1022C000B5FBF3F5624B1C680BF1010B3C23254475
:1022D0005846B5FBF3F52946FFF782FF0146044651
:1022E0005C48FFF7CFFB002C5B49F6B266DADFF8FB
:1022F0007091D9F8003003F03F0301EB83140622FC
:102300005946204613F099FE9AF80020062303FB55
:102310000242012382F82D300023138682F82F70A9
:1023200082F82E7082F82C70A671E671A560D06AD2
:10233000118EFFF73DFFD9F800300133C9F80030A6
:1023400094F83E3003F00302032A26D0D8F8001098
:102350008D7903F001032B430BD110220A3104F1D4
:102360000C0013F06AFE94F83E3043F0010384F849
:102370003E3094F83E309B070FD4012D0DD1D8F894
:10238000001010220A3104F11C0013F056FE94F8DC
:102390003E3043F0020384F83E3015B0BDE8F08FC4
:1023A00002ABC5EBC50004A91844FFF7C5FE2946DA
:1023B00004AA3046FFF766FB01354DE701EB8414B4
:1023C0009AF80010062202FB014002FB014290F83D
:1023D0002D3090F82FC00133E145DBB2C8BF80F843
:1023E0002F7080F82D3092F82F008145B8BF82F809
:1023F0002E70062202FB014191F82C70A9EB070018
:1024000000EB530292FBF3F3DA1981F82C20A9EBCD
:1024100002090A8E09FB0029A1F83090E671A56037
:10242000C86A098EFFF7C4FE8AE700BF46A1010013
:1024300055A1010060A101006AA101001949010034
:102440003CBB00206FA10100D8100020DC10002050
:102450009C10002081A101009C000020317A002006
:102460008C0000200849094808B506F001F901462A
:1024700020B1BDE80840064812F057BBBDE808404F
:10248000044812F052BB00BF1D2200009CBB00207C
:102490008AA10100ADA1010008B506F09FF901462F
:1024A00020B1BDE80840044812F03FBBBDE8084039
:1024B000024812F03ABB00BFBBA10100DAA1010043
:1024C000C26808B542B1074B82689B689A4206D140
:1024D00011F070FB002008BD6FF01500FBE74FF016
:1024E000FF30F8E7E84000202DE9F04F85B09B462B
:1024F0000E9CDFF89090012CB8BF0124012B0CBF7B
:1025000030232023154606468A46029301274FF0C2
:102510000A080022B5FBF9F301930AB9A9451FD8AF
:10252000019B514603F13000B04701370122019B66
:1025300008F1FF38B8F1010F09FB13554FF00A03FA
:10254000B9FBF3F9E6D1514605F13000B047BBF1D4
:10255000030F02D1E41B002C0EDC05B0BDE8F08FA8
:102560004445E4DBBBF1020FE1D8029803925146E7
:10257000B0470137039ADAE751462020B047013CC3
:10258000E9E700BF00CA9A3B014B1860704700BFE3
:10259000B0BC00202DE9F04F8DB01C460027531E23
:1025A00005468B4603934FF0FF39B846002605E0F9
:1025B0006EB9252800F071815946A847039B13F88E
:1025C000010F03930028F3D10DB0BDE8F08F7A28F6
:1025D0000AD8622810D8302854D045D8252800F0D1
:1025E0005A812D2800F05F8159462520A847039B7A
:1025F00018785946A847D9E7A0F16303172BF3D8F9
:1026000001A252F823F000BF8F280000D32600005B
:10261000E9250000E9250000E9250000B5260000B5
:10262000D3260000E9250000E9250000B5260000BA
:10263000E9250000E9250000E925000075270000D4
:10264000E9250000E92500005F280000E9250000D9
:1026500043270000E9250000E9250000712600005D
:10266000E9250000B526000039281AD95828BBD121
:10267000039B1B78702B40F0888054F8043B069332
:10268000002290E0B9F1000F0EDAB8F1000F00F06F
:102690000D81A0F13009B8F1000F08BF4FF002081A
:1026A0008CE7B9F1000FF4DB0A2303FB0909A9F158
:1026B0003009F0E7682803D1682F06D148277DE765
:1026C0006C2802D16C2F00F0F480002F8CD10746CB
:1026D00074E77A2F02D154F8046B21E06C2FFAD002
:1026E0004C2FF8D1073424F00704F4E80223CDE995
:1026F0000423049B13F10041059B089143F1000161
:102700000991DDE9082300214FF0FF30994208BF0D
:10271000904204D25946284612F0E6F946E7049E54
:10272000002E05DA59462D20A847764209F1FF39D7
:10273000CDF800904346324659462846FFF7D4FE6E
:1027400034E77A2F02D154F8042B0FE06C2FFAD023
:102750004C2FF8D1073424F00704F4E802230021B9
:102760004FF0FF30994208BF9042D3D3CDF800908C
:102770004346E1E759463020A84759467820A84704
:102780004FF008094FF0010872E76C2F3FF475AF66
:102790004C2F7FF472AFE31D23F007031C4654F85F
:1027A000082B06925A6800211023049107914FF0DC
:1027B000400AAAF1040A0699CAF1200EAAF1200CD7
:1027C00021FA0AF002FA0EFE40EA0E0022FA0CFC90
:1027D00040EA0C0010F00F0007D1079911B9BAF1C7
:1027E000000F25D14FF0300C05E009288CBF4FF0C9
:1027F000570C4FF0300C6044594640B20A92079390
:10280000A847049B0A9A01330493079BBAF1000F6F
:1028100023D1B8F1030F7FF4C9AE049BC3EB490683
:10282000002E7FF7C3AE59462020A847013EF7E7A8
:10283000591E99450A9107DBB8F1010F06D10B9299
:1028400059463020A8470B9A0A9BB2E7B8F1020F0D
:10285000FAD10B9259462020F4E70796A9E754F8DD
:10286000046BB24653461AF8010B68B9B8F1030F6E
:1028700021D19E1BA9EB0606002E7FF797AE594685
:102880002020A847013EF7E75946A847EAE754F851
:10289000040B5946AEE65946ACE63746B0464FF013
:1028A000FF3901268AE64FF0030887E64FF001085A
:1028B00084E64C2782E6064680E600BF30B585B048
:1028C000CDE90101044600250548039501A9FFF75C
:1028D00061FEDDE902309842B8BF255405B030BD35
:1028E000054B010030B50E490E4887B0002216F0A6
:1028F00096FB0D4D0D4900240E23CDE90243CDE991
:102900000444CDE900440A4B4FF44072284611F0CC
:1029100073FD0849284616F010FB204607B030BD6D
:1029200039290000BC11002004120020E08B002097
:10293000452D0000E8A10100014811F0D7BC00BFFF
:1029400044C3002008B500F05DFA094812F03AFCD3
:10295000042328220749084816F083F8074B084A41
:102960001A604FF40040BDE8084000F08FBC00BF83
:10297000B411002060B00020E8110020B4BC002099
:1029800003520100F8B50F4BBFF35B8F002553E8EE
:10299000007F43E80052002AF9D1BFF35B8F0A4C55
:1029A0000A4E361B3611B54200DBF8BD63685B7911
:1029B0002BB12368DB6813B13946204698470135AF
:1029C0001034F0E7AC1100208C960100AC960100A9
:1029D000064BBFF35B8F53E8002F013243E8002121
:1029E0000029F8D1BFF35B8F704700BFAC11002006
:1029F000044A054B9B1AB1EBD30F34BF52F8310098
:102A0000002070476C9501008C960100094B4268CC
:102A1000C31A1B11013310B513714368064C1960BA
:102A200001225A71227812B9044811F05FFC012387
:102A3000237010BD8C960100387A002044C300201A
:102A400070B5114BBFF35B8F53E8005F6A1C43E81E
:102A500000210029F8D1BFF35B8F2DB90B4C0C4E30
:102A6000361B3611B54200DB70BD237B43B12368B2
:102A70005B6903B19847042200212046FFF7C6FF97
:102A800001351034EEE700BFB01100208C96010034
:102A9000AC960100164B984237B5044602D3154B4D
:102AA00098421FD31448002201A910F0A5FF054643
:102AB000D8B90122019BBFF35B8F53E8001F43E8A5
:102AC00000200028F9D1BFF35B8F019821461F2217
:102AD000043013F05FFA019C7E2384F8233084F8DD
:102AE00024500434204603B030BD044CFAE700BF44
:102AF000C0920100CCC20100E8110020F0A1010049
:102B000048B1054B984205D3A03398422CBF002012
:102B1000012070470020704760B000202DE9F04F81
:102B20004C4B1B7885B0044603B960B34FF02003CB
:102B3000EFF3118683F31188BFF36F8F464812F0CD
:102B400051FB054686F31188BFF36F8F78B1BFF351
:102B50005B8F424B53E8002F013A43E800210029E4
:102B6000F8D1BFF35B8F94B1284612F069FC24B909
:102B70003B4B1B680BB1FFF705FF374812F030FBEA
:102B8000041E18BF0124204605B0BDE8F08F354B68
:102B90001B78CBB92B7ADB0716D412F064FC804685
:102BA000284612F02BFC0146404612F02EFB2E4F19
:102BB0002E4BDFF8D4B0DB1BDB0803932C4BDB1B65
:102BC00006464FEAD30A36B92A4E2B4FBF1B3F1198
:102BD0004FF000083AE0B6FA86F1C1F11F09494604
:102BE000284612F00EFC254B9842014602D3244B96
:102BF00098421AD30846FFF783FF0246A8B9214B33
:102C0000994212D06B890399C3F389138B4238BF61
:102C100057F833204FEA8A1343F00103ADF8003030
:102C200049464346584612F04AFB012101FA09F190
:102C300026EA0106C7E773685B7923B13368294642
:102C40001B683046984708F101081036B845F2DB9A
:102C50008AE700BF387A0020B4110020A8110020B4
:102C6000AC110020397A00206C9501008C9601008F
:102C7000149601008C960100AC960100C0920100F0
:102C8000CCC20100F0A101000AA20100264B70B5E0
:102C90001B68418104469847244DE060BFF35B8F79
:102CA00055E8003F013345E80032002AF8D1BFF370
:102CB0005B8F4FF02003EFF3118683F31188BFF38E
:102CC0006F8F1B48214612F081FA86F31188BFF3FB
:102CD0006F8F184B1A787AB14FF02003EFF31184FD
:102CE00083F31188BFF36F8F0020FFF717FF84F382
:102CF0001188BFF36F8F70BD0F492B6809680029D9
:102D0000F9D0012B06D10D48BDE870404FF47A711F
:102D100011F02CBD0A2BEED1084816F08CF90848AA
:102D2000BDE8704011F0E2BAB4BC0020A811002048
:102D3000B4110020397A002078120020BC11002044
:102D400044C3002008B5FFF77BFE11F0C9FA0B4B16
:102D5000186030B10A4B1B68092B02DD094811F0DD
:102D6000C5FA084C0020FFF7D9FE0028FAD14FF031
:102D7000FF31204611F0E0FAF4E700BF781200209E
:102D8000A811002044C30020F8B50E4F3D7875B956
:102D90000D4C0E4EFFF754FE361B3611B54207DBC5
:102DA0000020FFF7BBFE0028FAD101233B70F8BDDD
:102DB00063685B791BB1236820461B69984701351E
:102DC0001034EBE7397A00208C960100AC960100B4
:102DD00007B504380190BFF35B8F50E8003F5A1EDF
:102DE00040E800210029F8D1BFF35B8F012B03D10C
:102DF000034801A910F02CFE03B05DF804FB00BFEE
:102E0000E81100202023024902481A4615F029BE85
:102E100000B100207C12002037B50023094D01933A
:102E20000120FFF77BFE0446FFF7D2FD002201A937
:102E3000284610F0E1FD08B1002CF1D1019803B053
:102E400030BD00BF7C12002007B500220648019269
:102E500001A910F0D1FD10B1FFF7DEFF019001983C
:102E600003B05DF804FB00BF7C120020F0B5037ACC
:102E7000457A85B02D090190D8071CD4DDB1002416
:102E800026460198314612F0BCFA0746FFF738FE95
:102E900070B134B9019B2946186912F0B6F904469D
:102EA00048B124FA06F3D90702D53846FFF790FF58
:102EB0000136AE42E5D3019B1A7A920704D55B69CD
:102EC000084C0393039B2BB9064801A910F0C0FDE1
:102ED00005B0F0BD1D6803A9204610F0B9FD0395AB
:102EE000F0E700BF7C1200200EB403B503AB01462F
:102EF00053F8042B04480193FFF74CFB002002B069
:102F00005DF804EB03B07047B55801002DE9F04FB0
:102F100085B011F0020490469DF8387006461A46B6
:102F200001F0010901F0080507D011F0440F37D175
:102F30003249FFF7D9FF01460C46B9F1000F0AD01C
:102F40002F4B304953F827202F4B3046002A08BF1B
:102F50001A46FFF7C9FF3DB12C4B2D4953F82720E6
:102F60003046FFF7C1FF0546B8F1000F43D00123FB
:102F700003FA07F7274B17F0100F274F18BF1F460C
:102F8000BDF840109DF83C00FFF732FD394602467F
:102F90003046FFF7A9FF2844204405B0BDE8F08F74
:102FA0001E4B19680029C7D01D4B4FF4616E1B687A
:102FB000B2FBF3F34FF47A7CB3FBF1F4B4FBFEF213
:102FC0000EFB124E01FB14340CFB04F44FF03C0AD0
:102FD000B4FBF1FB01FB1B440CFB04F4BEFBFAF356
:102FE000B4FBF1F1CDE901B10AFB13E100910D4908
:102FF000FFF77AFF9FE7084FC2E700BF5BA201001F
:10300000289701009DBD01004DA201003C970100E1
:1030100080A2010057A2010052A2010098120020D4
:103020009C12002064A2010038B50C46E107054659
:1030300003D5084A0849FFF757FFE20608D4A3065C
:1030400028464CBF05490649BDE83840FFF74CBF4C
:1030500038BD00BF4DA201009DBD0100E09C0100F4
:1030600086A201002DE9F0471D46089B1746DA06A7
:1030700004460E4605D499064CBF2A492A49FFF753
:1030800033FFDFF8AC904FF00008A8452ADBDFF8EB
:10309000A480DFF8A490DFF898A00025BD422FD2CD
:1030A000725D49462046FFF71FFF0135102D20D1E4
:1030B0001E49DFF87C80DFF884902046FFF714FF7C
:1030C0000025AF4228D9725DA2F120035F2B28BFF3
:1030D0002E2249462046FFF707FF0135102D14D157
:1030E000BDE8F08749462046FFF7FEFE08F10108DB
:1030F000CBE76A07D2D151462046FFF7F5FECDE770
:1031000041462046FFF7F0FECFE76B07D9D1414695
:103110002046FFF7E9FED4E741462046FFF7E4FEEC
:10312000DBE700BFE09C010086A2010093A2010042
:1031300091A201008FA2010089A2010095A20100C5
:103140002DE9F0478B7A13F0070817468AB00A7A00
:1031500005460E4621D04989C3F3C203C1F3891144
:10316000D243CDE900830291F36802F001023946AF
:10317000FFF7CCFE8146347AE44314F001040ED00C
:103180002946304612F02CFAB8F1000F2BD04246F7
:1031900039462846FFF748FF25E0C146EBE7B8F17E
:1031A000000F26D12746EB68069306AA3B46A9687E
:1031B000304612F001FA069A6B681A603AB1AB68B1
:1031C000134413F8014CA4F10A035C425C41284605
:1031D00012F063FB069B1F44002BE4D11CB1144981
:1031E0002846FFF781FE284612F057FB0AB0BDE8DB
:1031F000F087304612F037F90E4902462846FFF7AD
:1032000073FE4FF0100A05AA234606A93046CDF8F2
:1032100014A012F0D1F9059A002AB8D04B460097B5
:1032200006A92846FFF71EFF059B1C44EBE700BFDD
:1032300098A201009DBD010073B5D0E900435D680F
:103240000F4A42F20F738B4228BF0B466846052196
:1032500003F086FD2B4606460A4920460B2212F053
:10326000B2F92B4632466946204612F0ACF90649BF
:103270002B461B22204612F0A6F902B070BD00BFFB
:103280007BA70100D2A20100B6A20100084A10B536
:103290000123084C13600021A04204D801B113603F
:1032A000054B186010BD40085B000121F4E700BF2A
:1032B0009C12002040420F0098120020014812F09A
:1032C000ECBA00BF689701000148FFF7B5BF00BF27
:1032D0006897010008B5034810F0C8F9024B586020
:1032E00008BD00BFDEA20100A812002010B50846EC
:1032F0000C4612F076F8054821460F22FFF720FF12
:103300002046BDE8104012F09BB800BF689701004E
:10331000014B01221A7070474B7A002008B5034810
:1033200012F0BBFA024B01221A7008BD90970100FF
:103330004C7A00200148FFF77FBF00BF9097010043
:1033400010B508460C4612F04CF8054821460F22ED
:10335000FFF7F6FE2046BDE8104012F071B800BF3E
:1033600090970100044B1B781BB141F2883015F097
:10337000E2BD052010F08CBF4C7A00202DE9F84FFB
:10338000DFF88C90DFF88CB007460E460424CA465E
:1033900099F8003023B94FF0FF31584610F098FBF0
:1033A00032463946002002F0BFFA9AF800308046D3
:1033B00013B9584610F0FEFB144DB8F1000F18D0A9
:1033C00001232B709AF8003033B93046BDE8F88FEE
:1033D0005CB92C704FF0FF34002002F025FB002870
:1033E000F3D02B78002BF3D1EFE7013CFFF7BAFFC6
:1033F000F2E72B7813B1013C04D12C702B78002B11
:10340000C6D1E2E7FFF7AEFFF8E700BF4B7A002036
:103410004C7A00209CC30020F0B5104B104C114D8D
:10342000E41AA4106C43104DD5F824C00025A54221
:1034300002D16FF02200F0BD5F6867450AD31E69B4
:1034400046B197F802E00779BE4503D13346BDE89F
:10345000F040184701352433E9E700BFECC40020F1
:1034600010C50020398EE338C8120020F0B5104B8B
:10347000104C114DE41AA4106C43104DD5F824C023
:103480000025A54202D16FF02200F0BD5F686745BC
:103490000AD39E6946B197F802E08788BE4503D1FA
:1034A0003346BDE8F040184701352433E9E700BF53
:1034B000ECC4002010C50020398EE338C81200206B
:1034C0002DE9F8430F4C104B17461B1B0F4A9B105E
:1034D00005460E4602FB03F94FF00008C14502D134
:1034E0006FF022000BE063691BB908F10108243476
:1034F000F4E73A463146284698470028F5D1BDE81A
:10350000F88300BFECC4002010C50020398EE338DA
:1035100007B583788DF800300379427943EA0223B6
:10352000ADF80230C378684603F003038DF8043029
:1035300001F0A8FE10F1450F9DF800100ED068B103
:10354000124A134B1348D21AD208920142F00102D8
:1035500011F088FE002003B05DF804FB084601F07E
:103560002BFF10F1450F0BD050B1084A084B9DF8C6
:1035700000100948D21AD208920142F00102E7E78E
:10358000064B012083F8B900E5E700BF74960100FF
:103590006C95010006A301002AA30100C8120020B7
:1035A0002DE9F14F254B264C264F1B1B9B105F43EB
:1035B000031F012B05460E4625D8234B93F8B9204F
:1035C000984602B300F012FE042D1CD14FF0000902
:1035D0004F4515D0D4F820B04FF0000A227F5FFA93
:1035E0008AF39A4203D809F101092434F0E70BEB7E
:1035F000C3030AF1010A187901F000FF0028EDDA8F
:10360000002388F8B9300E4C4FF00008B84508D1B7
:103610000D4B1B6A7BB13146284601B0BDE8F04F27
:103620001847E3681BB1324629462046984708F1FF
:1036300001082434EAE701B0BDE8F08F10C500208E
:10364000ECC40020398EE338C81200202DE9F04F79
:10365000974CA36985B007460D4616468BB997F877
:10366000008008F01F08B8F1010F00F08A80B8F15F
:10367000020F00F0E380B8F1000F08D06FF01500E2
:1036800002E098470028EAD105B0BDE8F08F7A78CB
:1036900078883368092AF1D801A151F822F000BFD7
:1036A000C93600007D3600007D3600007D36000002
:1036B0007D360000D5360000DF3600007D36000084
:1036C0000D370000173700000020187058700223D3
:1036D0002B60D9E7C0B201F095FD0020D4E7020AC3
:1036E000131F012BCAD9072AC8D8636AC0B20021A8
:1036F0001C78002CC2D05F78974203D1884200F03A
:10370000CF8001312344F3E71B78CEE094F8BA2050
:103710001A700123C9E0C7B28DF80F7077B14FF06E
:10372000FF08656A0026C1462B7853B9E3691BB1CF
:103730000DF10F0103209847002E9FD084F8BA7036
:10374000CBE76B78042B0DD0052B0ED0022B06D1C6
:1037500095F805809DF80F30434508BF01262B786A
:103760001D44E1E795F80390F9E79DF80F304345D4
:10377000F5D1B9F1000FF2D12846FFF7C9FE064690
:10378000EDE7787833680A2805D00B2808D00028A0
:103790007FF474AF99E700201870C5F8008073E7D4
:1037A000444A45493B790093521AD2089201FF26B8
:1037B00042F00103D4F824B097F802A00193B04678
:1037C00000279BF800203AB9E36913B13946072076
:1037D00098470020286057E79BF80120042A05D06D
:1037E000052A0ED09BF800209344EAE79BF802607C
:1037F000009B9BF80380B342F4D1C24508BF5F46EB
:10380000F0E7009BB342EDD1C24513D09BF8029084
:10381000484600F0C3FC484601F0F0FD10F1450FAA
:10382000E0D00028DED0BDF804202448494611F03D
:1038300019FDD7E75846FFF76BFED3E7D6F800909F
:103840007E7838798DF80F00012E0CD0032E19D018
:10385000002E7FF413AF494601F094FD89F8016012
:10386000C5F8008039E77D88002D7FF407AF01F0AF
:103870006FFDE369002B3FF430AF0DF10F0109201C
:1038800098472AE77D88002D7FF4F8AE01F02AFDE5
:10389000E369002B3FF421AF0DF10F010820EFE7A2
:1038A000022A33607FF430AF5B882B6015E700BFDE
:1038B000C8120020749601006C9501004BA3010012
:1038C00008B509480378C3F341130A3350F823308D
:1038D0003BB100F1080200F110019847C043C00F4E
:1038E00008BD1846FCE700BFC812002013B50D4CF8
:1038F000237D7BB9E268A168019201AB802012F0C0
:1039000004F80199A268E3680A445B1AA260E360C4
:1039100002B010BD00231A4619468020237501F01D
:103920008BFDF5E7C812002073B500220B4601920B
:10393000054600285DD1344C002935D108222146A6
:1039400012F064FA002804DA802001F0CBFC02B007
:1039500070BDE588802D11D92078C6090ED12B4B7A
:103960002B492C48C91AC908890141F0010111F0FD
:103970006CFC802001F0B6FC3046E6E7264B256162
:10398000C4E902350023237515B12378DB09DED0A5
:10399000FFF796FF0028D7D02369AB42D4BFE3607E
:1039A000E560FFF7A3FFD2E7D4E90212002A01ABDA
:1039B00005DC024612F02AFA0028C8DAC4E712F041
:1039C00025FA002804DA802001F08CFC2846BCE7A8
:1039D0000199A268E3680A445B1AA260E360002BC5
:1039E000B5D104F13803A360FFF76AFF0028D8D1EE
:1039F000AAE78028ABD1044BDA68002AD1D11B7D1D
:103A0000002BCED1A3E700BFC81200206C950100A7
:103A1000749601006DA3010000130020054B064AB7
:103A20009A62064ADA62064A1A63064A58629A613C
:103A300000207047C81200204D36000019340000E5
:103A4000C13400006D3400000C4B10B593F8B84041
:103A50008CB900F0F1F960B9094B0A490A48C91A52
:103A6000C908890141F0010111F0EFFB4FF0FF306F
:103A700010BDFFF7D3FF0020FAE700BFC8120020F7
:103A80006C9501007496010086A301002DE9F743AF
:103A90000446364D36484FF0FF3110F019F895F8CE
:103AA000B860002E42D133482C62E86101F000FE7C
:103AB00001F05CFB041E3ADB00F0BAFB041E36DBAF
:103AC00040236846ADF802308DF804608DF8006040
:103AD00001F0D8FB041E2ADB802768468DF80070B1
:103AE00001F0D0FB041E22DB2349304601F0CEFD5D
:103AF000041E1CDB2049384601F0C8FD041E16DBFD
:103B00001E4C1F4B1F4A1B1B9B1002FB03F9B145A8
:103B100014D1002001F050FC041E08DB802001F0CD
:103B20004BFC041E03DB012385F8B8300024104849
:103B300010F040F8204603B0BDE8F083D4F82080B0
:103B40000027237FFAB2934202D801362434DEE7FD
:103B500008EBC20358F83210187901F097FD0137CD
:103B60000028EED04FF0FF34E1E700BFC81200207C
:103B700088C30020A135000029390000ECC40020D2
:103B800010C50020398EE33830B51C4B89B003AA2C
:103B900003F1100518685968144603C40833AB4292
:103BA0002246F7D11B7823700822002101A812F0C9
:103BB0006FFA12220021124812F06AFA082101A8B5
:103BC00012F033F9002816DD0D4901AA002012F881
:103BD000013B08AC04EB131403F00F0314F8144C6E
:103BE0000C7008AC2344013013F8143C4B700828C7
:103BF00001F10201EBD1024809B030BDB6A30100CA
:103C00004D7A00202DE9F04F7F4A804B804D81494D
:103C10009B1A814A87B09B10002753436D1A0446B4
:103C20000193ED084FF0011BB946B846BA46237818
:103C30004BB97A4AA01C904200F0E380FFF7E2FF04
:103C400007B0BDE8F08F6378052B05D8DFE803F0F7
:103C5000950403950730A24623781C44E7E7E378F0
:103C6000002BF9D1A378C3B9674A1046019999424C
:103C700007D1AA016A4842F00102214611F0F2FA86
:103C80001FE051688C4202F124020BD14FF024084E
:103C900008FB0308D8F8083033B909F101095FFAC5
:103CA00089F9D9E70133E1E7494620469847F4E727
:103CB000B8F1000F5ED1A9015A4841F0010111F09D
:103CC000C4FA4FF0FF30BBE7D8F82020A67802EB0B
:103CD000C3021079864209D0013398F81C20934220
:103CE000F2DBA901504841F00101E8E7012694F810
:103CF00003C094F805E00CF0030C8DF814C094F8A0
:103D000004C04CEA0E2CADF812C094F902C0BCF10C
:103D1000000FF0B225DA06F1100C01FA0CFC1CEAD7
:103D20000B0F23D160F07F008DF8100004A8CDE9BF
:103D3000023201F077FADDE902320121B0B99DF8D3
:103D40001030A37013F0800F137118BF10360B469C
:103D500015BFB34003FA06F64BEA030B4BEA060B1A
:103D60007AE701FA06FC1CEA0B0FDDD00136102EB3
:103D7000BDD1B1E700230121AFE7032F25D1FFF724
:103D800003FF064678B112F026F9029058B1274891
:103D900012F021F9029A824212D0A901244841F07E
:103DA000010111F052FA23786FF00201E218091BA9
:103DB00004EB53030020D14211D50137FFB24BE78A
:103DC0003146A01C12F039F9EDE7002FEBD1BAF122
:103DD000000F0BD1A901174841F001016FE702F86C
:103DE000010C13F8016902F8026DE4E7A4EB0A0381
:103DF0008AF80230C3F307238AF803308AF8049064
:103E0000DBE718461CE700BFECC4002010C500200B
:103E10006C9601006C950100398EE338EBC40020EC
:103E20008DA40100C7A3010008A40100B6A30100EE
:103E300025A4010070A4010008B50948FFF7E2FEBF
:103E400058B1084B08490948C91AC908890141F005
:103E5000010111F0FAF9002008BD0148FCE700BF9C
:103E600030C400206C9501006C960100ADA40100E7
:103E7000014600F10803BFF35B8F53E8002F42F0C7
:103E8000010043E8000CBCF1000FF6D1BFF35B8FDB
:103E9000D30702D4014814F086BE704724410020A5
:103EA0002DE9F34150F8303C10F8345C10330446EF
:103EB00010D1C36850F8282C990747D5FAB913F0E8
:103EC000040304D11A461946284611F01EFD0023AA
:103ED00044F8303C54F8303C10330DD054F8206C8A
:103EE00056B154F8247C54F81C8C15F01EF80028A8
:103EF00058D02046FFF7BCFF02B0BDE8F08150F873
:103F00002C1C01AB284611F000FD014668B12D4A7A
:103F10002D4B2E489B1ADB089B0143F001032A46D8
:103F200011F0B4F96FF01503D2E7019A54F82C3C64
:103F3000134444F82C3C54F8283C9B1A44F8283C81
:103F400054F8243C134444F8243CC3E750F82C1C98
:103F500001AB284601F0F8FA01460028D7D1019EAE
:103F600054F82C3C334444F82C3C54F8283C9B1B1C
:103F700044F8283C54F8243C334444F8243C002EB4
:103F8000A5D0284601F09AFBB6FBF0F303FB1060C6
:103F900000289CD154F8283C002B98D0284601F0EA
:103FA0002BFB97E744F8200CA4F1180010F09EF9C1
:103FB00054F8303C48339FD0424639462846B047F3
:103FC0009AE700BF6C95010084960100DBA4010014
:103FD0000A4A30B50023442404FB03F18D5C85427A
:103FE00007D10A44506810F1100F14BF00200120BF
:103FF00030BD0133042BEFD10020F9E784130020FA
:1040000073B51D4C06460D460023442202FB03F007
:10401000015DB1421CD104446B1E012B16D8E4B9DA
:10402000012D13D101AB01220DF10301304601F046
:104030008BFA019B002BF5D11049114B1148C91A7D
:10404000C908890141F0010111F0FFF802B070BD0B
:104050000133042BDAD10024DEE714F066FF0346B7
:1040600004F134000BB1012D02D1FFF719FFEDE788
:10407000FFF7FEFEEAE700BF8413002084960100EC
:104080006C950100F8A401002DE9F74F0546009159
:10409000904699464FF02003EFF3118283F3118885
:1040A000BFF36F8FDFF8F0B001920024442707FBC5
:1040B00004F60021584610F03FF9F0B9314F07EBF4
:1040C000060ADAF8044014F1100F28D12E492F4ABD
:1040D0002F48521AD208920142F00102294611F0EB
:1040E000C1F8584610F002F9019B83F31188BFF321
:1040F0006F8F204603B0BDE8F08F0134042C0BF124
:10410000440BD4D1204B21492248C91AC90889013E
:1041100041F0010111F099F86FF00B04E4E7009B06
:10412000CAF81000CAE902380C9BCAF814300D9B7B
:10413000CAF818306FF00F03BD55CAF84090CAF89E
:104140000430284601F0BAFA68B1284601F0B6FA00
:10415000B8FBF0F202FB108028B1DAF8403043F0EF
:104160000403CAF8403019F0020F06D006F13400FB
:104170003844FFF77DFE0024B6E7284601F03CFAFC
:104180000446B1E7841300206C9501008496010079
:1041900012A501003BA50100A013002070B54FF04F
:1041A0002003EFF3118483F31188BFF36F8F0E495F
:1041B0000022442505FB02F35E5C86420BD1CA183F
:1041C000506810300AD16FF0470034335060C8187F
:1041D000FFF74EFE02E00132042AEBD184F311888E
:1041E000BFF36F8F70BD00BF84130020F8B50F4C74
:1041F00000256FF047074FF02003EFF3118683F39C
:104200001188BFF36F8F6368103304D104F1340059
:104210006760FFF72DFE86F31188BFF36F8F0135BE
:10422000042D04F14404E6D1F8BD00BF841300203E
:10423000F8B50025094C0A4F2E46C4E90D67E66320
:10424000012204F11C001146013514F05EFE042D1C
:1042500004F14404F1D10020F8BD00BF8413002014
:10426000A13E00007FB5436E1B689B681B6A1E7DE4
:1042700005463046FFF7ACFED0B9686D4FF480625A
:1042800003A910F046FF044690B18306A5F1180378
:1042900008BF00F1FF340193064B039900932246B7
:1042A00002233046FFF7F0FE686D214610F055FFFF
:1042B00004B070BD6D46000070B504460E4601792D
:1042C0001648154611F049FB68B9154B154A1648B2
:1042D000A188D21AD208920142F0020210F0C2FF65
:1042E0006FF0120070BD6378212B0ED0222B08D006
:1042F000202B0FD1296807220C3811F09EFE0020D8
:10430000F0E7638800F8053CF9E70C3807232860DC
:104310003360F4E76FF01500E4E700BF9414002069
:104320006C9501006496010063A5010010B501467B
:1043300004460A4811F023FB60B9094A094B0A48B0
:10434000D21AD2089201214642F00202BDE8104082
:1043500010F088BF012300F8033C10BD9414002026
:10436000649601006C9501008AA5010030B50368D0
:1043700085689A68104C85B042F2A1004FF4003372
:10438000CDE90103002385F87930106AADF80C10EF
:1043900000790A2201A911F0B8FA95F8793013B121
:1043A000002005B030BD012014F0C5FD013CF4D162
:1043B0006FF00400F5E700BFA186010010B5846826
:1043C0000023C4F880300D4BE067596804F1800287
:1043D00089B9C3E900224FF0FF320021084814F0E8
:1043E00094FD084B0020C4E90430074BE060C4E9A9
:1043F0000730A06110BD0A605A60ECE794140020F9
:104400009C140020C559010065420000014600F1DE
:104410000803BFF35B8F53E8002F42F0010043E82D
:10442000000CBCF1000FF6D1BFF35B8FD30702D4B1
:10443000014814F0B8BB704724410020F7B50D1EA9
:104440000646144602F1280711DDA06E2A463946B9
:1044500010F040FE85420AD9104A114BD21AD208F8
:104460009201291A42F001020E4810F0FBFE0123CE
:1044700084F82530636833B194F827301BB104F118
:104480000C00FFF7C3FF084B009301940123402267
:1044900039463046FFF7F8FD03B0F0BD64960100E1
:1044A0006C950100B0A501003D44000010B5044624
:1044B0000C480FF01BFF0C4B002118689A889B7961
:1044C0002067A4F87420616284F8763084F878104C
:1044D00084F8771004F128004022BDE8104011F064
:1044E000D7BD00BF9C1400200097010070B50646A0
:1044F0000D460146314811F020FA044660B9304AB1
:10450000304B3148D21AD2089201314642F00202B1
:10451000BDE8704010F0A6BE06460A2D56F87C395C
:104520001B689B6848D0072D46D000F87C5C013D95
:10453000052D41D8DFE805F02640031C2B341B6A0B
:104540000021187B3246FFF779FF01231C4904F84C
:10455000583C04F8563C04F8553C1A4B1B48C91A01
:10456000C908890141F00301BDE8704010F06DBE3B
:104570001349144B1648C91AC908890141F00301AF
:1045800010F063FE3046BDE87040FFF78FBF0C4966
:104590000C4B1048C91AC908890141F00301E3E72F
:1045A000032300F87C3C0649064B0B48C91AC9088E
:1045B000890141F00301D7E770BD00BF94140020CA
:1045C000649601006C950100D0A50100F1A50100E1
:1045D00007A601001FA6010034A6010070B5866879
:1045E0003378032B15460CD0134A144B14489B1AEE
:1045F000DB089B0143F00202294610F033FE002045
:1046000070BD0023F06E86F8243010F063FDA842E0
:1046100004460AD2084A094B9B1ADB089B01291A57
:1046200043F00202074810F01DFE06F11800FFF7E4
:10463000EDFE2046E4E700BF6C95010064960100A2
:1046400047A60100B0A5010007B501228DF80710AB
:104650000DF10701FFF7C2FF642103480FF06CFE64
:1046600003B05DF804FB00BF9C140020012310B5CB
:10467000144682F824300C480FF038FE636833B1DA
:1046800094F826301BB104F10C00FFF7BFFEE36E77
:10469000D3E900239A4205D004F11800BDE8104088
:1046A000FFF7B4BE10BD00BF9C140020094B30B50D
:1046B0001D68094B02461C6800239D4201DC002056
:1046C00030BD190104EB0310615C9142F8D0013355
:1046D000F3E700BF449801008CBD0020084B1B6825
:1046E00010B50C462BB1FFF7E1FF28B12060002088
:1046F00010BD6FF00C00FBE76FF00100F8E700BFA2
:104700008CBD002010B50748074C0EF0AFFF074BDB
:104710001860204602F01EFB2046FDF735FF002002
:1047200010BD00BFDEA2010031470000B41400201C
:104730000A2838B5074D044604D1286843680D217E
:104740005B68984728684368E1B25B6898472046F1
:1047500038BD00BFB414002010B5044C2046FDF74E
:1047600013FF204602F0F6FA002010BD714700004A
:104770002DE9F341DFF85880144E8DF80700044608
:1047800003254FF0FF3140460FF0A2F901220DF151
:104790000701002001F014F9074640460FF00AFA1D
:1047A0002FB101233370204602B0BDE8F081337889
:1047B000002BF8D0013D07D014F0B7FB0028E0D162
:1047C00002200FF065FDDCE73570ECE75F8200202A
:1047D0009CC30020F8B5124EB3680C2404FB0034CF
:1047E0000123054663724FF02003EFF3118183F339
:1047F0001188BFF36F8F23682BB160681A6822603D
:10480000834208BF626081F31188BFF36F8F03B9E1
:10481000F8BDD3E9017229463046B847E3E700BF47
:10482000A8C10020254B07B51A6882B14FF080421D
:10483000D2F80423D1070AD500221A601B6800931E
:10484000009B1F4B9B68587A08B9FFF7C3FF1D4BAD
:104850001A686AB14FF08042D2F80423920707D554
:1048600000221A601B6801930120019BFFF7B2FF31
:1048700080214FF48E7011F0A3FA18B14FF48E70AE
:1048800000F040FC4FF400714FF4927011F098FA70
:1048900018B14FF4927000F035FC4FF480714FF472
:1048A000907011F08DFA30B14FF4907003B05DF854
:1048B00004EB00F027BC03B05DF804FB00010040EE
:1048C000A8C10020040100400146014814F06BB962
:1048D000B0C3002000F07F03082B42B204D010F0D8
:1048E000780F01D000207047002A00F00F0300F07D
:1048F000080006DA68B90948242202FB03002830C0
:10490000704740B903F10900044B242202FB003038
:10491000F5E7034870470348704700BF10270020A1
:10492000582800209C29002070B505461C480EF030
:104930009DFE68B91B4B1C491C48C91AC90889014E
:1049400041F0010110F081FC6FF01204204670BDAF
:10495000174E3178CDB1F1B943681B6898470446CA
:10496000C0B110F1440F15D00E4A0F4B11499B1ADC
:10497000DB08024610489B01002D08BF014643F0AA
:1049800001030E4810F082FCE0E731B1436829468C
:104990005B68E3E735700024D8E70C46D6E700BF34
:1049A00099A601006C9501007C960100B9A6010052
:1049B00060820020D8A60100DEA60100E3A6010067
:1049C0000949BFF35B8F51E8003F43F0010241E822
:1049D00000200028F7D1BFF35B8FDB0703D4034827
:1049E000083914F0E0B8704720270020C4290020BF
:1049F00010B5054C0021204614F004F918B104301C
:104A000014F04AF8F6E710BDB0C3002037B56D4684
:104A10001C4800231822294614F009F800282ADA35
:104A2000194B1A4C1A48E41AE408A40144F0010492
:104A3000214610F00AFCFFF7DBFF12480023182282
:104A4000294613F0F4FF002807DA1248214610F037
:104A5000FCFB0023184603B030BD009B95E8030023
:104A60001A1D82E8030004221A751846FFF72CFF6E
:104A7000FFF7A6FFEDE795E80300009B1A1D82E80B
:104A80000300E7E794BD00206C9501007C960100CF
:104A9000F8A6010016A70100817870B50646084601
:104AA000FFF718FF0B06F478054613D5002C46D106
:104AB000FFF7ACFF034600284FD0012285F82240C3
:104AC000027503220274DD60FFF7FEFEBDE8704050
:104AD000FFF776BF5CB1012C31D1FFF797FF03469A
:104AE00000283AD085F8214004750474EBE7FFF7FD
:104AF0008DFF90B3B378194A13F0800F03F00801CB
:104B000011D041B1D2F8A836EB600123037502231E
:104B10000374C560D8E703F00F03142101FB0323DE
:104B2000D3F80836F0E711B1D2F8A837ECE703F074
:104B30000F03142101FB0323D3F80837E4E7084AE5
:104B4000084B09489B1ADB089B010A4643F0010306
:104B50002146BDE8704010F099BB70BD0070024066
:104B60006C9501007C96010032A7010070B50646E5
:104B700088B01822002102A811F08AFA3378013B8C
:104B8000052B24D8DFE803F09503172385190323A9
:104B90008DF814300024FFF739FF0346B8B1002226
:104BA0008DF81820047500F10C02DDE9050182E89A
:104BB000030018461EE00423EAE7B1780846FFF731
:104BC00089FE837A044623B1013B022B5DD908B0EC
:104BD00070BD0B06F57812D5002D49D1FFF716FFF1
:104BE00003460028F3D0012284F8225002750322E4
:104BF0000274DC60FFF768FEFFF7E2FEE7E75DB1F5
:104C0000012D35D1FFF702FF03460028DFD084F8DD
:104C1000215005750574ECE7FFF7F8FE05460028FE
:104C2000D5D00123037502230374C46004F10C0181
:104C3000B07812F089FE014648B11F4A1F4B204848
:104C4000D21AD208920142F0010210F00BFB1D4A69
:104C5000E168B2F8B0328B4206D95B1AA2F8B032E2
:104C60000BF0FAFF2846C5E70023A2F8B032F9E7B7
:104C7000124A114B14489B1ADB089B010A4643F069
:104C80000103294610F002FBA1E73046FFF704FFBD
:104C90009DE768460BF0BAFF9DF80130052B04D163
:104CA0009DF8003013F0600F91D0084B059301245C
:104CB00071E702246FE700BF7C9601006C9501004C
:104CC0005EA701001027002032A701007C280020E9
:104CD000F8B500254B4F2E4665F07F00C0B2FFF7B8
:104CE000F9FD03690446ABB900F1100140223846D2
:104CF00013F09DFE00280DDA434A444B4448D21A73
:104D0000D208920142F00102294610F0ABFA6FF08E
:104D10000B00F8BD2369E660C4E9063301231D4496
:104D2000082D84F8203084F8216084F82260D3D1E3
:104D30000025344F2E46E8B2FFF7CCFD0369044648
:104D40003BB900F110014022384613F070FE0028F4
:104D5000D2DB2369E660C4E9063301231D44082D34
:104D600084F8203084F8216084F82260E3D1294956
:104D7000D1F858310C469BB922484FF4806201F5B6
:104D8000AC7113F054FE00280ADA1F491F4B224869
:104D9000C91AC908890141F0010110F056FAB6E7B5
:104DA000D4F858310122C4E95833002384F868212B
:104DB000C4F8543184F8693184F86A31D4F89C32EB
:104DC00083B916490F484FF4806213F030FE002873
:104DD00008DA0D490D4B1248C91AC908890141F07A
:104DE0000101DAE7D4F89C320020C4E9A933012399
:104DF00084F8AC32C4F8980284F8AD0284F8AE02AC
:104E000087E700BF90BD00207C9601006C950100F3
:104E10007EA7010010270020A0A70100AC290020D8
:104E2000C1A701002DE9FF47AA4FAB4BDFF8D0A285
:104E3000AA4DFF1A8046FF080021504613F0E2FEFB
:104E4000064610B904B0BDE8F0876B79317D06F1F4
:104E5000040933B9002900F09680484613F01CFE7F
:104E6000EAE7042900F22F81DFE811F08D00050048
:104E7000FB000D01150118F8043C3BB9F368984894
:104E8000597ABA0142F0010210F0ECF9337CF4686F
:104E9000032BE2D8DFE803F0023B6267A669082231
:104EA0000021304611F0F4F88E4AD2F88034337085
:104EB000D2F884347370D2F88834D2F88C1443EA70
:104EC00001237380D2F89034D2F8941443EA01237A
:104ED000B380D2F89834D2F89C2443EA0223F380BA
:104EE0000823E360607A2368002198473378DB0960
:104EF00009D1F2883AB1B5F8B0329B1AA5F8B032B0
:104F00000BF0AAFEA9E70023A5F8B032A5E794F8B4
:104F10002130002BA1D094F82030002B9DD000260A
:104F200084F82160704884F8206010F06BFFA3695A
:104F300001936368CDE9023601A9607A0BF03CFC6D
:104F40006A4B9842014605D0BA01694842F0010215
:104F500010F088F9644810F053FF7EE723680121C0
:104F6000607A984779E7A37A53B994F823303BB92C
:104F70005D4810F047FF0BF0A9FE5B4810F040FFC2
:104F800023680221ECE7327B042A3FF666AFDFE8B4
:104F900002F043030E515D000BF0C2FB00287FF4CA
:104FA0005CAF0BF0C7FA0120FFF7BEFC55E7002409
:104FB00064F07F00C0B2FFF78DFC037A13B1407A32
:104FC0000CF002F90134082CF2D195F850311BB1E4
:104FD00095F851010CF0F8F80024E0B2FFF77AFCE4
:104FE000037A13B1407A0CF0EFF80134082CF4D1B5
:104FF00095F894321BB195F895020CF0E5F8012074
:105000000BF06AFB01236B712B68002B3FF425AF7B
:1050100000210220984720E700246C710CF060F812
:105020002046FFF781FC2B68002B3FF416AF21468A
:105030000420EFE7002B3FF410AF0CF069F82B6869
:10504000002B3FF40AAF00210520E3E72A68002A7D
:105050003FF403AF002B3FF400AF00210620904740
:10506000FBE608F10C04204610F0CCFEFFF730FE02
:10507000204610F0C5FE58F8083C002B3FF4EDAE7A
:1050800000210120C6E758F8083C002B3FF4E5AEAC
:1050900000210A20BEE7B90141F00101154810F0D6
:1050A000D4F8002010F09FFE0CF01AF80BF038FA3C
:1050B000FFF79EFCFFF70CFE012010F094FE0E4857
:1050C0000BF038FBC9E6BA010C4842F0010210F0BF
:1050D000C9F8C2E67C9601006C95010010270020FB
:1050E000E3A7010000700240242700200000AD0B60
:1050F00009A801002FA801006D4B000046A801007F
:10510000B0C30020B0F5907F10B511D0B0F5927FFC
:105110001ED0B0F58E7F1DD01049114B1148C91A11
:10512000C9088901BDE8104041F0010110F08DB8B7
:105130000024FFF76BFC78B1002202750473FFF7BF
:10514000C3FB094B1B793BB1BDE81040FFF738BCEE
:105150000224EEE70124ECE710BD00BF7C960100BD
:105160006C9501005DA801001027002038B51E4D88
:105170002C79A4BB1D491E484FF0FF334FF48062C9
:105180000FF0C4F91B4BAC60C5E9033405F1140002
:1051900013F09DFC22460121272000F0CFFC164889
:1051A0000BF0C8FA154B98421BD1012010F01BFEE2
:1051B000FFF78EFD044608B901232B71104B1B68C5
:1051C0000BB1FFF7FDFB4FF08043D3F83834DB071A
:1051D00003D54FF48E70FFF795FF204638BD0024AD
:1051E000FBE76FF00404F8E710270020E08E0020B2
:1051F000C4290020254E00006D4B00000000AD0BBF
:10520000B0C30020064B1A7932B15B79002B0CBF7A
:105210006FF01200002070476FF01200704700BF5F
:105220001027002008B502460378127903F00F001A
:105230006AB958B10F49104B1048C91AC9088901F9
:1052400041F0010110F001F84FF0FF3008BD0828CF
:1052500008D90849084B0A48C91AC908890141F008
:105260000101EFE7012A06BF83F0080040F3C00008
:105270000020EBE77C9601006C95010075A8010009
:1052800094A8010038B5134B1B790146F3B105789A
:105290002846FFF71FFB88B145720B798372498856
:1052A00041604C1E0C400CD00B490C4B0C48C91AE9
:1052B000C908890141F001010FF0C7FF6FF0150423
:1052C00002E0284612F03BFB204638BD6FF0120486
:1052D000FAE700BF102700207C9601006C950100C2
:1052E000B3A80100164B1A7910B501462AB35B79B1
:1052F0001BB3FFF7EFFA0446E0B1837A012B0FD01E
:1053000007D9023B012B07D9A369E3610020E060C4
:1053100010BD0BF0E3FCF7E708460BF049FCF3E7A0
:105320000849094B0948C91AC908890141F0010116
:105330000FF08BFF6FF01500EAE76FF01200E7E760
:10534000102700207C9601006C950100DBA801006D
:105350000B4B1A7910B5044662B15B7953B1FFF774
:10536000B9FA50B120460BF045FC20460BF07EFF09
:10537000002010BD6FF01200FBE76FF01500F8E79A
:105380001027002038B50B4B1A7905460C465AB148
:105390005B794BB1FFF79EFA48B141B128460BF05B
:1053A0000FFC2070002038BD6FF01200FBE76FF09B
:1053B0001500F8E710270020F8B50F4F3B79054698
:1053C0008BB1FFF787FA044680B128460BF012FC38
:1053D000267A76B978790123237218B128460BF022
:1053E000F3FE3046F8BD6FF01200FBE76FF01500DA
:1053F000F8E76FF04400F5E7102700200D4B1A790D
:1054000010B501466AB15B795BB1FFF763FA0446F8
:1054100050B1037A5BB108460BF0AAFE002020725F
:1054200010BD6FF01200FBE76FF01500F8E76FF0AA
:105430004400F5E7102700202DE9FF47DFF804813D
:105440001F4698F80430064689461446002B6AD059
:1054500098F80530002B66D0030613D5FFF73AFA0B
:10546000054678B190F808A0BAF1000F0DD12F4A87
:105470002F4B3048D21AD208920142F00102314635
:105480000FF0F0FE6FF015040EE008F1140010F0BC
:10549000B9FC95F8222002F0FF034AB108F114008C
:1054A00010F0AEFC6FF00A04204604B0BDE8F087AF
:1054B0006A68A869944284BF1446534685F823302D
:1054C0002246494610F0B9FDEC6007B13C60AC7A69
:1054D0004CB90BF00BFC864205D00BF0F7FB1648DD
:1054E00010F08EFCE0E7012385F82230AB690193D0
:1054F00001A9EB6802930024304603940BF05CF999
:105500000E4B98420146EAD0094B084A85F82240E2
:10551000D21AD20892010A4842F001020FF0A2FE0C
:105520006FF00404DBE76FF01204BDE77C96010026
:105530006C950100FDA80100242700200000AD0BA0
:105540001CA90100102700202DE9F0411D46254B24
:1055500090461A7907460E46002A40D05B79002B08
:105560003DD0030615D411B9B8F1000F11D138465A
:10557000FFF7B0F9044660B1037A6BB91A4A1B4BC6
:105580001B48D21AD208920142F0010239460FF0AC
:1055900069FE6FF0150011E0164810F033FCE36867
:1055A00043451F4628BF474656B9B8F1000F07D1FB
:1055B00005B12B600F4810F023FC0020BDE8F081FE
:1055C000E1693A46304610F038FDE3693B44E36157
:1055D000E368DB1BE360002DECD02F60EAE76FF09F
:1055E0001200EBE7102700207C9601006C9501006B
:1055F000FDA801002427002038B51F4D2B79014656
:105600009BB36B798BB303060FD4FFF763F90446A2
:1056100058B1037A63B9194A194B1A48D21AD208F9
:10562000920142F001020FF01DFE6FF015001BE029
:1056300005F1140010F0E6FBE3688BB90125A369BE
:1056400084F82050E36194F821304BB1FFF7DEF984
:1056500070B10575C4600574FFF736F9FFF7B0F94E
:10566000094810F0CDFB002038BD6FF01200FBE7B9
:105670006FF00B00F8E700BF102700207C960100B8
:105680006C950100FDA801002427002008B5074BF8
:105690001B792BB1FFF71EF928B10160002008BD6E
:1056A0006FF01200FBE76FF01500F8E710270020FD
:1056B000014B1860704700BF1027002008B5074B4A
:1056C0001B7923B1FFF706F920B1406808BD6FF0E0
:1056D0001200FBE76FF01500F8E700BF102700206D
:1056E000821C084B22F07F42C3F84025D3F80425E2
:1056F000904200D17047D3F80405821C22F07F420B
:10570000F2E700BF00100140044B002282B01A6093
:105710001B680193019B02B0704700BF401101401C
:1057200008B5FFF7F1FF074B074AD3F840051368A8
:10573000C01A20F07F4003441360BDE808400EF01B
:1057400087BF00BF00100140482A002038B5144828
:105750000DF08CFF00B34368124D1B68012100243B
:105760009847C5F80845FFF7CFFF0F4B4FF40032BD
:10577000C3F880214FF48033C5F804332246012159
:10578000112000F0DBF9112000F0A6F9074A0123EF
:10579000136020462B6038BD4FF0FF30FBE700BFA1
:1057A00099A601000010014000E100E0081001404E
:1057B00070B5284B284C1968D4F80425274D521A87
:1057C000B0F1FF3F08BF284622F07F4312022FD4DA
:1057D000013820EAE070A842A8BF284601334FF400
:1057E00080361844C4F80863A84294BF0D184D19B8
:1057F000D4F80405D4F84015FFF786FF091A21F004
:105800007F4120F07F430129C4F84035C4F8446348
:1058100004D10F2013F08FFBFFF776FFD4F80405B7
:105820002B1A23F07F43012B04D1FFF759FF0BE024
:105830000020D3E725F07F43C4F84035D4F80405B1
:105840002D1A023D2B02F0D44FF48033C4F80433F8
:1058500070BD00BF482A002000100140FFFF7F00FC
:105860004FF02002EFF3118382F31188BFF36F8FA3
:10587000064AD2F80405064A1268801A20F07F40D2
:1058800083F31188BFF36F8F704700BF0010014092
:10589000482A00204FF02003EFF3118283F3118890
:1058A000BFF36F8F0649074B0868D3F8043582F3BE
:1058B0001188BFF36F8F1B1A23F07F431844704782
:1058C000482A00200010014010B5114C114AA26175
:1058D0000323C4E90433104BE36122664FF4806371
:1058E0000E4A0F492362626600231022E01DA36264
:1058F0006362E3622367E3666367A26610F040FBBE
:105900000849204610F03CFB2023A37110BD00BFC6
:105910004C2A002048A901007182002061820020E9
:1059200051A9010055A901002DE9F84F234F4FF06F
:10593000180B14460BFB00720646936A556AAB427D
:10594000884634D8D2F820A0AAEB050909F1FF3225
:10595000944211D84FF0180906FB09933B442246A4
:1059600058684146284410F068FB09FB06762C4431
:1059700074620120BDE8F88F13449C421BD800FBE1
:105980000BBBBB444A46DBF804002C44284410F00F
:1059900054FBB4EB0A0406D0DBF80400224608EB03
:1059A000090110F04AFB182000FB0676E0E7013BF6
:1059B0005B1BA342CED20020DCE700BF4C2A0020B4
:1059C000F8B5184C182300FB033503FB00402544B1
:1059D000C46A012C0F4616460FD0022C1AD0F4B917
:1059E000284610F05BFA864205D8324639462846EA
:1059F00010F062FA34462046F8BD284610F04EFA00
:105A00008642344628BF044622463946284610F0CE
:105A100053FAF0E72846BDE8F84010F069BA0024D0
:105A2000E9E700BF4C2A0020034B182202FB003399
:105A30009A6A586A801A70474C2A0020094A0A4913
:105A40009368096819670949D8664B6843F0805321
:105A50004B60002383F31188BFF36F8F9368186F37
:105A6000704700BFE8400020409B010000ED00E0CF
:105A70000F498A684FF030001044EFF3098C80E83A
:105A8000F01F202080F31188BFF36F8F094F4FF074
:105A900000664A6A8A603E60D06E0023D36680F357
:105AA000118802F1300090E8F01F8CF309887047EC
:105AB000E840002004ED00E01EF0040F0CBFEFF3FF
:105AC0000880EFF30980816911F8021C0229FFD0D8
:105AD00001B510F041FA01BD43B2002B08DB0122F1
