:020000022000DC
:1060000000000420B5620200DD620200DF620200CF
:10601000E1620200E3620200E562020000000000AB
:10602000000000000000000000000000E762020025
:10603000E962020000000000EB620200ED62020073
:106040006D960200EF62020005A00200EF620200FE
:10605000EF620200EF620200659A0200EF62020046
:10606000EF620200EF620200EF620200EF620200E4
:10607000EF620200EF620200EF620200EF620200D4
:10608000EF620200717C0200EF620200EF62020028
:10609000EF620200EF62020061B10200EF620200F3
:1060A000EF620200EF620200EF620200EF620200A4
:1060B000EF620200EF62020000000000000000003A
:1060C000EF620200EF620200EF620200EF62020084
:1060D000EF620200EF620200EF620200EF62020074
:1060E000EF620200EF620200EF62020000000000B7
:1060F00000000000EF62020000000000EF620200FA
:10610000000000000000000000000000000000008F
:10611000000000000000000000000000000000007F
:10612000000000000000000000000000000000006F
:10613000000000000000000000000000000000005F
:10614000000000000000000000000000000000004F
:10615000000000000000000000000000000000003F
:10616000000000000000000000000000000000002F
:10617000000000000000000000000000000000001F
:10618000000000000000000000000000000000000F
:1061900000000000000000000000000000000000FF
:1061A00000000000000000000000000000000000EF
:1061B00000000000000000000000000000000000DF
:1061C00000000000000000000000000000000000CF
:1061D00000000000000000000000000000000000BF
:1061E00000000000000000000000000000000000AF
:1061F000000000000000000000000000000000009F
:1062000010B5054C237833B9044B13B10448AFF3F0
:1062100000800123237010BD8823002000000000AF
:1062200060C3020008B5034B1BB103490348AFF339
:10623000008008BD000000008C23002060C3020025
:10624000154B002B08BF134B9D46A3F5803A002148
:106250008B460F461348144A121A05F047F90F4BA4
:10626000002B00D098470E4B002B00D09847002001
:10627000002104000D000D48002802D00C48AFF3A7
:10628000008005F001F92000290004F071FC05F000
:10629000E7F800BF00000800000004200000000034
:1062A0000000000088230020F42C002000000000E3
:1062B000000000000649074A074B9B1A03DD043B18
:1062C000C858D050FBDC02F033FFFFF7B9FF0000E5
:1062D00038C40200E022002088230020FEE7FEE709
:1062E000FEE7FEE7FEE7FEE7FEE7FEE7FEE7FEE786
:1062F000F0B595B000241D460E460846174602F03C
:10630000C5FD304623460822099505A91A9D089720
:106310000D950A948DF82C400C9402F01BFE9DF80C
:1063200014308DF81140DDE9061003F00302012A54
:10633000CDE9020128D0022A04D0304602F0AAFD9D
:1063400015B0F0BDBDF81650C3F3C2038DF8103080
:10635000C5F389150827082D2C4628BF08243B467D
:1063600022460EA9304602F0F5FD2D1B214608AB52
:1063700002AA0EA8274400F0FFFD002DEBD1304605
:1063800002F088FD15B0F0BDBDF81470059DC7F38F
:106390008312C3F3C2040EA93046920008238DF87D
:1063A0001040C7F3831702F0D5FDC5F3952508AB60
:1063B0003A4628460EA9009302AB00F065FD304630
:1063C00002F068FD15B0F0BD014B01221A70704754
:1063D000E8230020704700BF00B583B0044B009352
:1063E000044A4023FFF784FF03B05DF804FB00BFBD
:1063F000F9630200A823002038B50E480E4D03783B
:106400000E4CEB5C00252570D2B253B1043004F081
:106410004FFB58B90A4B1B7813B12378002BFCD0E3
:1064200038BD0C3004F07CF80028F3D001F004F8FB
:10643000F0E700BFE0220020F02C0020E82300203D
:10644000A42300202DE9704319481A4A0378D35C2D
:1064500088B02BB3043004F08FFA174D0FCD6C4683
:106460000FC495E80F004FF0EB7684E80F004FF073
:1064700006084FF0FF394FF0FF344FF0FF350C485E
:10648000069600226946CDE90089CDE9024503F070
:106490007FF848B9094B00221A7008B0BDE8708334
:1064A0000C3003F0BFFFD8E700F0C6FFF2E700BFF3
:1064B000E0220020F02C002020B80200A4230020BD
:1064C000F0B5154D0FCD89B06C460FC495E80F009F
:1064D0004FF0EB7C84E80F0006264FF0FF374FF0BB
:1064E000FF344FF0FF350D4A0D48CDF818C069460E
:1064F000CDE90067CDE9024503F04AF820B9094B20
:1065000001221A7009B0F0BD00F096FF054B012280
:106510001A7009B0F0BD00BF20B80200C9630200C4
:10652000E0220020A423002008B5FFF7C9FF04489B
:10653000042100F025FC034B01225A7108BD00BF65
:1065400020C40200F422002038B50C4B0C48002473
:1065500000250022C3E90045FF21C3F818249960F3
:1065600083F82024C3F8142402F044FC044610B934
:10657000044802F065FD204638BD00BFC02400205D
:1065800094C3020078B8020099B10E4B0E495B1A11
:10659000DB0815D030B400220C4D02E001329342EA
:1065A0000BD035F822408442F8D151F8320030BC8B
:1065B0007047054951F830007047002030BC7047E3
:1065C0001846704720C40200A8C30200842300209C
:1065D000094B013903EBC00003290BD8DFE801F0B8
:1065E0000402080604207047022070474079704773
:1065F0000079704700207047A8C302002DE9F047DA
:10660000954CD4E900239A4284B063D00023C4F8A7
:106610001834BFF34F8FD4E9013503EA0501CA1CD2
:1066200004EB820614F82220500719D52768327827
:1066300002F00302012A43D0022A03D172880233F6
:1066400003EB921305EA0301D4F81804CA1C04EB07
:10665000820628B99F4239D914F822205207E6D47D
:1066600004EB81015A1CC96801912A4004EB8202A3
:1066700001F00301D2680292022903F102062DD033
:10668000012900F09580D4F810543DB12B682846BC
:106690009B689847EB681D68002DF7D16F48704BD9
:1066A0007049C01AC008000440F0020000F0E0F891
:1066B000D4E90030C01A18BF012004B0BDE8F0874B
:1066C00032880233C2F383121344BBE7676004B01D
:1066D000BDE8F087002004B0BDE8F087BDF80630C3
:1066E0006148C3F38919B9F1500FC84628BF4FF06C
:1066F000500868F38F1308F10801ADF8063002F076
:106700007BFB07460028BED002F0C0FB0023082216
:1067100001A9384602F0EAFB25EA06030133B8EB8B
:10672000830F4FEA830A7DD9BAF1000F00F08D8004
:1067300005EA06010331A8EB0A0804EB81010823EE
:10674000524638465FFA88F802F0D0FB4749424685
:106750000AF10803384602F0C9FB09F1030906EB08
:106760009906D4F81834002B6BD1D4F8105465B1C5
:10677000EB685A7928463946002A5ED02B681B6898
:106780009847EB681D68002DF2D1384602F082FB75
:1067900000230DF103008DF8033001F0D9F8D4F88F
:1067A000183403B966609DF8030001F0F7F87FE73D
:1067B000BDF804302C48C3F38312062A28BF0622F2
:1067C000911C62F389138900ADF8043002F014FBC8
:1067D000074600283FF457AF02F058FB0023082279
:1067E00001A9384602F082FBBDF8043013F4707F33
:1067F000B7D04FF00008314629404FEA88030331F3
:10680000083304EB81010422384602F06FFBBDF827
:10681000043008F10108C3F38313434506F1010670
:10682000E9D89EE705EA0601033104EB81014246FF
:106830000823384602F05AFB8FE71D68002D97D1D8
:10684000A3E7384602F026FB32E708494246082310
:10685000384602F04BFB80E7C0240020D0C3020082
:10686000A8C3020060B8020094C30200CC24002038
:106870002DE9F04F644C87B0002306460DF10B0064
:106880008DF80B30A568019101F062F8D4E901237D
:1068900027681A440132D21B012A00F2858004F2D3
:1068A0001C4804F5836A04F214491BE0BDF80E305D
:1068B000C3F389130333090C0BEB930B4846009188
:1068C00001F080FE009900283ED04046C4F804B094
:1068D00001F04CFED4E90113226819440131891AF0
:1068E000012962D80121404601F040FE504601F0E6
:1068F00059FE484601F056FED4E9013C03EA0C0279
:10690000D11C04EB810014F821E01EF0040F0EF0FE
:10691000040129D104EB8202591CD268039201EAD6
:106920000C0104EB810102F00302012AC96803F1A2
:10693000020B32D0022AB9D000214846009101F062
:1069400041FE00990028C0D14046C1E743880BEBC7
:1069500093130CEA0302D11C04EB810014F82110FC
:1069600001F004010029D5D090F800E00EF0030EEC
:10697000BEF1010F0BD0BEF1020F03F1020B02F1C9
:10698000030EE3D004EB8E000029EDD1C2E70288AC
:106990000233C2F383121344DBE7BDF80C30C3F3B8
:1069A0008313090C9B4489E73A46134003330232B0
:1069B00005219DF80B0044F82310226000F0EEFF43
:1069C0000021124801F0A8FD80F31000F1007B1CAB
:1069D0002B40019A01F038013D4004EB830341F064
:1069E00001010004033540EA164641EA8221DE60D7
:1069F00044F8251094F820341BB1FFF7FFFD002860
:106A0000FBD107B0BDE8F08FC0240020DC280020B7
:106A10002DE9F04F684C89B0002307460DF11300B3
:106A2000CDE902128DF81330A56800F091FFD4E98A
:106A3000012326681A440132921B022A00F2858043
:106A400004F21C4804F5836A04F214491BE0BDF803
:106A50001630C3F389130333090C0BEB930B484631
:106A6000019101F0AFFD019900283ED04046C4F8E5
:106A700004B001F07BFDD4E901132268194401310F
:106A8000891A022962D80121404601F06FFD504663
:106A900001F088FD484601F085FDD4E9013C03EA98
:106AA0000C02D11C04EB810014F821E01EF0040F4D
:106AB0000EF0040129D104EB8202591CD268059220
:106AC00001EA0C0104EB810102F00302012AC9680A
:106AD00003F1020B32D0022AB9D0002148460191BD
:106AE00001F070FD01990028C0D14046C1E74388FC
:106AF0000BEB93130CEA0302D11C04EB810014F896
:106B0000211001F004010029D5D090F800E00EF02A
:106B1000030EBEF1010F0BD0BEF1020F03F1020B09
:106B200002F1030EE3D004EB8E000029EDD1C2E7A1
:106B300002880233C2F383121344DBE7BDF814303A
:106B4000C3F38313090C9B4489E732461340033394
:106B5000033245219DF8130044F82310226000F011
:106B60001DFFB31C2B4004EB8303039A1348DA6028
:106B7000002101F0D1FC80F31000F900731C2B40C0
:106B8000029A01F03801354004EB830341F04101E2
:106B90000004033540EA174741EA8221DF6044F8E8
:106BA000251094F820341BB1FFF728FD0028FBD1F5
:106BB00009B0BDE8F08F00BFC0240020DC28002011
:106BC0002DE9F04F6C4C89B0002607460DF11300FB
:106BD000CDE9011203938DF81360A56800F0B8FEAB
:106BE000D4E9012326681A440132921B032A00F2D9
:106BF000858004F21C4804F5836A04F214491BE002
:106C0000BDF81630C3F389130333090C0BEB930B58
:106C10004846009101F0D6FC009900283ED040463D
:106C2000C4F804B001F0A2FCD4E9011322681944AD
:106C30000131891A032962D80121404601F096FCEE
:106C4000504601F0AFFC484601F0ACFCD4E9013CF1
:106C500003EA0C02D11C04EB810014F821E01EF0C1
:106C6000040F0EF0040129D104EB8202591CD268F2
:106C7000059201EA0C0104EB810102F00302012AF2
:106C8000C96803F1020B32D0022AB9D0002148466C
:106C9000009101F097FC00990028C0D14046C1E75F
:106CA00043880BEB93130CEA0302D11C04EB810025
:106CB00014F8211001F004010029D5D090F800E06B
:106CC0000EF0030EBEF1010F0BD0BEF1020F03F167
:106CD000020B02F1030EE3D004EB8E000029EDD18C
:106CE000C2E702880233C2F383121344DBE7BDF824
:106CF0001430C3F38313090C9B4489E732461340D5
:106D00000333043285219DF8130044F823102260D8
:106D100000F044FEB21C2A40F31C2B4004EB82021C
:106D200004EB830C029BD3600021039B1348CCF837
:106D30000C3001F0F1FB80F31000F900731C2B40C4
:106D4000019A01F03801354004EB830341F08101E1
:106D50000004033540EA174741EA8221DF6044F826
:106D6000251094F820341BB1FFF748FC0028FBD114
:106D700009B0BDE8F08F00BFC0240020DC2800204F
:106D800030B4154DD5F810140446002071B10B46EF
:106D900001E01B6853B1DB681A798242F9D10130F6
:106DA0000A28F3D14FF0FF3030BC7047E368187108
:106DB000D5F810344BB1DA68E36812681A60D5F878
:106DC0001034DB681C6030BC7047C5F81044E268C2
:106DD000136030BC704700BFC024002038B5094B99
:106DE000D3F81044012583F820544CB1E3685D7159
:106DF000236820465B689847E3681C68002CF5D13F
:106E000038BD00BFC024002030B5C38885B004461B
:106E10000D461BBB217A05291ED0627A82B9134A1E
:106E2000A08852F8212003920021FFF7ADFB039ABE
:106E30000F490346284605B0BDE8304001F03EBC8E
:106E4000A088FFF7C5FB0B4B0B4953F820202846C1
:106E500001F034FC217AE2E705B030BD074A009228
:106E60000749084A284601F029FCD3E750B9020037
:106E7000B0B802002CB90200ACB80200A4B80200FD
:106E80008CB8020084B802002DE9F04385B04FF0C1
:106E9000000C0C9C814694F80C8084F80CC00E46C3
:106EA0001746184621461D46FFF7AEFF062F09D8A4
:106EB000DFE807F0042E343B444F1F0049462046CC
:106EC00001F0FCFB2B7A052B05D06B7A5BB92749C7
:106ED000204601F0F3FB204601F0E4FB84F80C802F
:106EE00005B0BDE8F083224A2249204601F0E6FBC6
:106EF000EDE7D6E90413F2680393B3680291CDE994
:106F000000324946D6E90023204601F0D7FBD9E7F5
:106F100032684946204601F0D1FBD3E7D6E9002389
:106F20004946204601F0CAFBCCE7B3680093D6E996
:106F300000234946204601F0C1FBC3E7D6E90232EF
:106F400001920093D6E900234946204601F0B6FBA2
:106F5000B8E7D6E90321B3680291CDE9003249468A
:106F6000D6E90023204601F0A9FBABE7BCB802003C
:106F7000A4B80200ACB80200082900D970472DE976
:106F8000F04F9B4683B000241B7B8BF80C400D46D2
:106F900006465946104690460193DFF8D0902C4F94
:106FA000FFF732FF05E0325D013401F087FB082C6A
:106FB00009D0A54239465846F5D84946013401F072
:106FC0007DFB082CF5D12349DFF8A490224C234FF8
:106FD000584601F073FB4FF0000A0DE0D15D11F04F
:106FE000970F08BF2E22214658460AF1010A01F0E8
:106FF00065FBBAF1080F10D0554505D916F80A20DF
:107000007E2AEBD92E22EEE7494658460AF1010ABC
:1070100001F054FBBAF1080FEED198F80830052BB7
:1070200002D098F8093063B90D49584601F046FB83
:10703000584601F037FB019B8BF80C3003B0BDE8DC
:10704000F08F084A0849584601F038FBECE700BFCA
:10705000C0B80200CCB80200D0B8020059C2020089
:10706000BCB80200A4B80200ACB80200C8B8020064
:10707000B8B8020038B5174B1D783DB3164B1968E8
:10708000C0B200230C4604E00133AB4204F1080413
:107090001CD011F833209042F6D102F0D3FC637873
:1070A000A3F10103B3FA83F35B09834200D038BD37
:1070B0000A4BD3E900231343F9D1094B0948196856
:1070C0000022BDE83840490800F0DABB00231B78F5
:1070D000FFDE00BF7C290020D0290020A829002045
:1070E00080290020882900202DE9F04FDFF8548204
:1070F00098F8003083B0002B00F01981DFF8489237
:107100008C4F8D4E00254FF0010A3C6814F8350075
:1071100002F098FC04EBC50314F835405B784FEAA5
:10712000540C14F0010E16F80C10A3F10103B3FA7D
:1071300083F314BF0A0901F00F025B09042A00F26D
:10714000A080DFE802F0725D32200300834240F04D
:10715000AB80BEF1000F0CBFF0230F2303EA010345
:107160000CBF03213021194306F80C1098F80020B9
:1071700001359542C9DBD9E90023134340F0CD80A6
:1071800003B0BDE8F08F83427BD0BEF1000F0CBF8F
:10719000F0230F2303EA01030CBF0421402119430C
:1071A00006F80C1098F80020E2E783426CD1BEF19B
:1071B000000F0CBFF0230F2303EA010398F800200F
:1071C0000CBF03213021194306F80C10002AD2D03D
:1071D000D7F800C00023614603E0934201F10801A3
:1071E000C6D01CF83300A04203F10103F5D14B686F
:1071F000002BBDD020460121984798F80020B7E722
:10720000834219BF0020034602232020BEF1000F55
:107210000CBFF0220F2201EA020118BF03460B4304
:1072200006F80C3098F80020A2E7834229D1BEF17D
:10723000000F14BF0F23F02303EA010314BF102132
:10724000012119430DF107004FF0000306F80C105F
:107250008DF8073000F07CFBD9E90032A4F1200161
:10726000C4F120000AFA01F12AFA00F001430AFAF7
:1072700004F4114323439DF80700C9E9003100F0ED
:107280008DFB98F8002073E7BEF1000F0CBFF023D0
:107290000F2303EA01030CBF01211021194306F853
:1072A0000C1098F8002063E7BEF1000F14BF0F2305
:1072B000F02398F80000194006F80C1098B1D7F8A0
:1072C00000C00023624603E0834202F108020AD0B4
:1072D0001CF83310A14203F10103F5D1536813B137
:1072E0000021204698474FF000030DF107008DF86C
:1072F000073000F02DFBD9E90032A4F12001C4F1E0
:1073000020000AFA01F12AFA00F001430AFA04F413
:1073100022EA010123EA0403ADE7084B0848196893
:107320000022490800F0ACFA03B0BDE8F08FDFF8A6
:10733000189020E7D0290020B029002080290020C3
:10734000882900207C290020A8290020092A43D967
:107350002DE9F04182B0144606460D4602F00AFAC5
:10736000002832D0214A2249224B16600D70224853
:107370001C600021202204F0B9F8204B00200021DD
:107380006C1EC3E90001E4B245B3DFF87C8006EB74
:10739000C404032702E0A64220D01C469DF8063014
:1073A000A57820788DF8047023F00703424601A9E0
:1073B0008DF806308DF8055002F0E6F9A4F10803C7
:1073C0000028E8D002B0BDE8F08102F085F900287D
:1073D000C8D002B0BDE8F08107207047084A0948CC
:1073E000002100F03FFA02B0BDE8F081D029002072
:1073F0007C29002080290020B0290020A829002015
:10740000E970020070B902007570020070B5084D95
:107410002B785BB1074E00243368012113F8340048
:1074200002F0A4FA2B780134A342F5D8002070BDF5
:107430007C290020D029002000B585B0034600211A
:1074400001AA44F20100CDE90111039300F004F810
:1074500005B05DF804FB00BF10B572B6FFF7BEFCC7
:10746000FFF7CCF80028FBD1104B114C1149E41A5E
:10747000E408240444F00100FFF7FAF90E4B1B68FE
:10748000DB0700D500BE0D4944F00200FFF7F0F91C
:10749000BFF34F8F0A490B4BCA6802F4E0621343F3
:1074A000CB60BFF34F8F00BFFDE700BFA8C3020052
:1074B000D0C3020074B90200F0ED00E080B9020010
:1074C00000ED00E00400FA05D0E90223D1E9020151
:1074D000994208BF90422CBF01200020704700BF96
:1074E0002DE9F04F2DED028B85B0064600F080FBB4
:1074F00040B1B54AD2E9003113F1807341F1000186
:10750000C2E900310021304600F08EFBAF4C60B183
:10751000236853B1AE4B25681B7823B11DB12B7F77
:10752000002B40F01C81002323600121304600F035
:107530007BFB002840F0F680A64803A900F08EFFF0
:1075400078B3A54DDFF88882A24F0BE0002B00F046
:10755000CD8003A9384600F0B1FF03A9384600F0FA
:107560007DFFF0B10378012B12D0022BEED128461B
:107570004FF0000901F09CFD30B180F81C902846C6
:1075800001F096FD0028F8D1012388F80030E0E7EB
:1075900041682368994200F0BA80284601F092FDC4
:1075A000D7E7DFF834828D4FDFF81C9208EE106ABF
:1075B00037E0404601F07CFD05463846AB68EA6896
:1075C0000193009200F040FB854E8446D9E900010A
:1075D000D6E9002310EB0C0041F10001994208BFED
:1075E0009042DDE9002303D210F1807041F10001E7
:1075F000B3EB000A62EB010BBAF1010F7BF1000360
:1076000029DBBAF5350F6BD2AA684FF49603002137
:10761000384600F067FA00285AD00D281FD0002302
:107620002360404601F04AFD002873D02368002BF8
:10763000BFD02368D0E90201D3E90223994208BFF1
:10764000904248D223681B7F002BB2D0216840466D
:1076500001F01AFDADE70021384600F0D9FA5C4B85
:107660001B78002BDBD02B7F002BD8D0384600F0C6
:10767000EBFA8446D9E90001D6E9002310EB0C00AF
:1076800041F10001994208BF904203D210F180708D
:1076900041F10001D5E90223994208BF904259D334
:1076A0002B6903B92B77D5E905309847296900295B
:1076B000B5D02B7F002BB2D0D5E90223521843F16D
:1076C0000003C5E902232946404601F0DDFCA6E798
:1076D0002368BBB1256005B0BDEC028BBDE8F08F1F
:1076E000384600F0B1FA3F4A02448EE743681A7FF9
:1076F000002A7FF42EAF01221A774168284601F054
:10770000C3FC26E718EE100A00F0BEF9E2E70023FA
:1077100023601EE72368002BDDD118EE100A00F06D
:10772000B7F9D8E72D482E4D00F08EFA264BD3E955
:107730000089D5E9002318EB000849F100099945B3
:1077400008BF904503D218F1807849F10009C5E9D6
:107750000089F1E62946404601F096FC5FE71F48A4
:1077600000F072FA184A1E4BD2E90089D3E90023CF
:1077700018EB000849F10009994508BF904503D26C
:1077800018F1807849F10009D5E90223994508BF2D
:10779000904529D32B6903B92B77D5E90530984754
:1077A000296900293FF4BFAE2B7F002B3FF4BBAE0D
:1077B000D5E90223521843F10003C5E90223064824
:1077C000294601F061FCAEE6D8290020582A0020A5
:1077D000E02900203C2A0020A0B90200FC22002061
:1077E000502A0020FFFFB4000248294601F04CFC5B
:1077F00099E600BFA0B9020010B5134B13491B68EE
:10780000134882B058220193082300F0D1FD0446AA
:1078100010B1204602B010BD0E4A0F4801A900F079
:10782000D5F804460028F4D10B48012100F0D6F920
:1078300001231946094A084800F02EF9084B012295
:1078400020461A7002B010BD9CB90200E429002045
:107850003C2A0020E1740200FC220020FFFF7F0090
:10786000E02900204AB1A1F101010368B1FA81F1D8
:107870004909C3E90412002070470720704700BF80
:10788000037F0BB100207047F0B5826183B00446DE
:107890001A480D4600F0D8F9194B1A49D3E90023CC
:1078A000D1E90067121843F10003BB4208BFB2429E
:1078B00003D212F1807243F100035219216943F19E
:1078C0000003C4E9022301B125610F4801A900F0BA
:1078D00087FD48B100254460057001A90A4800F001
:1078E000ADFD20B903B0F0BD042003B0F0BD0348E6
:1078F00000F0AEF9284603B0F0BD00BFFC22002026
:10790000D8290020502A00203C2A002030B500252C
:1079100083B00446057701A90B4800F061FD78B1FA
:1079200001224460027001A9074800F087FD08B9F0
:1079300003B030BD054800F08BF9284603B030BDD8
:10794000042003B030BD00BF3C2A0020FC220020F0
:1079500070B4EFF3108472B60D4B9A68AAB90D4952
:107960000D4E01259D60D1F8805035401D60C1F855
:107970008060D1F884505D604FF0FF33C1F88430EF
:10798000027004B962B670BC704701230370F8E757
:10799000E42C002000E100E0FC06FFBD094B9A68E2
:1079A0007AB170B910B4EFF3108172B6064A1C6850
:1079B00014605C685460986001B962B65DF8044B6D
:1079C00070477047E42C002000E100E070B5264CC1
:1079D0004379264E04EBC30546F823202D79002D6C
:1079E00035D103680A88C3F8082590F904308A78ED
:1079F000002B24DB03F1604303F561435201D2B253
:107A000083F8002390F90420194E1A4B012502F047
:107A10001F01520905FA01F146F82210164E42796B
:107A2000164944F83200981B04EBC204C008000455
:107A300040F003002571FEF71BFF002070BD1049C8
:107A400003F00F0352011944D2B20A76DAE70A4B67
:107A500008480C49C01AC008000440F00200FEF7B4
:107A600007FF082070BD00BF5C2A0020642A0020A8
:107A700000E100E0E0C30200A8C30200D0B90200A8
:107A8000FCEC00E0ACB90200036801221A60704708
:107A9000036801225A607047F0B404684FF48035DF
:107AA0008D40C4F80853066801F15004C6F84853E5
:107AB000A4000668A4B20027375182B03659046882
:107AC000019601F5A87122F07F42019E44F8212021
:107AD0000268C2F8445313B10368C3F8045302B0F8
:107AE000F0BC70472DE9F04704464FF4803600683B
:107AF0008E40C0F848632068C0F80863206800EB37
:107B000081058A46D0F80415D5F84005C5F840151A
:107B10000AF15005AD002768ADB24FF0000847F8F4
:107B2000058082B0401A7F59009720F07F400128DD
:107B300022F07F479946009A41D02268D2F8045536
:107B4000C2F844637A1B22F07F42012A0AF5A87129
:107B500025D0226842F821702068D0F804557A1B9D
:107B6000C9F1FF13013A03F57F4322F07F429342AC
:107B700011D342B1C0F8446323680020C3F8046302
:107B800002B0BDE8F087013740F821702068D0F8D6
:107B900004359D42EED00D2002B0BDE8F08720688C
:107BA0000D4B013740F8217043F001034FF4806022
:107BB00098472068D0F804359D42DBD0EBE7064AB1
:107BC0004FF4806042F001029047226842F805803D
:107BD00052590192019AB0E7F0B9020002680223FB
:107BE000C2F8443311B10268C2F80433704700BFD1
:107BF0000368D3F8040100B97047002282B0C3F8CB
:107C00000421D3F804310193019B012002B0704795
:107C100002684FF4803303FA01F1C2F84813036895
:107C2000C3F80813704700BF50318900036889B258
:107C3000585800B9704700225A5082B05B580193DF
:107C4000019B012002B070470368D3F80405704718
:107C500090F9043005485A090121403203F01F030E
:107C600001FA03F340F82230704700BF00E100E062
:107C7000024A034B10681B68184700BF5C2A0020AB
:107C8000642A0020022001F081BB00BF2DE9F041F1
:107C90000C46054601F094FB20B9012C17D0022CAC
:107CA0001DD00CB1BDE8F0811448FFF72FFE144A37
:107CB000144B94781B78A342F4D1002CF2D0124BD1
:107CC0001B68002BEED02046BDE8F04118470C4E53
:107CD0007378347833B90B4BB2781A70EDE7084BF0
:107CE0005C78EAE7094F05483A464FF48041FFF7D0
:107CF000C7FD0028EFD13D70EDE700BF902A0020BE
:107D0000D02A0020E42A0020DC2A0020682A002053
:107D100010B5007801F054FB40B9054B587828B1F4
:107D2000044B1B6813B1BDE81040184710BD00BFDD
:107D3000D02A0020DC2A0020AA4B1B68DB0700D4D5
:107D4000704770B5A84DA94E2B78347853B1A84B25
:107D50001B7800202870002B48D001F0F1FA012098
:107D600001F0EEFA172C40D8DFE814F000015F00B4
:107D70005F0075009B008800A800C7004F0043000B
:107D80004F004300C2001800180018001800180027
:107D9000B500CD00DD00ED005B005B009548FFF70E
:107DA000B5FDD4F11104054600F0EF80002840F045
:107DB000EC80012C13D0C82303FB04F44FF47A7039
:107DC0004FF400430021C3FB04014FF4FA62002387
:107DD00003F09EFB2A4601468648FFF751FD02202C
:107DE00001F09CFA824B01221A7070BD01F0BAFAC0
:107DF000B8E70120287001F0C9FABDE870407E485C
:107E000000224FF40051FFF73BBD0120287001F024
:107E1000BDFABDE870407848002240F26661FFF785
:107E20002FBD01F0A9FA347070BD002001F062FA94
:107E3000002800F0B180002001F082FA022C47F205
:107E4000333118BF4FF4803134706B48BDE8704057
:107E50000022FFF715BD002001F04CFA002800F0C9
:107E6000A880002001F06CFA43F233310323337011
:107E70006148BDE870400022FFF702BD002001F01C
:107E800039FA002800F09280002001F059FA052309
:107E900033705948BDE87040002240F6CD41FFF7ED
:107EA000EFBC002001F026FA002800F087800020B7
:107EB00001F046FA4FF480310423D8E7002001F0A6
:107EC00065FA062333704C48BDE87040002240F24A
:107ED0006661FFF7D5BC464B1B78002B7CD0002099
:107EE00001F02EFA012001F02BFA1223337070BD3D
:107EF00001F042FA0C23337070BD002001F00EFA3D
:107F00000723337070BD3A4B1B78002B5BD00020E9
:107F100001F016FA012001F013FA002001F0FEF939
:107F20001323337070BD324B1B78002B4ED00020D2
:107F300001F006FA012001F003FA012001F0EEF948
:107F40001423337070BD2A4B1B78002B41D00020C6
:107F500001F0F6F9012001F0F3F9002001F0DEF95B
:107F6000012001F0DBF91523337070BD204B1B7825
:107F7000ABB3002001F0E4F9012001F0E1F91E4863
:107F8000FFF7C4FC0023337070BD022001F0D8F964
:107F9000174B00221A7070BD01F0C0F940F6CD41B8
:107FA00041F69A13022C18BF19464DE701F0B6F9B5
:107FB0006DE701F0B3F940F6CD4157E701F0AEF9B6
:107FC00041F69A1178E701F0CDF9A6E701F0CAF978
:107FD000B3E701F0C7F9C0E701F0C4F985E701F0A4
:107FE000C1F9CCE7D42A0020D82A0020E02A0020BA
:107FF000692A0020702A0020B02A002038B5BA4B28
:108000001C6814F0010401D1204638BDB74C237818
:1080100005464BB1B64B1B78002020700BB301F026
:108020008FF9012001F08CF9172D00F25A81DFE859
:1080300015F01A015C005C00B500C800E300F60012
:10804000DB00440050004400500004011B001B00F2
:108050001B001B001B000B0179008C009F007300AC
:10806000730001F07FF9DFE7A248FFF74FFC0446F9
:10807000D5F1110000F00881002C40F005810128A5
:1080800014D0C82505FB00F54FF400434FF47A7077
:108090000021C3FB05014FF4FA62002303F038FA14
:1080A000224601469348FFF7EBFB0446022001F00D
:1080B00035F98F4B01221A70A6E70120207001F0DC
:1080C00065F9BDE838408C48002240F26661FFF750
:1080D000D7BB0120207001F059F9BDE8384086482F
:1080E00000224FF40051FFF7CBBB002001F002F952
:1080F000002800F0DD80002001F022F9022D47F277
:10810000333118BF4FF480317C4B7B481D70BDE884
:1081100038400022FFF7B4BB01F02EF9774B002462
:108120001D7071E7724B1B78002B00F0CE80002091
:1081300001F006F9012001F003F9002001F0EEF84A
:108140006E4B13221A7000245EE7694B1B78002BDC
:1081500000F0C180002001F0F3F8012001F0F0F8F8
:10816000012001F0DBF8654B14221A7000244BE764
:108170005F4B1B78002B00F0B180002001F0E0F88D
:10818000012001F0DDF8002001F0C8F8012001F025
:10819000C5F85A4B15221A70002435E7002001F06B
:1081A000A9F800287CD0002001F0CAF843F233314E
:1081B000524B514803241C70BDE838400022FFF7A1
:1081C0005FBB002001F096F8002864D0002001F089
:1081D000B7F84FF48031494B474804241C70BDE880
:1081E00038400022FFF74CBB002001F097F8434BCA
:1081F00007221A70002407E7002001F07BF800280E
:1082000053D0002001F09CF83C4B3B4805241C70E7
:10821000BDE83840002240F6CD41FFF731BB0020D9
:1082200001F0B4F8354B344806241C70BDE83840E2
:10823000002240F26661FFF723BB01F09DF82F4B4F
:108240000C221A700024DFE6294B1B78002B39D052
:10825000002001F075F8012001F072F8274B12227E
:108260001A700024D0E6224B1B788BB3002001F05B
:1082700067F8012001F064F81F48FFF747FB1F4A29
:10828000002104461170BFE6022001F059F8184B96
:1082900000221A70B8E601F041F841F69A119AE707
:1082A00001F03CF840F6CD4182E701F037F8ABE74A
:1082B00001F034F840F6CD4141F69A13022D18BF73
:1082C000194621E701F04EF8C8E701F04BF834E712
:1082D00001F048F8D0E701F045F841E701F042F835
:1082E00051E7002490E600BFD42A0020D82A0020BD
:1082F000692A0020702A0020B02A0020E02A0020ED
:1083000038B5214B214A196081070446106004D416
:1083100010F0010534D1284638BD1D4B1D480E25EF
:108320001D7040F233320121FFF710F8054630B1DD
:10833000E207F0D5012001F049F8284638BDFFF7E3
:1083400065F805460028F3D10146134A1348FFF7A4
:1083500089FAE3070546DED5012001F037F8002D44
:10836000D9D10F4A0F480021FFF77CFA05460028B3
:10837000D1D1BDE838400C4A0C480121FFF772BA50
:10838000012001F023F8ECE7DC2A0020D42A0020A9
:10839000D02A0020F8B90200117D020004BA0200C0
:1083A000397D020008BA0200857C020000BA020092
:1083B00099B110B4B2FBF3F403FB1424A4B244B992
:1083C000C0E9001484608281C38120465DF8044BBB
:1083D000704709205DF8044B70470E20704700BFBE
:1083E00030B482B050E8013F9DB2C48925448489ED
:1083F000A54228BF2D1B0489A54202BFBFF32F8FC2
:10840000002207E0C5EA030540E80154002CE9D149
:108410004FF001028DF803200193019B9DF803208A
:108420000B602AB10B880068184402B030BC70475A
:1084300002F0FF03184602B030BC70470A884B8830
:108440009A4201D00020704750E8012FC2EA024250
:1084500040E80123002BF7D10120704730B482B0EF
:1084600050E8023F1FFAA3F5C488A54202BFBFF33C
:108470002F8F00220DE0C48925448489A54228BF9E
:108480002D1BC3EA054540E80254002CE8D14FF00B
:1084900001028DF803200193019B9DF803200B60DE
:1084A0002AB14B880068184402B030BC704702F013
:1084B000FF03184602B030BC704700BF0A884B88E3
:1084C0009A4201D00020704750E8022FC2EA2242AF
:1084D00040E80223002BF7D1012070474A0901230D
:1084E00001F01F0100EB820003FA01F100F022B855
:1084F00001F01F0201234909934000EB8100D94399
:1085000000F026B84B0901F01F0150F82300C840C5
:1085100000F00100704700BF10B4034653E8000F9D
:108520000A4643E8002494F0000FF7D15DF8044BAD
:10853000704700BF10B4034653E8002F42EA010021
:1085400043E8000494F0000FF6D15DF8044B704747
:1085500010B4034653E8002F02EA010043E8000488
:1085600094F0000FF6D15DF8044B704710B4034649
:1085700053E8002F02EB010043E8000494F0000FE1
:10858000F6D15DF8044B704710B4034653E8002F52
:10859000A2EB010043E8000494F0000FF6D15DF86F
:1085A000044B704710B40346012253E8001F41EA10
:1085B000020043E8000494F0000FF6D15DF8044B8C
:1085C000704700BF10B40346002253E8000F00EAD2
:1085D000020143E8001494F0000FF6D15DF8044B5B
:1085E000704700BFB8B130B4D0E90112521A046824
:1085F000D2B2531E2160DBB242B101680A685C1E30
:10860000551C0D601370E3B2FF2BF6D103680020F8
:10861000187130BC70470E20704700BFF0B583B0B2
:10862000044600250DF107008DF80750FFF790F97B
:10863000D4E900311A688A4210D9511E19602168A4
:10864000A3680F6812F8015C0A79268AE068DB1BD0
:10865000DBB29A4206FB050538BF0B719DF8070097
:10866000FFF79CF9284603B0F0BD00BF30B50546C2
:1086700083B000230DF107000C468DF80730FFF79B
:1086800067F92A681368591C1160E9682A8A641A14
:10869000B4FBF2F41C709DF80700FFF77FF903B0FC
:1086A00030BD00BF826842B110B50446436901681D
:1086B000006998470023A36010BD70470EB400B551
:1086C00082B0039921B104AB01AA019300F0ACF888
:1086D00002B05DF804EB03B0704700BF2DE9F04F26
:1086E000164683B0B142DDE90C920F4605469A4624
:1086F000C0F095800B464FF00108B3FBF6F39E42A5
:1087000008F10108F9D9D04538BFD04612F001036D
:10871000019302D1B9F1000F5ED1AA68012403E0F0
:108720000AF1FF3A06FB04F4BAF1010FF8D8B7FBDF
:10873000F4F39E42F6D9DFF8ECA007E0B442B4FBB4
:10874000F6F31AD3AA681C46B7FBF3F31AF803B082
:10875000BBF10A0F04FB137728D02B68511CA960CA
:1087600003F802B0D5E901329A42E7D32846FFF771
:1087700099FFB4FBF6F3B442E4D2019B9BB1B9F18B
:10878000000F10D02024C84509F1FF390BD2AB6887
:108790002A68591CA960D454D5E901329A4214D2EE
:1087A000B9F1000FEFD103B0BDE8F08F511C2B6879
:1087B000A9604FF00D019954D5E901329A42CCD30A
:1087C0002846FFF76FFFAA68C7E72846FFF76AFF4A
:1087D000B9F1000FD7D1E6E793071AD42024AA688D
:1087E000C84502F1010199D22B68A9609C54D5E9D2
:1087F00001329A4209F1FF3903D2B9F1000FEFD1EA
:108800008CE72846FFF74EFFAA68B9F1000FE7D1C1
:1088100084E7BAF1000F0CBF30242024DFE74FF0CB
:10882000010870E70CBA0200002900F054822DE91B
:10883000F04FDFF8B8950C7885B0064690460D46A7
:108840004FF00D0A10E00A2CB36800F0AD803268DA
:10885000591CB160D454D6E901329A4280F0A0800C
:108860002C78002C00F087800135002C00F08380EC
:10887000252CE8D1294600270D4611F8012B2D2A79
:1088800000F08880302A00F088802B2A7AD02A2AAB
:1088900000F09980A2F13003092B4FF000040BD8AF
:1088A00004EB840402EB440415F8012FA2F1300319
:1088B000092BA4F13004F3D92E2A00F09080002374
:1088C00001E015F8012F02F0FB016829F9D0252AF3
:1088D00000F07781583AD1B2202947D8202A45D8CC
:1088E000DFE812F035014400440044004400440035
:1088F0004400440044004400440043011301440088
:108900004400440044001301440044004400440077
:1089100044004400D20044004400A20044009400FB
:1089200044004400350101209842024638BF1A46EF
:108930000292002C40F05081B80740F16E81002B6C
:1089400040F04E821C46BBF1000FC0F20A827A074B
:1089500000F11A8207F00302022A00F0EA81CDE951
:10896000004759460A223046FFF7B8FE01352C78F9
:10897000002C7FF479AF337B002B40F01C8105B0D5
:10898000BDE8F08F0D4611F8012B2D2A47F00407A2
:108990007FF478AF47F001076EE747F002076BE717
:1089A0003046FFF77FFE5BE73268591CB16002F882
:1089B00003A0D6E901239342FFF449AF3046FFF705
:1089C00071FEB36843E7D8F800301A1DC8F80020DC
:1089D0006A781C682E2A05F101057FF470AF6A7869
:1089E000A2F13003092B05F101054FF000033FF61A
:1089F0006AAF03EB830302EB430315F8012FA2F1E7
:108A000030010929A3F13003F3D95CE7D8F800203D
:108A1000111DC8F8001011683046CDE900470A2240
:108A2000FFF75CFE0135A2E7D8F800301A1DC8F840
:108A3000002017F00107D3F800B040F0F080BBF140
:108A4000000F03D0584602F059FD0746BC4240F2E1
:108A50004381002C00F04081202205E0BC4200F060
:108A60003B81002C00F03881B1683368481CB0604D
:108A70005A54D6E90130984204F1FF34EED330461F
:108A8000FFF710FE2022E9E7D8F80020131DC8F8F0
:108A90000030B36831681768581C3022B060CA547F
:108AA000D6E90123934280F0EF803268581C782188
:108AB000B060D154D6E901329A4280F0E0800F2FA5
:108AC00003D93B461B090F2BFCD84FF0805406E01E
:108AD0000F2C4FEA14137FF649AFB2681C46B7FB60
:108AE000F4F319F803B0BBF10A0F04FB137754D069
:108AF0003368511CB16003F802B0D6E901329A42E2
:108B0000E6D33046FFF7CEFDE2E7D8F80020111D8E
:108B1000C8F80010D2F800B08BEAEB72A2EBEB724F
:108B2000092A7FF700AFDFF8C8C201201146632988
:108B3000ACFB02E200F101004FEAD202F6DC9842FF
:108B4000024638BF1A460292002C45D1F4E6D8F806
:108B50000020111DC8F8001011683046CDE900470B
:108B60001022FFF7BBFD013501E7D8F800301A1DD0
:108B7000C8F800201C78B3680A2C00F01181326814
:108B8000591CB160D454D6E901329A42FFF4EEAEDA
:108B90003046FFF787FD0135E9E63368511CB160C7
:108BA00003F802A0D6E901329A42A1D33046FFF77A
:108BB00079FDB2689CE7304605B0BDE8F04FFFF79D
:108BC00071BDB3683168581CB060CA54D6E901322F
:108BD0009A42DDD20135CAE6BBF1000F59DB7A07B4
:108BE00057D4B80702D5002B3FF4ADAEF9073FF5D7
:108BF000AAAE94B120220299A142BFF4A4AEB168FA
:108C0000481CB06030684254D6E90101814204F149
:108C1000FF3480F0D480002CEDD1002493E69BF843
:108C20000030002B00F0E080B0685F46CBF101021D
:108C30000A2B02EB070B3CD0411CB16031680B548E
:108C4000D6E90130984226D217F8013F002BEFD128
:108C50005C457FF68BAE202702E05C453FF486AE94
:108C6000B2683368511CB1609F54D6E901329A4210
:108C700004F1FF34F1D33046FFF714FDEDE7304641
:108C8000FFF710FDB2681AE73046FFF70BFDB36837
:108C90000BE7013CA5E730460292FFF703FD17F80A
:108CA000013F002BD4D0029AB0680A2B02EB070BCD
:108CB000C2D1411CB160316801F800A0D6E90110B1
:108CC0008842B9D33046CDE90232FFF7EBFCDDE94B
:108CD0000232B068B0E770479BF80040002C3FF4C8
:108CE00045AE0A2CB0680ED03368421CB2601C54EA
:108CF000D6E90130984214D21BF8014F002C3FF402
:108D000035AE0A2CF0D13368421CB26003F800A0E3
:108D1000D6E901309842E7D33046FFF7C3FCB0688C
:108D2000E2E73046FFF7BEFC1BF8014F002CD8D11C
:108D30001CE6002B7FF413AE8CB130220299A142C5
:108D4000BFF40DAEB168481CB06030684254D6E93B
:108D50000101814204F1FF343BD2002CEED100240A
:108D6000FDE5B1684A1CB26032682D205054D6E946
:108D700001219142CBF1000BFFF4ECAD304603939F
:108D8000FFF790FC039BE5E5B1684A1CB2603268CE
:108D90002B205054D6E901219142FFF4DBADEDE7E1
:108DA0003268591CB16002F803A0D6E9012393424E
:108DB000FFF4E5AE3046FFF775FCB368DFE63046FA
:108DC0000393FFF76FFC039B2022002C7FF413AF6B
:108DD00023E730460393FFF765FC039B3022BCE793
:108DE000F9073FF5B0AD18E79B4631E70CBA020032
:108DF000CDCCCCCCFFF7F6BB2DE9F041058A033191
:108E0000043D4E198046B6FBF5F6FFF707FCA0B30C
:108E1000F6B24FF48073013E0446C580C0F800806E
:108E200083802BD00346002508E06279AE4202F130
:108E3000010262713860C0F800801FD040461F46B2
:108E4000FFF7ECFB013503460028EED16779791E68
:108E500017D02246013399421268FBD1D2F8008024
:108E60005FB12668002501E03446366821460135A9
:108E70004046FFF7FBFBAF42F6D800242046BDE892
:108E8000F08120682146FFF7F1FBF6E7043001216D
:108E9000FFF76CBB2DE9F041012104460430FFF7D8
:108EA00073FB10F0FF0301D0BDE8F0816779791EF4
:108EB00016D02246013399421268FBD1D2F80080C5
:108EC000002FF1D02668002501E03446366821469F
:108ED00001354046FFF7CAFBAF42F6D8BDE8F08146
:108EE00020682146BDE8F041FFF7C0BB2DE9F843FB
:108EF0000546C6884079144606FB00F2043A04EBA6
:108F0000030C1F1D624538BFD41ABE428846B7FB0A
:108F1000F6F106FB117002D801392D68FCD1371A21
:108F2000A74228BF27469CB14FF000090430E41B3C
:108F300028443A4608EB090102F0CAFAA642B944AD
:108F40002D6837464FF0000028BF2746002CEDD192
:108F5000BDE8F8832DE9F8430546C68840791446F4
:108F600006FB00F2043A04EB030C1F1D624538BFF8
:108F7000D41ABE428846B7FBF6F106FB117002D840
:108F800001392D68FCD1371AA74228BF27469CB16A
:108F90004FF0000904302918E41B3A4608EB090099
:108FA00002F096FAA642B9442D6837464FF0000009
:108FB00028BF2746002CEDD1BDE8F88341DF70477C
:108FC000064A074B10B5002414701C60BFF35F8F76
:108FD0000449054800F042F8204610BDF02A002060
:108FE000F42A002028BA0200E82A002000B583B045
:108FF00000230DF107008DF80730FEF7A9FCF1EE14
:10900000103A23F09F03E1EE103ABFF35F8F0B4B52
:109010004022C3F884219DF80700FEF7BFFC02F050
:1090200099F828B920BF40BF20BF03B05DF804FB0A
:10903000FFF7C4FF03B05DF804FB00BF00E100E0F0
:10904000826800239360826813618268536182683A
:10905000D3608268536082681360704701600B6858
:1090600043604A68934204BF00234360704700BFD7
:10907000436843B1026891680B444360526893426D
:1090800004BF00234360704770B5446806462068FB
:109090000D4618B908E02468206828B1B36829464D
:1090A00098470028F7D120682860256070BD00BF70
:1090B0004368186808B102681A6070474368186806
:1090C000704700BF4368186818B908E00346006895
:1090D00028B18142FAD10A681A60012070477047AE
:1090E000114910B4A1F5947205E052F8333098425A
:1090F00038BF21460CD28C1AE30F03EBE4035B105C
:10910000914202EBC304F0D808485DF8044B704765
:1091100002D904F10802EEE76068044B5DF8044BE5
:10912000002808BF1846704768BF02002CBE020026
:1091300010B44FF080414FF080520020C1F80C0174
:109140005E4BC1F81001C1F83805D2F80414C3F819
:109150002015D2F80814C3F82415D2F80C14C3F85B
:109160002815D2F81014C3F82C15D2F81414C3F82B
:109170003015D2F81814C3F83415D2F81C14C3F8FB
:109180004015D2F82014C3F84415D2F82414C3F8BB
:109190004815D2F82814C3F84C15D2F82C14C3F88B
:1091A0005015D2F83014C3F85415D2F83414C3F85B
:1091B0006015D2F83814C3F86415D2F83C04C3F82B
:1091C0006805D2F840043E49C3F86C050968D2F836
:1091D0004424C3F87025082924D04FF08043D3F8E5
:1091E0000024D20744BF6FF00102C3F80024354ABF
:1091F000D2F8883043F47003C2F88830BFF34F8F41
:10920000BFF36F8F4FF01023D3F80022002A23DB27
:10921000D3F80432002B1FDB2B4B2C4A1A605DF86D
:10922000044B70472A4B1B68002BD6D129482A4A89
:109230002A4C04602A492B4BFB20C2F818050A6807
:109240001B68294822F00F0203F00F0313434FF469
:1092500000720B600260C0E7244A0123C2F80435A3
:10926000D2F80034002BFBD04FF0102312211F4AFC
:10927000C3F80012D2F80034002BFBD04FF01023BB
:1092800012211A4AC3F80412D2F80034002BFBD082
:1092900000231649C2F80435D1F80034002BFBD066
:1092A000BFF34F8F0749124BCA6802F4E0621343C1
:1092B000CB60BFF34F8F00BFFDE700BF00C0004091
:1092C0003001001000ED00E0042300200090D003E6
:1092D000340100108C56004000F00040488103002B
:1092E000E40E0040580200104096024000E00140A9
:1092F0000400FA05074B1B5C1F2B8ABF064A4FF080
:10930000A04203F01F03D2F80405D84000F001008A
:10931000704700BF68BF020000030050064B1A5C94
:109320001F2A86BF054902F01F024FF0A04101230A
:109330009340C1F80835704768BF02000003005031
:10934000064B1A5C1F2A86BF054902F01F024FF028
:10935000A04101239340C1F80C35704768BF02005B
:10936000000300504FF0A04380214FF48042C3F827
:109370000C15C3F80C2570474FF0A04380214FF423
:109380008042C3F80815C3F8082570470A4B185CDB
:109390001F288ABF09494FF0A04100F01F00D1F8F3
:1093A00004350122824022EA03001340C1F8080577
:1093B000C1F80C35704700BF68BF020000030050C1
:1093C0000D3818BF4FF0FF30704700BFC10707D4FA
:1093D000830742BF4FF0A0430C22C3F834277047E5
:1093E0004FF0A043032210B44FF48041C3F81C2770
:1093F0008024C3F838278207C3F80C45C3F80C153E
:1094000004D54FF0A0430C22C3F834275DF8044B79
:10941000704700BF10B568B90E4CA3680122627096
:109420003BB1D3E900230020A2609847A368002B3A
:10943000F7D110BD0128FCD1064C2369A070002B88
:10944000F7D0D3E900230120226198472369002B3C
:10945000F7D110BDF82A002070B910B5074CA368E9
:10946000012262703BB1D3E900230020A26098473B
:10947000A368002BF7D110BD704700BFF82A002069
:1094800030B5012883B004D003281DD0B0B103B09B
:1094900030BD224C00230DF107008DF80730FEF798
:1094A00057FA23784BB3E3689DF807000133012294
:1094B000E360A270FEF772FA03B030BD184B0122D0
:1094C000C3F8802003B030BD144C00F0B1F8002385
:1094D0000DF107008DF80730FEF73AFAE368013B1B
:1094E000E360E5682DB19DF80700FEF757FA03B079
:1094F00030BD00F0AFF8A570F5E70A486360A360DF
:109500002361E36000F088F801F024FE10B101232C
:109510002370C8E700F08CF8F9E700BFF82A0020B4
:1095200000E100E01594020030B585B0047845688C
:109530008DF80040D0E90240064A074B039053F8EB
:109540002130019552F821108DF80840684698475F
:1095500005B030BD0C2B0020142B002030B585B099
:10956000047845688DF80040D0E90240064A074B70
:10957000039053F82130019552F821108DF80840DE
:109580006846984705B030BD0C2B0020142B0020F6
:109590002DE9F047DFF8748090F800E04B7F08F881
:1095A0000E300D46074616460FCD88B06C460FC4E8
:1095B00095E80F003D78DFF85890DFF858C018F8AC
:1095C000055049F82E6084E80F004CF82E00CDF8C5
:1095D00010E05DB1002E0B4A694607F1040008BF98
:1095E000324601F0B9F808B0BDE8F087002E064A0F
:1095F000694607F10C0008BF324600F01FFE08B0B4
:10960000BDE8F087299502005D950200F02C00204E
:10961000142B00200C2B0020044A137923B90121BC
:109620001060918018467047852070471C2B0020E1
:10963000074B1A68D20704D4C021012283F8001313
:109640001A604FF080430122C3F81825704700BF0D
:1096500000E100E0044B01221A604FF08042D2F892
:109660001834DB03FBD470470C00004010B5174BD7
:109670001A6882B062B10021154A19601B685079DE
:1096800000934FF080410123009CC1F8083398B14A
:10969000104B1A68BAB100221A601B6801934FF090
:1096A000804202210A4B0198C2F808131B6801206E
:1096B00002B0BDE810401847116853718847054B48
:1096C0001A68002AE7D102B010BD00BF00010040B7
:1096D0001C2B00200401004030B5224C94F86A5045
:1096E00083B0002D3AD14FF0FF304FF0FF314FF0F3
:1096F000FF33C4E90001C4E90C01C4E90E01C4E967
:109700001001C4E91201C4E91401C4E916010622DA
:10971000294604F16400C4E90233C4E90433C4E90E
:109720000633C4E90833C4E90A33236601F0DEFED8
:109730000D4A0E4B0E491D60C02082F806034020E2
:1097400010601B68019301984FF0004301222846E6
:1097500084F86A20C1F8043303B030BD082003B098
:1097600030BD00BF282B002000E100E07C610040FC
:1097700000600040034B93F86A00003818BF0120D6
:10978000704700BF282B0020F0B4754B1D1895F9C9
:109790003040002C61DA8C78A707C4F3400C53D416
:1097A0001C6A013400F0D5805C6A013400F0CA8084
:1097B0000C260A2453F82450013552D0651CB542BA
:1097C0003FD253F82570013700F0B480A51CB54294
:1097D00037D253F82570013700F0AC80E71CB74250
:1097E0002FD253F8275001353AD0271DB74228D23F
:1097F00053F82750013533D0671DB74221D253F8B3
:10980000275001352CD0A71DB7421AD253F8275044
:10981000013525D0E71DB74213D253F82750013543
:109820001ED004F10807B7420BD253F82750013578
:1098300016D00934B44204D2DC6A013408BF0B24C8
:109840000FD00420F0BC70471C68013474D05C68F1
:1098500001346DD008260224ACE70820F0BC704724
:109860003C461E1865B243F8242086F83050BCF1FF
:10987000000F02D11C4484F858008A7854071AD487
:10988000D60744D41F284C7887BF364E00F01F02FD
:1098900002464FF0A04602F5E072A40046F82240CE
:1098A000314EC40800F0070C375D012202FA0CF2B9
:1098B0003A4332558A7812F002021CD0AB0003F111
:1098C000804303F5C0430978D3F8104524F44F349E
:1098D00024F44074C3F8104502020904D3F81005BB
:1098E00001F4403102F47C520A430243C3F81025CC
:1098F0000020F0BC7047083D2B44087893F86010B6
:1099000041EA801183F860101046F0BC70471F28B0
:1099100087BF144A00F01F0404464FF0A04202EB38
:109920008402D2F8004724F00204C2F80047B7E7E7
:10993000012496E72C4694E7002485F830401A600D
:1099400025469AE7092685F830605A62344635463E
:1099500090E7082685F830601A623446354689E774
:10996000282B0020000300508C2B002070B4324CB8
:10997000251883B095F93030072B22DD234493F866
:1099800058309B09032B46D0012B0CBF4FF40032FB
:109990004FF440321F288ABF284B4FF0A04300F0FD
:1099A0001F0003EB8000D0F8003723F44033C0F8E9
:1099B0000037D0F800371A43C0F8002703B070BC56
:1099C0007047DAB2072AF9D8980000F1804000F514
:1099D000C04003F140029200D0F8106592B202F14B
:1099E000804202F5C04246F00106C0F81065002032
:1099F000106012680192019A0029DFD095F9302099
:109A000054F82220002AD9D00D49012202FA03F38A
:109A1000C1F80433D2E71F288ABF084A4FF0A0429A
:109A200000F01F03D2F8102598BF0346DA4002F079
:109A3000010202321204ADE7282B0020000300507F
:109A4000006000401F288ABF054B4FF0A04300F084
:109A50001F00D3F8103523FA00F000F00100704722
:109A6000000300502DE9F047002388B0CDE9023310
:109A7000C94A1168012900F04B821E46C74B1A687B
:109A8000012A00F03782C64B1A68012A00F02482AE
:109A9000C44B1A68012A00F01182C34B1A68012ACC
:109AA00000F0FE81C14B1A68012A00F0EB81C04B27
:109AB0001A68012A00F0D881BE4B1A68012A08D022
:109AC000BD4B1A68012A00F02F8216BB08B0BDE812
:109AD000F087BA4AD2F804231706F1D500221A609B
:109AE00019680091196E0098012903F1600346F08E
:109AF00080060ED11A601B6801934FF0A042019BB3
:109B0000D2F81025AE4B0292D3F81035039346F0ED
:109B10000046AC4F00240125A30003F180432E42F0
:109B200003F5C0434FEA45050BD0D3F8100557F8AD
:109B30002420D3F81015C0F30520C1F3014102B170
:109B400090470134082CE7D1002EBFDA9D4C9C4F82
:109B50004FF0FF304FF0FF31CDE9060194F960007E
:109B60000DF110080023451CC8F8043004934FF091
:109B7000010600F0F780C0F3C20908AB03EB090E41
:109B800000F007031EF8082C06FA03F312EA030597
:109B90005FFA80FC00F03F0021D022184FEA9C11B0
:109BA00092F9302054F82220002A00F0378103294E
:109BB00000F036811F2800F2EB8005464FF0A04CE4
:109BC0000CEB850C1EF8185CDCF800E71D40CEF3AA
:109BD000014E40F0D180BEF1030F00F0B78194F93F
:109BE0006100411C33D0C0F3C20E08AB03EB0E0C76
:109BF00000F007031CF8081C06FA03F31942C2B26E
:109C000000F03F0023D004EB0009910999F930904E
:109C100054F82990B9F1000F00F01281032900F0E7
:109C200012811F2800F2F68086464FF0A04202EB18
:109C30008E021CF818ECD2F800C71EEA030FCCF312
:109C4000014C40F0DA80BCF1030F00F0918194F9EF
:109C50006200421C33D0C0F3C20E08AB03EB0E0C03
:109C600000F007031CF8081C06FA03F31942C2B2FD
:109C700000F03F0023D004EB0009910999F93090DE
:109C800054F82990B9F1000F00F0D080032900F0BA
:109C9000D0801F2800F2A58086464FF0A04202EB3C
:109CA0008E021CF818ECD2F800C71EEA030FCCF3A2
:109CB000014C40F08980BCF1030F00F06D8194F9F4
:109CC0006300431C33D0C0F3C20E08AB03EB0E0C91
:109CD00000F007031CF8081C06FA03F31942C2B28D
:109CE00000F03F0023D004EB0009910999F930906E
:109CF00054F82990B9F1000F00F0AC80032900F06E
:109D0000AC801F288BBFBE464FF0A04E02F01F0252
:109D100002460EEB82021CF818ECD2F800C71EEACD
:109D2000030FCCF3014C60D1BCF1030F1CD0002D0C
:109D30003FF4CCAE4FF0A042029BD2F81015D7F8FA
:109D400010058B4203D1039B83423FF4BFAEDDE994
:109D50000423CDE9021094F96000451CCDE90623E7
:109D60007FF409AF00253AE7032900F02981B9F112
:109D7000000FDCD0C847DAE7BEF1020FF2D10329A9
:109D800000F039810025002A3FF429AF904726E7EB
:109D90000CF01F05BC4613E7006100400461004061
:109DA000086100400C6100401061004014610040F7
:109DB000186100401C6100407C6100400060004070
:109DC00000030050282B0020BCF1020F7FF477AF76
:109DD000032900F00D81B9F1000F3FF470AFC847BF
:109DE0006DE702F01F0E3A4659E7BCF1020F9ED113
:109DF0000329BCD14FF4403CE4E0BCF1020F7FF4F6
:109E000026AF032900F0F180B9F1000F3FF41FAF36
:109E1000C8471CE702F01F0E3A4608E70329A1D104
:109E200018F809501D4308F80950C3E603297FF4C8
:109E300046AF18F80EA04AEA030A08F80EA028E771
:109E400003297FF404AF18F80EA04AEA030A08F8C1
:109E50000EA0E6E603297FF46AAF18F80EA04AEADE
:109E6000030A08F80EA04CE7644AD2F8042352060D
:109E70007FF522AE00221A601B680093009B46F01B
:109E8000400619E65D4AD2F8042391067FF50FAE2D
:109E900000221A601B680093009B46F0200606E62D
:109EA000564AD2F80423D0067FF5FCAD00221A6092
:109EB0001B680093009B46F01006F3E54F4AD2F86A
:109EC000042314077FF5E9AD00221A601B68009394
:109ED000009B46F00806E0E5484AD2F804235507FF
:109EE0007FF5D6AD00221A601B680093009B46F0F8
:109EF0000406CDE5414AD2F8042397077FF5C3ADA8
:109F000000221A601B680093009B46F00206BAE527
:109F10003A49D1F8046316F001063FF4AFAD13607F
:109F200013680093009BA9E500221A601B68019347
:109F30004FF0A042019BD2F81025314B0292D3F88A
:109F400010350393002E3FF401AEE0E503297FF4C2
:109F50001AAF4FF40035DCF8003723F44033CCF867
:109F60000037DCF800372B43CCF8003701250AE72F
:109F700003297FF449AF4FF4003CD2F8003723F4B3
:109F80004033C2F80037D2F8003701354CEA0303FA
:109F9000EDB2C2F8003737E703297FF41CAF4FF466
:109FA000003CD2F8003723F44033C2F80037D2F82F
:109FB000003701354CEA0303EDB2C2F800370AE777
:109FC0004FF4003CD2F8003723F44033C2F8003796
:109FD000D2F80037013543EA0C03EDB2C2F800377E
:109FE000B9F1000F7FF4C6AEA4E64FF4403CC4E7DD
:109FF0004FF4403CD5E74FF44035ACE700600040FB
:10A0000000030050014B1B68184700BF942B002031
:10A01000114B98421DD130B583B000230DF10700DC
:10A020008DF807300D46FDF793FC0C4B1C794CB9AD
:10A030009DF807001D6001221A71FDF7AFFC204654
:10A0400003B030BD9DF80700FDF7A8FC112003B058
:10A0500030BD0020704700BF00200040942B00203E
:10A06000034B984203D1034B00221A601A717047C8
:10A0700000200040942B002030B56E4AD2F8043303
:10A0800099058BB068D5D2F82431002B64D0002319
:10A09000C2F82431D2F8243101934FF40171664B98
:10A0A0000198C2F8081393F8291009B901215160E9
:10A0B000604902228DF81820D1F88024C1F880244C
:10A0C0009869D968099200240025CDE90710C3E9F1
:10A0D0000645D3E9001206A89047564AD2F81C312B
:10A0E000C3B1554B5869196A88426AD993F8281048
:10A0F00001F0FF00002964D1C2F81C01D2F81C1144
:10A10000039103999C68186A196A205C01311962ED
:10A11000C2F81C05474AD2F84431DBB10021464B56
:10A12000C2F84411D2F8440193F829100090009825
:10A1300009B1012111609A6962B1586AD968002297
:10A140009A610122CDE907108DF8182006A8D3E9FD
:10A15000001290470BB030BD364AD2F804335B078B
:10A16000BBD5D2F80831002BB7D0334B9969002901
:10A170003ED00021C2F80811D2F8081104910499C8
:10A18000D868596AD2F8182542545A6A9969013236
:10A190005A625A6A8A42A0D1DA69002A31D0DD684F
:10A1A0005C6A18699A6101210022D860DA615A62FA
:10A1B0008DF81810CDE90754D3E9001206A890478E
:10A1C0008BE71C4A0021C2F81C11D2F81C21029214
:10A1D000029A5A69002A9DD058699A688DF8181019
:10A1E00008905961079206A8D3E90012904791E7B9
:10A1F000C2F80811D2F8080105900598D2F8182580
:10A20000C7E793F8292012B90A4A01215160094A87
:10A210004FF40171C2F80813596ADA6808910024F2
:10A22000012007928DF81800D3E900129C6106A85E
:10A23000904752E700200040A02B00202DE9F0417C
:10A24000DFF8DC8106792C2303FB068382B093F8C8
:10A250002A30002B40F09A8005460C4600686B4976
:10A260001746FFF7D5FE002840F08C802368591C64
:10A2700019D01F2B4FF001028ABF65494FF0A04152
:10A2800003F01F0302FA03F3C1F8083523681F2BFC
:10A2900086BF03F01F035E4A4FF0A04203F5E07350
:10A2A000032142F8231063685A1C0BD01F2B86BF72
:10A2B00003F01F03564A4FF0A04203F5E07300215C
:10A2C00042F823102B68A269C3F82425217D637D01
:10A2D0002A680B43C2F86C35D4E900122B68C3F826
:10A2E0001425C3F80C15237D012B5BD02C2303FB15
:10A2F00006F308EB03025760226948F8032077B39E
:10A300002A68237F434C0021C2F81C11D2F81C217B
:10A3100000922A68009FC2F84411D2F844112A68BA
:10A3200001910199C2F804432A6842F307310029D8
:10A330004FEA12322EDB01F1604101F561415B0110
:10A34000DBB281F800332B68334C43F307325209F8
:10A35000C3F30433012101FA03F344F822302C2320
:10A36000296803FB0686042400230122C1F8004566
:10A37000C6E9063386F82A2086F82930736102B0D0
:10A38000BDE8F081112002B0BDE8F081082002B0E4
:10A39000BDE8F081214902F00F025B011144DBB2FC
:10A3A0000B76D0E7A368591C0BD01F2B86BF03F098
:10A3B0001F0317494FF0A04103F5E073002241F855
:10A3C0002320E3685A1C1AD01F2B8ABF10494FF074
:10A3D000A04103F01F03012202FA03F3C1F808357C
:10A3E000E3681F2B88BF03F01F0303F5E0738CBFE6
:10A3F00007494FF0A041032241F82320E3682A686F
:10A40000A168C2F80835C2F810156FE779A00200FC
:10A41000000300508000020000E100E0FCEC00E0DE
:10A42000A02B0020F8B53A4F047902682C2303FBD7
:10A43000047300215B68C2F8001583B10368354AD4
:10A44000C3F808230268344D42F307335B09203315
:10A45000C2F30432012101FA02F245F82320036815
:10A460004FF0FF3CD3F80C65D3F81455D3F808250A
:10A47000D3F81015C3F814C5C3F80CC503686645B6
:10A48000C3F808C5C3F810C50CD01F2E86BF06F050
:10A490001F06224B4FF0A04306F5E0764FF0020C6A
:10A4A00043F826C06E1C0BD01F2D86BF05F01F057C
:10A4B0001A4B4FF0A04305F5E075022643F82560DE
:10A4C0004D1C0BD01F2986BF01F01F01134B4FF00D
:10A4D000A04301F5E071022543F82150531C0BD035
:10A4E0001F2A86BF02F01F020C4B4FF0A04302F55B
:10A4F000E072022143F822100068FFF7B1FD2C231F
:10A5000003FB0474002384F82A306360F8BD00BFA5
:10A51000A02B00208402020000E100E000030050B4
:10A520002DE9F041314E05792C2303FB05630446E8
:10A53000586984B000284CD15A619960186283F838
:10A5400028002268C2F81C01D2F81C11226802916E
:10A550000121029F91602268D3F808C0C2F81C0153
:10A56000D2F81C11019101991F6A196A1CF8077031
:10A5700001311962C2F81C755A6812B104B0BDE805
:10A58000F0815F691A6A216897421BD9864602E00A
:10A5900093F828200ABBD1F81C21002AF8D0C1F872
:10A5A0001CE1D1F81C210392039AD3F820801A6A87
:10A5B0001CF8088001321A62C1F81C851A6A974299
:10A5C000E9D82168D1F81C31002BFBD00123CB60E6
:10A5D00004E0112004B0BDE8F0810F202C2303FB20
:10A5E000056500236B6104B0BDE8F081A02B00205D
:10A5F00030B5574BD3F824218BB0002A75D00022F8
:10A60000C3F82421D3F82421049202228DF81820C3
:10A61000049AD3F880144F4AC3F880140991D3F8F0
:10A620003C15D3680891002400250793C2E906452C
:10A630001168536806A89847454BD3F8442152B196
:10A640000021444AC3F84411D3F8440191690390AE
:10A650000398002938D13E4BD3F820215AB100216C
:10A66000C3F82011D3F8202102920120394A029C1C
:10A67000D8605069D8B9364BD3F85821AAB1002117
:10A68000C3F85811D3F85801324A01900198506923
:10A6900058B1D3F84C05936808908DF818105161A3
:10A6A000079306A8D2E9001398470BB030BDD3F842
:10A6B0004C05936808908DF818105161079306A80F
:10A6C000D2E900139847D6E7D3F83C35D168089310
:10A6D00000240025012307918DF81830C2E90645B2
:10A6E000D2E9001306A89847B5E7D3F8101100295E
:10A6F000A2D0C3F81021D3F810111648059105997E
:10A700008469D3F83C15A14296D1C469A4B1D3F8A9
:10A710000052846125F02005C3F80052D0E90343BC
:10A72000C26101220891C3600168436807948DF8F3
:10A73000182006A898477FE7C26884610123CDE905
:10A7400007218DF81830D0E9001306A8984773E761
:10A7500000200040D02B00202DE9F0430779804EE7
:10A7600007EBC70306EB830387B093F82030002B79
:10A7700040F0B58004460D4600687A499046FFF7E0
:10A7800047FC002840F0A7802B68591C4FEAC709F6
:10A7900019D01F2B4FF001028ABF73494FF0A0411F
:10A7A00003F01F0302FA03F3C1F808352B681F2BCF
:10A7B00086BF03F01F036C4A4FF0A04203F5E0731D
:10A7C000032142F823106B685A1C0BD01F2B86BF45
:10A7D00003F01F03644A4FF0A04203F5E073002129
:10A7E00042F823102368AA69C3F82425297D6A7DCD
:10A7F00023680A43C3F86C25D5E900312268C2F802
:10A800000C35C2F814152B7D012B74D009EB07020F
:10A8100006EB8203C3F804802B6946F82230B8F1B6
:10A82000000F47D021682B7F504D0022C1F8102126
:10A83000D1F8101101912168DDF804C0C1F8202180
:10A84000D1F8201102912168DDF808C0C1F8242157
:10A85000D1F8241103912168DDF80CC0C1F844211E
:10A86000D1F8441104912168DDF810C0C1F85821D5
:10A87000D1F85811226805910599C2F8045322684D
:10A8800042F3073100294FEA12322CDB01F160411B
:10A8900001F561415B01DBB281F800332368344D7F
:10A8A00043F307325209C3F30433012101FA03F3DE
:10A8B00045F822304F44226806EB87060023012426
:10A8C0000821C2F80015C6E9063386F820407361F6
:10A8D00007B0BDE8F083112007B0BDE8F083082081
:10A8E00007B0BDE8F083234902F00F025B01114479
:10A8F000DBB20B76D2E7AB68591C0BD01F2B86BF9F
:10A9000003F01F0318494FF0A04103F5E073002244
:10A9100041F82320EB685A1C1AD01F2B8ABF12491A
:10A920004FF0A04103F01F03012202FA03F3C1F824
:10A930000835EB681F2B88BF03F01F0303F5E07396
:10A940008CBF09494FF0A041032241F82320EB6856
:10A950002268A968C2F80835C2F8101556E700BF8A
:10A96000D02B0020F1A5020000030050100342008C
:10A9700000E100E0FCEC00E0F0B50579484C05EBA7
:10A98000C50304EB830383B05B68EE0083B1036807
:10A99000444AC3F808230268434F42F307335B0974
:10A9A0002033C2F30432012101FA02F247F82320D6
:10A9B0000268D2F8003223F02003C2F800320268A5
:10A9C0000123536002680021C2F85811D2F85811CF
:10A9D000026801910199D3600268D2F85831002BC6
:10A9E000FBD00023C2F8003503684FF0FF3ED3F8D8
:10A9F0000CC5D3F81475D3F80825D3F81015C3F88F
:10AA00000CE5C3F814E50368F445C3F808E5C3F89A
:10AA100010E50DD0BCF11F0F86BF0CF01F0C234BAF
:10AA20004FF0A0430CF5E07C4FF0020E43F82CE011
:10AA30007B1C0CD01F2F86BF07F01F071B4B4FF04E
:10AA4000A04307F5E0774FF0020C43F827C04F1CF6
:10AA50000BD01F2986BF01F01F01144B4FF0A043FC
:10AA600001F5E071022743F82170531C0BD01F2A17
:10AA700086BF02F01F020D4B4FF0A04302F5E072BB
:10AA8000022143F822100068FFF7EAFA354404EB8C
:10AA90008504002384F82030636003B0F0BD00BF5C
:10AAA000D02B00201003420000E100E00003005022
:10AAB000F0B401F06044B4F1005F82B02CD10579AC
:10AAC000274E05EBC50406EB840403466069EF00DE
:10AAD00000283ED16261A1601A68C2F82001D2F854
:10AAE00020C11A68CDF804C0DDF804C0C2F85801CE
:10AAF000D2F8582100921A68DDF800C0D4F814C0CA
:10AB0000C2F84415C2F848C51A680121916062680C
:10AB100032B102B0F0BC7047102002B0F0BC7047F8
:10AB20001A6800E0C8B9D2F82011D2F858010029FB
:10AB3000F8D090B90121D1601B68D3F85821002AC0
:10AB4000FBD07B1906EB830300225A6102B0F0BCF4
:10AB50007047112002B0F0BC70470F20F1E700BF32
:10AB6000D02B002072DF704773DF704777DF7047AC
:10AB700080B54FF4804182B00020FBF7E5FC00284F
:10AB800040F08E80FBF7D0FCFCF736FE002840F04A
:10AB9000A28000210120FDF7B3FB002840F098803F
:10ABA000FEF70EFA002840F0908000F047FA0028E7
:10ABB00040F08880002301A90120019300F01AFBD6
:10ABC00000287CD101A800F0D3FB002874D1434CAD
:10ABD000434F18222046002100F088FC4149DFF84D
:10ABE00018E10B68002002250522A0262075A0810F
:10ABF000A660606022701D700B680A265E700B688C
:10AC000098700B68DD700B68DA7498731D740320FC
:10AC100001252246FD241E769F60062604275C73CC
:10AC2000DD7307240825587409209F741E755C7510
:10AC30009D750D24D8754FF06F0C0F200B270C2637
:10AC40000E25DC76C3F804E083F80CC05F769E76B0
:10AC50001E241D77587724488C80FFF783FF40BB64
:10AC6000214C002221780120FFF780FF1F4B204854
:10AC70002049C01AC008000440F00300FBF7F8FDAB
:10AC800020780121FFF770FF80B90220FDF7B6F9A7
:10AC900048B9FBF7B3FC0028FBD1FEF7A7F9F8E7AA
:10ACA000FCF7CAFB6EE7FCF7C7FBF2E7FCF7C4FB57
:10ACB000EBE7FCF7C1FBD3E7FCF7BEFB87E7FCF74C
:10ACC000BBFB7FE7FCF7B8FB74E7FCF7B5FB6CE771
:10ACD000FCF7B2FB64E7FCF7AFFB5AE7F42B00206C
:10ACE0006FFD13160823002018230020A8C30200BC
:10ACF000D0C3020098BF020001060303F0B502882A
:10AD0000122A83B003463ED015D8102A73D0112AD8
:10AD10000FD16C4C828823889A420AD16068FCF774
:10AD2000F5FD18B1684B9B6903B198474FF6FF7367
:10AD3000238003B0F0BD502AFBD1634DC188EA895E
:10AD40009142F6D1028A022AF3D15E4C828826888B
:10AD50009642EED1123000F06BF9002800F09C8092
:10AD6000637A002B40F09F80D5E90113277A606851
:10AD70003246002F18BF1946FCF782FD0028D8D0B4
:10AD8000AB693BBBD5E74F4C828821889142D0D13B
:10AD90004089658985421FD8A58985421CD3E089F1
:10ADA0009D8940F2F313984294BF031AC31AAB4231
:10ADB00012D800F2F310A8420ED3434B5B694FF454
:10ADC00080722281002BB4D00122ADF806108DF8DC
:10ADD000042001A89847ACE73B4D267A6068D5E986
:10ADE0000113002E18BF194600236372FCF748FDBB
:10ADF0000028C5D19DE7C67B012E9AD1314C218810
:10AE00004FF6FF7291423FD1304D8288228003CDB0
:10AE1000C4F80A00C4F80E10598A608900258842D7
:10AE2000257222D8A08988421FD3E189988A40F2EE
:10AE3000F313994294BF4B1ACB1A834215D801F2EF
:10AE4000F311814211D3204D6672EB89002B7FF400
:10AE500070AF6B69002B3FF46CAF0121ADF8062099
:10AE60008DF8041001A8984763E7174DEB8900217E
:10AE70006172002B7FF45DAF60686968FCF700FDCC
:10AE800000283FF456AF7BE70F4B9B69002B3FF444
:10AE900050AF042098474CE76068FCF737FD002866
:10AEA0003FF447AF6CE76B6900222272002B3FF43E
:10AEB00040AF0122ADF806608DF8042001A8984744
:10AEC00037E700BF482C00202C2C00205C2C0020F1
:10AED0002DE9F04703888788103B98B004460A2B79
:10AEE0001CD8DFE803F030291B1B1B1B1B1B1B1E80
:10AEF0000600037A46483F2B4FEA1314394667D8B9
:10AF0000FDF7F6FA032C65D042483946FDF7F0FA12
:10AF1000022C63D040483946FDF7EAFA18B0BDE884
:10AF2000F087037A002BF9D1437A39481B07394659
:10AF30006BD5FDF7D3FAF1E738483946FDF7D8FA73
:10AF400018B0BDE8F087364A9368DB430093516838
:10AF50006846FDF7FDFA009B0193019B83B3002631
:10AF60003546294601A8FDF7CDFA28B118AB03EB09
:10AF70004603013623F8285C0135142DF1D10D96D6
:10AF80000DF1340CBCE80F0002AD0FC5BCE80F009A
:10AF90000FC59CE8070085E807008EB10DF10A088F
:10AFA000DFF888A008EB460638F8029F1D4D2846BA
:10AFB00049460435FDF79CFAAA45F8D1B045F3D1CE
:10AFC000132F12D90420FCF737FA18B0BDE8F08728
:10AFD000FDF784FA0F483946FDF780FA0E483946E6
:10AFE000FDF77CFA18B0BDE8F0870C483946FDF74C
:10AFF00075FA0C483946FDF771FAE37B012B8DD0C9
:10B0000009483946FDF76AFA88E7FDF771FA85E7DE
:10B010007C2C0020782C0020742C00206C2C00202C
:10B02000642C0020682C0020702C0020E02C0020D4
:10B03000007800F00100704710DF704770B53C4D9C
:10B040002B7884B0002B66D13A4E3B49012302A8ED
:10B050003370FEF703F8039B23B90EE0FEF708F800
:10B06000039B53B1D3E9002100209047044602A876
:10B07000002CF3D1204604B070BD304902A8FDF782
:10B08000EDFF039B4BB1D3E900210020904702A8BC
:10B09000FDF7EEFF039B002BF5D1294A0023126830
:10B0A0008DF8083002A80192FCF752FC254901A84E
:10B0B000FFF7C2FFB0FA80F304465B099DF8080071
:10B0C0002B70FCF76BFC002CD4D11F4B1F491C705C
:10B0D000347091F81623EC2352091341DB071ED577
:10B0E0001B4B9A6802B31A6842F480021A60134933
:10B0F00002A8FDF7B3FF039B002BBBD0D3E90021CF
:10B100000120904702A8FDF7B3FF039B002BF5D168
:10B11000204604B070BD0824204604B070BD42F241
:10B120000200FCF789F9E2E74FF480030B60DEE7E9
:10B13000E12C0020E02C0020CCBF0200E4BF020084
:10B14000C8BF020059740200E22C002000E100E0B8
:10B15000E42C0020014B1878704700BFE12C002040
:10B1600000B583B008496846FDF778FF019B43B1FD
:10B17000D3E9002090476846FDF77AFF019B002B3A
:10B18000F6D103B05DF804FBD8BF020060DF704762
:10B1900069DF704761DF7047144B1B782BB330B504
:10B1A000134D91B034240DF1020103A8ADF8024013
:10B1B000FFF7F0FF88B9294601A8FDF74FFF029B72
:10B1C000002BF0D0D3E9002103A8904701A8FDF798
:10B1D0004FFF029B002BF5D1E5E7052801D111B007
:10B1E00030BDFCF729F911B030BD7047E32C0020C9
:10B1F00034C20200002900F0A78070B5544B0B60E8
:10B2000084B00C4605460C22002101A800F06EF91E
:10B210000126062322688DF8045001A920208DF80C
:10B220000660ADF80830FFF7B3FF002843D10C22C9
:10B23000002101A800F05AF9012100238DF8051022
:10B240002268ADF8063001A94020FFF7A1FF0028D1
:10B250006CD10C22002101A800F048F90A232268D1
:10B260008DF8043001A90120FFF792FF00284FD18B
:10B270000C22002101A800F039F94FF4B0632268D4
:10B28000019301A9A120FFF783FF98BB0C220021A5
:10B2900001A800F02BF99DF8043022686FF3000339
:10B2A00001A9A0208DF80430FFF772FF034680B992
:10B2B000184604B070BDFDF713FF264B2649024621
:10B2C00026481B1ADB081B0443EA0600FBF7A0FB19
:10B2D000ADE7FDF705FF1F4B214902461F481B1A2A
:10B2E000DB081B0443F00100FBF792FB0023184628
:10B2F00004B070BDFDF7F4FE164B1A49024617481C
:10B300001B1ADB081B0443F00100FBF781FBBDE7C0
:10B31000FDF7E6FE0F4B1449024610481B1ADB08E6
:10B320001B0443F00100FBF773FBA1E7FDF7D8FE18
:10B33000084B0E49024609481B1ADB081B0443F060
:10B340000100FBF765FB84E70E231846704700BF3A
:10B35000E022002000C40200F0BF0200A8C30200E7
:10B3600024C10200D0C0020084C0020038C0020024
:10B3700070B5044682B00668FFF708FF2368B34241
:10B38000054606D82DBB1B4B012228461A7002B079
:10B3900070BD194B19481A49C01AC008000440F082
:10B3A00002000190FBF764FA0198236815493246C0
:10B3B000FBF706FC4FF080532268D3F80C3112499A
:10B3C00001989B0203F100539A1AFBF721FB002D11
:10B3D000D9D02846FDF784FE084B0C4902460648A2
:10B3E0001B1ADB081B0443F00100FBF711FB284686
:10B3F00002B070BDE32C0020A8C3020000C402000C
:10B4000078C10200A8C10200DCC1020008C202002B
:10B410004BDF704710B5114C84B001A8FFF7F8FF5F
:10B42000A8B9214602A8FDF719FE039B002BF4D012
:10B43000D3E900210198904702A8FDF719FE039B6C
:10B44000002BF5D101A8FFF7E3FF0028E9D005287C
:10B4500001D0FBF7F1FF04B010BD00BF4CC20200E9
:10B4600008B5074B044613B10021AFF30080054B2C
:10B470001868836A03B19847204600F047F800BF78
:10B48000000000005CC3020070B50D4D0D4C641B44
:10B49000A4100026A64209D10B4D0C4C00F0B4F9C3
:10B4A000641BA4100026A64205D170BD55F8043BCC
:10B4B00098470136EEE755F8043B98470136F2E726
:10B4C0007C2300207C2300207C230020802300207C
:10B4D0000A44914200F1FF3300D1704710B511F8D2
:10B4E000014B03F8014F9142F9D110BD02440346CC
:10B4F000934200D1704703F8011BF9E7034613F8A4
:10B50000012B002AFBD1181A01387047FEE700BF53
:10B5100053B94AB9002908BF00281CBF4FF0FF31BA
:10B520004FF0FF3000F06EB9ADF1080C6DE904CEBC
:10B5300000F006F8DDF804E0DDE9022304B070470E
:10B540002DE9F047089D04468C46002B40F083808F
:10B550008A42174647D9B2FA82F242B1C2F12000BC
:10B5600024FA00F09140974040EA010C94404FEAE1
:10B570001748230CBCFBF8F61FFA87FE08FB16C120
:10B5800043EA014306FB0EF1994209D9FB1806F183
:10B59000FF3080F01981994240F21681023E3B440F
:10B5A0005B1AA4B2B3FBF8F008FB103344EA03447F
:10B5B00000FB0EFEA64509D93C1900F1FF3380F0CF
:10B5C0000581A64540F2028102383C4440EA06402B
:10B5D000A4EB0E0400261DB1D4400023C5E90043AE
:10B5E0003146BDE8F08702B9FFDEB2FA82F2002AE6
:10B5F00050D1CB1B4FEA174E1FFA87F80126B3FB39
:10B60000FEFC210C0EFB1C3341EA034108FB0CF34A
:10B610008B4207D979180CF1FF3002D28B4200F22D
:10B62000E9808446C91AA3B2B1FBFEF00EFB1011EB
:10B6300043EA014408FB00F8A04507D93C1900F192
:10B64000FF3302D2A04500F2D9801846A4EB0804CB
:10B6500040EA0C40BFE78B4209D9002D00F0B180D1
:10B660000026C5E9000130463146BDE8F087B3FA4F
:10B6700083F6002E4AD18B4202D3824200F2B88078
:10B68000841A61EB030101208C46002DA8D0C5E986
:10B69000004CA5E7C2F1200320FA03F6974001FA17
:10B6A00002F04FEA174ED9403043030CB1FBFEF6CF
:10B6B0001FFA87F80EFB161143EA014306FB08F157
:10B6C000994204FA02F409D9FB1806F1FF3C80F014
:10B6D0008D80994240F28A80023E3B445B1A81B2DF
:10B6E000B3FBFEF00EFB103341EA034100FB08F30D
:10B6F0008B4207D9791800F1FF3C73D28B4271D984
:10B7000002383944CB1A40EA064678E7C6F1200CE5
:10B7100003FA06F422FA0CF31C4320FA0CF701FAA0
:10B7200006F34FEA144E21FA0CF11F433B0CB1FB18
:10B73000FEF91FFA84F80EFB191143EA014109FBD7
:10B7400008FA8A4502FA06F200FA06F308D96118E7
:10B7500009F1FF3048D28A4546D9A9F102092144AE
:10B76000A1EB0A01BFB2B1FBFEF00EFB101147EADC
:10B77000014700FB08F8B84507D9E71900F1FF3188
:10B780002ED2B8452CD90238274440EA0940A7EB0D
:10B790000807A0FB02894F45C64649461AD317D071
:10B7A0005DB1B3EB0E0267EB010707FA0CFCF24048
:10B7B0004CEA0202F740C5E9002700263146BDE801
:10B7C000F0872E4628460BE70646E9E61846FDE6D2
:10B7D0004345E5D2B8EB020E69EB04010138DFE71F
:10B7E0000846D2E760468DE78146B9E7664675E7C9
:10B7F00030464AE7ACF1020C394413E702383C44C6
:10B8000024E700BF704700BFF8B500BFF8BC08BC14
:10B810009E467047F8B500BFF8BC08BC9E4670470E
:10B82000FFFFFFFFFFFFFFFFFFFFFFFFFFFFFFFF28
:10B8300000000000000000000000D601060100002A
:10B84000D963020045640200D56302007561727419
:10B850005F6C6F675F6261636B656E640000000020
:10B860004261636B656E647320666C7573686564B2
:10B870000000000061707000E42800207F000000DC
:10B88000642900201B5B313B33316D0025734C6F05
:10B8900067732064726F70706564202825642925A1
:10B8A000730D0A001B5B306D000000002573000063
:10B8B0003C25733E2025733A200000000D0A00004D
:10B8C0002025303278000000202020007C0000007D
:10B8D000256300001B5B313B33306D001B5B313B4C
:10B8E00033326D001B5B313B33336D001B5B313BEF
:10B8F00033346D001B5B313B33356D001B5B313BDB
:10B9000033366D001B5B313B33376D006572726FF0
:10B91000720000007761726E696E6700696E666F13
:10B92000000000006465627567000000A4B80200B2
:10B93000D4B8020084B80200DCB80200E4B8020007
:10B94000ECB80200F4B80200FCB8020004B902002E
:10B95000000000000CB9020014B902001CB902007A
:10B9600024B902006170705F627574746F6E0000BC
:10B9700088290020466174616C206572726F7200C4
:10B9800053797374656D20726573657400000000EF
:10B990006170705F74696D657200000001000600DF
:10B9A00000000000D4290020C97402005254432032
:10B9B000696E7374616E636520616C726561647930
:10B9C00020696E697469616C697A65642E00000093
:10B9D0005254433A20696E697469616C697A65648E
:10B9E0002E00000000000000000000000000000029
:10B9F0000338FDD8704700000D0003008D7C020065
:10BA0000702A0020902A0020B02A002030313233E2
:10BA10003435363738394142434445467077725F92
:10BA20006D676D74000000006CC302006CC30200FF
:10BA300004000000736F72746C697374000000007E
:10BA40004E52465F53554343455353004E52465F53
:10BA50004552524F525F5356435F48414E444C4506
:10BA6000525F4D495353494E470000004E52465FC6
:10BA70004552524F525F534F4654444556494345F1
:10BA80005F4E4F545F454E41424C4544000000001C
:10BA90004E52465F4552524F525F494E5445524EA8
:10BAA000414C00004E52465F4552524F525F4E4F3E
:10BAB0005F4D454D000000004E52465F4552524FCB
:10BAC000525F4E4F545F464F554E44004E52465FB4
:10BAD0004552524F525F4E4F545F535550504F5244
