:02000002D0002C
:1040000000400D004C790D00000006000C00050179
:084010000401DE0500000000C0
:0440180074710D00B2
:10401C0009480A49884208B505D0094A824202D0AB
:10402C00121A02F0A0FF0748074A0021121A02F0E8
:10403C00C0FF014808BD00BF20DE0320A4780D009E
:10404C00A0DE0320A0DE0320F0E7032070B502F011
:10405C0013FD074C074BE41AA40800251E46A54285
:10406C0004D056F8253098470135F8E770BD00BFED
:10407C00A0780D0060780D0000F09CBA08B500F037
:10408C00CBFABDE8084002F0B9BC00F081BE00F0EC
:10409C0087BE00F085BE0078B0FA80F0400970470A
:1040AC0001230370704710B5044602F019FB20463B
:1040BC0010BD000038B50446154601F011FF054946
:1040CC00204601F00DFF29462046BDE8384001F09E
:1040DC001ABF00BFEE740D0038B50546144601F04A
:1040EC00FFFE0B49284601F0FBFE002C05DA2D21C2
:1040FC00284601F0F9FE614200E0214628460A22DA
:10410C0001F00BFF2846BDE8384001F0F0BE00BFBF
:10411C00EE740D0000F060BC2DE9F04F0D461E460C
:10412C004FF0FF3389B004461360002128469246B5
:10413C0001F0F0FFD5F838C060B92968BCF1000F68
:10414C0002D01FFA8CF200E050220023204602F02D
:10415C0017F911E0704B029305F1140EBEE80F0035
:10416C0003AF0FC7DEF800303B701FFA8CF2002350
:10417C0002A9204602F086F9003018BF012018B9B8
:10418C00204602F0F9F9C3E01299204601F0A8FE8E
:10419C006249204601F0A4FEA96A204601F0A0FE67
:1041AC005F49204601F09CFE5E495F4A2046FFF7BE
:1041BC0081FF0021284601F0ADFF20B92A685B4938
:1041CC002046FFF777FF05F13C070021384601F048
:1041DC00A1FF08B96A6C05E05549129802F01AFF64
:1041EC00024618B953492046FFF776FF5EB1316895
:1041FC0049B17268204612B1FFF75CFF01E001F093
:10420C0082FE0836F3E7204601F071FE204601F0ED
:10421C00DFFF0021384601F07DFF18B9E96B20461D
:10422C0001F071FE04F11C0B4FF480620021584622
:10423C0002F0BFFE00F0C8FB009000F0C5FBB5F823
:10424C004C8041F288330026B8F1000F08BF984625
:10425C004FF001093546204602F0A6F9C0B32046BE
:10426C0002F04BF8C7B200F0AFFB0090B9F1000FB1
:10427C0018D00A2F11D10A2E13D104F1250002F007
:10428C0051FE4FF00009CAF800004FF48062002183
:10429C00584602F08EFE4D46DDE70D2F18BF3E4608
:1042AC0000E03E4640F2FE339D4202D863191F7770
:1042BC000CE040F2FF339D4208D14FF0000384F82C
:1042CC001B34204602F058F9012702E00135C2E701
:1042DC00074600F079FB009BC31A019327B94345AD
:1042EC0002D8C82000F07CFD204601F072FF20B1FE
:1042FC00019B434501D8002FADD0204602F03CF97C
:10430C00B9F1000F04D159460AF1040001F0BCFECA
:10431C0009B0BDE8F08F00BF5C740D00EA740D00AD
:10432C0088710D009A710D0094710D00A5710D002E
:10433C00B9710D00AA710D00013AF8B507464D1E72
:10434C008E180024B54208D0381915F8012F0349EE
:10435C0000F036FD2044C4B2F4E7F8BDBE710D0088
:10436C0010B50446222002F0FFFB78B1084B1B78F5
:10437C002BB102F0C1FA4FF4165102F0B1FA02F06F
:10438C00BBFA2146BDE8104001F0AABD10BD00BF2C
:10439C0020DE03200AB1FFF7CFBF704710B50446EB
:1043AC006CB10121072002F0C6FB0A2000F018FDB9
:1043BC00013C0021072002F0BEFBE4B2F0E710BD87
:1043CC002DE9F04FD9B0064624A800F06BFD29A8C2
:1043DC0000F068FD2EA800F065FD06F1080733A873
:1043EC0000F060FD24A90422384600F0B7FE804698
:1043FC0096E803000AAC84E8030000254FF014098A
:10440C004FF66F5A454566DA24AB09FB053000F0D0
:10441C0086FD50455DD10120FFF7C0FF00F0D4FAB6
:10442C00DFF8BC90DFF8BC8096F85030C9F800007B
:10443C00384688F8003000F0BDFDC6B232460CA9F3
:10444C0014AD384600F0A6FD32460CA92846FFF7FD
:10445C00A1FF05212046D9F8006098F9007000F002
:10446C000EFD04218046204600F009FD0321814603
:10447C00204600F004FD02218246204600F0FFFC9D
:10448C0001218346204600F0FAFC002109902046C9
:10449C0000F0F5FC099B11490590324604930695F2
:1044AC003B468DE8000F38A800F08AFC38A802F0D3
:1044BC00C3FD044638A800F035F958AB18190A2387
:1044CC0000F8803C002300F87F3C38A8FFF748FF39
:1044DC0001E0013596E759B0BDE8F08FC3710D00CE
:1044EC00B8DE032000DF032000F110020346191A86
:1044FC0003F8011B9342FAD1024A1378C373591C77
:10450C0011707047B4DE03201FB500F0AFFE03211D
:10451C0000F029FF00F0AAFE0146684600F0C4FE38
:10452C0000F0A4FE014602A800F0BEFE002102A885
:10453C0000F0A2FC00F09AFEFA2100F0D4FE00F08C
:10454C0095FE4FF4FA61184C00F0EDFE00F08EFE73
:10455C0002A900F0B8FE02232370E370012323713B
:10456C00062363710A22032313218DF8080062705D
:10457C00A0706F22A371E371A172FD23162104F1C7
:10458C000E00637263732272E1722273FFF7ACFF49
:10459C0021461E22054800F0EDFC1E22214604484F
:1045AC00FFF7CAFE04B010BDBCDE0320DCDE032026
:1045BC0001DF032010B50121072002F0ABFA002126
:1045CC00222002F0A7FA124C2320002102F0A2FABA
:1045DC0001232220237002F0C7FA48B123783BB1A3
:1045EC0002F08AF94FF4165102F07AF90023237085
:1045FC0000F03CFEFA2100F01DFFFFF785FF00F0F4
:10460C0035FE00220349BDE8104000F0F3BE00BFA8
:10461C0020DE0320DCDE032010B58AB000F026FE7D
:10462C0000220D4900F024FF02F066F90B4901F05D
:10463C006AFC00F01BFE00F0FAFE044638B9FFF7E6
:10464C0063FF00F013FE2246054900F0D3FE01A8DB
:10465C0000F011FD0AB010BDCD430D00EE710D0040
:10466C00DCDE032010B500F0B7F9094C094800F066
:10467C0002FD0021012000F017FB0749204601F044
:10468C00E1FC2046054A0649BDE8104002F0E0BABC
:10469C00A4DE0320DCDE032093710D00A0DE0320DA
:1046AC00C35F0D0010B50446043001F084FC2046B5
:1046BC0010BD10B504463C3001F07DFC04F128001F
:1046CC0001F079FC204601F076FC204610BD00007C
:1046DC0038B584690A4B036005467CB16368013BBD
:1046EC0063605BB9236820469B689847A368013BCD
:1046FC00A3601BB923682046DB689847284638BD61
:10470C00E0750D0010B50446FFF7E2FF204610BD22
:10471C0010B50446FFF7DCFF20461C2102F09DFA81
:10472C00204610BD30B51C4C1C498BB005462046AC
:10473C0001F0AAFC4FF4FA531949A36304F12800C1
:10474C0001F0A2FC294602A801F07CFC1549164D8B
:10475C0006A801F077FC02A906A801F0BDFC1349DC
:10476C0001F0C6FC014604F13C0001F07EFC06A8F9
:10477C0001F021FC0E4B009321460E4B0E482A46AD
:10478C00FFF7CAFC2C6802A8C83C18BF012401F032
:10479C0012FC20460BB030BD74E30320FC710D00FD
:1047AC000A720D0010720D0060E3032019720D00E7
:1047BC001C720D0024DE032044DF032070B5174C5F
:1047CC00174E184D2046FFF76EFC2046164C174925
:1047DC00324602F03DFA2946204601F033FC04F142
:1047EC00100001F09FF9294604F1280001F02AFC81
:1047FC00294604F13C0001F025FC20460C4C0D49E7
:10480C00324602F025FA2946201D01F01BFC3246E7
:10481C0020460949BDE8704002F01ABA44DF032073
:10482C00A0DE032093710D0074E3032011470D00EB
:10483C0060E30320BF460D00B1460D0008B5024BE6
:10484C001B689B68019308BD7802030008B5024BF6
:10485C001B68DB69019308BD7802030008B5024BA5
:10486C001B685B6C019308BD7802030008B5024B12
:10487C001B689B6C019308BD7802030008B5024BC2
:10488C001B68DB6C019308BD7802030008B5024B72
:10489C001B681B6D019308BD7802030008B5024B21
:1048AC001B689B6D019308BD7802030008B5024B91
:1048BC001B681B6E019308BD7802030008B5024B00
:1048CC001B681B6F019308BD7802030008B5024BEF
:1048DC001B685B6F019308BD7802030008B5024B9F
:1048EC001B689B6F019308BD7802030008B5024B4F
:1048FC001B68DB6F019308BD7802030008B5034BFE
:10490C001B68D3F88430019308BD000078020300C3
:10491C0008B5034B1B68D3F89830019308BD000011
:10492C007802030008B5034B1B68D3F8F0300193F1
:10493C0008BD00007802030008B5024B1B689B6899
:10494C00019308BD4802030008B5024B1B681B69A4
:10495C00019308BD4802030008B5024B1B685B6954
:10496C00019308BD4802030008B5024B1B685B6C41
:10497C00019308BD4802030008B5024B1B689B6CF1
:10498C00019308BD4802030008B5024B1B68DB6CA1
:10499C00019308BD4802030008B5024B1B685B6D10
:1049AC00019308BD4802030008B5024B1B685B6805
:1049BC00019308BD1802030008B5024B1B68DB68A5
:1049CC00019308BD1802030008B5024B1B685B6914
:1049DC00019308BD1802030008B5024B1B681B6845
:1049EC00019308BD2C02030008B5024B1B689B68A1
:1049FC00019308BD2C02030008B5024B1B68DB6851
:104A0C00019308BD2C02030008B5024B1B681B69FF
:104A1C00019308BD2C02030008B5024B1B685B69AF
:104A2C00019308BD2C02030008B5024B1B681B6ADE
:104A3C00019308BD2802030008B5024B1B685B6A92
:104A4C00019308BD2802030008B5024B1B689B6A42
:104A5C00019308BD2802030008B5024B1B68DB6AF2
:104A6C00019308BD2802030008B5024B1B681B6BA1
:104A7C00019308BD2802030008B5024B1B685B6B51
:104A8C00019308BD2802030008B5024B1B681B6C80
:104A9C00019308BD2802030008B5024B1B685B6933
:104AAC00019308BD6C02030008B5024B1B685B69DF
:104ABC00019308BD6402030008B5024B1B681B6A16
:104ACC00019308BD6402030008B5024B1B689B6A86
:104ADC00019308BD6402030008B5024B1B689B6878
:104AEC00019308BD6802030008B5024B1B68DB6824
:104AFC00019308BD6802030008B5024B1B689B6953
:104B0C00019308BD3802030008B5024B1B68DB6932
:104B1C00019308BD3802030008B5024B1B681B6AE1
:104B2C00019308BD3802030008B5024B1B689B6A51
:104B3C00019308BD3802030008B5024B1B681B6BC0
:104B4C00019308BD3802030008B5024B1B689B6B30
:104B5C00019308BD3802030008B5024B1B68DB69E2
:104B6C00019308BD3002030008B5024B1B681B6A99
:104B7C00019308BD3002030008B5024B1B681B688B
:104B8C00019308BD3C02030008B5024B1B68DB68AF
:104B9C00019308BD3C02030008B5024B1B681B695E
:104BAC00019308BD3C02030008B5024B1B685B690E
:104BBC00019308BD3C02030008B5024B1B689B69BE
:104BCC00019308BD3C02030008B5024B1B68DB696E
:104BDC00019308BD3C02030008B5024B1B681B6A1D
:104BEC00019308BD3C02030008B5024B1B689B6A8D
:104BFC00019308BD3C02030008B5024B1B681B68FF
:104C0C00019308BD4C02030008B5024B1B685B689E
:104C1C00019308BD4C02030008B5024B1B681B69CD
:104C2C00019308BD4C02030008B5024B1B685B697D
:104C3C00019308BD4C02030008B5024B1B689B692D
:104C4C00019308BD4C02030008B5024B1B68DB69DD
:104C5C00019308BD4C02030008B5024B1B681B6A8C
:104C6C00019308BD4C02030008B5024B1B685B6B3B
:104C7C00019308BD6002030008B5024B1B681B6D55
:104C8C00019308BD6002030008B5024B1B685B680A
:104C9C00019308BD2002030008B5024B1B685B6939
:104CAC00019308BD2002030008B5024B1B68DB6AA8
:104CBC00019308BD2002030008B5034B1B68D3F811
:104CCC008830019308BD00002002030008B5034B97
:104CDC001B68D3F89430019308BD00002002030038
:104CEC0008B5024B1B68DB6B019308BD4402030043
:104CFC0008B5024B1B685B68019308BD40020300BA
:104D0C0008B5024B1B689B68019308BD4002030069
:104D1C0008B5024B1B68DB68019308BD4002030019
:104D2C0008B5024B1B681B69019308BD40020300C8
:104D3C0008B5024B1B685B69019308BD4002030078
:104D4C0008B5024B1B689B69019308BD4002030028
:104D5C0008B5024B1B68DB69019308BD40020300D8
:104D6C0008B5024B1B681B6A019308BD4002030087
:104D7C0008B5024B1B681B6B019308BD4002030076
:104D8C0008B5024B1B685B6B019308BD4002030026
:104D9C0008B5024B1B681B68019308BD1C0203007D
:104DAC0008B5024B1B685B68019308BD1C0203002D
:104DBC0008B5024B1B689B68019308BD1C020300DD
:104DCC0008B5024B1B68DB68019308BD1C0203008D
:104DDC0008B5024B1B68DB6B019308BD1C0203007A
:104DEC000021FFF759BF70470020704710B5142100
:104DFC00044601F032FF204610BDFFF748B910B54C
:104E0C000446006808B1FFF7B7FD204610BD00004E
:104E1C0008B50A20024A0021FFF726FF08BD00BF93
:104E2C00C5490D0010B5036804469B689847A368F4
:104E3C00013BA3602BB923682046DB68BDE810401A
:104E4C00184710BD10B500230370044B04461868B6
:104E5C00FFF79AFD01232370204610BDCCE30320FD
:104E6C0010B5037804461BB1024B1868FFF794FD8C
:104E7C00204610BDCCE3032081710020704705292A
:104E8C0094BF405C0020704708B582798B799A42B8
:104E9C0006D1062202F058F8B0FA80F0400908BD9D
:104EAC00002008BD10B501230361054B024603F138
:104EBC00100153F8044B42F8044B8B42F9D110BD4E
:104ECC00E8730D0010B50B460446B9B1012A09D19F
:104EDC00034601F1100251F8040B43F8040B914204
:104EEC00F9D108E0411E0F22985C01F8010F013A3C
:104EFC00D2B2FF2AF8D10123236102E0102202F082
:104F0C0058F8204610BD38B504460D46FFF7CAFFC9
:104F1C00002325732D0A23616573204638BD427B1F
:104F2C00007B40EA0220704710B50B69036101F168
:104F3C001002034651F8044B43F8044B9142F9D14B
:104F4C0010BD10B586B00446012201A8FFF7BAFFC8
:104F5C0001A92046FFF7E8FF06B010BD10B586B0DA
:104F6C00044601A8FFF7CFFF01A92046FFF7DCFF9D
:104F7C0006B010BD38B5054601B112B90020286243
:104F8C0038BD1F2A28BF1F22144601F0ECFF2C62EB
:104F9C00204638BD38B50546084649B12B6A9A42B9
:104FAC0028BF1A461446294601F0DDFF204638BDBD
:104FBC00286A38BD006A7047F0B58BB10024E51C37
:104FCC008D420FD8661C055D875D974205D12E4436
:104FDC00B14207D31C60681CF0BD01352C44EEE7D0
:104FEC001846F0BD0020F0BD2DE9F74304460E46EF
:104FFC001D461746002A3AD00A4601AB016AFFF754
:10500C00DBFF9DF82830226A03BBF8B1961C2E44B6
:10501C00361A1F2E2BD8DDF8048008F10209C8EBD4
:10502C000202121A00EB080105EB090092B22144AE
:10503C00204401F0A3FF6B1C04F808302A463946C3
:10504C0004EB090001F08FFF266210E0901C2B1876
:10505C001F2B0CD86B1CA35422442062394656706B
:10506C0020442A4601F07FFF226A2A442262206AE9
:10507C0003B0BDE8F0831FB50446034600F11F02E0
:10508C00002003F8010B93424FF00001F9D104AA60
:10509C00062302F8013D01232162009120461946A6
:1050AC00FFF7A2FF204604B010BD73B50A460E46AA
:1050BC0001AB016A0446FFF77FFF054678B1019802
:1050CC00226A2918121A521B2144204401F04BFF6A
:1050DC00236A5D1B256231462046FFF7E6FF02B0CE
:1050EC0070BD2DE9F04F002585B006468946174660
:1050FC009A462C464FF01408316A8D422AD203ABE3
:10510C004A46491B7019FFF757FF834610B35445A5
:10511C0020D2042803990CD129447218631CD1782D
:10512C009278019342EA012108FB0470FFF716FF05
:10513C000AE012280AD102312944631C314408FBCD
:10514C0004700193FFF7FDFE019B1C46039B5B441F
:10515C001D44D1E7204605B0BDE8F08F2DE9F041A4
:10516C0013460D4616460A4602210746FFF7B9FFBD
:10517C004FF01408331A08FB00520446032138463A
:10518C00FFF7AFFF0444331B08FB045206213846DB
:10519C00FFF7A7FF0444331B08FB045207213846D2
:1051AC00FFF79FFF2044BDE8F08110B58369C26909
:1051BC0003EBC2029342184606D0046824888C4242
:1051CC0003F10803F6D110BD002010BD10B50A681C
:1051DC0052F8023F03605368436010BD1FB502686C
:1051EC000B6812881B889A420C460CD10146684603
:1051FC00FFF7ECFF214602A8FFF7E8FF02A968467B
:10520C00FFF742FE00B9002004B010BD10B50446F3
:10521C003420FEF73AFF014668B100230360436077
:10522C008360C360036143618361C3610362436252
:10523C008362C3620363216019B90A4A0A20FFF72B
:10524C0013FD0020FFF7FAFA20B1064A00210A20CC
:10525C00FFF70AFD002221680348FFF763FB204695
:10526C0010BD00BFC5490D003D570D0010B50A4CCF
:10527C002368DB070ED42046FEF70DFF50B107481C
:10528C00FFF7C4FF2046FEF70BFF054A054903480C
:10529C0001F0DEFC014810BDC8E30320C4E3032089
:1052AC00A0DE032051550D0013B5044600216846BD
:1052BC0000910191FFF7CAFA6B4603CB20602046A0
:1052CC00616002B010BD13B50C4601A8FFF7BAFD22
:1052DC0000212046FFF7C2FA044601A8FFF7C0FDE3
:1052EC00204602B010BD30B585B0002468460D468E
:1052FC00FFF7A8FD0C23214601A801940294039406
:10530C00ADF80630FFF7BAFA002805DB214601A8F4
:10531C00ADF80850FFF7AAFA04466846FFF7A0FD5F
:10532C00204605B030BD30B585B0002468460D462A
:10533C00FFF788FD0C23214601A8019402940394E5
:10534C00ADF80630FFF79AFA002805DB214601A8D4
:10535C00ADF80A50FFF78AFA04466846FFF780FD5D
:10536C00204605B030BD30B585B0002468460D46EA
:10537C00FFF768FD0C23214601A8019402940394C5
:10538C00ADF80630FFF77AFA002805DB214601A8B4
:10539C008DF80C50FFF76AFA04466846FFF760FD7B
:1053AC00204605B030BD084609B90A4601E0096A35
:1053BC000022FFF76BBA10B50C4611B90A46084625
:1053CC0006E001212046FFF770FE216A00222046EC
:1053DC00BDE81040FFF762BA13B501A8FFF732FD24
:1053EC000020FFF763FA044601A8FFF739FD2046B9
:1053FC0002B010BD73B505460C4601A81646FFF762
:10540C0021FD21462846FFF7CEFF002808DB314658
:10541C002846FFF7D0FF002802DB2846FFF7DCFF09
:10542C00044601A8FFF71CFD204602B070BD002009
:10543C00FFF744BA30B585B0002468460D46FFF737
:10544C0001FD0C23214601A801940294ADF806300D
:10545C000394FFF743FA214601A8ADF80C50FFF76F
:10546C0035FA04466846FFF7FBFC204605B030BD14
:10547C0030B58BB001A814460D46FFF7E3FC0022B3
:10548C0002A90C480292039204920592069207928A
:10549C0009940895FFF72AFA0028B8BF0446029829
:1054AC00A8BF079CFFF77CFC01A8FFF7D9FC20469E
:1054BC000BB030BDAB580D000B68036013B15A68CC
:1054CC0001325A60704710B50446006828B1436831
:1054DC00013B43600BB9FFF7A5FC204610BD70B52E
:1054EC0004684368054604EBC306A64204D0201D9D
:1054FC00FFF7E9FF0834F8E72868FFF751FC284666
:10550C0070BD70B504684368054604EBC306A6423B
:10551C0004D0201DFFF7D7FF0834F8E72868FFF701
:10552C003FFC284670BD10B5046904F11800FFF764
:10553C00E8FF04F10C00FFF7D2FF2046BDE8104055
:10554C00FEF7A5BDF8B504680746C4B1A569E369C3
:10555C0005EBC306AE4204D0281DFFF7B4FF083597
:10556C00F8E7A069FFF71CFC04F10C00FFF7C9FF7A
:10557C002046FFF7B4FF3421204601F06EFB38467D
:10558C00F8BD000073B50025056045600646242073
:10559C00FEF77BFD044678B103464FF6FF7223F805
:1055AC00022BC0F802505D608572C572C560056142
:1055BC0045618561C5610562002314200193FEF7E6
:1055CC0064FD034628B1012242608260084A0260F1
:1055DC00046102A8726840F8042D73603460FFF710
:1055EC0072FF33680BB9FFF713FC304602B070BD85
:1055FC0034720D00884270B515461AD9904219D2F2
:10560C00A1F10806511A0439151F44182B1F9E428C
:10561C0025D0042C07D055F8043C44F8043C29460A
:10562C002046FFF749FF2846FFF74DFF083D083C91
:10563C00ECE714D00C1D061D231F9D420FD0042E29
:10564C0007D054F8043C46F8043C21463046FFF79A
:10565C0033FF2046FFF737FF08340836ECE770BD00
:10566C002DE9F041046843680546884604EBC307FE
:10567C00A74218D041462046FFF7B0FD064608B9B0
:10568C000834F5E78CB1201DFFF71DFF2B686A6805
:10569C0004F1080103EBC2022046FFF7ABFF6B6875
:1056AC00013B6B6002E0002600E026463046BDE878
:1056BC00F081F7B5044651F8043B4768009301A804
:1056CC00FFF7FAFE6668A3689E4214DB0136002ED3
:1056DC000BDDF000FFF75CFB054618B394E8060001
:1056EC0001EBC202FFF786FF00E000252068FFF700
:1056FC0057FB2560A6602668626806EBC70506EBBB
:10570C00C202294605F10800FFF774FF35B1009B72
:10571C0046F8373001A9281DFFF7CEFE6368013328
:10572C006360012501A8FFF7CEFE284603B0F0BD4B
:10573C002DE9F04104468EB003A80D46FFF782FB1D
:10574C002368032B02D0042B42D087E004A8FFF778
:10575C0019FF049B22891A806268049952F8083F49
:10576C00C1F802305368C1F8063007A8049B0693B1
:10577C0005A9FFF7A1FE06A905F11800FFF799FF8F
:10578C00044607A8FFF79FFE2023069374B9364BF7
:10579C00009306AA2346354907943220FFF76CFA8A
:1057AC00049B21461888FFF7B3F80DE0304A0092AD
:1057BC00002306AA2D4907930120FFF75DFA6B6AB7
:1057CC0013B1E96A04A8984705A8FFF77CFE45E0E9
:1057DC0021892846FFF7E9FC074600283ED00468DB
:1057EC00A369E1694FF6FF72228003EBC101994274
:1057FC0003D053F8080B4280F9E7E668236906EBFF
:10580C00C308B04504D0301DFFF75DFE0836F8E73D
:10581C0000232361A669E36906EBC308B04504D0F5
:10582C00301DFFF750FE0836F8E70023E361A37242
:10583C00E372AB6A13B1296B3846984720230D4AA3
:10584C0006930092002309490793012006AAFFF74B
:10585C0013FA394605F11800FFF702FF03A8FFF70A
:10586C00FFFA0EB0BDE8F081AA720D0048720D006F
:10587C00D0720D00ED720D0038B50D1E044606DD1C
:10588C00542169430068FFF793FA20B938BD0068CA
:10589C00FFF786FA00202060A560012038BD70B5A6
:1058AC005426C0B0054632460C4601A8002101F032
:1058BC0080FB03A8FFF7DFFB0CA8FFF7DCFB2A46F5
:1058CC0001AB52F8100F5168EA8903C32B78A96811
:1058DC008DF854300CA8FFF74DFBAA89696803A812
:1058EC00FFF748FBA5691DB1E16901A8A8473CE099
:1058FC00E06898B163692269934239D25A1C62619B
:10590C0006FB0300512201A901F02DFB62692369FA
:10591C009A422DD32846FEF7F1FF29E0324601A921
:10592C0016A801F020FB324616A92BA8656801F0D9
:10593C001AFBA3689D4204DB691C2046FFF79CFF01
:10594C00B0B163682268542606FB052506FB0322CA
:10595C00521B2946A81901F011FB32462BA92846E7
:10596C0001F001FB636801336360636901336361B8
:10597C0040B070BD10B5064C002320462360FEF7E6
:10598C00F3FF2046034A0449BDE8104001F060B91A
:10599C00CCE30320A0DE03200B4E0D0010B5836872
:1059AC00044613B1032201469847204610BD00223D
:1059BC0011464068FFF7D4B9002211464068FFF742
:1059CC00DFB900224068FFF7D3B9002281F0010152
:1059DC004068FFF7BDB900231A4619464068FFF727
:1059EC00AFB900231A4619464068FFF7A1B9002247
:1059FC0011464068FFF794B9002211464068FFF742
:105A0C007FB9002202214068FFF782B900231A46B1
:105A1C004068FFF76DB90000024B03225A60024A3E
:105A2C001A607047D0E3032000740D007047F8B57E
:105A3C00064615460C468F18BC4206D0336814F83F
:105A4C00011B9B6830469847F6E72846F8BD0022B4
:105A5C00007CFEF7E9BF0021007CFEF7EDBF0021C2
:105A6C00007CFEF7F1BF0021007CFEF7F5BF0021A2
:105A7C00007CFEF7F9BF10B51421044601F0EDF8D7
:105A8C00204610BD10B50446002363604FF47A73B2
:105A9C00A360044B2174084623601146FEF7F4FF03
:105AAC00204610BD34740D000021007CFEF7E4BFCD
:105ABC00704710B51821044601F0CFF8204610BDF0
:105ACC00F0B5037D062B8DB00E4600F104074FF0A8
:105ADC00000402D000F1080518E00CAD394605F8B9
:105AEC00304D2F232A460A20FEF7DEFF284601F010
:105AFC00A3FA33680246DB682946304698470FE024
:105B0C0024B12E21304600F0EFF9044415F8011DA4
:105B1C000A22304600F001FABD420444F0D120467E
:105B2C000DB0F0BD10B5054B0446112240F8043BF6
:105B3C00002101F03EFA204610BD00BF5C740D0040
:105B4C000346074A10B543F8042B01F1100251F833
:105B5C00044B43F8044B9142F9D10A781A7010BDEA
:105B6C005C740D00037D042B01D1406808E0062B0A
:105B7C000AD1436853B9836843B9C36833B9006920
:105B8C00003018BF0120704700207047012070477B
:105B9C0010B59DF8084044EA032343EA024242EA66
:105BAC00016104234160037510BD37B50D788B7806
:105BBC004A78C97800912946FFF7EAFF03B030BD57
:105BCC00014B024A1A607047D8E30320DB740D00C6
:105BDC00002211464068FFF7C3B800221146406806
:105BEC00FFF7CEB800224068FFF7C2B8002281F060
:105BFC0001014068FFF7ACB800231A460121406848
:105C0C00FFF79EB800231A4619464068FFF790B874
:105C1C00002211464068FFF783B800221146406805
:105C2C00FFF76EB8002202214068FFF771B800231D
:105C3C001A464068FFF75CB838B5054688B1046869
:105C4C004CB1A3681BB10322214620469847102172
:105C5C00204601F002F828461421BDE8384000F037
:105C6C00FCBF38BD10B103685B681847704710B5AE
:105C7C0003680446BBB15868FEF75EFE78B923682A
:105C8C005A7C12B95868FEF75FFE23685868FEF715
:105C9C0063FE20680023236028B1FFF7CDFF206846
:105CAC0008B1FFF7C9FF204610BD38B50446D0F83F
:105CBC00C40108B1FEF7EDF9D4F8C00108B1FEF744
:105CCC005BFED4F8BC5135B12846FFF7D0FF042158
:105CDC00284600F0C2FF206808B1FFF7C3FF20463A
:105CEC0038BD000010B5044B044640F8083BFFF7E4
:105CFC00DCFF204610BD00BF4C750D0038B50E4CB6
:105D0C000E4B23600025022304F5E4706360A5604C
:105D1C00C4F8C451C4F8C851FEF726FE084BC4F8A9
:105D2C00CC5184F8D05123602046064A0649BDE880
:105D3C00384000F08DBF00BFDCE3032080750D0000
:105D4C004C750D00A0DE0320F15C0D0000231A46FB
:105D5C004068FEF7CDBF002202214068FEF7D8BF95
:105D6C00002211464068FEF7CBBF00221146406866
:105D7C00FEF7D6BF00231A4619464068FEF7D8BF77
:105D8C0000231A4619464068FEF7DABF002281F05C
:105D9C0001014068FEF7DCBF00224068FEF7E8BF57
:105DAC00002211464068FEF7EBBF00221146406806
:105DBC00FEF7D6BF2DE9F043002495B016460D46EC
:105DCC000746FFF7AFFE214620220CA8009401F0F5
:105DDC00F0F840230C9321466B460CAA3046FEF794
:105DEC0083FE0446002844D1024601216868FEF770
:105DFC0097FF0221804622466868FEF791FF009EBD
:105E0C0081462146002E34D0002932D17368022BF2
:105E1C0002D00A2B09D02AE0B8F1000F27D0716903
:105E2C0038460431FFF7C1FE20E0B9F1000F1ED057
:105E3C007469112201A801F0BCF806238DF8143006
:105E4C0001AD04F108031834186859682A4603C2D6
:105E5C000833A3421546F7D101A906A807ADFFF7F1
:105E6C006FFE0FCD3C1D0FC42B6823700121F6690A
:105E7C00C8E70098FEF730FE384615B0BDE8F08351
:105E8C00024B034A1A6000225A607047B0E50320A7
:105E9C0080750D00F8B506460D468F180024BD42DE
:105EAC000CD0336815F8011B9B68304698470028C6
:105EBC0001DB0444F3E7002C08BF04462046F8BD80
:105ECC0070B505460C46084649B101F0B5F82B688B
:105EDC00024621462846DB68BDE87040184770BD75
:105EEC0008B5FFF7EDFF08BD03689B68184738B588
:105EFC000D210546FFF7F8FF0A2104462846FFF757
:105F0C00F3FF204438BD38B50546FFF7D9FF0446EA
:105F1C002846FFF7ECFF204438BD30B58BB00B465C
:105F2C0000218DF82410012A98BF0A220DF12304B8
:105F3C00B3FBF2F505FB123303F0FF03092B94BFFF
:105F4C0030333733DBB2214604F801392B46002DB0
:105F5C00EED1FFF7B5FF0BB030BD10B50446FFF71F
:105F6C001DFD204610BD00000348044A04490023CF
:105F7C00836000F06DBE00BFB8E50320A0DE0320F7
:105F8C00675F0D00704710B50C21044600F065FEEC
:105F9C00204610BD10B5054B036004460171084640
:105FAC00FEF7DAFD0023A360204610BDB4750D008A
:105FBC000079FEF7D9BD10B504460068FEF7F0FE77
:105FCC00204610BD10B50446006808B1FEF7E8FE87
:105FDC0000232360A360636010BD38B504460D46F2
:105FEC0000680131FEF7E4FE10B184E821000120C5
:105FFC0038BD10B50368044613B143688B4207D211
:10600C002046FFF7EAFF20B1A3680BB92268137092
:10601C00012010BD70B50E46114604461546FFF71B
:10602C00E8FF18B92046FFF7CDFF09E02A463146B4
:10603C00A560206800F097FF2268A3680021D15466
:10604C00204670BD38B5002304460360436083606E
:10605C0003730D4639B1084600F0EEFF294602469F
:10606C002046FFF7D7FF204638BD884210B50B46B7
:10607C00044607D0096819B19A68FFF7CBFF01E015
:10608C00FFF7A0FF204610BD38B505460C4641B1C0
:10609C00084600F0D1FF214602462846FFF7BAFF1A
:1060AC0001E0FFF78FFF284638BD70B504460E4659
:1060BC0009B9002070BD6AB18368D5182946FFF76D
:1060CC0098FF0028F5D02068A3683146184400F0EA
:1060DC00ABFFA560012070BD10B58A680968044645
:1060EC00FFF7E3FF10B92046FFF76CFF204610BD09
:1060FC0038B504460D4641B1084600F09DFF2946CF
:10610C0002462046FFF7D1FF10B92046FFF75AFF91
:10611C00204638BD08B582680B4612B919B9012062
:10612C0008BD11B90368187802E0006800F072FF2E
:10613C00B0FA80F0400908BD10B50446006818B1EB
:10614C00FEF72EFE0023236010BD10B50446FFF7AA
:10615C00F3FF204610BD000010B5094C00204FF68F
:10616C00FF732060A080A07120816381FEF78CFDFD
:10617C002046044A0449BDE8104000F069BD00BF48
:10618C00C8E50320A0DE032057610D0037B502AC33
:10619C00036804F8011DDD6B01224FF0FF3321462B
:1061AC00A84703B030BD10B40368DC6B4FF0FF336D
:1061BC00A4465DF8044B604737B502AC036804F89D
:1061CC00011DDD6B214613460122A84703B030BDEB
:1061DC00704738B543691A68002A044605DAB3F8E3
:1061EC008620B3F884309A4201D001250BE0036875
:1061FC001B699847002814BF0125002503D123688B
:10620C002046DB6A9847284638BD43691868C04366
:10621C00C00F704770470020704710B5142104461A
:10622C0000F01BFD204610BDFDF731BF7FB51646B3
:10623C0000224260029203925A1C04460D4608D07A
:10624C004FF47A72B3FBF2F1029102FB11314A4323
:10625C00039260690823009341F205026B4440F6F7
:10626C00FF710068FEF748FC002808DB606900231A
:10627C00324629460068FEF75FFC002804DAFEF778
:10628C00A7FD03686360002004B070BD10B50368FF
:10629C0004469B689847A368013BA3602BB923680D
:1062AC002046DB68BDE81040184710BD70B50446A9
:1062BC004D69054B44F8043B8C3506460FCD0FC495
:1062CC002B682370304670BD5C740D0010B54369AB
:1062DC00B3F88620B3F884309A42044605D062693C
:1062EC00B2F884301344187910BD03681B699847C1
:1062FC000028F4D14FF0FF3010BD10B54369B3F84E
:10630C008620B3F884309A42044608D06269B2F809
:10631C008430591C1344A2F88410187910BD0368FA
:10632C001B6998470028F1D14FF0FF3010BDF8B52C
:10633C0043691746B3F88620B3F884309A42054671
:10634C000E4606D103681B69984710B94FF0FF340D
:10635C0014E06969B1F88430B1F88640E41ABC42A3
:10636C0028BF3C46194422460431304600F0FBFD60
:10637C006A69B2F884302344A2F884302046F8BD10
:10638C002DE9F0439846036893B0DB6A0D46064648
:10639C001746984712AB002443F8484D2246214635
:1063AC002846FEF7A1FB814600283DD1009B002B1F
:1063BC0056D05B69002B53D006A8FFF7B3FB009BAC
:1063CC005C696378022B01D1211D13E00A2B14D1D7
:1063DC001122494601A800F0ECFDA36833BBE36829
:1063EC0023BB4FF6FF702569FEF766FB85421DD176
:1063FC0004F1140106A8FFF7D8FB06A8FFF7B2FBBF
:10640C0000282DD0336807ADD3F82090184B0C938F
:10641C000FCD0DAC0FC42B6823703A4643460CA924
:10642C003046C84781461BE0A14619E004F1080339
:10643C0001AD1834186859682A4603C20833A342C0
:10644C001546F7D1062301A90CA80DAD8DF8143013
:10645C00FFF776FB0FCD07AC0FC42B682370CCE78E
:10646C000098FEF739FB484613B0BDE8F08300BF37
:10647C005C740D0042690023A2F884304269A2F8D2
:10648C00863070472DE9F0411E4603680C468AB0F1
:10649C00DB6A054617469847237DD5F81480042BF4
:1064AC000CBF02200A2006220121FEF74DFBC8F882
:1064BC0000006B691B68002B18DB2846FFF7DAFF1E
:1064CC00D6B1002303A9F0B20393ADF81030FEF758
:1064DC00E3FA58B968690623009341F20B0203AB47
:1064EC0040F6FF710068FEF707FB28B12B682846C1
:1064FC00DB6A002498473BE01C263246002103A8A7
:10650C0000F057FD237D8DF80C60042B0CD1022379
:10651C0038468DF80D30FEF7D7FAADF80E006068EE
:10652C00FEF7CAFA049013E00A2338468DF80D30B2
:10653C00FEF7CAFA05AEADF80E00231D04F11407E0
:10654C0018685968324603C20833BB421646F7D165
:10655C006B691C2203A91868FEF7DEFA0028C5D166
:10656C0004340FCC6D698C350FC523682B70012456
:10657C0020460AB0BDE8F08110B54369044618689E
:10658C00002801DBFEF7C0FA63694FF0FF321A6096
:10659C006069112200218C3000F00BFD2046BDE813
:1065AC001040FFF767BF000030B54269B2F8863083
:1065BC008BB004461BB1B2F884209A4240D0636978
:1065CC00186800283FDBB3F886507F2D3BD8191D87
:1065DC00C5F1800208232944FEF7A6FA00280CDD39
:1065EC006369B3F886200AB9A3F884206269B2F80B
:1065FC0086301844A2F8860025E0FEF7E9FB036814
:10660C000B2B20D0FEF7E4FB03680B2B1BD02023B5
:10661C00002502930395FEF7DBFB036801930E4BF9
:10662C00009302AA2B460D493220FEF725FB636925
:10663C001868FEF769FA63694FF0FF321A6002E0DE
:10664C00FFF718FFBBE76269B2F88630B2F8840036
:10665C00181A0BB030BD00BF2B760D0024760D0040
:10666C0010B5002304460160A0F88430A0F88630F1
:10667C008830FFF757FA204610BD00004FF47A72AD
:10668C0070B500238260144A4360026043618361E9
:10669C000446A0200E46FDF7F8FC054610B1314625
:1066AC00FFF7DEFF1420FDF7F0FC034628B10122B2
:1066BC0042608260094A02600561A0696561A3615C
:1066CC0028B14368013B43600BB9FFF7DFFD20465F
:1066DC00FFF7D0FE204670BDE0750D00C4750D00AF
:1066EC0010B54FF0FF310446FFF7C8FF204610BD30
:1066FC0010B504460068002801DBFEF705FA2046B9
:10670C0010BD10B504692046FFF7F2FF24B12046F6
:10671C00BDE81040FDF7BBBC10BD0000024B1A6871
:10672C00024B1A60704700BF34DE0320D4E503200F
:10673C0070474174704708B5007CFEF755FA20EAA3
:10674C00E07008BD08B5007CFEF726FA20EAE07080
:10675C0008BD08B5007CFEF72FFA30EA200028BFF0
:10676C004FF0FF3008BD08B5007CFEF71DFA30EA8B
:10677C00200028BF4FF0FF3008BD007CFEF724BA84
:10678C0010B51421044600F068FA204610BD70B50F
:10679C00457C04460E4625B9007CFEF725FA0028F8
:1067AC0005DD3146207CBDE87040FEF7EDB928468A
:1067BC0070BD000010B50446084611460022626008
:1067CC004FF47A72A260054A22600122207462742E
:1067DC001A46FEF7D1F9204610BD00BF6C760D00AD
:1067EC00007CFEF7F9B9000038B50C4D296811F0A2
:1067FC00010411D12846FDF74EFC68B1084A094B3B
:10680C0009482146FFF7D6FF2846FDF749FC074A01
:10681C000749054800F01CFA034838BD70E6032010
:10682C0074E60320ECE50320D8E50320A0DE03206A
:10683C003D670D0041747047704708B50021007C1E
:10684C00FEF7FAF930EA200028BF4FF0FF3008BD00
:10685C0008B50121007CFEF7EFF930EA200028BFD3
:10686C004FF0FF3008BD08B5007CFEF7DDF920EADB
:10687C00E07008BD08B5007CFEF7CEF920EAE070A8
:10688C0008BD007CFEF7E8B910B51421044600F0F1
:10689C00E4F9204610BD38B50446007C0D46FEF7E1
:1068AC00C3F9002801DC607C28B12946207CFEF766
:1068BC00CBF920EAE07038BD10B5044600236360C4
:1068CC004FF47A73A360054B2360012308462174AF
:1068DC0063741146FEF790F9204610BD9C760D00AE
:1068EC000022007CFEF790B910B51422044600215A
:1068FC0000F05FFB204610BD30B50E4D87B001A8EF
:10690C00FFF7F2FF296811F0010410D12846FDF7BA
:10691C00C2FB60B101AA21460748FFF7CDFF28460C
:10692C00FDF7BEFB054A0649034800F091F9024801
:10693C0007B030BDF8E60320FCE60320A0DE032000
:10694C0045680D00002211464068FEF7E9B90022A7
:10695C0011464068FEF704BA002211464068FEF763
:10696C000FBA00224068FEF703BA002281F0010141
:10697C004068FEF7EDB900231A4619464068FEF749
:10698C00DFB900231A4619464068FEF7D1B9002238
:10699C0011464068FEF7B4B9002202214068FEF7A8
:1069AC00B7B900231A464068FEF7A2B9024B04227D
:1069BC005A60024A1A60704710E70320CC760D002B
:1069CC0008B50C4B33B1FFF797FF03681B69984769
:1069DC00002809DC084B63B1FFF706FF03681B694D
:1069EC009847002803DC08BDAFF30080F2E7AFF353
:1069FC00008008BD000000000000000008B5FFF793
:106A0C00DFFFFDF7E1FF014B186008BD20E7032015
:106A1C000248034A0349121A00F0A5BA00F40320F5
:106A2C0004F40320A0780D0007B5002300931A4648
:106A3C006FF07701FEF74AF903B05DF804FB000034
:106A4C0007B543880A2B08D0502B09D1094B1B687A
:106A5C003BB103B05DF804EB1847FFF7E5FF06E028
:106A6C00002300931A466FF07701FEF72FF903B05D
:106A7C005DF804FB18E7032038B5104C104D236863
:106A8C00AB42104B0CBF012200221A7002D0FFF750
:106A9C00BFFF2560FDF788FF044600F093FA0A4B10
:106AAC0013B12046AFF3008000210748FEF718F918
:106ABC0000210648BDE83840FEF7FEB800F403207C
:106ACC001E1C279A1CE70320000000004D6A0D00D5
:106ADC0010B5044600F09CF8FFF76AFA28B1A4F14F
:106AEC000B03022B01D8002010BD00F06BF8FEF751
:106AFC00DBFF08B1012CF6D9FFF776FEFFF770FE2D
:106B0C0018B1A4F10903012BEDD9232C8CBF002063
:106B1C00012010BD232838B504460D460AD8FF299C
:106B2C0008D0FFF7D5FF28B129462046BDE83840EC
:106B3C00FDF75ABF38BD38B504460D46FDF75CFF6E
:106B4C00FF2810D0062804D84D2323FA00F0C307E1
:106B5C0009D42046FFF7BCFF28B129462046BDE8E2
:106B6C003840FDF751BF38BD10B50446FDF744FF62
:106B7C000438C0B2012808D92046FFF7A9FF20B17C
:106B8C002046BDE81040FDF747BF002010BD0000B7
:106B9C0070B5044614252A46094E002100F009FA66
:106BAC00258020253146A5602561284600F06FF828
:106BBC0031466060284600F06AF8E060204670BDFF
:106BCC00F8760D0030B50E4D296811F0010487B030
:106BDC0013D12846FDF75FFA78B101A8FFF7D8FF6B
:106BEC0001AA21460748FEF74DFF2846FDF758FA43
:106BFC00054A0649034800F02BF8024807B030BD9F
:106C0C0024E7032028E70320A0DE0320395A0D00D7
:106C1C0038B50B4D296811F001040FD12846FDF74A
:106C2C003AFA58B121460748FFF7B4F92846FDF760
:106C3C0037FA054A0549034800F00AF8014838BDFF
:106C4C0048E703203CE70320A0DE0320915F0D0002
:106C5C000B460146184600F069B9FDF718BA00005A
:106C6C00024B1868BFF35F8F704700BF4CE70320DF
:106C7C0010B5002814BF044601242046FEF788F8FE
:106C8C0020B9FFF7EDFF08B18047F6E710BDFFF71D
:106C9C00EFBF0000244B1A68D0075CBF01221A60BA
:106CAC00224B1A68D1075CBF01221A60204B1A686C
:106CBC00D2075CBF01221A601E4B1A68D0075CBF5A
:106CCC0001221A601C4B1A68D1075CBF01221A60A2
:106CDC001A4B1A68D2075CBF01221A60184B1A684B
:106CEC00D0075CBF01221A60164B1A68D1075CBF33
:106CFC0001221A60144B1A68D2075CBF01221A6079
:106D0C00124B1A68D0075CBF01221A60104B1A682C
:106D1C00D1075CBF01221A600E4B1A68D2075CBF08
:106D2C0001221A60704700BF7CE7032078E703203C
:106D3C0074E7032070E703206CE7032068E7032067
:106D4C0064E7032060E703205CE7032058E7032097
:106D5C0054E7032050E70320184B1A68D1075CBF97
:106D6C0001221A60164B1A68D2075CBF01221A6006
:106D7C00144B1A68D0075CBF01221A60124B1A68B8
:106D8C00D1075CBF01221A60104B1A68D2075CBF96
:106D9C0001221A600E4B1A68D0075CBF01221A60E0
:106DAC000C4B1A68D1075CBF01221A600A4B1A6897
:106DBC00D2075CBF01221A60704700BF9CE703201A
:106DCC0098E7032094E7032090E703208CE7032047
:106DDC0088E7032084E7032080E70320184B1A6818
:106DEC00D1075CBF01221A60164B1A68D2075CBF30
:106DFC0001221A60144B1A68D0075CBF01221A607A
:106E0C00124B1A68D1075CBF01221A60104B1A682A
:106E1C00D2075CBF01221A600E4B1A68D0075CBF08
:106E2C0001221A600C4B1A68D1075CBF01221A6050
:106E3C000A4B1A68D2075CBF01221A60704700BF68
:106E4C00BCE70320B8E70320B4E70320B0E7032036
:106E5C00ACE70320A8E70320A4E70320A0E7032066
:106E6C00244B1A68D0075CBF01221A60224B1A68A7
:106E7C00D1075CBF01221A60204B1A68D2075CBF95
:106E8C0001221A601E4B1A68D0075CBF01221A60DF
:106E9C001C4B1A68D1075CBF01221A601A4B1A6886
:106EAC00D2075CBF01221A60184B1A68D0075CBF6E
:106EBC0001221A60164B1A68D1075CBF01221A60B6
:106ECC00144B1A68D2075CBF01221A60124B1A6865
:106EDC00D0075CBF01221A60104B1A68D1075CBF47
:106EEC0001221A600E4B1A68D2075CBF01221A608D
:106EFC00704700BFECE70320E8E70320E4E703203A
:106F0C00E0E70320DCE70320D8E70320D4E70320E5
:106F1C00D0E70320CCE70320C8E70320C4E7032015
:106F2C00C0E703200A22002100F014B910B5054C6B
:106F3C0013462CB10A4601460220AFF3008010BD67
:106F4C00204610BD0000000010B5013902449042EB
:106F5C0007D010F8013B11F8014FA342F7D0181BD2
:106F6C0010BD002010BD10B5431E0A44914204D040
:106F7C0011F8014B03F8014FF8E710BD884210B52A
:106F8C0001EB020301D8421E0BE09842FBD28118A0
:106F9C00D21AD34204D013F8014D01F8014DF8E791
:106FAC0010BD994204D011F8014B02F8014FF8E7DB
:106FBC0010BD02440346934202D003F8011BFAE7CA
:106FCC007047000038B5124B1C68A36B0546D3B94B
:106FDC001820FDF7DDFE43F20E33A06303804AF662
:106FEC00CD33438041F2342383804EF26D63C380F2
:106FFC004DF6EC630381052343810B23838101222E
:10700C000023C0E90423A36B00221D615A6138BD23
:10701C009CDE032010F8012B11F8013B012A28BF3C
:10702C009A42F7D0D01A7047034611F8012B03F897
:10703C00012B002AF9D17047034613F8012B002AC3
:10704C00FBD1181A013870472DE9F04780464048AB
:10705C00D0F800900F463D4615F8014B09EB0400A3
:10706C00407800F0080000F0FF0608B12F46F2E768
:10707C002D2C03D1BD1C7C78012603E02B2C04BFE6
:10708C007C78BD1C13B1102B0AD15BE0302C57D18E
:10709C00287800F0DF0058284DD16C781023023589
:1070AC00002E14BF4FF0004C6FF0004C0027BCFBBF
:1070BC00F3FA384603FB1ACC09EB040E9EF801E0F8
:1070CC001EF0040F01D0303C0BE01EF0030E1BD061
:1070DC00BEF1010F0CBF4FF0370E4FF0570ECEEB39
:1070EC000404A34210DDB7F1FF3F0AD0504506D887
:1070FC0001D1644503DC03FB0040012701E04FF0A4
:10710C00FF3715F8014BD7E77B1C0CD1002E4FF045
:10711C00220314BF4FF000406FF00040C8F800305D
:10712C002AB9BDE8F08706B1404272B107B1691EB9
:10713C001160BDE8F0873024002BB1D10823AFE7F4
:10714C000A23ADE7302CA3D0AAE7BDE8F08700BF37
:10715C0038DE032013460A46014602480068FFF752
:10716C0073BF00BF9CDE03201D400D0059400D0075
:10717C0085400D0089400D0000000000204854544B
:10718C00502F312E300D0A00636C6F736500436F06
:10719C006E6E656374696F6E00484F535400436F95
:1071AC006E74656E742D4C656E67746800504F5329
:1071BC0054002530327800256C642C2025642C205A
:1071CC00253032583A253032583A253032583A2543
:1071DC003032583A253032583A253032582C202546
:1071EC00730046696E6973686564205363616E0051
:1071FC003139322E3136382E302E313036002F6464
:10720C00617461007B226B6579223A2200227D0039
:10721C0050555400416363657074002A2F2A000096
:10722C000000000000000000F34D0D00F94D0D00B2
:10723C0033550D00074E0D00F54D0D007769726941
:10724C006E672E626C65005374617274206469738E
:10725C00636F766572696E672073657276696365B4
:10726C00732E00537461727420646973636F766556
:10727C0072696E67206368617261637465726973A9
:10728C00746963732E00506565722064657669635A
:10729C0065206973206D697373696E67210046619F
:1072AC00696C656420746F20617070656E64207009
:1072BC006565722043656E7472616C2064657669D5
:1072CC0063652E00436F6E6E65637465642062792E
:1072DC002043656E7472616C206465766963652EFB
:1072EC0000446973636F6E6E6563746564206279C4
:1072FC002072656D6F7465206465766963652E0018
:10730C0043616E6E6F7420616464206E65772070CB
:10731C00656572206465766963652E004E6577201D
:10732C007065726970686572616C20697320636F37
:10733C006E6E65637465642E004661696C656420CD
:10734C00746F20617070656E6420646973636F760E
:10735C0065726564206368617261637465726973D8
:10736C007469632E004661696C656420746F2061DA
:10737C007070656E6420646973636F7665726564A2
:10738C0020736572766963652E004661696C65646D
:10739C0020746F20617070656E64206C6F63616C1B
:1073AC002063686172616374657269737469632EBA
:1073BC00004475706C696361746564206368617204
:1073CC00616374657269737469632063616E6E6F57
:1073DC00742062652061646465642E00FB349B5FDD
:1073EC008000008000100000000000000000000081
:1073FC0000000000195A0D000F5A0D00055A0D001F
:10740C00FB590D00EF590D00E3590D00D7590D0034
:10741C00CF590D00C5590D00BB590D00C15D0D00B4
:10742C000000000000000000395A0D00835A0D00C6
:10743C005B5A0D003B5A0D00635A0D006B5A0D0040
:10744C00735A0D007B5A0D00000000000000000074
:10745C00CD5A0D00BD5A0D00BF5A0D006261756406
:10746C000053657269616C0053657269616C31001F
:10747C007479706500706172616D00636D64006990
:10748C006400686E64007374726D0066696C7400DD
:10749C006C766C0061646448616E646C6572007239
:1074AC00656D6F766548616E646C657200656E75AE
:1074BC006D48616E646C657273004A534F4E537421
:1074CC007265616D4C6F6748616E646C65720061CA
:1074DC00707000253031307520005D20002C2000AC
:1074EC0028293A2000205B00636F6465203D200052
:1074FC0025690064657461696C73203D2000660029
:10750C006C6E00666E00636F64650064657461691F
:10751C006C006E6F6E6500747261636500696E66F7
:10752C006F007761726E006572726F720070616EBF
:10753C00696300616C6C000000000000000000003A
:10754C003B5C0D00315C0D00275C0D001D5C0D00DB
:10755C00115C0D00055C0D00F95B0D00F15B0D007D
:10756C00E75B0D00DD5B0D00C15D0D000000000050
:10757C0000000000595D0D00635D0D006D5D0D0098
:10758C00775D0D00815D0D008D5D0D00995D0D0029
:10759C00A55D0D00AD5D0D00B75D0D00C15D0D006D
:1075AC000000000000000000915F0D00935F0D00D3
:1075BC00000000000000000021620D0027620D0099
:1075CC000F670D0035620D0023620D0000000000F6
:1075DC0000000000DD460D001D470D0099610D00F7
:1075EC00B3610D00B5650D0007630D00D9620D0088
:1075FC00DD610D0091640D008D630D003B630D008A
:10760C0085650D00DF610D0017620D00C5610D0071
:10761C0039620D00B9620D00776972696E6700728C
:10762C00656376206572726F72203D202564005A66
:10763C0000252B3033643A253032750025592D2521
:10764C006D2D25645425483A254D3A2553257A004D
:10765C0061736374696D6500000000000000000038
:10766C003D670D008D670D009B670D00A15E0D0041
:10767C0051670D0073670D005F670D0087670D0084
:10768C003F670D0043670D00000000000000000084
:10769C0045680D0095680D00A3680D00A15E0D00F6
:1076AC0081680D0047680D005D680D008F680D0046
:1076BC0073680D0041680D00000000000000000020
:1076CC00AF690D00A5690D009B690D0051690D0096
:1076DC008F690D0083690D0077690D006F690D00CE
:1076EC0065690D005B690D00C15D0D000000202077
:1076FC002020202020202028282828282020202056
:10770C002020202020202020202020202020881015
:10771C001010101010101010101010101010040475
:10772C00040404040404040410101010101010417C
:10773C0041414141410101010101010101010101ED
:10774C000101010101010101011010101010104282
:10775C0042424242420202020202020202020202BD
:10776C00020202020202020202101010102000009B
:10777C0000000000000000000000000000000000FD
:10778C0000000000000000000000000000000000ED
:10779C0000000000000000000000000000000000DD
:1077AC0000000000000000000000000000000000CD
:1077BC0000000000000000000000000000000000BD
:1077CC0000000000000000000000000000000000AD
:1077DC00000000000000000000000000000000009D
:1077EC00000000000000000000000000000000008D
:1077FC00000000000000000000000000000000007D
:10780C00000000000000000000000000000000006C
:10781C00000000000000000000000000000000005C
:10782C00000000000000000000000000000000004C
:10783C00000000000000000000000000000000003C
:10784C00000000000000000000000000000000002C
:10785C004300000021410D0071460D00C9470D0089
:10786C0081590D00255A0D00CD5B0D00095D0D00F1
:10787C008D5E0D00755F0D0065610D0029670D00B3
:10788C00B9690D00A16C0D00656D0D00E96D0D0061
:04789C006D6E0D0000
:0478A00000000000E4
:1078A4000100000020720D0027720D00000000008E
:1078B400000000005C760D00F9760D000000000069
:1078C400FC770D001C780D003C780D0000000000D2
:1078D4000000000000000000000000005C780D00C3
:1078E4000000000000000000000000000000000094
:1078F4000000000000000000000000000000000084
:107904000000000000000000000000000000000073
:107914000000000000000000000000003CDE032026
:10792400FFFFFFFF00000102030405060708090A20
:107934000B0C0D0E0F101112131415161718191A1B
:087944001B1C1D1E1F20280062
:04794C007856341223
:04000003D000401CCD
:00000001FF
