:02000002D0002C
:1040000000400D00F0800D00000006000C000501CE
:084010000401DE0500000000C0
:044018003C790D00E2
:10401C0009480A49884208B505D0094A824202D0AB
:10402C00121A03F04CFB0748074A0021121A03F03E
:10403C006CFB014808BD00BF7CE2032054800D00DE
:10404C00F0E20320F0E20320F0E7032070B503F068
:10405C0085F9074C074BE41AA40800251E46A54217
:10406C0004D056F8253098470135F8E770BD00BFED
:10407C004C800D0014800D0000F088B908B500F0DC
:10408C0099F9BDE8084003F02BB900F0DBBC00F057
:10409C00E1BC00F0DFBC000008B5034A00210C2095
:1040AC0000F034FCFEE700BFA9470D000078B0FA21
:1040BC0080F04009704701230370704770DF704730
:1040CC007047006A0368DB6818470000F8B50139CF
:1040DC00074F451E46180024B54208D0381915F86C
:1040EC00012F044900F0C6FC2044C4B2F4E7F8BD2B
:1040FC0040E3032080790D000A4B10B504460360A1
:10410C0001F040FE214602F02DF803F067F803F0B1
:10411C0059F82046044B40F8043B01F029FF204697
:10412C0010BD00BF70790D0058790D0010B5044614
:10413C00FFF7E2FF2046242103F041F9204610BD91
:10414C0010B58AB08DE80C000C462021029100219C
:10415C0003910B4602AA0168204600F0E7FB0AB067
:10416C0010BD0EB403B503AB012153F8042B01931E
:10417C00FFF7E6FF02B05DF804EB03B070470000F8
:10418C002DE9F04F9DB0064608A800F0E1FC0DA803
:10419C0000F0DEFC12A800F0DBFC17A800F0D8FC45
:1041AC0008A9042206F1080000F01CFE074696E858
:1041BC00030006AC84E8030000254FF014084FF60A
:1041CC006F59BD423ADA08AB08FB053000F0FDFC34
:1041DC00484531D100F0EAFA1A4B96F95050186064
:1041EC00194B0746052120461D7000F09EFC04214A
:1041FC000646204600F099FC03218046204600F03C
:10420C0094FC02218146204600F08FFC012182465D
:10421C00204600F08AFC00218346204600F085FCF5
:10422C00CDF810B005908DE840073B462A4607496B
:10423C000748FFF796FF01E00135C2E71DB0BDE866
:10424C00F08F00BF3CE30320A4E3032085790D002D
:10425C0000E403200EB403B503AB322153F8042B56
:10426C000193FFF76DFF02B05DF804EB03B07047EC
:10427C000EB403B503AB1E2153F8042B0193FFF7C7
:10428C005FFF02B05DF804EB03B0704707B5002385
:10429C000093019301238DF80030684603238DF8B9
:1042AC000130FFF70BFF024618B103490348FFF733
:1042BC00D1FF03B05DF804FBBB790D0000E40320D3
:1042CC0000F110020346191A03F8011B9342FAD1AC
:1042DC00024A1378C373591C1170704738E30320DA
:1042EC001FB500F007FE032100F061FE00F002FE96
:1042FC000146684600F01CFE00F0FCFD014602A8D9
:10430C0000F016FE032102A800F00CFC00F0F2FDF8
:10431C004FF4FA61194C00F02AFE00F0EBFD02A9F3
:10432C0000F015FE02232370E37001232371062392
:10433C0063710A22032313218DF808006270A070A8
:10434C006F22A371E371A172FD23162104F10E00FB
:10435C00637263732272E1722273FFF7B1FF1E2244
:10436C002146074800F05CFC20461E21FFF7AEFEFC
:10437C0004490548FFF77CFF04B010BDF4E20320AC
:10438C0080E3032040E3032000E4032008B500F0A1
:10439C00B1FD642100F072FEFFF778FFFFF7A0FF7C
:1043AC0000F0A8FD00220249BDE8084000F046BE1E
:1043BC0080E3032010B58AB000F0F8F9114B1B68AC
:1043CC006433834205D200F095FD00220E4900F0C3
:1043DC0073FE00F08FFD00F04EFE044668B90B49E9
:1043EC000B48FFF745FFFFF751FFFFF779FF00F090
:1043FC0081FD2246074900F021FE01A800F07FFC58
:10440C000AB010BD3CE303208D410D00DC790D009A
:10441C0000E4032080E3032070B50468436814268D
:10442C00054606FB0346A64204D0204602F040FD9A
:10443C001434F8E7286800F00DFB284670BD2DE910
:10444C00F8430F1E064638DD142505FB07F000F077
:10445C00F9FA804600283BD034687368844205FB27
:10446C00034515D2854214D9143DA4F114092C1B13
:10447C000444A94523D02CB12946204602F008FD5E
:10448C002B7C2374284602F013FD143D143CF0E7FA
:10449C0015D0C146A54212D0B9F1000F06D0214665
:1044AC00484602F0F5FC237C89F81030204602F0D7
:1044BC00FFFC143409F11409ECE74FF000083068E4
:1044CC0000F0C8FAC6F80080B7600120BDE8F88398
:1044DC00BDE8F88370B504460D461646B54209D0C2
:1044EC002CB12946204602F04CFD2B7C237414354C
:1044FC001434F3E770BD38B5002303604360836068
:10450C000D464968994204460CDDFFF798FF48B107
:10451C0095E80A00142202FB03122068FFF7DAFF69
:10452C006B686360204638BD30B593B000F046F937
:10453C00304800F0E4FB3049304802F000FD304ACE
:10454C0030492E4802F036FF01242F490DA802F005
:10455C00F6FC0023214601A88DF8444001930293F8
:10456C000393FFF76CFF00283CD102F037FE01A942
:10457C00054604A8254CFFF7BEFF04A907A8FFF7C2
:10458C00BAFF234B236007A90AA8FFF7B4FF0AAAB6
:10459C003221201D01F04DFF0AA8FFF73DFF07A8AF
:1045AC00FFF73AFF1B4B2360256204A8FFF734FF8B
:1045BC00194B236002F012FE4FF4E13102F0FEFDC4
:1045CC0001F0E0FB214601F0C7FE01A8FFF724FF34
:1045DC000DA802F06DFC0A4A1049204602F0EAFED2
:1045EC0013B030BD12AA0DA90198FFF773FF029406
:1045FC00BBE700BF80E30320047D0D00A8E303208C
:10460C00F0E20320BD6E0D00F2790D0014E30320DF
:10461C0058790D00447D0D0070790D0005410D0099
:10462C0008B5024B1B689B68019308BD7802030018
:10463C0008B5024B1B68DB69019308BD78020300C7
:10464C0008B5024B1B685B6C019308BD7802030034
:10465C0008B5024B1B689B6C019308BD78020300E4
:10466C0008B5024B1B68DB6C019308BD7802030094
:10467C0008B5024B1B681B6D019308BD7802030043
:10468C0008B5024B1B689B6D019308BD78020300B3
:10469C0008B5024B1B681B6E019308BD7802030022
:1046AC0008B5024B1B681B6F019308BD7802030011
:1046BC0008B5024B1B685B6F019308BD78020300C1
:1046CC0008B5024B1B689B6F019308BD7802030071
:1046DC0008B5024B1B68DB6F019308BD7802030021
:1046EC0008B5034B1B68D3F88430019308BD000058
:1046FC007802030008B5034B1B68D3F8983001937C
:10470C0008BD00007802030008B5034B1B68D3F802
:10471C00F030019308BD00007802030008B5024B8D
:10472C001B689B68019308BD4802030008B5024B47
:10473C001B681B69019308BD4802030008B5024BB6
:10474C001B685B69019308BD4802030008B5024B66
:10475C001B685B6C019308BD4802030008B5024B53
:10476C001B689B6C019308BD4802030008B5024B03
:10477C001B68DB6C019308BD4802030008B5024BB3
:10478C001B685B6D019308BD4802030008B5024B22
:10479C001B685B68019308BD1802030008B5024B47
:1047AC001B68DB68019308BD1802030008B5024BB7
:1047BC001B685B69019308BD1802030008B5024B26
:1047CC001B681B68019308BD2C02030008B5024B43
:1047DC001B685B69019308BD6402030008B5024BBA
:1047EC001B689B68019308BD6802030008B5024B67
:1047FC001B68DB68019308BD6802030008B5024B17
:10480C001B681B68019308BD3C02030008B5024BF2
:10481C001B689B68019308BD3C02030008B5024B62
:10482C001B68DB68019308BD3C02030008B5024B12
:10483C001B681B69019308BD3C02030008B5024BC1
:10484C001B685B69019308BD3C02030008B5024B71
:10485C001B689B69019308BD3C02030008B5024B21
:10486C001B68DB69019308BD3C02030008B5024BD1
:10487C001B689B6A019308BD3C02030008B5024B00
:10488C001B68DB6A019308BD3C02030008B5024BB0
:10489C001B681B68019308BD4C02030008B5024B52
:1048AC001B685B68019308BD4C02030008B5024B02
:1048BC001B689B68019308BD4C02030008B5024BB2
:1048CC001B681B69019308BD4C02030008B5024B21
:1048DC001B685B69019308BD4C02030008B5024BD1
:1048EC001B689B69019308BD4C02030008B5024B81
:1048FC001B68DB69019308BD4C02030008B5024B31
:10490C001B681B6A019308BD4C02030008B5024BDF
:10491C001B685B6B019308BD6002030008B5024B7A
:10492C001B681B6D019308BD6002030008B5024BA8
:10493C001B685B6D019308BD6002030008B5024B58
:10494C001B68DB6E019308BD6002030008B5024BC7
:10495C001B681B6F019308BD6002030008B5024B76
:10496C001B685B68019308BD2002030008B5034B6C
:10497C001B68D3F88830019308BD000020020300A7
:10498C0008B5034B1B68D3F89430019308BD0000A5
:10499C002002030008B5024B1B68DB6B019308BDBA
:1049AC004402030008B5024B1B685B68019308BD09
:1049BC004002030008B5024B1B689B68019308BDBD
:1049CC004002030008B5024B1B68DB68019308BD6D
:1049DC004002030008B5024B1B681B69019308BD1C
:1049EC004002030008B5024B1B685B69019308BDCC
:1049FC004002030008B5024B1B689B69019308BD7C
:104A0C004002030008B5024B1B68DB69019308BD2B
:104A1C004002030008B5024B1B681B6A019308BDDA
:104A2C004002030008B5024B1B681B6B019308BDC9
:104A3C004002030008B5024B1B685B6B019308BD79
:104A4C004002030008B5024B1B681B68019308BDAC
:104A5C001C02030008B5024B1B685B68019308BD80
:104A6C001C02030008B5024B1B689B68019308BD30
:104A7C001C02030008B5024B1B68DB68019308BDE0
:104A8C001C02030008B5024B1B685B6A019308BD4E
:104A9C001C02030070470020704710B51421044617
:104AAC0002F08DFC204610BDFFF7F1BA10B504469C
:104ABC00006808B1FFF752FE204610BD08B50A2069
:104ACC00024A0021FFF722FF08BD00BFA9470D00D5
:104ADC0010B5036804469B689847A368013BA36024
:104AEC002BB923682046DB68BDE81040184710BD81
:104AFC0010B500230370044B04461868FFF736FE0C
:104B0C0001232370204610BDC0E3032010B50378A9
:104B1C0004461BB1024B1868FFF730FE204610BD4F
:104B2C00C0E30320817100207047052994BF405CCD
:104B3C000020704708B582798B799A4206D10622FB
:104B4C0002F0AEFDB0FA80F0400908BD002008BDAF
:104B5C0010B501230361054B024603F1100153F814
:104B6C00044B42F8044B8B42F9D110BDB47B0D00C1
:104B7C0010B50B460446B9B1012A09D1034601F11F
:104B8C00100251F8040B43F8040B9142F9D108E0E0
:104B9C00411E0F22985C01F8010F013AD2B2FF2A94
:104BAC00F8D10123236102E0102202F0AEFD204671
:104BBC0010BD38B504460D46FFF7CAFF0023257318
:104BCC002D0A23616573204638BD427B007B40EA89
:104BDC000220704710B50B69036101F11002034606
:104BEC0051F8044B43F8044B9142F9D110BD10B568
:104BFC0086B00446012201A8FFF7BAFF01A920469E
:104C0C00FFF7E8FF06B010BD10B586B0044601A84A
:104C1C00FFF7CFFF01A92046FFF7DCFF06B010BD60
:104C2C0038B5054601B112B90020286238BD1F2ADB
:104C3C0028BF1F22144602F042FD2C62204638BDCC
:104C4C00F0B58BB10024E51C8D420FD8661C055DB8
:104C5C00875D974205D12E44B14207D31C60681C76
:104C6C00F0BD01352C44EEE71846F0BD0020F0BD38
:104C7C002DE9F74304460E461D461746002A3AD046
:104C8C000A4601AB016AFFF7DBFF9DF82830226A68
:104C9C0003BBF8B1961C2E44361A1F2E2BD8DDF808
:104CAC00048008F10209C8EB0202121A00EB080199
:104CBC0005EB090092B22144204402F00BFD6B1C61
:104CCC0004F808302A46394604EB090002F0F7FCD8
:104CDC00266210E0901C2B181F2B0CD86B1CA354B5
:104CEC00224420623946567020442A4602F0E7FCE2
:104CFC00226A2A442262206A03B0BDE8F0831FB501
:104D0C000446034600F11F02002003F8010B9342F6
:104D1C004FF00001F9D104AA062302F8013D01234A
:104D2C002162009120461946FFF7A2FF204604B0ED
:104D3C0010BD73B50A460E4601AB016A0446FFF777
:104D4C007FFF054678B10198226A2918121A521B66
:104D5C002144204402F0B3FC236A5D1B25623146DA
:104D6C002046FFF7E6FF02B070BD2DE9F04F00259D
:104D7C0085B00646894617469A462C464FF01408CD
:104D8C00316A8D422AD203AB4A46491B7019FFF790
:104D9C0057FF834610B3544520D2042803990CD1F5
:104DAC0029447218631CD1789278019342EA01214C
:104DBC0008FB0470FFF728FF0AE012280AD1023121
:104DCC002944631C314408FB04700193FFF70FFF67
:104DDC00019B1C46039B5B441D44D1E7204605B058
:104DEC00BDE8F08F2DE9F04113460D4616460A46F4
:104DFC0002210746FFF7B9FF4FF01408331A08FBDE
:104E0C000052044603213846FFF7AFFF0444331B1E
:104E1C0008FB045206213846FFF7A7FF0444331B56
:104E2C0008FB045207213846FFF79FFF2044BDE8DA
:104E3C00F08110B58369C26903EBC2029342184634
:104E4C0006D0046824888C4203F10803F6D110BD07
:104E5C00002010BD10B50A6852F8023F0360536879
:104E6C00436010BD1FB502680B6812881B889A42FC
:104E7C000C460CD101466846FFF7ECFF214602A810
:104E8C00FFF7E8FF02A96846FFF754FE00B90020BF
:104E9C0004B010BD10B504463420FFF7F6F80146F7
:104EAC0068B10023036043608360C36003614361A6
:104EBC008361C361036243628362C36203632160E3
:104ECC0019B90A4A0A20FFF721FD0020FFF7A8FBB9
:104EDC0020B1064A00210A20FFF718FD00222168A4
:104EEC000348FFF711FC204610BD00BFA9470D0079
:104EFC00B1530D0010B50A4C2368DB070ED42046C5
:104F0C00FFF7D4F850B10748FFF7C4FF2046FFF76E
:104F1C00D2F8054A0549034802F04CFA014810BD85
:104F2C00BCE30320B8E30320F0E2032099510D0009
:104F3C0013B504460021684600910191FFF778FBF8
:104F4C006B4603CB20602046616002B010BD13B5E8
:104F5C000C4601A8FFF7CCFD00212046FFF770FBA3
:104F6C00044601A8FFF7D2FD204602B010BD30B5B3
:104F7C0085B0002468460D46FFF7BAFD0C23214688
:104F8C0001A8019402940394ADF80630FFF768FB76
:104F9C00002805DB214601A8ADF80A50FFF758FBA5
:104FAC0004466846FFF7B2FD204605B030BD30B56B
:104FBC0085B0002468460D46FFF79AFD0C23214668
:104FCC0001A8019402940394ADF80630FFF748FB56
:104FDC00002805DB214601A88DF80C50FFF738FBA3
:104FEC0004466846FFF792FD204605B030BD0846E2
:104FFC0009B90A4601E0096A0022FFF739BB10B56E
:10500C000C4611B90A46084606E001212046FFF776
:10501C0090FE216A00222046BDE81040FFF730BB0D
:10502C0013B501A8FFF764FD0020FFF731FB044620
:10503C0001A8FFF76BFD204602B010BD73B5054605
:10504C000C4601A81646FFF753FD21462846FFF7EC
:10505C00CEFF002808DB31462846FFF7D0FF00289A
:10506C0002DB2846FFF7DCFF044601A8FFF74EFDE4
:10507C00204602B070BD0020FFF712BB30B585B0E2
:10508C00002468460D46FFF733FD0C23214601A88A
:10509C0001940294ADF806300394FFF711FB2146FE
:1050AC0001A8ADF80C50FFF703FB04466846FFF768
:1050BC002DFD204605B030BD30B58BB001A814468F
:1050CC000D46FFF715FD002202A90C48029203922F
:1050DC00049205920692079209940895FFF7F8FA44
:1050EC000028B8BF04460298A8BF079CFFF7B2FC83
:1050FC0001A8FFF70BFD20460BB030BD1F550D006E
:10510C000B68036013B15A6801325A60704710B5CE
:10511C000446006828B14368013B43600BB9FFF7B4
:10512C00D7FC204610BD70B504684368054604EBF7
:10513C00C306A64204D0201DFFF7E9FF0834F8E7A8
:10514C002868FFF787FC284670BD70B50468436873
:10515C00054604EBC306A64204D0201DFFF7D7FF7B
:10516C000834F8E72868FFF775FC284670BD10B5C1
:10517C00046904F11800FFF7E8FF04F10C00FFF7D5
:10518C00D2FF2046BDE81040FEF781BFF8B5046899
:10519C000746C4B1A569E36905EBC306AE4204D06A
:1051AC00281DFFF7B4FF0835F8E7A069FFF752FC9C
:1051BC0004F10C00FFF7C9FF2046FFF7B4FF3421C0
:1051CC00204602F0FCF83846F8BD000073B5002507
:1051DC000560456006462420FEF757FF044678B16B
:1051EC0003464FF6FF7223F8022BC0F802505D60A5
:1051FC008572C572C560056145618561C5610562D1
:10520C00002314200193FEF740FF034628B101222E
:10521C0042608260084A0260046102A8726840F829
:10522C00042D73603460FFF772FF33680BB9FFF71E
:10523C0045FC304602B070BD007A0D0038B50C68E4
:10524C0003689C4205460CD014B16368013363605B
:10525C00286828B14368013B43600BB9FFF738FC61
:10526C002C60284638BD884270B515461AD9904234
:10527C0019D2A1F10806511A0439151F44182B1F15
:10528C009E4225D0042C07D055F8043C44F8043C2D
:10529C0029462046FFF734FF2846FFF738FF083D24
:1052AC00083CECE714D00C1D061D231F9D420FD0AB
:1052BC00042E07D054F8043C46F8043C21463046F2
:1052CC00FFF71EFF2046FFF722FF08340836ECE7F5
:1052DC0070BD2DE9F041046843680546884604EB2F
:1052EC00C307A74218D041462046FFF7BBFD064630
:1052FC0008B90834F5E78CB1201DFFF708FF2B68BF
:10530C006A6804F1080103EBC2022046FFF7ABFF09
:10531C006B68013B6B6002E0002600E026463046DD
:10532C00BDE8F081F7B5044651F8043B476800939B
:10533C0001A8FFF7E5FE6668A3689E4214DB013600
:10534C00002E0BDDF000FFF77DFB054618B394E84B
:10535C00060001EBC202FFF786FF00E00025206883
:10536C00FFF778FB2560A6602668626806EBC70528
:10537C0006EBC202294605F10800FFF774FF35B1B0
:10538C00009B46F8373001A9281DFFF7B9FE63686A
:10539C0001336360012501A8FFF7B9FE284603B06D
:1053AC00F0BD00002DE9F04104468EB003A80D4677
:1053BC00FFF79EFB2368032B02D0042B42D087E01F
:1053CC0004A8FFF703FF049B22891A8062680499E2
:1053DC0052F8083FC1F802305368C1F8063007A8EC
:1053EC00049B069305A9FFF78BFE06A905F118008F
:1053FC00FFF798FF044607A8FFF789FE20230693C2
:10540C0074B9364B009306AA2346354907943220CB
:10541C00FFF784FA049B21461888FFF76BF90DE01F
:10542C00304A0092002306AA2D4907930120FFF76A
:10543C0075FA6B6A13B1E96A04A8984705A8FFF7D7
:10544C0066FE45E021892846FFF7F3FC0746002855
:10545C003ED00468A369E1694FF6FF72228003EB2A
:10546C00C101994203D053F8080B4280F9E7E66872
:10547C00236906EBC308B04504D0301DFFF747FE87
:10548C000836F8E700232361A669E36906EBC30835
:10549C00B04504D0301DFFF73AFE0836F8E700237C
:1054AC00E361A372E372AB6A13B1296B3846984778
:1054BC0020230D4A069300920023094907930120EB
:1054CC0006AAFFF72BFA394605F11800FFF701FF82
:1054DC0003A8FFF71BFB0EB0BDE8F081767A0D0038
:1054EC00147A0D009C7A0D00B97A0D0038B50D1E9A
:1054FC00044606DD542169430068FFF7B3FA20B96E
:10550C0038BD0068FFF7A6FA00202060A5600120D6
:10551C0038BD70B55426C0B0054632460C4601A8BD
:10552C00002102F0F2F803A8FFF7E9FB0CA8FFF743
:10553C00E6FB2A4601AB52F8100F5168EA8903C307
:10554C002B78A9688DF854300CA8FFF769FBAA8951
:10555C00696803A8FFF764FBA5691DB1E16901A89F
:10556C00A8473CE0E06898B163692269934239D25C
:10557C005A1C626106FB0300512201A902F09FF83C
:10558C00626923699A422DD32846FFF7A9F829E0CE
:10559C00324601A916A802F092F8324616A92BA899
:1055AC00656802F08CF8A3689D4204DB691C2046F8
:1055BC00FFF79CFFB0B163682268542606FB0525F3
:1055CC0006FB0322521B2946A81902F083F8324627
:1055DC002BA9284602F073F8636801336360636992
:1055EC000133636140B070BD10B5064C00232046FA
:1055FC002360FFF7ABF82046034A0449BDE810408E
:10560C0001F0D8BEC0E30320F0E20320B94A0D003C
:10561C0010B58368044613B103220146984720460F
:10562C0010BD002211464068FFF7F4B90022114664
:10563C004068FFF7FFB900224068FFF7F3B900227A
:10564C0081F001014068FFF7DDB900231A461946C5
:10565C004068FFF7CFB900231A4619464068FFF798
:10566C00C1B9002211464068FFF7B4B900221146B7
:10567C004068FFF79FB9002202214068FFF7A2B9EA
:10568C0000231A464068FFF78DB90000024B032235
:10569C005A60024A1A607047C4E30320CC7B0D00A9
:1056AC00704710B51821044601F089FE204610BD44
:1056BC00F0B5037D062B8DB00E4600F104074FF0BC
:1056CC00000402D000F1080518E00CAD394605F8CD
:1056DC00304D2F232A460A20FFF778F8284602F08F
:1056EC0067F833680246DB682946304698470FE076
:1056FC0024B12E21304601F04DFB044415F8011D58
:10570C000A22304601F055FBBD420444F0D120463C
:10571C000DB0F0BD10B5054B0446112240F8043B0A
:10572C00002101F0F2FF204610BD00BF007C0D00EF
:10573C000346074A10B543F8042B01F1100251F847
:10574C00044B43F8044B9142F9D10A781A7010BDFE
:10575C00007C0D0010B59DF8084044EA032343EA91
:10576C00024242EA016104234160037510BD37B562
:10577C000D788B784A78C97800912946FFF7EAFFB3
:10578C0003B030BD00F11002012312F8101C0129E6
:10579C00104604D152F8041C03EB410304E0022927
:1057AC0004BF52F8041C5B18013B02F11002ECD14F
:1057BC0070470EB42DE9F04187B000AF07F1340407
:1057CC00054654F8046B7C6023463246102107F1E1
:1057DC000800FFF757F90F2816D900F1080323F03A
:1057EC000703E846ADEB030D3246411C23466846E1
:1057FC007C60FFF747F9021E04DD2B6869469B6845
:10580C0028469847C54607E030B12B6802469B688E
:10581C0007F10801284698471C37BD46BDE8F04102
:10582C0003B0704713B502AB026803F8011D94680E
:10583C0019460122A04702B010BD8368FBB11A784B
:10584C00032A1AD8DFE802F00417021D052070475E
:10585C0002685B685268D05C2D2814D0A0F130032C
:10586C00092B10D9742810D066280ED0A0F16E0325
:10587C005842584170470620704700207047184620
:10588C00704704207047032070470220704710B502
:10589C000446FFF7D2FF02280DD016D3042814D8E3
:1058AC002268A36850685B680A2200211844BDE88E
:1058BC00104002F033B82268A36852685B68D05C71
:1058CC00A0F174035842584110BD002010BD10B512
:1058DC00436904465BB18068E060013B1030A06016
:1058EC00206163612BB1FFF74DFFA06001E018460A
:1058FC0010BD012010BD10B57D210446FFF792FFAD
:10590C0001232371204610BD08B50379012B02D069
:10591C00022B02D008BD2C2100E03A21FFF782FFB8
:10592C0008BD10B50446FFF7EFFF20467B21FFF7BB
:10593C0079FF00232371204610BD000038B50446C2
:10594C000D46FFF7E1FF23680449DB6820462A4631
:10595C00984701232371204638BD00BFD9790D002B
:10596C0038B504460D46FFF7CFFF23680449DB68C2
:10597C0020462A46984701232371204638BD00BF94
:10598C001B7C0D00F8B50D461746222104462F440A
:10599C00FFF748FF2A462946BA4238D0164616F871
:1059AC00015B222D03D05C2D01D01F2D2DD8236837
:1059BC00521A9B68204698475C212046FFF732FF1D
:1059CC000C2D19D007D8092D0FD00A2D12D0082D67
:1059DC0014D162210AE0222D05D05C2D03D00D2DAF
:1059EC000CD1722102E0294600E074212046FFF719
:1059FC0019FF09E06E21F9E76621F7E723680A49E8
:105A0C00DB682A462046984731463246C4E7914225
:105A1C0004D02368521A9D682046A84722212046AC
:105A2C00FFF700FFF8BD00BF2C7C0D0070B50446DD
:105A3C000D461646FFF768FF204632462946FFF70B
:105A4C00A1FF02232371204670BD70B504460D469C
:105A5C001646FFF759FF204632462946FFF792FFBC
:105A6C0001232371204670BD10B50023044603604A
:105A7C0043601048A060E360D1B10B78032B06D0D3
:105A8C00B3B9136858684B68C35C6E2B08D01368A5
:105A9C0058684B680344A3608B6849685B1AE360E1
:105AAC001146204651F8043B40F8043BFFF7C6FB77
:105ABC00204610BD047D0D00002310B50446036084
:105ACC0043608360C3600361436171B10B78012B48
:105ADC000BD101F110038360CB684361114651F87F
:105AEC00043B40F8043BFFF7A9FB204610BD002304
:105AFC0010B5044603604360816031B1114651F822
:105B0C00043B40F8043BFFF799FB204610BD80682E
:105B1C000368DB681847704719B10B6808465B6867
:105B2C001847704719B10B6808465B6818477047EF
:105B3C0070477047704738B504460D4600682E21F3
:105B4C0001F022FE2368C31A2B6023B1037803B142
:105B5C00013023682060184638BD10B50C2104466E
:105B6C0001F02DFC204610BD10B50421044601F0B7
:105B7C0026FC204610BD10B50421044601F01FFC84
:105B8C00204610BD38B50C46054601F027FB844273
:105B9C000DD001F097FA844205D101F093FABDE8DB
:105BAC00384001F08CBA21462846FFF7BBFF38BDC0
:105BBC0008B501F0F3FDB0FA80F0400908BD38B526
:105BCC00054608460C4601F0F3FD214602462846E0
:105BDC00BDE83840FFF739BF0068FEF7C7BD70B5A8
:105BEC00044608460D4601F0E3FD236802462946AB
:105BFC002046DB68BDE87040184713B502AB02685D
:105C0C0003F8011DD46819460122A04702B010BD4B
:105C1C002DE9F04F4568076885B09146142255432D
:105C2C000193AB10194D02925D438B463C46012308
:105C3C00002D039323DD029B6E1003FB06F004EB97
:105C4C0000084A46B8F804A02058D14528BF52464F
:105C5C00594601F0B5FD039B48B9D14503D1019AD2
:105C6C0013703546E4E78CBF0120002000E0C00F24
:105C7C000028F6D0AE1B08F11404013EF1E7E41B3A
:105C8C000248A410604305B0BDE8F08FCDCCCCCC5D
:105C9C00F0B585B003690191067E13B309B304AF67
:105CAC00002347F8043D00F10C041D46394601A8B9
:105CBC00FFF741FF0146A0B104AB039A03F8055D61
:105CCC002046FFF7A5FF9DF80B3053B12368142431
:105CDC0004FB0034083434F9023C002BA8BFDEB2BC
:105CEC00E4E7304605B0F0BD10B5094C2368DB077E
:105CFC000BD42046FEF7DAF938B12046FEF7DBF973
:105D0C00044A0549054801F055FB044810BD00BF85
:105D1C00CCE30320F0E203203F5B0D0080E2032084
:105D2C0010B5094C2368DB070BD42046FEF7BEF9EF
:105D3C0038B12046FEF7BFF9044A0549054801F081
:105D4C0039FB044810BD00BFFCE30320F0E2032044
:105D5C003D5B0D007CE2032038B500250446056050
:105D6C004560856005614561856140F8245FFEF7FB
:105D7C00EDFCFFF7B9FFE061FFF7D2FF257320625E
:105D8C00204638BD10B50A4C2368DB070ED42046DC
:105D9C00FEF78CF950B10748FFF7DEFF2046FEF7FF
:105DAC008AF9054A0549034801F004FB014810BD76
:105DBC00D0E30320D4E30320F0E20320FB610D00C9
:105DCC000023024A02490348FEF7C0BDDD600D0006
:105DDC006D600D00F55F0D0000231A46194618463C
:105DEC00FEF7B4BD73B502AC8E6851F8043B44F8B1
:105DFC00083D054601A8FFF783F92246314628469F
:105E0C00FFF75AFE01A8FFF782F9284602B070BDD1
:105E1C0073B502AC0E6951F8043B44F8083D0546D5
:105E2C0001A8FFF76DF9224631462846FFF75FFEC1
:105E3C0001A8FFF76CF9284602B070BD73B502AC2F
:105E4C00CE6851F8043B44F8083D054601A8FFF71D
:105E5C0057F9224631462846FFF706FE01A8FFF700
:105E6C0056F9284602B070BD30B58BB00D460146D0
:105E7C0004A8FFF7B7FF04A8FFF729FDE8B104A9B0
:105E8C006846FFF7DBFF0F490298FFF791FE0446C7
:105E9C0010B12C1C18BF012401A8FFF738F9002CF5
:105EAC00E9D004A96846FFF7B3FF6846FFF7EFFC9B
:105EBC00286001A8FFF72BF9DDE705A8FFF727F904
:105ECC000BB030BD647C0D0037B50C462046134931
:105EDC00154601F063FC40B901F080F94FF41651FE
:105EEC0001F06CF901F07AF915E00D49204601F04A
:105EFC0055FC78B902A94FF4165341F8043D2846D5
:105F0C00FFF7B2FF01F0DEF8019901F0D5F801F0CE
:105F1C00D9F800E0002003B030BD00BF697C0D0053
:105F2C00707C0D0070B5046843681426054606FBAA
:105F3C000346A64205D004F10800FFF7F3FF143422
:105F4C00F7E72868FEF786FD284670BD70B5046833
:105F5C004368054604EB0316A64204D0204600F025
:105F6C00A7FF1034F8E72868FEF774FD284670BDCB
:105F7C0010B504460C30FFF7D5FF2046FFF7E6FFBF
:105F8C00204610BD10B5044B044640F8043BFFF707
:105F9C00EFFF204610BD00BF58790D0010B5044628
:105FAC00FFF7F0FF2046242101F009FA204610BD2E
:105FBC0010B5034B03600446FFF7E4FF204610BD09
:105FCC00547C0D0010B50446FFF7F2FF2046242147
:105FDC0001F0F5F9204610BD10B5036804461868A9
:105FEC00FEF7CCFB204610BD2DE9F04F9B461B4B1A
:105FFC005B68C3F3080385B082460E46904653BBDC
:10600C00FFF7C0FE044624300390FFF7E5FD237B29
:10601C00F3B90123237325686368F6B205EB830992
:10602C004D4513D055F8047B4146381DFFF730FE23
:10603C008642F5D33B68CDF800B09B689E46384647
:10604C004346324651467746B847E9E70023237367
:10605C0003A8FFF7C1FF05B0BDE8F08F00ED00E02D
:10606C002DE9F74F9946194B5B68C3F308030746B4
:10607C008846164633BBFFF785FE04462430019054
:10608C00FFF7AAFD237BD3B901232373256863682B
:10609C005FFA86FB05EB830A55450ED055F8046B69
:1060AC004946301DFFF7F4FD8345F5D3336842466E
:1060BC00DB68394630469847EEE70023237301A886
:1060CC00FFF78AFF03B0BDE8F08F00BF00ED00E0E2
:1060DC002DE9F341154B5B68C3F30803044688466E
:1060EC00FBB9FFF74FFE064624300190FFF774FD15
:1060FC0096E8A000462605EB8707AF4207D101A81A
:10610C00FFF76AFFB442B4BF002001200AE055F843
:10611C00040B41460430FFF7BBFD8642A8BF064680
:10612C00EBE7002002B0BDE8F08100BF00ED00E01D
:10613C0070B503684268044603EB82029A42184623
:10614C000ED006680D68AE4203F10403F6D1011DB2
:10615C00521A01F0BFFA6368013B6360012070BD05
:10616C00002070BD1FB50446243001910390FFF749
:10617C0033FD01A92046FFF7DBFF20B903A8FFF789
:10618C002BFF04B010BD6368002BF7D1FFF724FE82
:10619C00F4E770B5056943691826044606FB0356F7
:1061AC00AE4215D005F110012046FFF7C1FF636820
:1061BC000BB9FFF711FEE06929690368DB689847A2
:1061CC00696919B1206A0368DB6898471835E7E7F5
:1061DC0025696369182606FB0356B54204D0284688
:1061EC0000F066FE1835F8E70023636170BD73B5E7
:1061FC00044602ADFFF7F0FD04F1240045F8040D50
:10620C00FFF7EAFC2046FFF7C4FF2846FFF7E4FE41
:10621C00606A08B1FEF7A2FA25696369182606FBC5
:10622C000356B54204D0284600F042FE1835F8E774
:10623C002069FEF70FFC2068FEF70CFC204602B02C
:10624C0070BD03680A6802600B6043684A6842606C
:10625C004B6083688A6882608B60704710B500233E
:10626C000446036043608360FFF7EBFF204610BDDC
:10627C008842F8B50446164625D9904224D2551AC0
:10628C00143D2C44A1F11407A2F10C050026A5F134
:10629C0008039F4237D084B155F8083C236035F889
:1062AC00043CA38035F9023CE380A660E6602661DD
:1062BC00294604F10800FFF7C4FF2846FFF732FE19
:1062CC00143C143DE3E71ED001F108050027A5F1AD
:1062DC0008039E4217D084B155F8083C236035F86A
:1062EC00043CA38035F9023CE380A760E76027619A
:1062FC00294604F10800FFF7A4FF2846FFF712FE19
:10630C0014341435E3E7F8BDF8B5456883689D424D
:10631C0004460E4617460EDB0135002D05DDA9009F
:10632C000068FEF79FFB20B9F8BD0068FEF792FBF2
:10633C0000202060A5602568626805EB860105EBEE
:10634C008202521A081D01F0C5F945F826706368DF
:10635C00013363600120F8BD37B5044624300D4687
:10636C000190FFF739FC2368616803EB81008342DD
:10637C001A4609D01268AA4203F10403F7D101A806
:10638C00FFF72AFE00250EE02A462046FFF7BCFF49
:10639C0005460028F3D06368012B01D1FFF710FDEF
:1063AC0001A8FFF719FE284603B030BD8842F8B5A6
:1063BC0006460C46154614D9904213D2A2F110058C
:1063CC006C1AA1F110070444AF4218D01CB1294635
:1063DC00204600F05DFD284600F06AFD103D103CA3
:1063EC00F2E70CD0AC420AD01EB12146304600F088
:1063FC004FFD204600F05CFD10341036F2E7F8BD7E
:10640C0070B50E1E05460BDD3001FEF71BFB044676
:10641C0070B195E8060001EB0212FFF7C7FF00E030
:10642C0000242868FEF716FB2C60AE60012070BDBE
:10643C0070BD2DE9F04F002395B0924646220360C3
:10644C0043608360C3600361436102760291DAF8B2
:10645C00041008939942054609930A9340F39D80D2
:10646C0008A8FFF7CDFF002840F097808EE021466A
:10647C000BA800F00DFD0BA90FA8099E00F008FD5C
:10648C0009990A9B9942C0F2CE80013108A8FFF706
:10649C00B7FF002840F0C7800FA800F009FD0BA83B
:1064AC0000F006FD1434A742E1D100260B960C96A1
:1064BC000D96B146099B9E4280F2A8803301089A42
:1064CC00D3580693002B00F09F8014237343CDF810
:1064DC001C9001930BAC07A906A8FFF72CFB0746F1
:1064EC00002800F0918014AB014603F8399D079AFF
:1064FC002046FFF78DFB9DF817800090B8F1000F38
:10650C0053D1BDF81C30ADF840304FF6FF730F97E8
:10651C00ADF84230CDF84480CDF84880CDF84C80B1
:10652C006768A3689F424FDA009BD4F800B061689B
:10653C00142253430BEB030702FB01B207F11400C7
:10654C0039460393FFF794FEA7B1039B0F9A4BF8C0
:10655C000320BDF84030BB80BDF94230FB80C7F84A
:10656C000890C7F80C90C7F8109011A907F1080013
:10657C00FFF767FE63680133636011A8FFF7D2FC75
:10658C00B8F1000F11D00BA8FFF7CCFC08A8FFF74F
:10659C00DDFC284615B0BDE8F08FDAF80040DAF8DB
:1065AC000430142707FB03477DE72368009A142463
:1065BC0004FB0234069B1B7823BBDAF80030019AEB
:1065CC0013441B7CE3801DE00137002F0FDD1423E7
:1065DC0003FB07F00393FEF735FA834678B194E892
:1065EC000600039B03FB0212FFF742FE00E0C346CA
:1065FC002068FEF72FFAC4F800B0A76094E74FF0BC
:10660C000108BAE7083466E7013653E708A92846BB
:10661C00FFF717FE0BA905F10C00FFF712FE9DF812
:10662C0008302B76AFE7089B099A03EB061603EBB1
:10663C000212314606F11000FFF7B8FE1EB10FA989
:10664C00304600F025FC099B0133099324E7000038
:10665C007FB50446094B44F8043B05460E4601A899
:10666C001146FDF748FF01AA31462046FFF7E1FE2F
:10667C0001A8FDF7D1FE284604B070BD58790D0075
:10668C00F0B50F468BB02B49109C384616461D466C
:10669C0001F084F828BB002C49D0294601A8FFF74B
:1066AC00DDFD2549242000F095FE0546B8B101A971
:1066BC0004A8FFF7D3FD04A907A8FDF71CFF07AA40
:1066CC0031462846FFF7C4FF07A8FDF7A5FE1B4B74
:1066DC002B602C6204A8FDF79FFE194B2B6001A8C0
:1066EC001FE01849384601F059F8F0B9FCB12946B9
:1066FC0004A8FFF7B3FD1049242000F06BFE0546FB
:10670C0070B104A907A8FDF7F6FE07AA3146284682
:10671C00FFF79EFF07A8FDF77FFE084B2B602C624E
:10672C0004A8FDF779FE284602E0002000E0204690
:10673C000BB0F0BDC27C0D00AC7E0D00447D0D0095
:10674C00547C0D00C67C0D00014B024A1A60704748
:10675C0000E40320F2790D002DE9F047089DD0F8F4
:10676C00209004460E461746984600F037FD8145AA
:10677C0005D15A4800F073FA002840F0AC802B7910
:10678C001B0705D56B69564A206A002100F031FBC6
:10679C00B8F1000F0DD05B212046FFF72EFA4146D1
:1067AC002046FFF71CFA23684E49DB68022220467C
:1067BC0098472B79D90725D5D5F808802F21404645
:1067CC0001F013F808B100F1010841462046FFF72B
:1067DC0006FA2B799A0709D53A212046FFF70DFACC
:1067EC00EB68414A206A002100F003FB2B7913F07F
:1067FC00040F236818BF3D49DB6808BF3C490222DF
:10680C00204698472B795B0718D529690A46134609
:10681C0013F8010B38B1202801D1194601E02828C2
:10682C0001D01A46F3E72368521ADB6820469847D2
:10683C0023683049DB6804222046984700213846FB
:10684C00FEF77CF801462046FFF7C9F92368284972
:10685C00DB680222204698471EB131462046FFF7DE
:10686C00BEF92B7913F0300F2DD023682249DB6849
:10687C002046022298472B79D8060BD523681F494E
:10688C00DB68072220469847AB691D4A206A002125
:10689C0000F0AFFA2B79990611D5DA0605D52368E5
:1068AC001249DB6802222046984723681549DB68A9
:1068BC0020460A229847E9692046FFF790F95D21A6
:1068CC002046FFF79AF923680F49DB68204602221D
:1068DC00BDE8F0471847BDE8F08700BFD8E50320B6
:1068EC00D77C0D00DE7C0D00D9790D00E17C0D000C
:1068FC00E67C0D00E47C0D00E97C0D00EC7C0D00C9
:10690C00F47C0D00F77C0D00027D0D002DE9F043A9
:10691C0085B0D0F820800C9C06460F4691461D464B
:10692C0000F05CFC804505D14A4800F098F900283D
:10693C0040F08C80336A484A01924FF0000801A85D
:10694C0003938DF80880FEF7ECFF41464846FDF7AF
:10695C00F5FF42498046012201A8FFF767F841463E
:10696C00FFF72DF93FB13E49012201A8FFF75EF870
:10697C003946FFF724F93DB13A49012201A8FFF746
:10698C0055F82946FFF71BF92379DF070ED5A568C3
:10699C002F21284600F029FF00B1451C3249012265
:1069AC0001A8FFF743F82946FFF709F923799D075A
:1069BC0007D52E49022201A8FFF738F8E168FEF747
:1069CC00BDFF2379580716D525692F463B4613F88A
:1069DC00012B3AB1202A01D11D4601E0282A01D011
:1069EC001F46F3E70222224901A8FFF71FF87A1B82
:1069FC002946FFF72AF82379190707D51D490122E3
:106A0C0001A8FFF713F86169FEF7AAFF2379DA06EC
:106A1C0008D5042218490DEB0200FFF707F8A1690D
:106A2C00FEF78CFF23799B0607D51449062201A893
:106A3C00FEF7FCFFE169FFF7C2F801A8FEF75BFF68
:106A4C00306A0F4903680222DB68984705B0BDE83D
:106A5C00F08300BFD8E503203C7C0D006E7C0D005C
:106A6C00817C0D00367D0D00227C0D00057D0D0016
:106A7C00087D0D00967C0D000B7D0D00107D0D002A
:106A8C00027D0D00002211464068FDF7C3BF0022B5
:106A9C0011464068FDF7CEBF00224068FDF7C2BF2B
:106AAC00002281F001014068FDF7ACBF00231A46BB
:106ABC0001214068FDF79EBF00231A461946406825
:106ACC00FDF790BF002211464068FDF783BF0022FE
:106ADC0011464068FDF76EBF002202214068FDF7A9
:106AEC0071BF00231A464068FDF75CBF38B50546F8
:106AFC0088B104684CB1A3681BB10322214620461F
:106B0C0098471021204600F05AFC28461421BDE875
:106B1C00384000F054BC38BD10B103685B681847AE
:106B2C00704710B503680446BBB15868FDF7F6FD15
:106B3C0078B923685A7C12B95868FDF7F7FD2368B9
:106B4C005868FDF7FBFD20680023236028B1FFF790
:106B5C00CDFF206808B1FFF7C9FF204610BD38B53E
:106B6C000446D0F8C40108B1FDF793FAD4F8C0017B
:106B7C0008B1FDF7F3FDD4F8BC5135B12846FFF749
:106B8C00D0FF0421284600F01AFC206808B1FFF75A
:106B9C00C3FF204638BD000010B5044B044640F836
:106BAC00083BFFF7DCFF204610BD00BF8C7D0D00BD
:106BBC0038B50E4C0E4B23600025022304F5E4700F
:106BCC006360A560C4F8C451C4F8C851FDF7BEFD9C
:106BDC00084BC4F8CC5184F8D05123602046064AA7
:106BEC000649BDE8384000F0E5BB00BF04E40320D3
:106BFC00C07D0D008C7D0D00F0E20320A56B0D0017
:106C0C0000231A464068FDF7CDBE002202214068E1
:106C1C00FDF7D8BE002211464068FDF7CBBE00221E
:106C2C0011464068FDF7D6BE00231A461946406847
:106C3C00FDF7D8BE00231A4619464068FDF7DABEA8
:106C4C00002281F001014068FDF7DCBE00224068A3
:106C5C00FDF7E8BE002211464068FDF7EBBE0022AE
:106C6C0011464068FDF7D6BE2DE9F043002495B0DF
:106C7C0016460D460746FEF74DFD214620220CA870
:106C8C00009400F042FD40230C9321466B460CAA65
:106C9C003046FDF7ABFD0446002844D102460121E5
:106CAC006868FDF797FE0221804622466868FDF76A
:106CBC0091FE009E81462146002E34D0002932D10F
:106CCC007368022B02D00A2B09D02AE0B8F1000F0E
:106CDC0027D0716938460431FEF749FD20E0B9F13F
:106CEC00000F1ED07469112201A800F00EFD0623BE
:106CFC008DF8143001AD04F1080318341868596884
:106D0C002A4603C20833A3421546F7D101A906A8A7
:106D1C0007ADFEF70DFD0FCD3C1D0FC42B68237086
:106D2C000121F669C8E70098FDF758FD384615B003
:106D3C00BDE8F083024B034A1A6000225A60704788
:106D4C00D8E50320C07D0D00F8B506460D468F181A
:106D5C000024BD420CD0336815F8011B9B683046EB
:106D6C009847002801DB0444F3E7002C08BF0446D5
:106D7C002046F8BD70B505460C46084649B100F0F2
:106D8C0017FD2B68024621462846DB68BDE870409B
:106D9C00184770BD03689B68184738B50D21054628
:106DAC00FFF7F8FF0A2104462846FFF7F3FF2044BB
:106DBC0038BD30B58BB00B4600218DF82410012A5C
:106DCC0098BF0A220DF12304B3FBF2F505FB123335
:106DDC0003F0FF03092B94BF30333733DBB221466A
:106DEC0004F801392B46002DEED1FFF7C3FF0BB091
:106DFC0030BD0CB42DE9F04387B000AF07F1380477
:106E0C00054654F8049B3C600E4623464A46142122
:106E1C00381DFDF737FE132805D8391D2846FFF716
:106E2C00A9FF044613E000F1080323F00703E8462A
:106E3C00ADEB030D411C23464A4668463C60FDF70A
:106E4C0021FE69462846FFF795FF0446C5461EB14C
:106E5C002846FFF7A2FF044420461C37BD46BDE878
:106E6C00F04302B0704710B50446FEF7D1FB204644
:106E7C0010BD00000348044A04490023836000F05D
:106E8C0099BA00BFE0E50320F0E20320736E0D0019
:106E9C000023036043608360037310B50C680460C7
:106EAC004C6844608C6884600B604B608B6010BDD8
:106EBC0010B504460068FDF7CDFD204610BD10B599
:106ECC000446006808B1FDF7C5FD00232360A360EC
:106EDC00636010BD38B504460D4600680131FDF7FE
:106EEC00C1FD10B184E82100012038BD10B5036844
:106EFC00044613B143688B4207D22046FFF7EAFFE2
:106F0C0020B1A3680BB922681370012010BD70B5B5
:106F1C000E46114604461546FFF7E8FF18B9204601
:106F2C00FFF7CDFF09E02A463146A560206800F046
:106F3C00C6FB2268A3680021D154204670BD38B529
:106F4C000023044603604360836003730D4639B12C
:106F5C00084600F02DFC294602462046FFF7D7FFD5
:106F6C00204638BD884210B50B46044607D0096848
:106F7C0019B19A68FFF7CBFF01E0FFF7A0FF20469D
:106F8C0010BD10B500230446036043608360037397
:106F9C00FFF7E8FF204610BD10B50446006818B195
:106FAC00FDF758FD0023236010BD10B50446FFF714
:106FBC00F3FF204610BD000010B5094C00204FF621
:106FCC00FF732060A080A07120816381FDF7C6FC57
:106FDC002046044A0449BDE8104000F0EBB900BF5C
:106FEC00F0E50320F0E20320B76F0D00024B1A68A6
:106FFC00024B1A60704700BF84E20320FCE50320BB
:10700C0070474174704708B5007CFDF72FFC20EAEF
:10701C00E07008BD08B5007CFDF708FC20EAE070C4
:10702C0008BD08B5007CFDF711FC30EA200028BF34
:10703C004FF0FF3008BD08B5007CFDF7FFFB30EAD0
:10704C00200028BF4FF0FF3008BD007CFDF706BCC8
:10705C0010B51421044600F0B2F9204610BD70B5ED
:10706C00457C04460E4625B9007CFDF7FFFB002845
:10707C0005DD3146207CBDE87040FDF7CFBB2846CE
:10708C0070BD000010B5044608461146002262602F
:10709C004FF47A72A260054A226001222074627455
:1070AC001A46FDF7ABFB204610BD00BF207E0D003D
:1070BC000023007CFDF7E2BB0022FFF7F9BF007C48
:1070CC00FDF7A4BB38B50C4D296811F0010411D1A2
:1070DC002846FCF7EBFF68B1084A094B09482146E2
:1070EC00FFF7D0FF2846FCF7E6FF074A074905489B
:1070FC0000F060F9034838BD98E603209CE60320B5
:10710C0014E6032000E60320F0E203200D700D00CE
:10711C0041747047704708B50021007CFDF7DEFB19
:10712C0030EA200028BF4FF0FF3008BD08B5012120
:10713C00007CFDF7D3FB30EA200028BF4FF0FF3076
:10714C0008BD08B5007CFDF7C1FB20EAE07008BD66
:10715C0008B5007CFDF7B2FB20EAE07008BD007CAE
:10716C00FDF7CCBB10B51421044600F028F92046DD
:10717C0010BD38B50446007C0D46FDF7A7FB002872
:10718C0001DC607C28B12946207CFDF7AFFB20EAAE
:10719C00E07038BD10B50446002363604FF47A7379
:1071AC00A360054B236001230846217463741146C8
:1071BC00FDF76CFB204610BD507E0D000022007CBC
:1071CC00FDF76CBB007CFDF771BB10B514220446B7
:1071DC00002100F09AFA204610BD000030B50E4D8B
:1071EC0087B001A8FFF7F1FF296811F0010410D155
:1071FC002846FCF75BFF60B101AA21460748FFF760
:10720C00C9FF2846FCF757FF054A0649034800F01A
:10721C00D1F8024807B030BD20E7032024E7032053
:10722C00F0E2032021710D00002211464068FDF7A9
:10723C00D1BB002211464068FDF7ECBB0022114681
:10724C004068FDF7F7BB00224068FDF7EBBB00225E
:10725C0081F001014068FDF7D5BB00231A461946A1
:10726C004068FDF7C7BB00231A4619464068FDF776
:10727C00B9BB002211464068FDF79CBB00220221DD
:10728C004068FDF79FBB00231A464068FDF78ABB98
:10729C00024B04225A60024A1A60704738E70320F6
:1072AC00807E0D0008B50C4B33B1FFF797FF0368D8
:1072BC001B699847002809DC084B63B1FFF702FFF4
:1072CC0003681B699847002803DC08BDAFF30080F6
:1072DC00F2E7AFF3008008BD0000000000000000E2
:1072EC0008B5FFF7DFFFFDF761FA014B186008BD29
:1072FC0048E703200248034A0349121A00F0DFB999
:10730C0000F4032004F4032050800D0007B5002383
:10731C0000931A466FF07701FDF732FB03B05DF86E
:10732C0004FB000007B543880A2B08D0502B09D169
:10733C00094B1B683BB103B05DF804EB1847FFF732
:10734C00E5FF06E0002300931A466FF07701FDF786
:10735C0017FB03B05DF804FB40E7032038B5104C75
:10736C00104D2368AB42104B0CBF012200221A7047
:10737C0002D0FFF7BFFF2560FDF708FA044600F0C6
:10738C00CDF90A4B13B12046AFF30080002107481A
:10739C00FDF700FB00210648BDE83840FDF7E6BAD2
:1073AC0000F403201E1C279A44E703200000000071
:1073BC0031730D000B460146184600F063B9FCF71B
:1073CC0066BE0000024B1868BFF35F8F704700BFAA
:1073DC004CE7032010B5002814BF044601242046B6
:1073EC00FDF730FB20B9FFF7EDFF08B18047F6E75A
:1073FC0010BD0000244B1A68D0075CBF01221A6034
:10740C00224B1A68D1075CBF01221A60204B1A6804
:10741C00D2075CBF01221A601E4B1A68D0075CBFF2
:10742C0001221A601C4B1A68D1075CBF01221A603A
:10743C001A4B1A68D2075CBF01221A60184B1A68E3
:10744C00D0075CBF01221A60164B1A68D1075CBFCB
:10745C0001221A60144B1A68D2075CBF01221A6011
:10746C00124B1A68D0075CBF01221A60104B1A68C5
:10747C00D1075CBF01221A600E4B1A68D2075CBFA1
:10748C0001221A60704700BF7CE7032078E70320D5
:10749C0074E7032070E703206CE7032068E7032000
:1074AC0064E7032060E703205CE7032058E7032030
:1074BC0054E7032050E70320184B1A68D1075CBF30
:1074CC0001221A60164B1A68D2075CBF01221A609F
:1074DC00144B1A68D0075CBF01221A60124B1A6851
:1074EC00D1075CBF01221A60104B1A68D2075CBF2F
:1074FC0001221A600E4B1A68D0075CBF01221A6079
:10750C000C4B1A68D1075CBF01221A600A4B1A682F
:10751C00D2075CBF01221A60704700BF9CE70320B2
:10752C0098E7032094E7032090E703208CE70320DF
:10753C0088E7032084E7032080E70320184B1A68B0
:10754C00D1075CBF01221A60164B1A68D2075CBFC8
:10755C0001221A60144B1A68D0075CBF01221A6012
:10756C00124B1A68D1075CBF01221A60104B1A68C3
:10757C00D2075CBF01221A600E4B1A68D0075CBFA1
:10758C0001221A600C4B1A68D1075CBF01221A60E9
:10759C000A4B1A68D2075CBF01221A60704700BF01
:1075AC00BCE70320B8E70320B4E70320B0E70320CF
:1075BC00ACE70320A8E70320A4E70320A0E70320FF
:1075CC00244B1A68D0075CBF01221A60224B1A6840
:1075DC00D1075CBF01221A60204B1A68D2075CBF2E
:1075EC0001221A601E4B1A68D0075CBF01221A6078
:1075FC001C4B1A68D1075CBF01221A601A4B1A681F
:10760C00D2075CBF01221A60184B1A68D0075CBF06
:10761C0001221A60164B1A68D1075CBF01221A604E
:10762C00144B1A68D2075CBF01221A60124B1A68FD
:10763C00D0075CBF01221A60104B1A68D1075CBFDF
:10764C0001221A600E4B1A68D2075CBF01221A6025
:10765C00704700BFECE70320E8E70320E4E70320D2
:10766C00E0E70320DCE70320D8E70320D4E703207E
:10767C00D0E70320CCE70320C8E70320C4E70320AE
:10768C00C0E7032010B5054C13462CB10A46014641
:10769C000220AFF3008010BD204610BD000000009A
:1076AC0010B501390244904207D010F8013B11F893
:1076BC00014FA342F7D0181B10BD002010BD10B510
:1076CC00431E0A44914204D011F8014B03F8014FB8
:1076DC00F8E710BD884210B501EB020301D8421E39
:1076EC000BE09842FBD28118D21AD34204D013F883
:1076FC00014D01F8014DF8E710BD994204D011F885
:10770C00014B02F8014FF8E710BD024403469342C7
:10771C0002D003F8011BFAE77047000038B5124B92
:10772C001C68A36B0546D3B91820FDF78BF943F2FF
:10773C000E33A06303804AF6CD33438041F23423E9
:10774C0083804EF26D63C3804DF6EC630381052399
:10775C0043810B23838101220023C0E90423A36B03
:10776C0000221D615A6138BDECE20320C9B2034608
:10777C0010F8012B1AB19142F9D118467047002923
:10778C000CBF18460020704710B50446FFF7EEFFFB
:10779C0018B9204600F00CF8204410BD10F8012B4D
:1077AC0011F8013B012A28BF9A42F7D0D01A704732
:1077BC00034613F8012B002AFBD1181A0138704725
:1077CC0030B582B1451E013915F8013F11F8014F52
:1077DC00A34206D1EC431444E04201D0002BF3D178
:1077EC001C46181B30BD104630BD38B503460D463F
:1077FC0041B1002429461846FFF7B8FF30B1431CAD
:10780C000446F7E7BDE83840FFF7B0BF204638BD67
:10781C002DE9F04780464048D0F800900F463D4691
:10782C0015F8014B09EB0400407800F0080000F05B
:10783C00FF0608B12F46F2E72D2C03D1BD1C7C7836
:10784C00012603E02B2C04BF7C78BD1C13B1102B3C
:10785C000AD15BE0302C57D1287800F0DF00582893
:10786C004DD16C7810230235002E14BF4FF0004C14
:10787C006FF0004C0027BCFBF3FA384603FB1ACC24
:10788C0009EB040E9EF801E01EF0040F01D0303C11
:10789C000BE01EF0030E1BD0BEF1010F0CBF4FF01E
:1078AC00370E4FF0570ECEEB0404A34210DDB7F1A8
:1078BC00FF3F0AD0504506D801D1644503DC03FBD9
:1078CC000040012701E04FF0FF3715F8014BD7E7D7
:1078DC007B1C0CD1002E4FF0220314BF4FF0004044
:1078EC006FF00040C8F800302AB9BDE8F08706B147
:1078FC00404272B107B1691E1160BDE8F0873024B7
:10790C00002BB1D10823AFE70A23ADE7302CA3D06D
:10791C00AAE7BDE8F08700BF88E2032013460A46B9
:10792C00014602480068FFF773BF00BFECE203207A
:10793C001D400D0059400D0085400D0089400D0083
:10794C00000000000000000000000000000000002B
:10795C0000000000A5400D00CD400D00000000000F
:10796C000000000005410D0039410D0065670D0058
:10797C00CF400D002530327800525353493A202520
:10798C00642054696D653A20256C64204D41433A5E
:10799C0020253032583A253032583A253032583A70
:1079AC00253032583A253032583A2530325800506A
:1079BC00726F626C656D2077697468206761705FA7
:1079CC00706172616D735F696E69743A2025640031
:1079DC00436865636B206966204D41432063686191
:1079EC006E6765642E00617070000000000000007E
:1079FC0000000000A14A0D00A74A0D007B510D00AC
:107A0C00B54A0D00A34A0D00776972696E672E6244
:107A1C006C6500537461727420646973636F76656E
:107A2C0072696E672073657276696365732E005395
:107A3C007461727420646973636F766572696E67C2
:107A4C0020636861726163746572697374696373CE
:107A5C002E005065657220646576696365206973D4
:107A6C00206D697373696E6721004661696C65648A
:107A7C0020746F20617070656E6420706565722073
:107A8C0043656E7472616C206465766963652E0063
:107A9C00436F6E6E65637465642062792043656E16
:107AAC007472616C206465766963652E0044697339
:107ABC00636F6E6E65637465642062792072656DA8
:107ACC006F7465206465766963652E0043616E6E24
:107ADC006F7420616464206E657720706565722018
:107AEC006465766963652E004E65772070657269F2
:107AFC0070686572616C20697320636F6E6E65636C
:107B0C007465642E004661696C656420746F206135
:107B1C007070656E6420646973636F7665726564FA
:107B2C002063686172616374657269737469632E32
:107B3C00004661696C656420746F20617070656EBD
:107B4C006420646973636F76657265642073657213
:107B5C00766963652E004661696C656420746F20DC
:107B6C00617070656E64206C6F63616C206368611A
:107B7C0072616374657269737469632E0044757005
:107B8C006C696361746564206368617261637465B8
:107B9C007269737469632063616E6E6F74206265C1
:107BAC002061646465642E00FB349B5F8000008060
:107BBC0000100000000000000000000000000000A9
:107BCC008D560D0083560D0079560D006F560D0025
:107BDC0063560D0057560D004B560D0043560D00C5
:107BEC0039560D002F560D00756C0D00000000006D
:107BFC0000000000BD560D00AD560D00AF560D0037
:107C0C00302E300066616C736500747275650025EA
:107C1C007500252E2A6C66002567006E756C6C004D
:107C2C0075253034780000000000000000000000D2
:107C3C00415B0D00675B0D001B5B0D00BF570D001A
:107C4C000000000000000000BD5F0D00D15F0D00C2
:107C5C0019690D00235B0D00626175640053657238
:107C6C0069616C0053657269616C3100747970657F
:107C7C0000706172616D00636D6400696400686E10
:107C8C0064007374726D0066696C74006C766C00C1
:107C9C0061646448616E646C65720072656D6F76C8
:107CAC006548616E646C657200656E756D48616ED9
:107CBC00646C657273004A534F4E53747265616DF8
:107CCC004C6F6748616E646C65720025303130759D
:107CDC0020005D20002C200028293A2000205B0089
:107CEC00636F6465203D20002569006465746169DB
:107CFC006C73203D20000D0A006C6E00666E0063F4
:107D0C006F64650064657461696C006E6F6E65000C
:107D1C00747261636500696E666F007761726E00E4
:107D2C006572726F720070616E696300616C6C00D9
:107D3C000000000000000000915F0D00A95F0D0025
:107D4C0065670D00CF400D00000000000000000032
:107D5C003F5B0D00755B0D008D660D00255B0D0006
:107D6C0000000000000000003D5B0D00835B0D0077
:107D7C00D55E0D00915B0D000000000000000000BE
:107D8C00EF6A0D00E56A0D00DB6A0D00D16A0D008B
:107D9C00C56A0D00B96A0D00AD6A0D00A56A0D002B
:107DAC009B6A0D00916A0D00756C0D0000000000BF
:107DBC00000000000D6C0D00176C0D00216C0D0007
:107DCC002B6C0D00356C0D00416C0D004D6C0D00D5
:107DDC00596C0D00616C0D006B6C0D00756C0D0019
:107DEC005A00252B3033643A253032750025592D35
:107DFC00256D2D25645425483A254D3A2553257A71
:107E0C000061736374696D65000000000000000080
:107E1C00000000000D700D005D700D006B700D000A
:107E2C00556D0D0021700D0043700D002F700D006D
:107E3C0057700D000F700D0013700D000000000046
:107E4C000000000021710D0071710D007F710D009B
:107E5C00556D0D005D710D0023710D0039710D0014
:107E6C006B710D004F710D001D710D0000000000B5
:107E7C000000000093720D0089720D007F720D00DE
:107E8C0035720D0073720D0067720D005B720D0080
:107E9C0053720D0049720D003F720D00756C0D0090
:107EAC0000002020202020202020202828282828DE
:107EBC0020202020202020202020202020202020B6
:107ECC00202088101010101010101010101010100E
:107EDC00101004040404040404040404101010100E
:107EEC0010101041414141414101010101010101C9
:107EFC000101010101010101010101010110101039
:107F0C00101010424242424242020202020202029B
:107F1C00020202020202020202020202021010100B
:107F2C001020000000000000000000000000000015
:107F3C000000000000000000000000000000000035
:107F4C000000000000000000000000000000000025
:107F5C000000000000000000000000000000000015
:107F6C000000000000000000000000000000000005
:107F7C0000000000000000000000000000000000F5
:107F8C0000000000000000000000000000000000E5
:107F9C0000000000000000000000000000000000D5
:107FAC0000000000000000000000000000000000C5
:107FBC0000000000000000000000000000000000B5
:107FCC0000000000000000000000000000000000A5
:107FDC000000000000000000000000000000000095
:107FEC000000000000000000000000000000000085
:107FFC000000000000000000000000000000000075
:10800C00000000004300000035450D00F5550D0043
:10801C0099560D0055670D00BD6B0D00416D0D009F
:10802C00816E0D00C56F0D00F96F0D009D720D0076
:10803C0001740D00C5740D0049750D00CD750D0052
:04804C000000000030
:04805000000000002C
:10805400747D0D005C7D0D000D7E0D00AD7E0D0068
:1080640000000000B07F0D00D07F0D00F07F0D00F8
:1080740000000000000000000000000000000000FC
:1080840010800D000000000000000000000000004F
:1080940000000000000000000000000000000000DC
:1080A40000000000000000000000000000000000CC
:1080B40000000000000000000000000000000000BC
:0480C4008CE2032027
:1080C800FFFFFFFF00000102030405060708090A75
:1080D8000B0C0D0E0F101112131415161718191A70
:0880E8001B1C1D1E1F202800B7
:0480F0007856341278
:04000003D000401CCD
:00000001FF
