:02000002D0002C
:1040000000400D00C86A0D00000006000C0005010C
:084010000401DE0500000000C0
:04401800DC640D0057
:10401C0009480A49884208B505D0094A824202D0AB
:10402C00121A02F0EEF90748074A0021121A02F0A0
:10403C000EFA014808BD00BFB4E20320346A0D003B
:10404C0020E3032020E30320F0E7032070B501F008
:10405C0065FF074C074BE41AA40800251E46A54231
:10406C0004D056F8253098470135F8E770BD00BFED
:10407C00306A0D00F8690D0000F078B908B500F051
:10408C00A9F9BDE8084001F00BBF00F057BC00F0E7
:10409C005DBC00F05BBC0078B0FA80F04009704762
:1040AC0001230370704770DF70470000013AF8B5C8
:1040BC0007464D1E8E180024B54208D0381915F845
:1040CC00012F034900F052FC2044C4B2F4E7F8BDC0
:1040DC00F0640D000EB400B58CB00DAA202352F87C
:1040EC00041B03928DE8060004930168002304AAC4
:1040FC003220059300F096FB0CB05DF804EB03B096
:10410C007047000010B50446222001F07FFF78B103
:10411C00084B1B782BB101F041FE4FF4165101F006
:10412C0031FE01F03BFE2146BDE8104001F070BCB1
:10413C0010BD00BFB4E203200AB1FFF7B7BF704750
:10414C0010B504466CB10121072001F046FF0A208E
:10415C0000F014FC013C0021072001F03EFFE4B20A
:10416C00F0E710BD2DE9F04FC7B0064612A800F0DD
:10417C0067FC17A800F064FC1CA800F061FC06F1B9
:10418C00080721A800F05CFC12A90422384600F0B4
:10419C00B3FD804696E8030008AC84E803000025D4
:1041AC004FF014094FF66F5A454558DA12AB09FB1C
:1041BC00053000F082FC50454FD10120FFF7C0FFC5
:1041CC0000F018FA274B96F950601860264B0546FC
:1041DC00052120461E7000F020FC0421804620465C
:1041EC0000F01BFC03218146204600F016FC022146
:1041FC008246204600F011FC01218346204600F047
:10420C000CFC00210790204600F007FC079B174987
:10421C0005902A4604938DE8000F334626A800F03B
:10422C00A5FB26A8FFF76EFF384600F091FCC4B240
:10423C0022460AA9384600F07BFC22460AA926A889
:10424C00FFF77AFF26A8FFF75DFF094926A802F0C1
:10425C002FF926A8FFF756FF01E00135A4E747B078
:10426C00BDE8F08F38E3032080E30320F5640D00F4
:10427C001C680D0007B500230093019301238DF8F2
:10428C000030684603238DF80130FFF70CFF02461F
:10429C0018B103490348FFF71DFF03B05DF804FB99
:1042AC001E650D00D8E3032000F110020346191A15
:1042BC0003F8011B9342FAD1024A1378C373591CB9
:1042CC001170704734E303201FB500F09DFD0321EE
:1042DC0000F0F7FD00F098FD0146684600F0B2FDD5
:1042EC0000F092FD014602A800F0ACFD032102A8EB
:1042FC0000F090FB00F088FD4FF4FA61184C00F0D0
:10430C00C0FD00F081FD02A900F0ABFD022323707B
:10431C00E37001232371062363710A220323132103
:10432C008DF808006270A0706F22A371E371A17206
:10433C00FD23162104F10E00637263732272E17285
:10434C002273FFF7B1FF21461E22064800F0E0FB66
:10435C001E2221460448FFF7A9FE04B010BD00BF81
:10436C003CE303205CE3032081E3032010B501212F
:10437C00072001F021FE0021222001F01DFE134C2C
:10438C002320002101F018FE01232220237001F0CC
:10439C003DFE48B123783BB101F000FD4FF41651BE
:1043AC0001F0F0FC0023237000F02EFD642100F0DE
:1043BC00EFFDFFF75FFFFFF787FF00F025FD002201
:1043CC000349BDE8104000F0C3BD00BFB4E20320B8
:1043DC005CE3032010B58AB000F00CF90F4B1B689E
:1043EC006433834205D200F00FFD00220C4900F02B
:1043FC00EDFD00F009FD00F0C8FD044648B9FFF7DB
:10440C0039FFFFF761FF00F0FFFC2246054900F081
:10441C009FFD01A800F0FDFB0AB010BD38E303209E
:10442C0071410D005CE3032010B500F0EBF8094C72
:10443C00094800F0EEFB0021012000F00BFA0749BF
:10444C00204601F081FB2046054A0649BDE8104094
:10445C0001F050BE24E303205CE303201D680D0033
:10446C0020E30320C75A0D0008B5024B1B689B685C
:10447C00019308BD7802030008B5024B1B68DB6989
:10448C00019308BD7802030008B5024B1B685B6CF6
:10449C00019308BD7802030008B5024B1B689B6CA6
:1044AC00019308BD7802030008B5024B1B68DB6C56
:1044BC00019308BD7802030008B5024B1B681B6D05
:1044CC00019308BD7802030008B5024B1B689B6D75
:1044DC00019308BD7802030008B5024B1B681B6EE4
:1044EC00019308BD7802030008B5024B1B681B6FD3
:1044FC00019308BD7802030008B5024B1B685B6F83
:10450C00019308BD7802030008B5024B1B689B6F32
:10451C00019308BD7802030008B5024B1B68DB6FE2
:10452C00019308BD7802030008B5034B1B68D3F850
:10453C008430019308BD00007802030008B5034BDA
:10454C001B68D3F89830019308BD00007802030073
:10455C0008B5034B1B68D3F8F030019308BD00007D
:10456C007802030008B5024B1B689B68019308BDD9
:10457C004802030008B5024B1B681B69019308BD78
:10458C004802030008B5024B1B685B69019308BD28
:10459C004802030008B5024B1B685B6C019308BD15
:1045AC004802030008B5024B1B689B6C019308BDC5
:1045BC004802030008B5024B1B68DB6C019308BD75
:1045CC004802030008B5024B1B685B6D019308BDE4
:1045DC004802030008B5024B1B685B68019308BDD9
:1045EC001802030008B5024B1B68DB68019308BD79
:1045FC001802030008B5024B1B685B69019308BDE8
:10460C001802030008B5024B1B681B68019308BD18
:10461C002C02030008B5024B1B689B68019308BD74
:10462C002C02030008B5024B1B68DB68019308BD24
:10463C002C02030008B5024B1B681B69019308BDD3
:10464C002C02030008B5024B1B685B69019308BD83
:10465C002C02030008B5024B1B681B6A019308BDB2
:10466C002802030008B5024B1B685B6A019308BD66
:10467C002802030008B5024B1B689B6A019308BD16
:10468C002802030008B5024B1B68DB6A019308BDC6
:10469C002802030008B5024B1B681B6B019308BD75
:1046AC002802030008B5024B1B685B6B019308BD25
:1046BC002802030008B5024B1B681B6C019308BD54
:1046CC002802030008B5024B1B685B69019308BD07
:1046DC006402030008B5024B1B689B68019308BD7C
:1046EC006802030008B5024B1B68DB68019308BD28
:1046FC006802030008B5024B1B68DB69019308BD17
:10470C003002030008B5024B1B681B6A019308BDFD
:10471C003002030008B5024B1B681B68019308BDEF
:10472C003C02030008B5024B1B68DB68019308BD13
:10473C003C02030008B5024B1B681B69019308BDC2
:10474C003C02030008B5024B1B685B69019308BD72
:10475C003C02030008B5024B1B689B69019308BD22
:10476C003C02030008B5024B1B68DB69019308BDD2
:10477C003C02030008B5024B1B681B6A019308BD81
:10478C003C02030008B5024B1B689B6A019308BDF1
:10479C003C02030008B5024B1B681B68019308BD63
:1047AC004C02030008B5024B1B685B68019308BD03
:1047BC004C02030008B5024B1B681B69019308BD32
:1047CC004C02030008B5024B1B685B69019308BDE2
:1047DC004C02030008B5024B1B689B69019308BD92
:1047EC004C02030008B5024B1B68DB69019308BD42
:1047FC004C02030008B5024B1B681B6A019308BDF1
:10480C004C02030008B5024B1B685B6B019308BD9F
:10481C006002030008B5024B1B681B6D019308BDB9
:10482C006002030008B5024B1B685B6D019308BD69
:10483C006002030008B5024B1B685B68019308BD5E
:10484C002002030008B5024B1B685B69019308BD8D
:10485C002002030008B5024B1B68DB6A019308BDFC
:10486C002002030008B5034B1B68D3F88830019372
:10487C0008BD00002002030008B5034B1B68D3F8E9
:10488C009430019308BD00002002030008B5024BD0
:10489C001B68DB6B019308BD4402030008B5024B97
:1048AC001B685B68019308BD4002030008B5024B0E
:1048BC001B689B68019308BD4002030008B5024BBE
:1048CC001B68DB68019308BD4002030008B5024B6E
:1048DC001B681B69019308BD4002030008B5024B1D
:1048EC001B685B69019308BD4002030008B5024BCD
:1048FC001B689B69019308BD4002030008B5024B7D
:10490C001B68DB69019308BD4002030008B5024B2C
:10491C001B681B6A019308BD4002030008B5024BDB
:10492C001B681B6B019308BD4002030008B5024BCA
:10493C001B685B6B019308BD4002030008B5024B7A
:10494C001B681B68019308BD1C02030008B5024BD1
:10495C001B685B68019308BD1C02030008B5024B81
:10496C001B689B68019308BD1C02030008B5024B31
:10497C001B68DB68019308BD1C0203000021FFF7D4
:10498C0061BF70470020704710B51421044601F038
:10499C00B6FB204610BDFFF77ABB10B50446006885
:1049AC0008B1FFF7FFFD204610BD000008B50A2036
:1049BC00024A0021FFF726FF08BD00BFF1450D009C
:1049CC0010B5036804469B689847A368013BA36035
:1049DC002BB923682046DB68BDE81040184710BD92
:1049EC0010B500230370044B04461868FFF7E2FD72
:1049FC0001232370204610BDCCE3032010B50378AF
:104A0C0004461BB1024B1868FFF7DCFD204610BDB5
:104A1C00CCE30320817100207047052994BF405CD2
:104A2C000020704708B582798B799A4206D106220C
:104A3C0001F0D8FCB0FA80F0400908BD002008BD98
:104A4C0010B501230361054B024603F1100153F825
:104A5C00044B42F8044B8B42F9D110BDFC660D009F
:104A6C0010B50B460446B9B1012A09D1034601F130
:104A7C00100251F8040B43F8040B9142F9D108E0F1
:104A8C00411E0F22985C01F8010F013AD2B2FF2AA5
:104A9C00F8D10123236102E0102201F0D8FC20465A
:104AAC0010BD38B504460D46FFF7CAFF0023257329
:104ABC002D0A23616573204638BD427B007B40EA9A
:104ACC000220704710B50B69036101F11002034617
:104ADC0051F8044B43F8044B9142F9D110BD10B579
:104AEC0086B00446012201A8FFF7BAFF01A92046AF
:104AFC00FFF7E8FF06B010BD10B586B0044601A85C
:104B0C00FFF7CFFF01A92046FFF7DCFF06B010BD71
:104B1C0038B5054601B112B90020286238BD1F2AEC
:104B2C0028BF1F22144601F06CFC2C62204638BDB5
:104B3C0038B50546084649B12B6A9A4228BF1A4631
:104B4C001446294601F05DFC204638BD286A38BD64
:104B5C00006A7047F0B58BB10024E51C8D420FD86C
:104B6C00661C055D875D974205D12E44B14207D383
:104B7C001C60681CF0BD01352C44EEE71846F0BDF6
:104B8C000020F0BD2DE9F74304460E461D4617469E
:104B9C00002A3AD00A4601AB016AFFF7DBFF9DF809
:104BAC002830226A03BBF8B1961C2E44361A1F2EED
:104BBC002BD8DDF8048008F10209C8EB0202121AA6
:104BCC0000EB080105EB090092B22144204401F0EE
:104BDC0023FC6B1C04F808302A46394604EB090008
:104BEC0001F00FFC266210E0901C2B181F2B0CD828
:104BFC006B1CA354224420623946567020442A462A
:104C0C0001F0FFFB226A2A442262206A03B0BDE84D
:104C1C00F0831FB50446034600F11F02002003F881
:104C2C00010B93424FF00001F9D104AA062302F8BC
:104C3C00013D01232162009120461946FFF7A2FF96
:104C4C00204604B010BD73B50A460E4601AB016A8E
:104C5C000446FFF77FFF054678B10198226A2918B0
:104C6C00121A521B2144204401F0CBFB236A5D1B1A
:104C7C00256231462046FFF7E6FF02B070BD2DE9F4
:104C8C00F04F002585B00646894617469A462C46B5
:104C9C004FF01408316A8D422AD203AB4A46491BA5
:104CAC007019FFF757FF834610B3544520D20428E0
:104CBC0003990CD129447218631CD1789278019312
:104CCC0042EA012108FB0470FFF716FF0AE01228E4
:104CDC000AD102312944631C314408FB047001934E
:104CEC00FFF7FDFE019B1C46039B5B441D44D1E773
:104CFC00204605B0BDE8F08F2DE9F04113460D4676
:104D0C0016460A4602210746FFF7B9FF4FF0140872
:104D1C00331A08FB0052044603213846FFF7AFFF55
:104D2C000444331B08FB045206213846FFF7A7FF47
:104D3C000444331B08FB045207213846FFF79FFF3E
:104D4C002044BDE8F08110B58369C26903EBC2024F
:104D5C009342184606D0046824888C4203F1080359
:104D6C00F6D110BD002010BD10B50A6852F8023FF4
:104D7C0003605368436010BD1FB502680B6812884E
:104D8C001B889A420C460CD101466846FFF7ECFF93
:104D9C00214602A8FFF7E8FF02A96846FFF742FE8A
:104DAC0000B9002004B010BD10B504463420FFF744
:104DBC006CF9014668B10023036043608360C360F3
:104DCC00036143618361C361036243628362C362B3
:104DDC000363216019B90A4A0A20FFF713FD00206A
:104DEC00FFF742FB20B1064A00210A20FFF70AFD1B
:104DFC00002221680348FFF7ABFB204610BD00BF23
:104E0C00F1450D0099520D0010B50A4C2368DB07D3
:104E1C000ED42046FFF73FF950B10748FFF7C4FF07
:104E2C002046FFF73DF9054A0549034801F062F9B0
:104E3C00014810BDC8E30320C4E3032020E3032092
:104E4C00AD500D0013B50446002168460091019148
:104E5C00FFF712FB6B4603CB20602046616002B06B
:104E6C0010BD13B50C4601A8FFF7BAFD0021204672
:104E7C00FFF70AFB044601A8FFF7C0FD204602B06D
:104E8C0010BD30B585B0002468460D46FFF7A8FD6F
:104E9C000C23214601A8019402940394ADF806302A
:104EAC00FFF702FB002805DB214601A8ADF80A50EC
:104EBC00FFF7F2FA04466846FFF7A0FD204605B05E
:104ECC0030BD30B585B0002468460D46FFF788FD2F
:104EDC000C23214601A8019402940394ADF80630EA
:104EEC00FFF7E2FA002805DB214601A88DF80C50EB
:104EFC00FFF7D2FA04466846FFF780FD204605B05E
:104F0C0030BD084609B90A4601E0096A0022FFF7DC
:104F1C00D3BA10B50C4611B90A46084606E0012171
:104F2C002046FFF790FE216A00222046BDE8104083
:104F3C00FFF7CABA13B501A8FFF752FD0020FFF71F
:104F4C00CBFA044601A8FFF759FD204602B010BD6C
:104F5C0073B505460C4601A81646FFF741FD2146E0
:104F6C002846FFF7CEFF002808DB31462846FFF71E
:104F7C00D0FF002802DB2846FFF7DCFF044601A81F
:104F8C00FFF73CFD204602B070BD0020FFF7ACBA25
:104F9C0030B585B0002468460D46FFF721FD0C2383
:104FAC00214601A801940294ADF806300394FFF752
:104FBC00ABFA214601A8ADF80C50FFF79DFA044658
:104FCC006846FFF71BFD204605B030BD30B58BB0F1
:104FDC0001A814460D46FFF703FD002202A90C4858
:104FEC0002920392049205920692079209940895F4
:104FFC00FFF792FA0028B8BF04460298A8BF079C96
:10500C00FFF7A4FC01A8FFF7F9FC20460BB030BD5C
:10501C0007540D000B68036013B15A6801325A60D3
:10502C00704710B50446006828B14368013B4360E3
:10503C000BB9FFF7C5FC204610BD70B5046843687A
:10504C00054604EBC306A64204D0201DFFF7E9FF7A
:10505C000834F8E72868FFF779FC284670BD70B56E
:10506C0004684368054604EBC306A64204D0201D21
:10507C00FFF7D7FF0834F8E72868FFF767FC2846E6
:10508C0070BD10B5046904F11800FFF7E8FF04F1D6
:10509C000C00FFF7D2FF2046BDE81040FEF7F7BF2B
:1050AC00F8B504680746C4B1A569E36905EBC30606
:1050BC00AE4204D0281DFFF7B4FF0835F8E7A0690D
:1050CC00FFF744FC04F10C00FFF7C9FF2046FFF783
:1050DC00B4FF3421204601F012F83846F8BD000028
:1050EC0073B500250560456006462420FEF7CDFF0C
:1050FC00044678B103464FF6FF7223F8022BC0F832
:10510C0002505D608572C572C5600561456185613F
:10511C00C5610562002314200193FEF7B6FF034618
:10512C0028B1012242608260084A0260046102A830
:10513C00726840F8042D73603460FFF772FF3368B7
:10514C000BB9FFF733FC304602B070BD48650D005B
:10515C00884270B515461AD9904219D2A1F10806A9
:10516C00511A0439151F44182B1F9E4225D0042CAC
:10517C0007D055F8043C44F8043C29462046FFF778
:10518C0049FF2846FFF74DFF083D083CECE714D0DB
:10519C000C1D061D231F9D420FD0042E07D054F862
:1051AC00043C46F8043C21463046FFF733FF2046CA
:1051BC00FFF737FF08340836ECE770BD2DE9F041F6
:1051CC00046843680546884604EBC307A74218D019
:1051DC0041462046FFF7D0FD064608B90834F5E7EE
:1051EC008CB1201DFFF71DFF2B686A6804F10801C4
:1051FC0003EBC2022046FFF7ABFF6B68013B6B6011
:10520C0002E0002600E026463046BDE8F081F7B506
:10521C00044651F8043B4768009301A8FFF7FAFED7
:10522C006668A3689E4214DB0136002E0BDDF0008D
:10523C00FFF784FB054618B394E8060001EBC202A5
:10524C00FFF786FF00E000252068FFF77FFB256055
:10525C00A6602668626806EBC70506EBC202294603
:10526C0005F10800FFF774FF35B1009B46F83730A5
:10527C0001A9281DFFF7CEFE636801336360012589
:10528C0001A8FFF7CEFE284603B0F0BD2DE9F04192
:10529C0004468EB003A80D46FFF7A2FB2368032B30
:1052AC0002D0042B42D087E004A8FFF719FF049B1F
:1052BC0022891A806268049952F8083FC1F80230BA
:1052CC005368C1F8063007A8049B069305A9FFF79D
:1052DC00A1FE06A905F11800FFF799FF044607A8DF
:1052EC00FFF79FFE2023069374B9364B009306AA52
:1052FC002346354907943220FFF78CFA049B21464C
:10530C001888FFF71BF90DE0304A0092002306AA1B
:10531C002D4907930120FFF77DFA6B6A13B1E96AF7
:10532C0004A8984705A8FFF77CFE45E0218928468C
:10533C00FFF709FD074600283ED00468A369E16920
:10534C004FF6FF72228003EBC101994203D053F850
:10535C00080B4280F9E7E668236906EBC308B04501
:10536C0004D0301DFFF75DFE0836F8E700232361FB
:10537C00A669E36906EBC308B04504D0301DFFF7FE
:10538C0050FE0836F8E70023E361A372E372AB6AC0
:10539C0013B1296B3846984720230D4A0693009287
:1053AC00002309490793012006AAFFF733FA39466F
:1053BC0005F11800FFF702FF03A8FFF71FFB0EB063
:1053CC00BDE8F081BE650D005C650D00E4650D0067
:1053DC0001660D0038B50D1E044606DD54216943E7
:1053EC000068FFF7BBFA20B938BD0068FFF7AEFACA
:1053FC0000202060A560012038BD70B55426C0B0D7
:10540C00054632460C4601A8002101F020F803A8FD
:10541C00FFF7FFFB0CA8FFF7FCFB2A4601AB52F889
:10542C00100F5168EA8903C32B78A9688DF85430A2
:10543C000CA8FFF76DFBAA89696803A8FFF768FB46
:10544C00A5691DB1E16901A8A8473CE0E06898B1E5
:10545C0063692269934239D25A1C626106FB0300CC
:10546C00512201A900F0CDFF626923699A422DD324
:10547C002846FFF759F829E0324601A916A800F092
:10548C00C0FF324616A92BA8656800F0BAFFA368C6
:10549C009D4204DB691C2046FFF79CFFB0B163689A
:1054AC002268542606FB052506FB0322521B2946BF
:1054BC00A81900F0B1FF32462BA9284600F0A1FF35
:1054CC0063680133636063690133636140B070BD2D
:1054DC0010B5064C002320462360FFF75BF82046EE
:1054EC00034A0449BDE8104000F004BECCE303209D
:1054FC0020E30320A7490D0010B58368044613B1BF
:10550C00032201469847204610BD002211464068F0
:10551C00FFF7FCB9002211464068FFF707BA0022DA
:10552C004068FFF7FBB9002281F001014068FFF7EA
:10553C00E5B900231A4619464068FFF7D7B900238E
:10554C001A4619464068FFF7C9B90022114640684F
:10555C00FFF7BCB9002211464068FFF7A7B900223B
:10556C0002214068FFF7AAB900231A464068FFF7EA
:10557C0095B90000024B03225A60024A1A60704728
:10558C00D0E3032014670D007047F8B506461546A6
:10559C000C468F18BC4206D0336814F8011B9B686C
:1055AC0030469847F6E72846F8BD0022007CFFF706
:1055BC0051B80021007CFFF755B80021007CFFF7A3
:1055CC0059B80021007CFFF75DB80021007CFFF783
:1055DC0061B810B51421044600F091FD204610BDB1
:1055EC0010B50446002363604FF47A73A360044B38
:1055FC002174084623601146FFF75CF8204610BD65
:10560C0048670D000021007CFFF74CB8704710B5BF
:10561C001821044600F073FD204610BDF0B5037D43
:10562C00062B8DB00E4600F104074FF0000402D09B
:10563C0000F1080518E00CAD394605F8304D2F2364
:10564C002A460A20FFF73EF8284600F039FF336857
:10565C000246DB682946304698470FE024B12E21DC
:10566C00304600F0D9F9044415F8011D0A223046E1
:10567C0000F0D5F9BD420444F0D120460DB0F0BD88
:10568C0010B5054B0446112240F8043B002100F0F4
:10569C00DEFE204610BD00BF70670D000346074AB2
:1056AC0010B543F8042B01F1100251F8044B43F8E8
:1056BC00044B9142F9D10A781A7010BD70670D0035
:1056CC0010B59DF8084044EA032343EA024242EA3B
:1056DC00016104234160037510BD37B50D788B78DB
:1056EC004A78C97800912946FFF7EAFF03B030BD2C
:1056FC00014B024A1A607047D8E30320EF670D0094
:10570C00002211464068FFF701B90022114640689B
:10571C00FFF70CB900224068FFF700B9002281F0B6
:10572C0001014068FFF7EAB800231A4601214068DE
:10573C00FFF7DCB800231A4619464068FFF7CEB8CD
:10574C00002211464068FFF7C1B80022114640689C
:10575C00FFF7ACB8002202214068FFF7AFB8002376
:10576C001A464068FFF79AB838B5054688B1046800
:10577C004CB1A3681BB10322214620469847102147
:10578C00204600F0BCFC28461421BDE8384000F04F
:10579C00B6BC38BD10B103685B681847704710B5CC
:1057AC0003680446BBB15868FEF7DCFE78B9236881
:1057BC005A7C12B95868FEF7DDFE23685868FEF76C
:1057CC00E1FE20680023236028B1FFF7CDFF20689D
:1057DC0008B1FFF7C9FF204610BD38B50446D0F814
:1057EC00C40108B1FEF755FCD4F8C00108B1FEF7AE
:1057FC00D9FED4F8BC5135B12846FFF7D0FF0421AF
:10580C00284600F07CFC206808B1FFF7C3FF204657
:10581C0038BD000010B5044B044640F8083BFFF7B8
:10582C00DCFF204610BD00BF60680D0038B50E4C83
:10583C000E4B23600025022304F5E4706360A56021
:10584C00C4F8C451C4F8C851FEF7A4FE084BC4F800
:10585C00CC5184F8D05123602046064A0649BDE855
:10586C00384000F047BC00BFDCE3032094680D0017
:10587C0060680D0020E3032021580D0000231A4618
:10588C004068FFF70BB8002202214068FFF716B8FA
:10589C00002211464068FFF709B800221146406803
:1058AC00FFF714B800231A4619464068FFF716B8DC
:1058BC0000231A4619464068FFF718B8002281F0F9
:1058CC0001014068FFF71AB800224068FFF726B8BC
:1058DC00002211464068FFF729B8002211464068A3
:1058EC00FFF714B82DE9F043002495B016460D4689
:1058FC000746FFF7C5FE214620220CA8009400F0B5
:10590C00A6FD40230C9321466B460CAA3046FEF7AD
:10591C00E9FE0446002844D1024601216868FEF7DE
:10592C00D5FF0221804622466868FEF7CFFF009E15
:10593C0081462146002E34D0002932D17368022BC7
:10594C0002D00A2B09D02AE0B8F1000F27D07169D8
:10595C0038460431FFF7C1FE20E0B9F1000F1ED02C
:10596C007469112201A800F072FD06238DF8143021
:10597C0001AD04F108031834186859682A4603C2AB
:10598C000833A3421546F7D101A906A807ADFFF7C6
:10599C0085FE0FCD3C1D0FC42B6823700121F669C9
:1059AC00C8E70098FEF796FE384615B0BDE8F083C0
:1059BC00024B034A1A6000225A607047B0E503207C
:1059CC0094680D00F8B506460D468F180024BD42AC
:1059DC000CD0336815F8011B9B683046984700289B
:1059EC0001DB0444F3E7002C08BF04462046F8BD55
:1059FC0070B505460C46084649B100F061FD2B68B0
:105A0C00024621462846DB68BDE87040184770BD49
:105A1C0008B5FFF7EDFF08BD03689B68184730B564
:105A2C008BB00B4600218DF82410012A98BF0A2256
:105A3C000DF12304B3FBF2F505FB123303F0FF0366
:105A4C00092B94BF30333733DBB2214604F80139CC
:105A5C002B46002DEED1FFF7CBFF0BB030BD10B5B0
:105A6C000446FFF749FD204610BD00000348044AD8
:105A7C0004490023836000F03DBB00BFB8E5032060
:105A8C0020E303206B5A0D00704710B50C2104461F
:105A9C0000F035FB204610BD10B5054B03600446E5
:105AAC0001710846FEF726FE0023A360204610BDB8
:105ABC00C8680D000079FEF725BE10B504460068D5
:105ACC00FEF744FF204610BD10B50446006808B12F
:105ADC00FEF73CFF00232360A360636010BD38B564
:105AEC0004460D4600680131FEF738FF10B184E81A
:105AFC002100012038BD10B50368044613B143687A
:105B0C008B4207D22046FFF7EAFF20B1A3680BB9FE
:105B1C0022681370012010BD70B50E461146044664
:105B2C001546FFF7E8FF18B92046FFF7CDFF09E04F
:105B3C002A463146A560206800F063FC2268A36801
:105B4C000021D154204670BD38B5002304460360B3
:105B5C004360836003730D4639B1084600F0B0FC16
:105B6C00294602462046FFF7D7FF204638BD10B520
:105B7C000446006818B1FEF7E9FE0023236010BD4F
:105B8C0010B50446FFF7F3FF204610BD10B5094CC5
:105B9C0000204FF6FF732060A080A07120816381EC
:105BAC00FEF748FE2046044A0449BDE8104000F0C8
:105BBC00A1BA00BFC8E5032020E303208D5B0D00D4
:105BCC00024B1A68024B1A60704700BFB8E2032000
:105BDC00D4E5032070474174704708B5007CFEF78C
:105BEC00D1FD20EAE07008BD08B5007CFEF7A2FDEF
:105BFC0020EAE07008BD08B5007CFEF7ABFD30EA8A
:105C0C00200028BF4FF0FF3008BD08B5007CFEF720
:105C1C0099FD30EA200028BF4FF0FF3008BD007C12
:105C2C00FEF7A0BD10B51421044600F068FA20461A
:105C3C0010BD70B5457C04460E4625B9007CFEF7B8
:105C4C00A1FD002805DD3146207CBDE87040FEF743
:105C5C0069BD284670BD000010B5044608461146C3
:105C6C00002262604FF47A72A260054A226001221F
:105C7C00207462741A46FEF74DFD204610BD00BF1D
:105C8C0004690D00007CFEF775BD000038B50C4DA5
:105C9C00296811F0010411D12846FEF7FCF968B10E
:105CAC00084A094B09482146FFF7D6FF2846FEF75C
:105CBC00F7F9074A0749054800F01CFA034838BDB4
:105CCC0070E6032074E60320ECE50320D8E50320FE
:105CDC0020E30320E15B0D0041747047704708B569
:105CEC000021007CFEF776FD30EA200028BF4FF043
:105CFC00FF3008BD08B50121007CFEF76BFD30EAD2
:105D0C00200028BF4FF0FF3008BD08B5007CFEF71F
:105D1C0059FD20EAE07008BD08B5007CFEF74AFD8D
:105D2C0020EAE07008BD007CFEF764BD10B51421BC
:105D3C00044600F0E4F9204610BD38B50446007C5A
:105D4C000D46FEF73FFD002801DC607C28B129469A
:105D5C00207CFEF747FD20EAE07038BD10B5044604
:105D6C00002363604FF47A73A360054B2360012317
:105D7C000846217463741146FEF70CFD204610BDD5
:105D8C0034690D000022007CFEF70CBD10B5142206
:105D9C000446002100F05BFB204610BD30B50E4DD3
:105DAC0087B001A8FFF7F2FF296811F0010410D1A8
:105DBC002846FEF770F960B101AA21460748FFF7A3
:105DCC00CDFF2846FEF76CF9054A0649034800F05A
:105DDC0091F9024807B030BDF8E60320FCE6032039
:105DEC0020E30320E95C0D00002211464068FEF719
:105DFC006DBD002211464068FEF788BD0022114699
:105E0C004068FEF793BD00224068FEF787BD002274
:105E1C0081F001014068FEF771BD00231A46194656
:105E2C004068FEF763BD00231A4619464068FEF72A
:105E3C0055BD002211464068FEF738BD00220221F4
:105E4C004068FEF73BBD00231A464068FEF726BDAE
:105E5C00024B04225A60024A1A60704710E7032072
:105E6C0064690D0008B50C4B33B1FFF797FF03685D
:105E7C001B699847002809DC084B63B1FFF706FF44
:105E8C0003681B699847002803DC08BDAFF300804A
:105E9C00F2E7AFF3008008BD000000000000000036
:105EAC0008B5FFF7DFFFFEF7A5FB014B186008BD37
:105EBC0020E703200248034A0349121A00F0A1BA52
:105ECC0000F4032004F40320306A0D0007B500230E
:105EDC0000931A466FF07701FEF7CEFC03B05DF825
:105EEC0004FB000007B543880A2B08D0502B09D1BE
:105EFC00094B1B683BB103B05DF804EB1847FFF787
:105F0C00E5FF06E0002300931A466FF07701FEF7D9
:105F1C00B3FC03B05DF804FB18E7032038B5104C54
:105F2C00104D2368AB42104B0CBF012200221A709B
:105F3C0002D0FFF7BFFF2560FEF74CFB044600F0D4
:105F4C008FFA0A4B13B12046AFF3008000210748AB
:105F5C00FEF79CFC00210648BDE83840FEF782BCE9
:105F6C0000F403201E1C279A1CE7032000000000ED
:105F7C00F15E0D0010B5044600F09CF8FFF79AFD99
:105F8C0028B1A4F10B03022B01D8002010BD00F0A6
:105F9C006BF8FFF737FB08B1012CF6D9FFF776FE4B
:105FAC00FFF770FE18B1A4F10903012BEDD9232CD6
:105FBC008CBF0020012010BD232838B504460D46A7
:105FCC000AD8FF2908D0FFF7D5FF28B1294620466B
:105FDC00BDE83840FEF71EBB38BD38B504460D464B
:105FEC00FEF720FBFF2810D0062804D84D2323FAF7
:105FFC0000F0C30709D42046FFF7BCFF28B129469F
:10600C002046BDE83840FEF715BB38BD10B5044638
:10601C00FEF708FB0438C0B2012808D92046FFF768
:10602C00A9FF20B12046BDE81040FEF70BBB0020B5
:10603C0010BD000070B5044614252A46094E0021F7
:10604C0000F005FA258020253146A56025612846FB
:10605C0000F06FF831466060284600F06AF8E060A6
:10606C00204670BD90690D0030B50E4D296811F0B9
:10607C00010487B013D12846FEF70DF878B101A8BA
:10608C00FFF7D8FF01AA21460748FFF7A9FA2846CF
:10609C00FEF706F8054A0649034800F02BF80248BB
:1060AC0007B030BD24E7032028E7032020E30320BA
:1060BC0095550D0038B50B4D296811F001040FD121
:1060CC002846FDF7E8FF58B121460748FFF7E4FCE6
:1060DC002846FDF7E5FF054A0549034800F00AF894
:1060EC00014838BD48E703203CE7032020E30320A8
:1060FC00955A0D000B460146184600F065B9FDF7A0
:10610C00C6BF0000024B1868BFF35F8F704700BF1B
:10611C004CE7032010B5002814BF04460124204688
:10612C00FEF70CFC20B9FFF7EDFF08B18047F6E74E
:10613C0010BDFFF7EFBF0000244B1A68D0075CBFFF
:10614C0001221A60224B1A68D1075CBF01221A6027
:10615C00204B1A68D2075CBF01221A601E4B1A68CA
:10616C00D0075CBF01221A601C4B1A68D1075CBFB8
:10617C0001221A601A4B1A68D2075CBF01221A60FE
:10618C00184B1A68D0075CBF01221A60164B1A68AC
:10619C00D1075CBF01221A60144B1A68D2075CBF8E
:1061AC0001221A60124B1A68D0075CBF01221A60D8
:1061BC00104B1A68D1075CBF01221A600E4B1A688B
:1061CC00D2075CBF01221A60704700BF7CE7032036
:1061DC0078E7032074E7032070E703206CE70320C3
:1061EC0068E7032064E7032060E703205CE70320F3
:1061FC0058E7032054E7032050E70320184B1A6894
:10620C00D1075CBF01221A60164B1A68D2075CBF1B
:10621C0001221A60144B1A68D0075CBF01221A6065
:10622C00124B1A68D1075CBF01221A60104B1A6816
:10623C00D2075CBF01221A600E4B1A68D0075CBFF4
:10624C0001221A600C4B1A68D1075CBF01221A603C
:10625C000A4B1A68D2075CBF01221A60704700BF54
:10626C009CE7032098E7032094E7032090E70320A2
:10627C008CE7032088E7032084E7032080E70320D2
:10628C00184B1A68D1075CBF01221A60164B1A68AA
:10629C00D2075CBF01221A60144B1A68D0075CBF8E
:1062AC0001221A60124B1A68D1075CBF01221A60D6
:1062BC00104B1A68D2075CBF01221A600E4B1A6889
:1062CC00D0075CBF01221A600C4B1A68D1075CBF67
:1062DC0001221A600A4B1A68D2075CBF01221A60AD
:1062EC00704700BFBCE70320B8E70320B4E70320E6
:1062FC00B0E70320ACE70320A8E70320A4E70320C2
:10630C00A0E70320244B1A68D0075CBF01221A6057
:10631C00224B1A68D1075CBF01221A60204B1A6805
:10632C00D2075CBF01221A601E4B1A68D0075CBFF3
:10633C0001221A601C4B1A68D1075CBF01221A603B
:10634C001A4B1A68D2075CBF01221A60184B1A68E4
:10635C00D0075CBF01221A60164B1A68D1075CBFCC
:10636C0001221A60144B1A68D2075CBF01221A6012
:10637C00124B1A68D0075CBF01221A60104B1A68C6
:10638C00D1075CBF01221A600E4B1A68D2075CBFA2
:10639C0001221A60704700BFECE70320E8E70320F6
:1063AC00E4E70320E0E70320DCE70320D8E7032041
:1063BC00D4E70320D0E70320CCE70320C8E7032071
:1063CC00C4E70320C0E7032010B5054C13462CB1DD
:1063DC000A4601460220AFF3008010BD204610BDD6
:1063EC000000000010B501390244904207D010F8AB
:1063FC00013B11F8014FA342F7D0181B10BD002030
:10640C0010BD10B5431E0A44914204D011F8014B43
:10641C0003F8014FF8E710BD884210B501EB0203F9
:10642C0001D8421E0BE09842FBD28118D21AD342FB
:10643C0004D013F8014D01F8014DF8E710BD994255
:10644C0004D011F8014B02F8014FF8E710BD0244DB
:10645C000346934202D003F8011BFAE77047000091
:10646C0038B5124B1C68A36B0546D3B91820FEF740
:10647C0065FA43F20E33A06303804AF6CD334380B2
:10648C0041F2342383804EF26D63C3804DF6EC638E
:10649C000381052343810B23838101220023C0E95F
:1064AC000423A36B00221D615A6138BD1CE3032039
:1064BC00034611F8012B03F8012B002AF9D1704780
:1064CC00034613F8012B002AFBD1181A0138704728
:1064DC001D400D0059400D0085400D0089400D00F8
:1064EC00000000002530327800256C642C202564D7
:1064FC002C20253032583A253032583A2530325833
:10650C003A253032583A253032583A253032582C08
:10651C00200050726F626C656D207769746820671B
:10652C0061705F706172616D735F696E69743A203E
:10653C002564000000000000000000008F490D00E1
:10654C0095490D008F500D00A3490D0091490D0088
:10655C00776972696E672E626C6500537461727430
:10656C0020646973636F766572696E6720736572F8
:10657C0076696365732E0053746172742064697359
:10658C00636F766572696E672063686172616374AC
:10659C0065726973746963732E005065657220644B
:1065AC006576696365206973206D697373696E67BD
:1065BC0021004661696C656420746F2061707065A0
:1065CC006E6420706565722043656E7472616C2018
:1065DC006465766963652E00436F6E6E65637465E2
:1065EC00642062792043656E7472616C20646576F8
:1065FC006963652E00446973636F6E6E65637465C1
:10660C00642062792072656D6F74652064657669AB
:10661C0063652E0043616E6E6F7420616464206E3E
:10662C0065772070656572206465766963652E00F8
:10663C004E6577207065726970686572616C20694F
:10664C007320636F6E6E65637465642E00466169BA
:10665C006C656420746F20617070656E6420646971
:10666C0073636F76657265642063686172616374CD
:10667C00657269737469632E004661696C65642088
:10668C00746F20617070656E6420646973636F76DB
:10669C006572656420736572766963652E00466168
:1066AC00696C656420746F20617070656E64206C19
:1066BC006F63616C20636861726163746572697386
:1066CC007469632E004475706C6963617465642031
:1066DC006368617261637465726973746963206362
:1066EC00616E6E6F742062652061646465642E0057
:1066FC00FB349B5F80000080001000000000000055
:10670C00000000000000000075550D006B550D00D9
:10671C0061550D0057550D004B550D003F550D00A3
:10672C0033550D002B550D0021550D0017550D003F
:10673C00F1580D00000000000000000095550D0000
:10674C00DF550D00B7550D0097550D00BF550D00C9
:10675C00C7550D00CF550D00D7550D00000000009A
:10676C000000000029560D0019560D001B560D0097
:10677C00626175640053657269616C00536572697E
:10678C00616C31007479706500706172616D0063C9
:10679C006D6400696400686E64007374726D0066E9
:1067AC00696C74006C766C0061646448616E646C36
:1067BC0065720072656D6F766548616E646C6572AA
:1067CC0000656E756D48616E646C657273004A533A
:1067DC004F4E53747265616D4C6F6748616E646C9B
:1067EC0065720061707000253031307520005D20BD
:1067FC000028293A2000205B00636F6465203D204F
:10680C000025690064657461696C73203D20000D7E
:10681C000A0066006C6E00666E00636F646500644F
:10682C00657461696C006E6F6E650074726163658E
:10683C0000696E666F007761726E006572726F72BE
:10684C000070616E696300616C6C000000000000F8
:10685C00000000006B570D0061570D0057570D00DD
:10686C004D570D0041570D0035570D0029570D00A0
:10687C0021570D0017570D000D570D00F1580D0045
:10688C00000000000000000089580D0093580D0016
:10689C009D580D00A7580D00B1580D00BD580D00A6
:1068AC00C9580D00D5580D00DD580D00E7580D00E6
:1068BC00F1580D000000000000000000955A0D007A
:1068CC00975A0D005A00252B3033643A2530327517
:1068DC000025592D256D2D25645425483A254D3A12
:1068EC002553257A0061736374696D65000000009F
:1068FC000000000000000000E15B0D00315C0D00A9
:10690C003F5C0D00D1590D00F55B0D00175C0D00BF
:10691C00035C0D002B5C0D00E35B0D00E75B0D00D1
:10692C000000000000000000E95C0D00395D0D0066
:10693C00475D0D00D1590D00255D0D00EB5C0D0080
:10694C00015D0D00335D0D00175D0D00E55C0D0064
:10695C000000000000000000535E0D00495E0D00B9
:10696C003F5E0D00F55D0D00335E0D00275E0D00E2
:10697C001B5E0D00135E0D00095E0D00FF5D0D002A
:10698C00F1580D00000000000000000000000000A5
:10699C0000000000000000000000000000000000EB
:1069AC0000000000000000000000000000000000DB
:1069BC0000000000000000000000000000000000CB
:1069CC0000000000000000000000000000000000BB
:1069DC0000000000000000000000000000000000AB
:1069EC0000000000000000004300000035440D00D2
:1069FC00DD540D0081550D00FD560D0039580D006C
:106A0C00BD590D00795A0D00995B0D00CD5B0D0041
:106A1C005D5E0D0045610D0009620D008D620D007B
:046A2C0011630D00E5
:046A30000000000062
:106A340001000000F1680D000000000094690D00E1
:106A4400B4690D00D4690D000000000000000000CE
:106A54000000000000000000F4690D0000000000C8
:106A64000000000000000000000000000000000022
:106A74000000000000000000000000000000000012
:106A84000000000000000000000000000000000002
:0C6A94000000000000000000BCE2032035
:106AA000FFFFFFFF00000102030405060708090AB3
:106AB0000B0C0D0E0F101112131415161718191AAE
:086AC0001B1C1D1E1F202800F5
:046AC80078563412B6
:04000003D000401CCD
:00000001FF
