:020000022000DC
:1070000000000420757302005D73020095A2020067
:1070100061730200637302006573020000000000E8
:107020000000000000000000000000006773020084
:1070300069730200000000006B7302006D730200B0
:1070400005BB02006F73020015BB02006F730200E4
:107050006F7302006F73020009B802006F730200C1
:107060006F7302006F7302006F7302006F73020090
:107070006F7302006F7302006F7302006F73020080
:107080006F73020081A202006F7302006F7302002F
:107090006F7302006F73020085EE02006F730200CF
:1070A0006F7302006F7302006F7302006F73020050
:1070B0006F7302006F730200000000000000000008
:1070C0006F7302006F7302006F7302006F73020030
:1070D0006F7302006F7302006F730200EDD4020041
:1070E0006F7302006F7302006F73020000000000F4
:1070F000000000006F730200000000006F730200C8
:10710000000000000000000000000000000000007F
:10711000000000000000000000000000000000006F
:10712000000000000000000000000000000000005F
:10713000000000000000000000000000000000004F
:10714000000000000000000000000000000000003F
:10715000000000000000000000000000000000002F
:10716000000000000000000000000000000000001F
:10717000000000000000000000000000000000000F
:1071800000000000000000000000000000000000FF
:1071900000000000000000000000000000000000EF
:1071A00000000000000000000000000000000000DF
:1071B00000000000000000000000000000000000CF
:1071C00000000000000000000000000000000000BF
:1071D00000000000000000000000000000000000AF
:1071E000000000000000000000000000000000009F
:1071F000000000000000000000000000000000008F
:10720000354936480A1A02D0072291438D4634493F
:1072100034480A1A06D00722914381F309880222D2
:1072200082F3148830483149314A00F044F831483B
:107230003149324A00F03FF831483249324A00F0D1
:107240003AF832483249334A00F035F83248334987
:10725000334A00F030F833483349344A00F02BF811
:1072600033483449344A00F026F83448344900227F
:1072700000F02CF833483449002200F027F8334856
:107280003349091A082902DB002202604160314AB1
:1072900090471F481F49884205D00268043003B454
:1072A000904703BCF7E700208646EC46002000210B
:1072B000294A9047FEE7884207D0521A05D0037842
:1072C00001300B700131013AF9D17047884202D088
:1072D00002700130FAE770470000042000E003204C
:1072E000000004200000042050120300E82A0020BF
:1072F000442B0020D0730200D0730200D0FB0200A8
:1073000050120300E82A0020E82A0020FCFC0200BA
:10731000FCFC0200FCFC0200FCFC0200FCFC020085
:10732000FCFC0200FCFC0200FCFC02004F1203000B
:10733000AC120300442B0020442B0020442B0020DF
:10734000EC3B0020EC3B0020EC3B0020EC3B002021
:10735000EC5B00209D7302003DE00200FEE7FEE7CB
:10736000FEE7FEE7FEE7FEE7FEE7FEE7FEE7FEE7F5
:1073700000F002B8FFF7FCBF0F484FF00701884349
:1073800085460E4880470E48016841F4700101604F
:10739000BFF34F8FBFF36F8FFFF732BF09480A4922
:1073A0000A4A884207D0521A05D0037801300B7080
:1073B0000131013AF9D170470000042099AC020074
:1073C00088ED00E0FCFC0200E82A0020E82A00200A
:1073D000F0B595B01D46164608460C4603F0B8FBBE
:1073E0001A9B0D93CDE9086500252B46082205A9B7
:1073F00020460A958DF82C500C9503F0C6FB079B90
:107400000293069B03939DF814308DF8115003F0FE
:107410000302012A1DD1BDF81420059DC3F3C20348
:10742000C2F383168DF81030B20008230EA920464F
:1074300003F0ABFBC5F3952508AB0093324602ABD6
:107440000EA9284600F0F2FB204603F085FB15B09C
:10745000F0BD022AF8D1BDF81650C3F3C203C5F33C
:1074600089158DF810300827082D2E4628BF0826CC
:107470003B4632460EA9204603F087FBAD1B08AB06
:1074800002AA31460EA8374400F034FC002DEBD19F
:10749000DAE70000014B01221A707047852B0020AB
:1074A0007047000070B5124D06460FCD88B06C468F
:1074B0000FC495E80F00002E84E80F004FF0FF3353
:1074C0004FF00602CDE90023CDE90233094A0A480C
:1074D0004FF0EB7308BF00226946069303F070FF7C
:1074E00008B100F0CFFD054B1E7008B070BD00BFA5
:1074F000FCFC020095740200E82A0020442B0020C6
:1075000007B5044B0093044A4023FFF761FF03B023
:107510005DF804FB1D750200452B002038B50D4BAE
:107520000D4D002018700D4804782D5DD2B21C4618
:1075300065B1043004F094FF08B100F0A3FD084BDE
:107540001A7812B12378002BFBD038BD0C3004F030
:1075500043FDF1E7852B00209C340020E82A002021
:10756000442B002008B50848084A0378D35C3BB197
:10757000043004F00FFFBDE808400020FFF792BF81
:107580000C3004F0D5FCF6E7E82A00209C340020FB
:107590000120FFF787BF000008B5FFF7F9FF044897
:1075A000042100F0ABFA034B01225A7108BD00BF61
:1075B000ECFC0200FC2A0020037813F0040216D031
:1075C00003F00303012B03D0022B09D001207047E5
:1075D0000A6800880232C0F3831002440A60F5E7AB
:1075E0000B684288023303EB92130B60EEE7104600
:1075F000704700002DE9F04F87B000230446861C39
:107600000DF107000F4615468DF8073002F0C8FC53
:10761000454801683960D0E90132134401335B1AEF
:10762000824600F21C4700F5836900F21448B34219
:107630001CD30020002D73D004F00F039B0143F0F6
:10764000050363F30F00DAF80020DAF8083013407E
:10765000033316444AF823009DF80700CAF8006077
:1076600002F0C2FC012007B0BDE8F08F01213846CE
:1076700002F08BFF484602F0AEFF404602F0ABFF3F
:10768000DAF80400DAF808B0029000EA0B000330E0
:107690000AEB800002A9FFF78FFF029B50BB0BEAA9
:1076A00003020AEB820203F1020CD2680392013357
:1076B00003EA0B0B0AEB8B0B02F00302012ADBF847
:1076C0000C10CDF808C023D0022A16D083464046BD
:1076D00002F084FF10B1029BCAF8043059463846C4
:1076E00002F053FFDAE901231344DAF800200133F2
:1076F0009B1A9CE70BEA0300C9E7BDF80E30C3F301
:10770000891303334FEA114B0CEB93030293DEE72B
:10771000BDF80C30C3F383134FEA114B6344F5E714
:10772000A40544F006008EE7582C00200B4B0C48B3
:10773000FF2210B59A600022C3F81824C3E9002282
:10774000C3F8142483F8202403F0BBF9044610B9CD
:10775000044803F024FA204610BD00BF582C002036
:1077600028FC020050FD020030B50A4C71B10A4AF3
:107770000A49121BD20800239A4201D1002030BDD1
:1077800031F82350854202D00133F5E7034654F81F
:107790003300F4E73CFC0200ECFC0200E82A002085
:1077A000094B013903EBC000032909D8DFE801F0D8
:1077B0000A02040604207047007970474079704738
:1077C00000207047022070473CFC0200034BD3E9C5
:1077D0000030C31A58425841704700BF582C00204F
:1077E0002DE9F04387B0FFF7F1FF0646002840F08F
:1077F000F9807D4DC5F81804BFF34F8F6B68AC68F6
:1078000002932340033305EB830002A9FFF7D4FE64
:10781000029B18B1D5F81824002A5FD004EA0302AD
:10782000991C013305EB8202234005EB8303D268E8
:10783000DB68049302F00303022B0392029160D1F0
:10784000BDF80E306948C3F38917502FB84628BFDA
:107850004FF0500868F38F1308F10801ADF80E30AF
:1078600003F047F90646002800F0A78003F070F9FE
:107870000023082203A9304603F07DF9029924EA87
:1078800001020132B8EB820F4FEA820332D95FFA6C
:1078900088F85BB32140DCB2A8EB040803315FFA3F
:1078A00088F9A046524C05EB810108234246304638
:1078B00003F061F934B108F108034A462146304625
:1078C00003F059F9029B033703EB97070297D5F8AA
:1078D0001834002B49D1D5F8104459E02A689A424F
:1078E0008FD86A60304607B0BDE8F08340491C4637
:1078F0009946DAE70C40E11C0823424605EB81017A
:10790000DDE7012B59D1BDF80C303848C3F38311A2
:10791000062928BF062161F3891302318900ADF8D9
:107920000C3003F0E6F80646002846D003F010F9C4
:107930000023082203A9304603F01DF90027BDF8F3
:107940000C20C2F38312BB00974203F10803BED29E
:1079500002994A1C21400331029205EB8101042265
:10796000304603F008F90137E9E7304603F0F4F850
:10797000FFF72CFF80F00100C6B2B3E7E3685B7944
:1079800023B1236831461B6820469847E3681C688A
:10799000002CF3D1304603F0DFF80DF107008DF82D
:1079A000074002F0FDFAD5F818340BB9029B6B6062
:1079B0009DF8070002F018FBDAE7D5F8104454B937
:1079C0000C4B0D480D49C01AC008000440F00200DD
:1079D00000F062F8CCE7236820469B689847E3688C
:1079E0001C68ECE700267DE7582C002028FC0200EC
:1079F000642C00203CFC02006CFC020039FD0200FB
:107A00002DE9F74F224D04460F46924601A9012267
:107A10001846D5F808909B46FFF7ECFD20B3019E71
:107A20004FF00008B21CD84508EB020126D11948D6
:107A3000002102F07BFD80F31000000440EA1440B6
:107A4000E400731C04F0380403EA090306EA09069B
:107A500044F0010405EB8303033644EA881444EA46
:107A60008724D86045F8264095F820341BB1FFF7ED
:107A7000B7FE0028FBD103B0BDE8F08F09EA010191
:107A800005EB81015AF82830CB6008F10108CAE7FC
:107A9000582C00207430002000231A46FFF7B0BF96
:107AA00007B50123019201AAFFF7AAFF03B05DF811
:107AB00004FB07B5CDE9002302236A46FFF7A0FFC8
:107AC00003B05DF804FB1FB5CDE90123069B0393CA
:107AD00001AA0323FFF794FF05B05DF804FB1FB56F
:107AE000CDE90023069B0293079B03936A46042378
:107AF000FFF786FF05B05DF804FB000030B50F49C5
:107B0000D1F8102403460020144634B9DC682071F3
:107B10004AB9C1F81034226030BDE4682579854245
:107B200006D02468F1E7D268116821601360F3E79A
:107B300001300A28E8D14FF0FF30EDE7582C002043
:107B4000094A38B50123D2F8104482F820341D4682
:107B500004B938BDE3685D71236820465B689847C7
:107B6000E3681C68F4E700BF582C002007B5034603
:107B70000846197A052911D05B7A2BB1094A0A49BE
:107B8000019002F08EFD01980849019002F089FDF4
:107B9000019803B05DF804EB02F078BD002AF8D03C
:107BA000F2E700BF5CFD020061FD020081FD020002
:107BB00030B5C38885B004460D4633B1144A0092EF
:107BC0001449154A284602F06CFD217A05291DD07A
:107BD000637A4BB1A088FFF7E3FD104B104953F8CF
:107BE0002020284602F05DFD227A0E4BA08853F833
:107BF000222003920021FFF7B7FD039A0A490346AA
:107C0000284605B0BDE8304002F04BBD05B030BDA0
:107C10005CFD02006CFD020064FD0200E8FD020054
:107C200061FD02000CFE020084FD02002DE9F0431C
:107C300085B01F460C9D002395F80C902B730646CB
:107C40000C46904629463846FFF7B2FFB8F1060FBA
:107C500009D8DFE808F00412181F28334000314625
:107C6000284602F01EFD002229463846FFF77EFF17
:107C700085F80C9005B0BDE8F083226831462846AF
:107C800002F00FFDEFE7D4E900233146284602F069
:107C900008FDE8E7A36800933146D4E900232846AD
:107CA00002F0FFFCDFE7E3680193A368009331462D
:107CB000D4E90023284602F0F4FCD4E723690293B8
:107CC000E3680193A36800933146D4E90023284672
:107CD00002F0E7FCC7E76369039323690293E36853
:107CE0000193A36800933146D4E90023284602F0AB
:107CF000D8FCB8E708292DE9F74F80460E4617460D
:107D00001C463CD8002593F80C901D73194610466C
:107D1000FFF74EFFDFF888A0DFF888B0AE4231D918
:107D200018F805205946204602F0BBFC0135082D05
:107D3000F4D11949194DDFF870A0204602F0B1FCCA
:107D40004FF0000B5E4522D918F80B207E2A05D88B
:107D50001046019207F0FCFA019A00B92E22514612
:107D6000204602F09EFC0BF1010BBBF1080FE9D19C
:107D7000012221463846FFF7F9FE84F80C9003B043
:107D8000BDE8F08F5146204602F08BFCCEE7294635
:107D9000204602F086FCE6E798FD020096FD020010
:107DA00094FD02008EFD02009AFD0200C30710B58B
:107DB00007D4F023054A4008145C234019431154AA
:107DC00010BD0901C9B20F23F4E700BF48310020FC
:107DD00030B5094B1C78094B196800239C4202DC22
:107DE0000022104630BD11F83350854201EBC3022A
:107DF000F7D00133F2E700BF1431002068310020D2
:107E000013B504460191FFF7E3FF38B143682BB186
:107E10000199204602B0BDE81040184702B010BDDD
:107E2000034B044819680022490800F02ABA00BF31
:107E3000183100202031002010B5C0B2FFF7C8FF74
:107E40000446007803F0D2FC63785A1E5342534133
:107E5000834208D1044BD3E90023134303D1BDE887
:107E60001040FFF7DDBF10BD4031002037B543089B
:107E7000354AD35CC2074CBF1B0903F00F0304460D
:107E80000D46042B35D8DFE803F003252C383C00E1
:107E900079B30121FFF78AFF00230DF107008DF868
:107EA000073002F07DF80120A4F12003C4F1200185
:107EB000264A20FA01F100FA03F30B43A040D2E96D
:107EC000004120430B43C2E900039DF8070002F084
:107ED0008BF80EE0002918BF02212046FFF766FF4D
:107EE00007E041B10321FFF761FF01212046FFF7C1
:107EF00087FF03B030BD0121EFE70029F9D104214C
:107F0000EBE709B10321E8E7FFF750FF29462046D8
:107F1000FFF776FF0DF107008DF8075002F040F8EB
:107F20000120A4F12003C4F12001084A20FA01F144
:107F300000FA03F30B43A040D2E9004124EA000019
:107F400021EA0303BFE700BF483100204031002091
:107F50002DE9F041124E134F00243378A34208DC80
:107F6000114BD3E90023134318D0BDE8F041FFF7CC
:107F700057BF3D6805EBC40815F8340003F036FC24
:107F800098F801305A1E53425341181A4142414158
:107F900015F83400FFF76AFF0134DEE7BDE8F08131
:107FA000143100206831002040310020092AF7B543
:107FB00005460C4616463CD903F048FBD8B11E4B8B
:107FC0001E481D601E4B1F4F1C701F4B002120229E
:107FD0001E6007F058FA1D4B00200021C3E9000184
:107FE000013CE4B20326FF2C0BD1194A19480021A9
:107FF00000F03CF903E003F0F1FA0028DFD003B011
:10800000F0BD9DF8063015F834008DF8046005EBDE
:10801000C40223F007038DF8063001A993788DF888
:1080200005303A4603F01CFB013CE4B20028DAD0EC
:10803000E5E70720E3E700BF683100204831002072
:1080400014310020397E0200183100204031002018
:10805000517F02002CFE020070B5084D084E00242E
:108060002B789C4201D3002070BD3368012113F8A6
:10807000340003F071FB0134F2E700BF143100203B
:10808000683100201FB50021039001AA44F20100CD
:10809000CDE9011100F004F805B05DF804FB000023
:1080A00010B572B6FFF74CFDFFF79AFB0028FBD125
:1080B000104B114C1149E41AE408240444F0010067
:1080C000FFF7EAFC0E4B1B68DB0700D500BE0D492D
:1080D00044F00200FFF7E0FCBFF34F8F0A490B4B5F
:1080E000CA6802F4E0621343CB60BFF34F8F00BF56
:1080F000FDE700BF3CFC02006CFC020030FE020009
:10810000F0ED00E03CFE020000ED00E00400FA05A6
:10811000D0E90223D1E90201994208BF90422CBF65
:10812000012000207047000008B50B4802F093F8CA
:108130000A4B0B49D3E900231218D1E9000143F19E
:1081400000038B4208BF824203D212F1807243F1D6
:1081500000031046194608BD042B00207031002092
:10816000E831002037B505460C460A4801A902F05F
:108170004CF960B10570446001A9064802F06FF93E
:1081800018B1054802F06CF8002003B030BD04209F
:10819000FBE700BFD4310020042B002038B5184B7A
:1081A0001B78044613B90025284638BD0028FAD0AC
:1081B000037F03F0FF05002BF5D0FFF7B5FFD4E9EF
:1081C0000223994208BF904214D3236903B923774D
:1081D000D4E90530984721690029E4D0237F03F0D2
:1081E000FF05002BDFD0D4E90223521843F100032E
:1081F000C4E902230348214602F0F0FCD4E700BFA3
:108200007831002058FE020013B5114B114918684F
:10821000019008231048582202F0E4F8044698B967
:108220000E4A0F4801A901F003FF044660B90C484B
:10823000012101F0F3FF01230A4A0948194601F020
:1082400055FF094B01221A70204602B010BD00BF35
:1082500054FE02007C310020D4310020CD82020087
:10826000042B0020FFFF7F00783100203AB1036823
:108270005A614A1E5142514119610020704707203E
:10828000704738B5037F04460D4683B98261FFF716
:108290004BFF2369401941F10001C4E9020103B118
:1082A000256121460020BDE83840FFF75BBF002074
:1082B00038BD0023014603770120FFF753BF0000BC
:1082C000014801F0C8BF00BF042B00202DE9F04F8A
:1082D00085B0804601F0AAFF40B15A4AD2E9003188
:1082E00013F1807341F10001C2E9003100214046E1
:1082F00001F0ABFF38B1544E336823B13068FFF75B
:108300004DFF002333600121404601F09EFF20B164
:10831000FFF70AFF4D4BC3E900014D484A4F4D4E50
:10832000DFF8389103A902F0AAF8002845D1DFF858
:108330002491454EDFF828A1484602F065FC3368D9
:10834000002875D07BB13368D0E90201D3E902235C
:10835000994208BF90422DD233681B7F1BB1316810
:10836000484602F03BFC484602F048FCD0E902B324
:1083700007460193FFF7D8FE019BBBEB000463EBBC
:108380000105012C75F1000345DBB4F5350F40D331
:10839000FFF796FF304A02444FF4960300215046FF
:1083A00001F0C4FE00283ED1336813B9404601F005
:1083B00095FE376005B0BDE8F08F0378012B1DD026
:1083C000022B09D14FF0000A304602F017FC0028BA
:1083D00034D080F81CA0F7E73BB941680B7F23B984
:1083E00001230B77304602F0F9FB03A9184802F08D
:1083F00071F803A9164802F042F896E741683B6815
:10840000994202D100233B60EFE7304602F0FFFBC8
:10841000EBE7BA68C0E70021504601F00CFF384690
:10842000FFF7BCFE01E00D28F9D00023336083E79D
:10843000002BBFD1404601F055FEBBE7012389F870
:108440000030D2E770310020F0310020E831002008
:10845000D431002058FE0200FFFFB4007831002024
:10846000042B002043681B6818470000024B5B6820
:1084700003B11847704700BFF8310020020600F032
:108480000F034CBF02480348DB001844704700BF8D
:10849000043200204C32002008B5FFF7EFFF0160E6
:1084A00009B14B681968416008BD0000024B0146E4
:1084B000D3E90002104700BF4C32002038B5831EBC
:1084C000DBB2062B98BF1A4A1A4D98BFD25C2B78A4
:1084D000A3F10203DBB288BF0022062B9ABF144926
:1084E000CB5C00239342044603D0B2B1124802F0A1
:1084F00011FE022C14D0A4F10800424242412B7814
:10850000022B0FD0A3F108014B424B41934202D002
:1085100052B104F01BFD2C7038BD02F035FEE8E7C7
:108520000122ECE70123F1E704F006FDF3E700BFC9
:108530006DFE0200C43300200C2B00200378052BB5
:1085400073B504460CD1304AD2F88434D2F8802472
:1085500012F0FF0F04D12D4ADBB2052B08BF1446E1
:1085600023782BBB2A4B1D68DDB98DF80450294DAB
:1085700001A801F015FD2A6812B9274B62881A80FC
:108580000121244802F001F89DF8040001F02CFDBF
:10859000224B1B6813B10121204698472B6802B07B
:1085A00070BD2B6860889B6898472B685D68DBE727
:1085B0001B4801A901F029FF05460028EFD02368D8
:1085C000036000260DF103008DF8036001F0E8FC64
:1085D000114B10481B88026801339B1AEB8031460F
:1085E00001F0A4FFA8809DF8030001F0FDFC01A9A3
:1085F0000B4801F034FF094B1B680146002BCED01D
:1086000020469847CBE700BF0070024084FE02007E
:10861000B8330020C033002094320020F83100200D
:10862000A0330020FFF78ABF012805D0022805D01B
:1086300030B90448FFF782BF0348FBE70348F9E776
:10864000704700BF78FE02007CFE020080FE020040
:108650000148FFF773BF00BF88FE02002DE9F04F0D
:1086600087B000260546884691461F4602966B68ED
:1086700000225C682946012302A8A047044638B9B5
:108680008DF8060004908246564503D8052028E060
:108690000136ECE76B680DF10602D3F804B0294609
:1086A000012304A8D8476B680DF10702D3F804B082
:1086B0002946012304A8D8479DF8073043459DF873
:1086C000063013D14C450FD1109A13603B7087F8D8
:1086D00001806A68023B54682946BA1C04A8A04776
:1086E000002007B0BDE8F08F0134E4B26A68023BB5
:1086F000D2F804B02946002204A8D8479DF80630D5
:108700009A44C1E72DE9F743082305462D492E4831
:108710004FF4847201F066FE002851D12B4804F01A
:108720002BFC0446002847D1294B1870294B1860B0
:10873000294B014618604822284806F0A4FE284824
:108740004822214606F09FFE264B8DB9C3E900550D
:108750001D72002002F0AAFD18B1852801D0FFF794
:1087600091FC214F002697F8089007F1090810E0C6
:1087700095E8070083E80700EBE7A3782344394630
:10878000985CFFF789FE01356378EAB29342F4D82A
:108790000136F4B2A14504D904EB44044444002555
:1087A000F2E70B2310488DF8043001A9FFF75AFEB9
:1087B000044608B104F080FA204603B0BDE8F08317
:1087C0000324F9E796320020A0330020258602001A
:1087D000C4330020B0330020B43300200432002022
:1087E0004C320020F8310020BCFE020010B504F02D
:1087F00059FB10B90823184610BD04F05BFB044672
:108800000028F7D1044802F084FD03460028F2D086
:10881000FFF738FC2346EEE774FE020004F056BA78
:1088200004F064BF4FF08043D3F83824920702D598
:108830000348FFF783BED3F83824D107F4D4704738
:1088400089FE020007B5822301A88DF80430FFF7E6
:1088500075FE03B05DF804FB2DE9F74300F1090153
:1088600090F80890054600260F46F3B24B452AD2F1
:1088700091F801800024E3B298450AD98B780A194F
:108880000134D05CFFF7FAFD0368002BF3D0112010
:1088900028E001360331E8E7A37823442946985CB1
:1088A000FFF7FAFD01366378F2B29342F4D808F18B
:1088B00001082B7A5FFA88F4A34216D904EB44042A
:1088C0003C440026EFE74FF00008F2E713681A680F
:1088D000002AFBD11D6001A90B2328468DF8043026
:1088E000FFF7C0FD03B0BDE8F083014BEFE700BF29
:1088F000B0330020024B1878003818BF01207047B1
:10890000BC330020030710B5044604D404F074FC03
:10891000204604F0B9FF2046BDE8104004F05EBFD9
:1089200004F02ABF014B1868704700BFB033002025
:10893000F0B50A4B0246186878B1057A0023861D07
:10894000DCB2A54201D80368F5E7013303EB430726
:10895000F75D9742F4D101B10C70F0BDB033002047
:108960001146FFF77FBD08B500F00F03082B07D8AD
:10897000FFF784FD006818B1BDE80840FFF772BD3D
:10898000102008BD38B5054B05461C6804B938BD34
:1089900029462046FFF766FD2368F6E7B03300203E
:1089A00038B5074B05461C680CB9062038BD29466A
:1089B0002046FFF757FD0628F8D12368F3E700BFEC
:1089C000B033002013B50446019104F01BFB50B1F5
:1089D000064B1B78022B06D10199204602B0BDE858
:1089E000104004F01FBB082002B010BDC4330020AB
:1089F00013B50446019104F005FB50B1064B1B78FA
:108A0000022B06D10199204602B0BDE8104004F0C7
:108A100083BB082002B010BDC4330020F8B5436802
:108A20009B6805460C46164613B92EB1072002E096
:108A300098470628F9D0F8BD2B7AA34213D90935F7
:108A400004EB44042C446778F3B29F4201D8002021
:108A5000F1E762789A4208D9A219A378D05CFFF7AF
:108A600051FF0136F0E77378FFDE00231B78FBE748
:108A70004368DB6870B505460C4603B198472B7A0E
:108A8000A34213D9093504EB44042C44002566782D
:108A9000EBB29E4200D870BD62789A4209D9621941
:108AA000A378D05C04F068FE0135F1E700235B7821
:108AB000FFDE00231B78FBE743681B6903B11847FF
:108AC0001846704770B5084B1C6804B970BD267A0B
:108AD0000025E9B28E4201D82368F5E7002220463E
:108AE000FFF79CFF0135F4E7B033002070B5084B69
:108AF0001C6804B970BD267A0025E9B28E4201D8FF
:108B00002368F5E72046FFF7B3FF0135F5E700BF1F
:108B1000B033002038B503780F2B044610D9A3F1E9
:108B2000800283F08003052B00D938BD052AFCD8CC
:108B3000DFE812F067002C00490073007E00E000BF
:108B40000F2BF2D801A252F823F000BF538C020081
:108B5000838C0200E38C0200A78C0200C58C02000B
:108B6000F58C0200078D02002B8B0200318D020074
:108B7000358D0200398D02002B8B02002B8B0200F9
:108B80002B8B02002B8B0200FF8C02006B48FFF73F
:108B90008DFC6A48FFF7F6FE0D20FFF767FCFFF734
:108BA000A5FF00F014FF664B1B6853B9654B187A9C
:108BB00000F0010004F04CF90120BDE83840FFF757
:108BC0007DBC0120F4E7FFF791FF04F071FD002068
:108BD000FFF774FC5C48FFF7D5FE5B48FFF766FCC7
:108BE0000E20FFF743FC594B1B78023BDBB2062BF0
:108BF0009BD8574AD35C002B97D0BDE8384002F091
:108C0000C3BA524B1B78062B05D003F0FD03052B8E
:108C10008BD10220D1E70820CFE74C4B1B78032BE8
:108C200083D104F07DFD00283FF47FAF0420C4E72A
:108C3000464B1B78032B05D104F072FD10B10420C4
:108C4000FFF73CFC04F040F900283FF46EAF06202B
:108C5000B3E73E4B1B78032B01D0082B02D13D48D4
:108C6000FFF758FF0020FFF701FC354B1D68002D72
:108C70003FF45BAF28462146FFF7F4FB2B685D68A5
:108C8000F5E7FFF733FF00F099FE0220FFF716FC2F
:108C90000120FFF7EBFB2046FFF708FC2046BDE86C
:108CA0003840FFF76FBE294B1B78082B06D10220F6
:108CB000FFF704FC04F054F90320EAE70520FFF76E
:108CC000FDFBF9E70320FFF7D1FB2348FFF7EEFB9D
:108CD0002148FFF757FE1D4B1B78062B99D1072023
:108CE0006BE70320FFF7EAFB0220FFF7BFFB2046FC
:108CF000FFF748FE2046BDE83840FFF7D7BB0F20FE
:108D0000FFF7B4FBCAE78078FFF7B8FB214643685A
:108D10000068984700283FF408AFA07802073FF4A6
:108D200004AF03073FF501AFBDE8384004F03EBA99
:108D30000820E5E70920E3E70A20E1E78AFE0200D0
:108D4000B4330020F83100208BFE0200C433002031
:108D50006DFE02008CFE02008DFE020073B5244DF4
:108D6000002301932B6823B92249234801F087FB94
:108D700028602C68ECB1A68886B1E388B3F5006F53
:108D800024BF0023E380E388ADF806305A1C013E7F
:108D9000E280A68001A8FFF7BDFE07E02046FFF7AE
:108DA000B9FE1449144801F095FB2E60012002B071
:108DB00070BD124B18680028F9D00DF103008DF832
:108DC000034001F0EDF80E4B0C481A88B2F5006F25
:108DD00028BF1C801A88ADF80620511C198001217B
:108DE00001F0EBFB9DF8030001F0FEF8D2E700BFB5
:108DF000C8330020F4310020A0330020C03300200D
:108E000094320020C36903B11847704703680022F9
:108E1000C3E91E22C3E920221A845A62DA6203F1EE
:108E200034025A677047CA699A4210B543600CD33E
:108E30008C690460086F18440867D01A1C44C86124
:108E400000388C6118BF012010BD01F128020260BA
:108E50008B670020F8E70000F0B504680D7A002C5D
:108E600000F08780A4F212347C2C00F222837C2C48
:108E700000F21F83DFE814F085008F009D00A90039
:108E8000B500C100CD00D9001D031D031D031D0346
:108E90001D031D03EF00FB001D031D031D031D0328
:108EA0001801240132011D031D031D034501510159
:108EB0007F011D031D031D031D03670173017F0156
:108EC0001D031D031D031D031D031D038B011D0336
:108ED0001D031D031D039F01AB01B701C301CF019A
:108EE0001D031D03DB01E701F301FF010B021D035D
:108EF0001D0317022302340240021D031D034C020E
:108F00005802640270027C021D031D031D031D0331
:108F10001D031D031D031D031D031D031D031D0351
:108F20001D031D031D031D031D031D031D039B02C4
:108F3000A7021D031D031D03C0021D031D031D0306
:108F40001D03DD021D031D031D031D03DD021D03A3
:108F50001D031D031D031D031D03E902F5021D036F
:108F60001D031D031D0313031D031D031D031D030B
:108F700013030824047123B940F212330360012063
:108F8000F0BD0AB1047914700B24012B04710ED8C2
:108F900040F21333F2E700240AB106791655013482
:108FA0000E7D06719C4205D34FF44573E6E701241C
:108FB000F2E700240AB106791655013402269C42D4
:108FC000067103D340F21533D8E700240AB10679BD
:108FD0001655013402269C42067103D340F2163323
:108FE000CCE700240AB106791655013402269C42CA
:108FF000067103D340F21733C0E700240AB10679A3
:10900000165501344E7E06719C4203D34FF44673CD
:10901000B4E700240AB106791655013400269C42B3
:10902000067103D340F21933A8E700240AB1067988
:109030001655A94E002701343770A74E3678AE4238
:1090400002D340F2993399E70926A342067103D867
:109050004FF4487392E700240AB10679165501349B
:1090600004269C42067103D340F2213386E7002494
:109070000AB106791655984E0F7A3678DFF85CC239
:10908000B74204F1010440F2188201F1090706EB2E
:10909000460607EB060E9C42BE5DCCF800E006716A
:1090A00003D340F2263369E700240AB10679165546
:1090B000013400269C42067103D340F227335DE75A
:1090C00000240AB106791655844E36680134767844
:1090D00006719C4203D34FF44A734FE700240AB150
:1090E000067916557D4E0F7D36683678B74204F105
:1090F00001041ED102269C42067103D34FF44B7328
:109100003CE700240AB106791655013402269C4238
:10911000067103D340F22D3330E700240AB10679FB
:10912000165501344E7E06719C4225D340F22E33F3
:1091300024E78F7DB74223D10A269C42067103D3D0
:1091400040F233331AE700240AB106791655013488
:1091500000269C42067103D34FF44D730EE70024A2
:109160000AB106791655013400269C42067103D3D4
:1091700040F2353302E700240AB10679165501346E
:109180000026A342067103D84FF44F73F6E600247D
:109190000AB106791655514E0F7D36683678B742BA
:1091A00004F1010440F0E98005269C42067103D3D6
:1091B00040F24133E2E600240AB106791655013443
:1091C00024269C42067103D340F24233D6E60024A3
:1091D0000AB106791655013400269C42067103D364
:1091E00040F24333CAE600240AB106791655013429
:1091F00010269C42067103D34FF45173BEE600243F
:109200000AB106791655013401269C42067103D332
:1092100040F24533B2E600240AB10679165501340E
:1092200005269C42067103D34FF45273A6E6002430
:109230000AB106791655013424269C42067103D3DF
:1092400040F249339AE600240AB1067916550134F2
:1092500001269C42067103D340F24A338EE6002475
:109260000AB106791655013403269C42067103D3D0
:1092700040F24B3382E600240AB1067916550134D8
:109280008E7D06719C4203D34FF4537376E600241F
:109290000AB106791655013404269C42067103D39F
:1092A00040F24F336AE600240AB1067916550134BC
:1092B00024269C42067103D34FF454735EE60024C7
:1092C0000AB106791655013402269C42067108D36C
:1092D00040F2513352E600BFCD330020D03300209E
:1092E00000240AB106791655013402269C42067103
:1092F00003D340F2523341E600240AB106791655F1
:10930000013405269C42067103D340F2553335E6FD
:1093100000240AB106791655013424269C420671B0
:1093200003D340F2563329E600240AB106791655D4
:10933000013406269C42067103D340F257331DE6E2
:1093400000240AB10679165501340E7D06719C423F
:1093500003D34FF4567311E600240AB1067916556B
:1093600001348E7D06719C4203D340F2593305E6E9
:1093700000240AB1067916550134534E36687778C1
:10938000524E3770524E00273770514E37784F4E3D
:109390003678B74204D34F4F3E7801363E704CE6E4
:1093A0000726A342067103D840F26D33E6E5002498
:1093B0000AB106791655013405269C42067103D37D
:1093C00040F26E33DAE500240AB1067916553E4EB6
:1093D0003F4F36683F7896F801C0BC4504F1010460
:1093E00070D996F802C03E449C4216F80C60067193
:1093F00003D340F27233C1E500240AB10679165551
:10940000314E0F7D36683678B74204F1010406D13B
:1094100003269C4206710DD340F27733AEE58F7D73
:10942000B7420BD102269C42067103D34FF45F73FF
:10943000A4E500240AB10679165501344026A3425A
:10944000067103D840F2833398E500240AB1067907
:109450001655013400269C42067103D34FF4617304
:109460008CE500240AB106791655174E0F7D366833
:109470003678B74204F1010407D10E6A9C4236786F
:1094800006710DD340F2893378E58F7DB7420BD159
:1094900000269C42067103D340F28E336EE5002411
:1094A0000AB1067916550134094F3E7801363E70EF
:1094B0006BE700230360184662E50023CCF8003018
:1094C0001B78FFDE0023FBE7D0330020CC330020E5
:1094D000CE330020CD33002010B5044658B90868BB
:1094E000037B202B09D100F10E010722183005F073
:1094F000A1FF204610BD0320FCE70620FAE7037A0F
:10950000012B08D9427B012A00F10C0306D9827B8A
:1095100013445878704700235B78FFDE00231B78E4
:10952000FBE700002DE9F0470B7888B005460E46B2
:109530000E2B17D8DFE803F00A080A0A160CA21649
:109540001608160A0A0A0A00FFF760FC002427E042
:109550004A78D1094FEA521330D013F0030303D0F5
:10956000012B21D006241BE002F01F02012AF9D1B1
:10957000B478062CF6D105A8039300F0ADFC03AB3C
:109580000093F2783179034607462846FFF766F8DC
:10959000052805D0039A3946701C00F033FA0446BA
:1095A000204608B0BDE8F087B378212BDAD1B6F8B1
:1095B0000720072AD6D101681831EDE7012BD1D158
:1095C000B3780768202B35D0222BCBD1B6F80730E3
:1095D000002BC7D197F82020B6F803303B8402F067
:1095E000010203F001018A42B0D08CB2C1F1030143
:1095F000C9B2FFF707FC002CA8D12B7A012B40F24F
:10960000D3806B7B05F10C02002B00F0CF80AB7B8D
:10961000D05C03F02DFF2846FFF771FF03F028FF11
:1096200007F13403C7E91E44C7E920447C62FC62A9
:109630007B67B5E7B6F80730072B93D14FF4E462A8
:10964000BA8100240DF10B000E37CDE905730794A4
:109650008DF80B4000F0A4FC204605A9FFF7B2F9F5
:10966000044630B9534B03A9CDE9033500F0B8F9EE
:1096700004469DF80B0000F0B7FC91E7037A002B3D
:1096800000F09680837A00F10901002B00F08E80B3
:10969000C27AB3788A5C9A423FF458AF1B06F778D7
:1096A00009D527B1032F14BF0324002478E7012133
:1096B000FFF7A8FB4AE707F0FD03012B3FF446AF95
:1096C000002F6FD10668FFF71AFF3B4BB46A059372
:1096D00006F10C0381460693C4B9F36FB467C6E97B
:1096E0001F43F36A63B1D6E90B0106F1240383E853
:1096F0000300F46205A94846FFF77AF9044600E042
:10970000746200212846FFF77DFB49E7D6F884A064
:10971000706A544528BF544606F134082246414633
:1097200005F088FEF36F2344C6E91F73AAEB040318
:10973000B367F36A444474672BB306F1240406F15B
:109740002C0898E8030084E80300B36F706AF7629E
:109750001BB9736A002BCDD116E0B26A716F9A42C1
:1097600014D805F067FEB36AB26FC6F88030D21A1B
:10977000B267726F1A44726700212846FFF742FBF6
:10978000F36A002BDDD173620024BAE71A4605F0B4
:1097900051FEB26FB36AF2679B1AB362736A1344E5
:1097A0007362D6E70324FBE66378FFDE1B78FCE7F1
:1097B0005B78FAE7D9940200278E02001FB5036890
:1097C0001B8CDC0714D5037A012B13D9437B00F1E2
:1097D0000C0493B1837BE05C9306CDE901120CBFCE
:1097E0000123002301A90393FFF7ECF804B010BD97
:1097F0000820FBE700235B78FFDE1B78FCE7000016
:10980000F7B50468238CDB070F4616463BD5656A1F
:10981000002D32D1A16F91420ED3616F384605F011
:1098200009FEA36FC4F880609B1BA367636F33447A
:109830006367284603B0F0BDC4E90972FFF75FFE15
:10984000134B009304F10C030646019369B10A46D9
:109850003846616F05F0EEFDA36FA26AD21AA262CC
:10986000626AC4E91E531A44626269463046FFF7D1
:10987000BFF8002808BF9220DCE7E36A2BB9C4E9EF
:109880000B129220D6E70820D4E71120D2E700BFC0
:10989000278E0200002070472DE9F04F2DED028B3E
:1098A0004B6885B080460C4601926BB90B681B680B
:1098B0001B684BB98D683DB9C0E90055284605B015
:1098C000BDEC028BBDE8F08F03F06CFC019BE768F8
:1098D0009F4228BF1F4604F110034FF0000A08EE14
:1098E000103A8146564601254FB3A3686168BB42D2
:1098F0009B4628BFBB4629B35A4609EB060005F034
:1099000099FD00236360A268E368A2EB0B02A3EB5E
:109910000B03A260E360A7EB0B075E440ABBBAF13E
:10992000000F03D02268126812682260DBB123683E
:10993000DBB963601EB1019BB34288BF0025C8E953
:109940000096BBE7002BDED021684B6818EE100AAA
:10995000D3F804A009EB06025B46D0474FF0010A9A
:10996000D1E7002BC0D10025BEE700230293216878
:109970004B680022D3F804B002A80123D84708B9E5
:109980002061B1E7A3680133A360F0E7084B1A78C0
:1099900082420CD0052818BF064A187018BF1378E9
:1099A00005481CBF23F002031370FFF7B3B87047DC
:1099B000E0330020FC330020CCFE020008B500207C
:1099C000FEF7A0FFBDE808408020FEF79BBF08B56A
:1099D0000020FEF7A5FFBDE808408020FEF7A0BFED
:1099E00038B505460C4603F081FCA84205BFD4E912
:1099F0000001034B1020C3E9000108BF002038BD5F
:109A0000003400207FB5C38893421E4628BF164607
:109A100093420D46144625D9802003F0EDFAB4FB9D
:109A2000F0F202FB1040B0FA80F0400900230390EE
:109A30000DF103008DF80330CDE9015600F0B0FAC6
:109A400001A98020FEF7BEFF044620B90649802008
:109A5000FFF7C6FF04469DF8030000F0C5FA204654
:109A600004B070BD0020E1E700FF02002DE9F04FD7
:109A70000B780E2B89B00D4613D8A3B1013B0D2BEB
:109A800011D8DFE813F012001A00160010002A00A7
:109A9000FB0110001000100010001A00E501E901A0
:109AA000F901852B13D00624E2E10320FFF76EFFB6
:109AB000F9E7B44800F092FD08B90024D8E1B24BB0
:109AC00001221A60BFF36F8FBFF34F8FF5E7AF4BE3
:109AD0001B78032BE7D10420E8E70523AC4D8DF874
:109AE00014300DF1150003F097FB00232B609DF857
:109AF000153003F01F07032F00F26381DFE817F032
:109B00000400FB0058013E0013F0600FC3F341183E
:109B100034D1DB099DF8161000F0A680062916D076
:109B2000082900F0938049BB9A4C0222204605F098
:109B3000AAFC237843F001022270974A1278920718
:109B400044BF43F003032370022292490EE09DF8C4
:109B50001830022B16D0032B68D0012B0ED1BDF884
:109B60001B30002B00F071818C4912220DF1150081
:109B7000FFF748FF0446062C40F02B8105A8FEF7AE
:109B80000FFFFCE0BDF81B60002E00F05E81092E87
:109B900028BF0926FEF7C6FE4FF00909044674BB2C
:109BA0007C4C7F493246204605F044FC2771A4F8DE
:109BB0000290FEF79FFE18B1E37943F02003E371B2
:109BC000FEF7B0FE774BC3E900049E60BDF81B2092
:109BD000DA6003A800238DF80C3000F0E1F9724937
:109BE0008020FEF705FF044620B970498020FFF76A
:109BF000F7FE04469DF80C0000F0F6F9BBE7CDF83F
:109C00000C804FF0000A63680022D3F804B02146AC
:109C1000012303A8D84730B9237A1F442368D144CD
:109C20001C68FFB2BBE70AF1010AECE7BDF81B3084
:109C3000002B00F00A81BDF819109DF8170000F004
:109C40009BF90146002899D002788FE74F4A127895
:109C5000052A03D14F4A1370012276E7042A8DD1D9
:109C60004C4B83F80080F7E7032910D009292CD04A
:109C7000012983D1BDF81730012B7FF47FAFFEF7A8
:109C800039FE60B1444A137823F002030FE0BDF8B7
:109C90001730012B7FF472AFFEF72CFE18B90F249A
:109CA00003F021FBE4E03C4A137843F00203137015
:109CB0002B68002B00F0C98003F018FB0446002835
:109CC0007FF4FBAE03F0CEFAD2E0304B1B78043BBE
:109CD000012B01D90824E3E79DF817302BB9FEF7D3
:109CE00005FF0420FFF752FEE2E7012B40D1FEF70B
:109CF000E9FE0520F6E79DF8190003A9FEF718FE16
:109D0000064608B91024CBE79DF80C1005AAFEF70B
:109D100027FE062804465CD19DF8152012F0600F3E
:109D2000BED11A4B9DF80C1018789DF81630D20948
:109D300016D07BB10A2BB3D10528CBD13046019286
:109D4000FEF7BAFE1349019A08700DF11500FFF7EE
:109D500059FE14E00528BDD10E490B800222F4E71C
:109D60000B2B9DD10528B5D1BDF81730FF2B01D99C
:109D7000072495E79DF817203046FEF74FFE04466E
:109D800027E000BF083400205C700240E033002070
:109D9000003400200C340020FC330020ECFE0200D4
:109DA000CDFE0200E433002008FF020000FF0200A5
:109DB0009DF81900070706D19DF8153013F0600FC4
:109DC0000BD006246CE705A9FEF7CDFD0628044656
:109DD000F2D0002C3FF46CAF62E79DF81620394BAF
:109DE0009DF819401B78012A1DD0032A0CD0002AA7
:109DF000E7D1052B02D026077FF46CAF204603F095
:109E0000E1F931490880A9E72007DAD4BDF8172025
:109E1000002AD6D1052B02D021077FF45BAF204664
:109E200003F0C4F944E72207CBD4BDF81720002A79
:109E3000C7D1052B02D023077FF44CAF204603F097
:109E4000DBF9204603F020FD32E703F049FA34E65F
:109E50000020FFF79BFD30E64FF08043D3F83844F5
:109E600014F0010401D00220F3E70120FFF78EFD7A
:109E7000204609B0BDE8F08F0120EAE7C878032842
:109E80003FF411AE114E3368D3B1002271683260D5
:109E90009847044600287FF403AF336823B1AB78BA
:109EA000002B7FF40AAE0DE7094B1B68082B04D189
:109EB000084B1B68002B3FF400AE03F011FAD7E704
:109EC0000E24EDE6E03300200C34002000340020A6
:109ED000300100103401001008B140230360014834
:109EE000704700BF0C34002070B54FF0805286B030
:109EF000D2F8A830D2F8A42000926FEA83436FEA28
:109F000093430B4A0B4E9BB20D2102A805F058FA61
:109F100002AD002402A805F010FB844201D306B074
:109F200070BD15F8013B06F8013B0134F2E700BFB4
:109F300010FF02004C34002010B50E4B53F82040A7
:109F400023780BB9A01C10BD0020FFF7C5FF013C12
:109F500000235A1CA15C39B9DBB201335B00DBB2D0
:109F600043F440730380EEE7D3B220F81310134696
:109F7000EFE700BF6CFF020008B9FFF7DDBF05285F
:109F800007D8054A105C20B1044B53F82030002B51
:109F9000F3D10020704700BF84FF02006CFF020075
:109FA00070B5EFF3108672B60C4A946801239CB921
:109FB00093600B4B0B4DD3F8801029401160C3F810
:109FC0008050D3F8841051604FF0FF32C3F88420E2
:109FD000047006B962B670BD0370FAE75C34002005
:109FE00000E100E0FC06FFBD084B9A6810B55AB1CD
:109FF00050B9EFF3108172B6054A1C6814605C68B2
:10A000005460986001B962B610BD00BF5C34002096
:10A0100000E100E0435882B03BB100234350435875
:10A020000193019B012002B070471846FBE7000036
:10A03000F8B5224B4679224C43F82620214A224B80
:10A040009B1A04EBC602DB0812791B04F70032B13D
:10A0500043F002001D49FDF71FFD0820F8BD02680E
:10A060000D88C2F8085590F9045002798978002DBE
:10A07000ADBF05F1604CDFF85CC002F00F0E0CF5CF
:10A08000614C4FEA4111C9B2B4BF0CF80E108CF804
:10A0900000136D090121DFF840C002F01F0201FA30
:10A0A00002F24CF82520E21944F83600117143F011
:10A0B00003000749FDF7F0FC0020CFE770340020D3
:10A0C000683400203CFC02007CFC02008AFF020095
:10A0D000ACFF020014ED00E000E100E003680122A3
:10A0E0001A607047036801225A60704773B501F126
:10A0F0005005AD000068ADB24FF480348C400026AE
:10A10000C0F80843C0F84843465101F5A8714559C5
:10A11000019522F07F42019D40F82120C0F8444380
:10A120000BB1C0F8044302B070BD00002DE9F74F39
:10A130000D4622F07F4402684FF4803705F1500647
:10A140008F408046B60002EB8500C2F84873B6B275
:10A15000C2F80873D2F8041599464FF0000BD0F8F6
:10A160004035C0F8401542F806B05B1A925900928B
:10A1700023F07F43012B009A4FEA850A0CD1264B2E
:10A180004FF4806043F001039847D8F8003043F85B
:10A1900006B09B590193019BD8F80010D1F80465D3
:10A1A000C1F84473A31B23F07F43012B1CD11A4B2E
:10A1B00005F5A875013443F0010341F825404FF43B
:10A1C00080609847D8F80030D3F804359E4209D112
:10A1D000D8F800300020C3F84473C3F8047303B008
:10A1E000BDE8F08F0D20FAE78A44C9F1FF13CAF8E1
:10A1F0004045D1F80405221A013A22F07F4203F5C6
:10A200007F439342EED3002AE2D10134CAF840459D
:10A21000D1F804359842DAE7C0FF02000368022251
:10A22000C3F8442309B1C3F80423704700684FF40E
:10A230008271FFF7EFBE4FF4803303FA01F1036838
:10A24000C3F84813C3F808137047503189000068F9
:10A2500089B2FFF7DFBE0368D3F80405704700003A
:10A2600090F9043001215A0903F01F0301FA03F3A6
:10A270004032024941F82230704700BF00E100E05F
:10A28000024B034A1B681068184700BF7034002057
:10A29000683400201EF0040F1CBFEFF309800AE0B1
:10A2A000EFF308800549064A884201D8904202D857
:10A2B0008D464FF00000034B1847000000000420BB
:10A2C00000E00320EDA20200BFF34F8F0549064BCB
:10A2D000CA6802F4E0621343CB60BFF34F8F00BF44
:10A2E000FDE700BF00ED00E00400FA052DE9F347AB
:10A2F0000546FDF725FCFDF773FA0028FBD12D4C30
:10A300002D482E4B241AE40824049F6A44F00104CB
:10A31000002D49D0AA692A492046FDF7C1FBEB6808
:10A320000193AB68274900932046D5E90023FDF748
:10A33000D6FBEB6900932449D5E904232046FDF7B9
:10A34000C2FB1E4BDB6A990703D520492046FDF767
:10A35000A3FBDFF88890DFF888A000264FF0010803
:10A3600008FA06F33B4206D059F826201AB15146A6
:10A370002046FDF795FB01361A2EF1D13A0605D598
:10A380000E4B13495A6B2046FDF78AFB3B0405D55B
:10A390000A4B10499A6B2046FDF782FB2846FFF7CF
:10A3A00093FF02B0BDE8F0870B492046FDF774FB30
:10A3B000C7E700BFB4FC02003CFC020000ED00E077
:10A3C000C6FF0200DBFF0200100003006B00030069
:10A3D000BA000300DA00030038000300B4050300EC
:10A3E000AF00030010B561B1B2FBF3F403FB14241A
:10A3F000A4B244B9C0E9001484608281C3812046BC
:10A4000010BD0E20FCE70920FAE737B550E8013F00
:10A410009DB2C48925448489A54228BF2D1B048987
:10A42000A54202BFBFF32F8F002207E0C5EA030554
:10A4300040E80154002CE9D14FF001028DF80320CF
:10A440000193019B9DF803200B6002F0FF0322B1F2
:10A450000B880068184403B030BD1846FBE70A8833
:10A460004B889A4209D150E8012FC2EA024240E8E3
:10A470000123002BF7D1012070470020704737B52A
:10A4800050E8023F1FFAA3F5C488A54202BFBFF3FC
:10A490002F8F00220DE0C48925448489A54228BF5E
:10A4A0002D1BC3EA054540E80254002CE8D14FF0CB
:10A4B00001028DF803200193019B9DF803200B609E
:10A4C00002F0FF0322B14B880068184403B030BD8E
:10A4D0001846FBE70A884B889A4209D150E8022FB8
:10A4E000C2EA224240E80223002BF7D10120704744
:10A4F0000020704701F01F024B090121914000EB41
:10A50000830000F01EB801F01F0301229A404B099E
:10A5100000EB8300D14300F02CB84B0901F01F0180
:10A5200050F82300C84000F00100704710B5034602
:10A5300053E8000F0A4643E8002494F0000FF7D1D7
:10A5400010BD10B5034653E8002F42EA010043E86E
:10A55000000494F0000FF6D110BD10B5034653E887
:10A56000000F00EA010243E8002494F0000FF6D146
:10A5700010BD10B5034653E8002F02EA010043E87E
:10A58000000494F0000FF6D110BD10B5034653E857
:10A59000002F02EB010043E8000494F0000FF6D115
:10A5A00010BD10B5034653E8002FA2EB010043E8AD
:10A5B000000494F0000FF6D110BD10B5034653E827
:10A5C000002F8A422CBF501A104643E8000494F032
:10A5D000000FF4D110BD0121FFF7B3BF0021FFF739
:10A5E000BCBF10B590B1D0E9012301689B1ADBB262
:10A5F0000A60013BDBB2FF2B026802D10020107120
:10A6000010BD11684C1C14600B70F2E70E20F7E7C8
:10A6100037B5054600240DF107008DF80740FFF718
:10A62000BFFC2A686B68116899420ED9481E1060F9
:10A6300011F8014CEB68298A01FB0434AB681179ED
:10A640001B1ADBB2994238BF13719DF80700FFF760
:10A65000CBFC204603B030BD37B5054600230DF1D5
:10A6600007000C468DF80730FFF79AFC2A6813683C
:10A67000591C1160E968641A298AB4FBF1F41C7052
:10A680009DF80700FFF7B0FC03B030BD826810B53D
:10A6900004462AB143690168006998470023A36012
:10A6A00010BD0EB403B5039921B104AB01AA019307
:10A6B00000F076F802B05DF804EB03B070470A29A9
:10A6C00038B504460D4602D10D21FFF7F8FFA36807
:10A6D0002268591CA160D554D4E901329A4204D3AE
:10A6E0002046BDE83840FFF7D1BF38BD2DE9F84F0F
:10A6F0009846DDE90A43154682460F460A464FF062
:10A700000109AA420FD2C14538BFC14613F0010B5F
:10A7100001D16CB900240126B8F1010F1BD908F151
:10A72000FF386E43F8E709F10109B2FBF5F2E8E7FB
:10A730009B070ED5B8F1000F0CBF30262026A1458F
:10A74000E9D2013C31465046FFF7B9FF002CF6D163
:10A75000E0E72026F3E7B7FBF6F39D42E1D9DFF807
:10A760003C80B7FBF6F3504618F8031006FB13774E
:10A77000FFF7A5FF3346AB42B6FBF5F6F1D2BBF1CE
:10A78000000F02D00CB1A14501D3BDE8F88F202104
:10A790005046013CFFF793FFF4E700BF1C0603009F
:10A7A0002DE9F74F054617468846002900F04281FB
:10A7B00018F8011B49B92B7B002B00F03B81284680
:10A7C00003B0BDE8F04FFFF761BF252940F0B78027
:10A7D000002698F800302D2B424608F1010823D0BE
:10A7E000302B24D02B2B25D000242A2B02F1010161
:10A7F00023D13B681A1D1B683A601C440A46137833
:10A800002E2B26D101324FF0000A104610F8011B02
:10A81000A1F1300CBCF1090F1DD80A2303FB0A1368
:10A82000A3F1300A0246F0E746F00106D1E746F010
:10A830000206CEE746F00406CBE711F8013CA3F18F
:10A8400030000928DBD80A2202FB0434303C0A46D7
:10A85000CBE74FF0000A12F8011B01F0FB0068285B
:10A860009046F8D0782909D86F290CD8632962D08E
:10A8700022D8252963D0582900F0888098F8003024
:10A88000002B95D197E770390829F7D801A353F821
:10A8900021F000BF0FAA02007DA802007DA80200DF
:10A8A0009DA902007DA802007BA902007DA80200EC
:10A8B0007DA802008DA90200642901D06929DDD19B
:10A8C0003A68D2F80090111D89EAE9723960A2EB6A
:10A8D000E9724FF0010B092A35DCD34538BFD34666
:10A8E0002CB1B9F1000F01DB720700D5013CB307B1
:10A8F00002D5BAF1000F03D0F00701D44CBB0024FD
:10A90000B9F1000F2DDAC9F100092D212846FFF712
:10A91000D6FE06F00302022A04D1BAF1000F01D1DB
:10A920001CBB0024CDE9004653460A22494628466E
:10A93000FFF7DCFEA2E73B681A1D19783A6028464B
:10A94000FFF7BDFE9AE70A230BF1010BB2FBF3F20E
:10A95000C1E7A345D4D220212846013CFFF7AFFE32
:10A96000CCE77107D5D52B21D0E7A345DAD230212A
:10A970002846013CFFF7A3FED2E73968CDE900463F
:10A980000A1D3A6053460A220968D0E739680A1D51
:10A990003A60CDE9004653461022F5E73B681A1DA0
:10A9A0003A6016F00106D3F8009028D1B9F1000FF3
:10A9B00003D0484604F0C1FD0646B44200D904BBAA
:10A9C00009F1FF3919F8011F00293FF457AF284654
:10A9D000FFF775FEF6E728460136FFF770FE19F817
:10A9E00006100029F7D1A642BFF448AF002C3FF46F
:10A9F00045AF20212846013CFFF761FEF3E7002622
:10AA0000EDE720212846013CFFF759FED5E73B68DA
:10AA10001A1D3A60302128461C68FFF750FE782145
:10AA20002846FFF74CFE00220823CDE900322146DC
:10AA300010227CE703B0BDE8F08F00BF2DE9F84F8E
:10AA4000B0F806A04579D2F800B09DF828900AFB2E
:10AA500005F5043D88460BEB0301A94203F104040C
:10AA600088BFA5EB030BB4FBFAF607460AFB1644B6
:10AA7000C2F800B04EB9AAEB04055D4528BF5D469B
:10AA8000BBF1000F04D1BDE8F88F3F68013EF1E74C
:10AA9000043408EB06003C442A46B9F1000F0DD0FF
:10AAA0002146ABEB050B04F0C5FCDA452E443F68AC
:10AAB00055464FF0000428BF5D46E1E701462046B9
:10AAC000EFE7FFF78EBDF8B546790146721E0546E1
:10AAD000002393422D6803D30024A64202D8F8BD78
:10AAE0000133F6E70F682846FFF7B6FD0134394613
:10AAF000F3E72DE9F843068ACD1C0746FFF788FDEA
:10AB0000043E35440446B5FBF6F5F0B14FF48073CE
:10AB1000EDB28380C680013D076081464FF000089A
:10AB2000A84512D23846FFF773FD064648B163794F
:10AB30000133637108F10108C9F80000076081461C
:10AB4000EEE72046FFF7BFFF34462046BDE8F88316
:10AB500001210430FFF719BD10B50121044604306E
:10AB6000FFF71FFD10F0FF0F04D12046BDE8104095
:10AB7000FFF7A9BF10BD1FB503920022009203AAE0
:10AB8000FFF75CFF05B05DF804FB1FB503920122DF
:10AB9000009203AAFFF752FF05B05DF804FB83683B
:10ABA00000225A60C3E904229A60DA601A60704792
:10ABB0000B684A684360934208BF0023016008BFE6
:10ABC00043607047436843B10268916852680B4420
:10ABD0009342436004BF00234360704770B54468EC
:10ABE00006460D46206818B1B3682946984718B93B
:10ABF00023682B60256070BD2468F3E743681868FC
:10AC000008B102681A607047436818687047436863
:10AC1000186800B97047884203D102681A600120A1
:10AC2000704703460068F4E710B50D49A1F594722A
:10AC3000914201D800200FE08C1AE30F03EBE403EC
:10AC40005B1002EBC30452F83330834205D802D2C2
:10AC500004F10802ECE7606810BD2146E8E700BF98
:10AC6000340B030008B5FFF7DFFF024B002808BFD5
:10AC7000184608BDF8090300054B1B68082B01BFE7
:10AC8000044B1868B0FA80F0400918BF00207047E4
:10AC9000300100103401001008B54FF0804300224D
:10ACA000C3F80C21C3F81021C3F838254FF08052A7
:10ACB00003F54043D2F80414C3F82015D2F8081461
:10ACC000C3F82415D2F80C14C3F82815D2F81014C0
:10ACD000C3F82C15D2F81414C3F83015D2F8181490
:10ACE000C3F83415D2F81C14C3F84015D2F8201458
:10ACF000C3F84415D2F82414C3F84815D2F8281420
:10AD0000C3F84C15D2F82C14C3F85015D2F83014EF
:10AD1000C3F85415D2F83414C3F86015D2F83814B7
:10AD2000C3F86415D2F83C14C3F86815D2F840147F
:10AD3000C3F86C15D2F84424C3F87025FFF79CFFC4
:10AD400010B1384B384A1A60FFF796FF18B1374BED
:10AD5000FB22C3F81825FFF78FFF48B13449354B64
:10AD60000A681B6822F00F0203F00F0313430B6005
:10AD7000FFF782FF18B1304B4FF400721A604FF0AA
:10AD80008043D3F80024D20744BF6FF00102C3F818
:10AD900000242A4AD2F8883043F47003C2F888307D
:10ADA000BFF34F8FBFF36F8F4FF01023D3F8002204
:10ADB000002A03DBD3F80432002B2FDA204B0122C8
:10ADC000C3F80425D3F80024002AFBD04FF010224A
:10ADD0001221C2F80012D3F80024002AFBD04FF051
:10ADE00010231222C3F80422154B1A46D3F800147C
:10ADF0000029FBD00021C3F80415D2F80034002B41
:10AE0000FBD0BFF34F8F0D490E4BCA6802F4E062CE
:10AE10001343CB60BFF34F8F00BFFDE70A4B0B4AD4
:10AE20001A6008BD8C5600404881030000F00040C5
:10AE3000E40E0040580200104096024000ED00E091
:10AE400000E001400400FA05142B00200090D0031C
:10AE5000074B1B5C1F2B8ABF064A4FF0A04203F032
:10AE60001F03D2F80405D840C04300F0010070472A
:10AE7000340B030000030050074B1B5C1F2B86BFE5
:10AE8000064903F01F034FF0A041012202FA03F329
:10AE9000C1F80C35704700BF340B030000030050AD
:10AEA000074B1B5C1F2B86BF064903F01F034FF0A7
:10AEB000A041012202FA03F3C1F80835704700BF30
:10AEC000340B03000003005008B50020FFF7E8FF33
:10AED0000120FFF7E5FF0220FFF7E2FFBDE8084091
:10AEE0000320FFF7DDBF08B50020FFF7C5FF0120F5
:10AEF000FFF7C2FF0220FFF7BFFFBDE808400320B5
:10AF0000FFF7BABF0A4B185C1F288ABF094B4FF0E6
:10AF1000A04300F01F00D3F804250121814021EA5D
:10AF200002000A40C3F80805C3F80C25704700BFAB
:10AF3000340B030000030050263818BF4FF0FF30D9
:10AF40007047262070470000C10710B5044642D55F
:10AF50004FF08043D3F84036DA072ED54FF0102358
:10AF6000D3F8043303F00703072B26D11D4B01222E
:10AF7000C3F80425D3F80024002AFBD04FF0102199
:10AF8000D1F8042322F0070242F00402C1F804239E
:10AF90000022C3F80425134AD2F80034002BFBD05A
:10AFA000BFF34F8F1049114BCA6802F4E06213439C
:10AFB000CB60BFF34F8F00BFFDE74FF0A0420C49BD
:10AFC0000323C2F81837C2F82037C1F82437C2F873
:10AFD0003037FFF779FFA30742BF054B0C22C3F8B8
:10AFE000182710BD00E0014000ED00E00400FA0564
:10AFF0000003005042DF704743DF704738B5074C0D
:10B00000051E04F1080318BF1C4623682BB11A68FB
:10B0100022605B6828469847F7E738BD7C340020FB
:10B0200020B9054B01225A70FFF7E8BF012802D171
:10B03000014A9070F8E770477434002020B9034B40
:10B0400001225A70FFF7DABF704700BF7434002046
:10B0500038B50B4C237883B90A486360A360236139
:10B06000E36000F0F7F9054603F0F2FE08B900F0DE
:10B07000FDF901232370284638BD8525FBE700BF75
:10B080007434002021B0020037B50B4C00230DF1C1
:10B0900007008DF80730FEF783FFE368013BE360AC
:10B0A000E56815B900F0F8F9A5709DF80700FEF7FE
:10B0B0009BFF03B030BD00BF74340020012813B5DE
:10B0C00008D003281CD018B9104B0122C3F88020E7
:10B0D00002B010BD0E4C00230DF107008DF80730B3
:10B0E000FEF75EFF23780BB9FFF7B2FFE3689DF828
:10B0F00007000133E3600123A370FEF775FFE7E764
:10B1000000F0B4F9FFF7C0FFE2E700BF00E100E0A4
:10B110007434002037B51B4C6378054603F0FF02FA
:10B120009BB110B143680020984700230DF1070040
:10B130008DF80730FEF734FF63689DF80700013390
:10B140006360FEF751FF03B030BD0DF107008DF8CD
:10B150000720FEF725FF25B1A268134653B92A60E0
:10B16000A5606368002BE7D103F072FE30B1FFF7F2
:10B1700041FFE1E79D42F4D01B68EFE700F098F94A
:10B18000DAE700BF7434002073B50F4C00230DF1D3
:10B1900007008DF80730FEF703FF6368013B63602B
:10B1A000666836B903F054FE054640B1FFF724FF48
:10B1B00066709DF80700FEF717FF02B070BD00F043
:10B1C00089F96570F5E700BF7434002036DF7047F9
:10B1D0004DDF70474EDF70474FDF704750DF7047DD
:10B1E00010B50446FFF7F6FF40B92046FFF7F0FF21
:10B1F00020B92046BDE81040FFF7EEBF10BD012882
:10B2000010B5044602D100F0E5FB804700F0E8FBF2
:10B21000034668B10A2C07D00B2C07D0092C07D1A4
:10B220000220BDE8104018470020FAE70120F8E7A7
:10B2300010BD0000012813B5044603D003281AD01E
:10B2400002B010BD00230DF107008DF80730FEF7A6
:10B25000A7FE00F0BFFB10B12046FFF7B7FF9DF837
:10B260000700FEF7C1FE00F0BBFB0028E8D001207C
:10B27000FFF7B6FFE4E70C4BC02283F8002301225E
:10B280001A6000F0A7FB20B14FF080430422C3F8FE
:10B29000042300F0A5FB0028D2D04FF080434FF4E8
:10B2A0006072C3F80423CBE700E100E038B50A4D33
:10B2B0002B78044663B903F0CBFD58B90748002C3E
:10B2C00018BF204600F092FB08B901232B7038BD4F
:10B2D0008520FCE70820FAE7883400203E0B0300B5
:10B2E00013B500240DF107008DF80740FEF758FE56
:10B2F00003F0AEFD50B12046FFF772FF9DF8070046
:10B30000FEF772FE00F0A8FB02B010BD00F09DFB3E
:10B31000F4E71FB50190FFF7E3FF019800F088FB09
:10B3200003F096FD0446A0B10120FFF759FF044643
:10B3300060B903A8FFF752FF044638B9039BDB0747
:10B3400004D500F04DFB034620469847204604B044
:10B3500010BD00F073FBF9E71FB503788DF80030DE
:10B360004368019383688DF80830C368054A0393E6
:10B37000054B684653F8213052F82110984705B024
:10B380005DF804FB8C340020943400201FB5037852
:10B390008DF800304368019383688DF80830C368E6
:10B3A000054A0393054B684653F8213052F82110A3
:10B3B000984705B05DF804FB8C34002094340020DD
:10B3C000F0B5194B90F800C0DFF86CE043F82C2082
:10B3D000164B16460A6943F82C204B7F0EF80C30AA
:10B3E0000C4607460FCC89B06D460FC594E80F0098
:10B3F00085E80F001EF80C30CDF810C04BB1002EC0
:10B400000B4A694608BF3246381D00F0DFFE09B01E
:10B41000F0BD002E074A694608BF324607F10C000E
:10B4200000F0B0FCF3E700BF943400208C3400201F
:10B4300059B302008DB302009C34002010B50346BE
:10B4400053E8000F00EA010243E8002494F0000FE3
:10B45000F6D110BD044A137923B9012110609180FF
:10B460001846704785207047A0340020084B1A68A2
:10B47000D2075FBFC02283F8002301221A604FF079
:10B4800080420123C2F81835024A1370704700BF8A
:10B4900000E100E0A8340020044B01221A604FF0C4
:10B4A0008042D2F81834DB03FBD470470C00004014
:10B4B000074B00221A6082B01B680193019B4FF07A
:10B4C00080430122C3F804231A6002B0704700BF12
:10B4D00000010040074B01221A604FF08042D2F871
:10B4E0000C3403F00113B3F1011FF8D0024B00221A
:10B4F0005A71704704000040A0340020154B07B576
:10B500001A687AB100221A601B680093009B4FF002
:10B5100080430122C3F808230F4B587910B95A71A0
:10B520001B6898470D4B1A6882B100221A601B688D
:10B530000193019B4FF080430222C3F80823064B7E
:10B540001B68012003B05DF804EB184703B05DF8F9
:10B5500004FB00BF00010040A034002004010040B3
:10B5600000F1804000F5C040002382B00360036812
:10B570000193019B02B0704703681F2B83BF03F048
:10B580001F03036001484FF0A040704700030050C4
:10B5900007B5019001A8FFF7EFFF019B00EB8300C7
:10B5A000D0F8003723F44033C0F80037D0F8003724
:10B5B00043EA0141C0F8001703B05DF804FB000046
:10B5C000054B4FF0FF32072843F8202084BFC018F6
:10B5D00080F85820704700BFAC34002010B5174CDD
:10B5E00094F86A3043BB04F130033021FF22013963
:10B5F00011F0FF0103F8012BF9D1C8B2FFF7E0FF0A
:10B6000001310C29F9D1062200210D4803F03BFF3E
:10B610000C4BC02283F8062340221A604FF4BE7000
:10B62000FFF79EFF084B4FF00042C3F804230123AD
:10B6300084F86A30002010BD0820FCE7AC340020FC
:10B640001035002000E100E000600040034B93F85B
:10B650006A00003818BF0120704700BFAC340020DA
:10B66000F7B53B4E3318054693F93030002B6CDAB2
:10B670008B78C3F34003002B0BBF082400240C205D
:10B680000820844202D1042003B0F0BD56F8247093
:10B69000013743D1701946F8242080F8304013B99F
:10B6A000331983F858508B785A0717D4D80737D5F1
:10B6B00001A80195FFF760FF019B00EB8300D0F824
:10B6C000003723F00203C0F800372248EA0805F0EB
:10B6D00007070123BB40875C3B4383548B780A7880
:10B6E00013F0020328D0A40004F1804404F5C04400
:10B6F0002D02D4F8103523F44F3323F44073C4F8EB
:10B7000010351204D4F8103505F47C5502F440329B
:10B7100015431D43C4F810550020B5E70134B0E7C8
:10B7200001A84A780195FFF727FF019B03F5E07315
:10B73000920040F82320C8E7083C344494F8605055
:10B7400045EA821284F86020E6E708209CE700BF03
:10B75000AC3400201035002073B5224C2618054665
:10B7600096F93020072A1ADD224492F858309B09B6
:10B77000032B0FD1019001A8FFF7FEFE019BD0F82B
:10B780001015D94001F0010102312846FFF700FFF2
:10B7900002B070BD012B0CBF02210321F5E7D3B22B
:10B7A000072BF5D8930003F1804303F5C043D3F88A
:10B7B000100540F00100C3F8100502F140008000C0
:10B7C00080B2FFF7CDFE0029E2D096F9303054F870
:10B7D0002330002BDCD0012303FA02F2024BC3F822
:10B7E0000423D5E7AC3400200060004007B5019089
:10B7F00001A8FFF7C1FE019BD0F81005D84000F06A
:10B80000010003B05DF804FB2DE9F04F002489B07E
:10B81000CDE90244624D4FF48072012102F1804370
:10B8200003F5C04390B21B68012B06D1D5F8043351
:10B830000B4202D0FFF794FE0C430432B2F5907F26
:10B840004FEA4101EAD1574B1B68012B0ED14FF44F
:10B85000BE70FFF785FE4FF0A04344F00044D3F8DC
:10B8600010350293504BD3F81035039314F0FF0FAB
:10B870001AD04E4F00250126344210D0AB0003F100
:10B88000804303F5C043D3F81005D3F8101557F8DB
:10B89000253023B1C1F30141C0F30520984701359C
:10B8A000082D4FEA4606E7D1002C75DA04AF0023D5
:10B8B00004937B604FF0FF33CDE90633DFF8EC9063
:10B8C000DFF8EC800026354618F9012B531C4AD0CE
:10B8D000C2F3C2000123D4B202F03F0B02F0070210
:10B8E00003FA02F208AB191811F8083C13423AD0D7
:10B8F00009EB0B03A40993F9303059F823A0BAF1EE
:10B90000000F08D1032C2ED117F800C04CEA020C0E
:10B9100007F800C001E0032CF6D001A8CDF804B070
:10B92000FFF72AFE019B11F8181C03F5E07C114279
:10B9300050F82C00C0F3014005D0022813D1032C8D
:10B940000BD1214604E003280DD1032C05D102219F
:10B950005846FFF71DFE0135EDB2BAF1000F02D0D7
:10B9600021465846D0470136042EADD1A5B14FF03F
:10B97000A0430299D3F8102503F540739142D3F800
:10B98000103502D10399994206D002920393049A8A
:10B99000059B0692079393E709B0BDE8F08F00BFBF
:10B9A000006000407C61004000030050AC34002087
:10B9B0000C35002000F1804382B01A68002A14BFC1
:10B9C0000120002004D000221A601B680193019B13
:10B9D00002B07047014B1868704700BF183500204F
:10B9E000014B1868704700BF203500200E4B1A78B5
:10B9F000C2B902784FF08041C2F34002C1F88025FD
:10BA0000027802F00102C1F87825084A1168C907D6
:10BA10005FBFC02182F800130121116001221A705A
:10BA200000207047852070472435002000E100E0A9
:10BA3000014B02681A607047203500204FF08043A8
:10BA40004FF46072C3F8042370474FF080434FF403
:10BA50006072C3F808237047014B00221A607047D8
:10BA6000203500204FF0804310B5D3F8044362071F
:10BA700007D54FF48470FFF79DFF10B11E4B1B6874
:10BA80009847A30608D54FF48A70FFF793FF18B1C3
:10BA90001A4B00201B689847600608D54FF48C703D
:10BAA000FFF788FF18B1154B01201B689847210646
:10BAB00008D54FF48E70FFF77DFF18B1104B0020B2
:10BAC0001B689847E20508D54FF49070FFF772FFA6
:10BAD00018B10B4B01201B689847A3050AD54FF4FA
:10BAE0009270FFF767FF28B1054BBDE810401B6857
:10BAF0000220184710BD00BF183500201C3500205B
:10BB00002035002008B5FFF7ADFFBDE80840FFF77E
:10BB1000F5BC0000014B1B68184700BF283500200A
:10BB20000E4B984237B50C4602D0002003B030BD12
:10BB300000230DF107008DF80730FEF731FA084BAE
:10BB40001D7915B901221C601A719DF80700FEF7D6
:10BB50004BFA002DE9D01120E8E700BF002000409B
:10BB600028350020034B984201BF034B00221A6086
:10BB70001A7170470020004028350020044A91685F
:10BB80009368CB1A23F07F438342F9D3704700BFF9
:10BB900010E000E0034B044A1B68B3FBF2F3584388
:10BBA000FFF7ECBF142B002040420F00002343504E
:10BBB00082B043580193019B02B070470A4610B50A
:10BBC0004FF48E71FFF7F2FF136A9168C95C136A34
:10BBD00001331362C0F81C1510BD8B690A4610B5FD
:10BBE0004FF4847123B9FFF7E1FFD0F8183510BD89
:10BBF000FFF7DCFF536AD168D0F81805C854536AC0
:10BC000001335362F3E700001FB501238DF80030C4
:10BC1000044BCDE90110D3E900126846904705B006
:10BC20005DF804FB3035002030B54C48D0F80433C3
:10BC300013F4007F85B005464DD0D0F82431002B99
:10BC400049D04FF49271FFF7B1FF4FF40173C0F880
:10BC50000833434B93F829200AB9012242603F4937
:10BC600002228DF80020D1F88024C1F880240392AC
:10BC70009A690292DA6801920022C3E906226846B4
:10BC8000D3E9001290473548D0F81C315BB13449F4
:10BC90004A690B6A9A420A464AD991F82830002B21
:10BCA00046D1FFF78BFF2D48D0F844318BB14FF4CC
:10BCB000A271FFF77BFF2A4B93F829200AB10122DA
:10BCC00002609A692AB10022586AD9689A61FFF71E
:10BCD0009BFF05B030BDD5F804335B07D3D5D5F84D
:10BCE0000831002BCFD01E4C1C482146FFF775FFB2
:10BCF000636AA2699A422346C5D1E269E1684AB102
:10BD00002369E3600023606AA261E3616362FFF775
:10BD10007BFFB8E794F829200AB901226A600F4A2C
:10BD20004FF40170C2F808030022586A9A61EEE7E6
:10BD30000A484FF48E71FFF739FF5369002BB2D0D8
:10BD400051690291002391688DF80030019153618F
:10BD50006846D2E900139847A5E700BF00200040DD
:10BD6000303500201F2886BF00F01F00044B4FF025
:10BD7000A04300F5E070022243F82020704700BF86
:10BD8000000300502DE9F843634B057991462C22BE
:10BD900002FB0532064692F82A200C469846002AF5
:10BDA00040F0B6805D490068FFF7BAFE07460028FC
:10BDB00040F0B08021684A1C10D01F2987BF584A24
:10BDC00001F01F030B464FF0A0420120984003F5FD
:10BDD000E073C2F80805032042F823006068431CA2
:10BDE0000DD01F288BBF00F01F0303464C4A4FF0B5
:10BDF000A04203F5E0734FF0000C42F823C0336813
:10BE0000A269C3F8242594F814C0627DBCF1010F27
:10BE10004CEA0202C3F86C25C3F81405C3F80C15EC
:10BE20002BD1A168481C0DD01F298BBF01F01F0228
:10BE30000A463B484FF0A04002F5E0724FF0000C7C
:10BE400040F822C0E068421C13D01F2887BF344A44
:10BE500000F01F0C84464FF0A0424FF0010E0EFA86
:10BE60000CFE0CF5E07CC2F808E54FF0030E42F83A
:10BE70002CE0C3F80805C3F810152C236B4308EB1E
:10BE80000302C2F80490226948F80320B9F1000FB8
:10BE90002BD03068247F4FF48E71FFF787FE306817
:10BEA0004FF4A271FFF782FE32681E4BC2F80433D2
:10BEB000110B42F30732002AA8BF02F160404FEA9B
:10BEC0004413BABF184801F00F0400F56140DBB21B
:10BED000B4BF035580F8003301F01F01012303FABA
:10BEE00001F15209114B43F8221033680422C3F8C0
:10BEF00000252C2303FB05830022C3E9062283F8D7
:10BF000029205A61012283F82A203846BDE8F883A7
:10BF10000827FAE71127F8E73035002029BC02008E
:10BF2000000300508000020014ED00E000E100E09A
:10BF30002DE9F04103680479244D0022C3F800255F
:10BF40002C2202FB0452014652686AB1204AC3F80F
:10BF5000082343F30732C3F3043652090120B040EB
:10BF600020321C4E46F82200D3F80C05D3F8148575
:10BF7000D3F80865D3F810754FF0FF329042C3F83C
:10BF80001425C3F80C25C3F80825C3F8102501D0E3
:10BF9000FFF7E8FEB8F1FF3F02D04046FFF7E2FEB0
:10BFA0007A1C02D03846FFF7DDFE731C02D0304603
:10BFB000FFF7D8FE0868FFF7D5FD2C2303FB0454D8
:10BFC000002384F82A306360BDE8F081303500201A
:10BFD0008402020000E100E02DE9F047204F90F8D4
:10BFE00004904FF02C0808FB097405466669002E82
:10BFF00034D162610068A16026624FF48E7184F8CA
:10C000002860FFF7D3FD2868012383602146FFF7EE
:10C01000D5FD6368A0468BB92868D4F814A0236ABC
:10C020009A4511D82A68D2F81C31002BFBD0012385
:10C03000D3602C2303FB097300225A613046BDE80C
:10C04000F08794F828303BB9D0F81C31002BF8D099
:10C050004146FFF7B3FDE2E70F26EAE71126EDE7D9
:10C06000303500200023435082B043580193019B98
:10C0700002B070471FB501238DF80030044BCDE9A5
:10C080000110D3E900126846904705B05DF804FB43
:10C090005C3500201F2886BF00F01F00044B4FF0C6
:10C0A000A04300F5E070022243F82020704700BF53
:10C0B000000300507FB5434AD2F82461002E60D0BF
:10C0C00010464FF49271FFF7CDFF02238DF8003038
:10C0D000D2F88034C2F880340393D2F83C3502930E
:10C0E000394BDA6801920022C3E906226846D3E997
:10C0F000001290473348D0F8443173B14FF4A27125
:10C10000FFF7B0FF304B9A693AB10022C3E906222B
:10C11000D968D0F83C05FFF7ADFF2A48D0F82031A8
:10C12000ABB14FF49071FFF79DFF0123C360264B25
:10C130005A6962B1D0F84C150291002299688DF8C5
:10C14000002001915A616846D3E9001290471D48CA
:10C15000D0F858319BB14FF4AC71FFF783FF1A4B05
:10C160005A6962B1D0F84C150291002299688DF895
:10C17000002001915A616846D3E90012904704B04B
:10C1800070BDD2F81031002BB4D04FF48871104636
:10C19000FFF768FF0C4BD2F83C0599698842A9D19A
:10C1A000DC69D96864B1D2F8005225F02005C2F8E4
:10C1B00000521A699C61DA60DE61FFF75BFF99E764
:10C1C0009C61FAE7002000405C3500202DE9F8432F
:10C1D0006A4B06799146242202FB0632044692F805
:10C1E00020200D469846002A40F0C380644900682C
:10C1F000FFF796FC0746002840F0BD802868421CE7
:10C2000010D01F2887BF5F4A00F01F0303464FF07E
:10C21000A0420121994003F5E073C2F808150321FB
:10C2200042F8231069684B1C0DD01F298BBF01F009
:10C230001F030B46534A4FF0A04203F5E0734FF043
:10C24000000C42F823C02368AA69C3F8242595F896
:10C2500014C06A7DBCF1010F4CEA0202C3F86C25E0
:10C26000C3F80C05C3F814152BD1A968481C0DD0D0
:10C270001F298BBF01F01F020A4642484FF0A04021
:10C2800002F5E0724FF0000C40F822C0E868421C52
:10C2900013D01F2887BF3B4A00F01F0C84464FF085
:10C2A000A0424FF0010E0EFA0CFE0CF5E07CC2F835
:10C2B00008E54FF0030E42F82CE0C3F80805C3F878
:10C2C00010152423734308EB0302C2F804902A6973
:10C2D00048F80320B9F1000F3AD020682A7F4FF4C4
:10C2E0008871FFF7BFFE20684FF49071FFF7BAFE28
:10C2F00020684FF49271FFF7B5FE20684FF4A271E9
:10C30000FFF7B0FE20684FF4AC71FFF7ABFE236877
:10C310001D49C3F80413190B43F30733002BAEBFB9
:10C3200003F1604001F00F0518484FEA4212A8BF20
:10C3300000F56140D2B2B4BF425580F8002301F04D
:10C340001F01012202FA01F15B09114A42F8231090
:10C3500023680822C3F80025242303FB0683002258
:10C36000C3E906225A61012283F820203846BDE83D
:10C37000F8830827FAE71127F8E700BF5C350020AB
:10C38000B5C00200000300501003420014ED00E0AD
:10C3900000E100E02DE9F0412E4E0579242303FB56
:10C3A000056304465B6800686BB12B4BC0F808332B
:10C3B00040F30733C0F304315B0901228A40203384
:10C3C000264941F82320D0F80032012223F020032F
:10C3D000C0F800324FF4AC714260FFF743FE2368AF
:10C3E000DA60D3F85821002AFBD00022C3F80025D8
:10C3F000D3F80C05D3F81485D3F80815D3F81075C5
:10C400004FF0FF329042C3F80C25C3F81425C3F84F
:10C410000825C3F8102501D0FFF73CFEB8F1FF3F17
:10C4200002D04046FFF736FE7A1C02D03846FFF7AE
:10C4300031FE4B1C02D00846FFF72CFE2068FFF7A8
:10C4400091FB242303FB0565002385F820306B60F6
:10C45000BDE8F0815C3500201003420000E100E0FF
:10C4600001F06043B3F1005F2DE9F041064638D199
:10C470001E4B0779242505FB073598466C69002C6F
:10C4800031D16A610068A9604FF49071FFF7EAFD4D
:10C490004FF4AC713068FFF7E5FD33686A69A9684D
:10C4A000C3F84415C3F8482501229A606A68AAB9FE
:10C4B000D3F82021D3F858411AB9002CF8D00F2412
:10C4C00007E0002CFBD10122DA60D3F85821002AC2
:10C4D000FBD0242303FB078700237B612046BDE8B4
:10C4E000F0811024FAE71124F8E700BF5C35002042
:10C4F00000F1804000F51C3001230360BFF36F8F13
:10C50000BFF34F8F70470000064B1B68082B01BF1D
:10C51000054B1868B0FA80F0400918BF002000F001
:10C5200001007047300100103401001030B54C6834
:10C530000D689C4229BFC0E900530021E41AED18A0
:10C5400032BFC0E900514C600D60934203D1201E00
:10C5500018BF012030BD0020FCE74B6810B59A429F
:10C560000C6828BF1A46C0E90042981A0B68486058
:10C570001A4400380A6018BF012010BD30B54C685D
:10C580000B68A24228BF2246002A14BF1D46002580
:10C59000C0E90052A4EB02041A444C600A6014BFC4
:10C5A0000120002030BD0000054B10F0800FA3F1EA
:10C5B000900208BF134600F00F0003EB0010704715
:10C5C000F436002010F0800F14BF0023102300F079
:10C5D0000F00184470470000054B1B68082B02BF72
:10C5E000044B00221A60044B00221A70704700BFEF
:10C5F000300100101C7C02408135002007B5094A3B
:10C6000000231370084AADF8053013708DF8073019
:10C6100001238DF80430054B01A81B68984703B02F
:10C620005DF804FB80350020883700208437002027
:10C6300070470000F8B54B680B4F93420C4628BF7B
:10C64000134606461A46096838461D4602F0F2FEB1
:10C6500060682268401BC6E900752A4460600038A3
:10C66000226018BF0120F8BD90370020F8B54B6854
:10C67000934228BF134606460D461C468BB10A4F0F
:10C6800009681A46384602F0D5FE37606B68746058
:10C690001B1B6B602B68201E23442B6018BF0120DE
:10C6A000F8BD0360F2E700BF9037002007B5002314
:10C6B0008DF804300B4BD3F82025ADF80620D3F8C5
:10C6C000C034094A002B13680CBF4FF480714FF03F
:10C6D00001210B431360054B01A81B68984703B069
:10C6E0005DF804FB007002406036002084370020B3
:10C6F00008B50146FFF770FFFFF756FF837B032B5A
:10C700000BD10846FFF75EFF012303FA00F0C14397
:10C71000BDE808400348FEF791BE0368002BF0D047
:10C7200008BD00BFF03500208720FFF7E1BF86205D
:10C73000FFF7DEBF8520FFF7DBBF8420FFF7D8BF00
:10C740008320FFF7D5BF8220FFF7D2BF8120FFF7FC
:10C75000CFBF000008B5FFF73FFF084B93F89E20BE
:10C76000032A06D1BDE8084005486FF00101FEF735
:10C7700065BED3F89030002BF4D008BD643600209D
:10C78000F0350020FFF7E6BF07B5FFF725FF0D4B9B
:10C7900093F88E20032A11D0D3F8803073B90A4859
:10C7A0006FF08071FEF74AFE06238DF804300823EF
:10C7B000ADF80630054B01A81B68984703B05DF83B
:10C7C00004FB00BF64360020F035002084370020D1
:10C7D00007B5FFF701FF104B93F81E21032A07D17D
:10C7E0000E486FF48071FEF729FE03B05DF804FB7C
:10C7F000D3F81031002BF8D16FF480710748FEF7A1
:10C800001DFE06238DF804308823ADF80630044B56
:10C8100001A81B689847E8E764360020F03500203F
:10C8200084370020244B13B5D3F80044C3F80044E8
:10C83000BFF36F8FBFF34F8FBFF36F8FBFF34F8F78
:10C84000E1050ED51D4B01221A700023ADF805300D
:10C850008DF8073002238DF80430194B01A81B68AE
:10C860009847A2050DD5154A00231370ADF8053081
:10C870008DF8073003238DF80430114B01A81B6895
:10C880009847630516D50D4B1A789AB100221A7095
:10C89000094B0121C3F808155820FFF729FE04238E
:10C8A0008DF80430064BADF805201B688DF8072085
:10C8B00001A8984702B010BD0070024080350020EA
:10C8C00084370020064B1868082802D104331B68FF
:10C8D00023B9A0F10D035842584170470120704719
:10C8E00030010010012273B502FA01F51E491F4EF6
:10C8F0000B6810F0800F43EA050304460B6027D055
:10C9000000F00F021A4B33F8123003F1804303F5A5
:10C910001C331A684AB100221A60BFF36F8FBFF34D
:10C920004F8F802811D0FFF7E3FE316829400AD1EC
:10C9300006238DF804308DF806408DF807100D4B56
:10C9400001A81B68984702B070BDFFF703FFECE732
:10C9500033681D42F7D106238DF804308DF80600A8
:10C960008DF80720EBE700BF60360020F03500208F
:10C970006A0B03008437002008B5054B1A7810466F
:10C98000FFF720FEBDE8084001461046FFF7AABFAA
:10C99000883700202DE9F04F7C4B87B01A78009340
:10C9A000002A40F08380DFF810A2DFF8E4B1784B72
:10C9B000DAF800101D68294078D011F0012578D0F0
:10C9C00095FAA5F5B5FA85F50F2D86BFA5F11004EA
:10C9D000E4B245F080042046FFF7E6FD4FFA84F804
:10C9E000B8F1000F8289064604F0080966DAD0E93A
:10C9F000003104A8984700B93060664B1B68082BCB
:10CA000002BF654B82221A60009B059A049801219F
:10CA10001970B368A940DBF80050134425EA0101FE
:10CA2000B8F1000FB360CBF800105C4B04F00F04BA
:10CA30007FDAB9F1000F74D0C3F8A006C3F8A426BA
:10CA4000FFF762FD25B2A300554A5649640000284D
:10CA500000F08180B8F1000FB2BF042528250A46F6
:10CA6000514E524F1D4414444FF00008C6F8008048
:10CA7000BFF36F8FBFF34F8F2846FFF739FD0220BA
:10CA8000FFF788F83368002BF0D01E20FFF782F8FC
:10CA90003B689B065DD50120FFF77CF8238803F1F6
:10CAA000804303F51C331B68002BDFD007B0BDE8C3
:10CAB000F08F91FAA1F1B1FA81F585E73749B9F123
:10CAC000000F27D0D1F8C03413F4803F18BF0023E3
:10CAD00071683768019304A8B847049A002A8AD07D
