:020000022000DC
:1070000000000420757302005D7302005F730200CC
:1070100061730200637302006573020000000000E8
:107020000000000000000000000000006773020084
:1070300069730200000000006B7302006D730200B0
:10704000F1A802006F730200A9AD02006F73020085
:107050006F7302006F730200FDAB02006F730200DA
:107060006F7302006F7302006F7302006F73020090
:107070006F7302006F7302006F7302006F73020080
:107080006F730200298702006F7302006F730200A2
:107090006F7302006F730200E1F302006F7302006E
:1070A0006F7302006F7302006F7302006F73020050
:1070B0006F7302006F730200000000000000000008
:1070C0006F7302006F7302006F7302006F73020030
:1070D0006F7302006F7302006F7302006F73020020
:1070E0006F7302006F7302006F73020000000000F4
:1070F000000000006F730200000000006F730200C8
:10710000000000000000000000000000000000007F
:10711000000000000000000000000000000000006F
:10712000000000000000000000000000000000005F
:10713000000000000000000000000000000000004F
:10714000000000000000000000000000000000003F
:10715000000000000000000000000000000000002F
:10716000000000000000000000000000000000001F
:10717000000000000000000000000000000000000F
:1071800000000000000000000000000000000000FF
:1071900000000000000000000000000000000000EF
:1071A00000000000000000000000000000000000DF
:1071B00000000000000000000000000000000000CF
:1071C00000000000000000000000000000000000BF
:1071D00000000000000000000000000000000000AF
:1071E000000000000000000000000000000000009F
:1071F000000000000000000000000000000000008F
:10720000354936480A1A02D0072291438D4634493F
:1072100034480A1A06D00722914381F309880222D2
:1072200082F3148830483149314A00F044F831483B
:107230003149324A00F03FF831483249324A00F0D1
:107240003AF832483249334A00F035F83248334987
:10725000334A00F030F833483349344A00F02BF811
:1072600033483449344A00F026F83448344900227F
:1072700000F02CF833483449002200F027F8334856
:107280003349091A082902DB002202604160314AB1
:1072900090471F481F49884205D00268043003B454
:1072A000904703BCF7E700208646EC46002000210B
:1072B000294A9047FEE7884207D0521A05D0037842
:1072C00001300B700131013AF9D17047884202D088
:1072D00002700130FAE770470000042000E003204C
:1072E000000004200000042090100300142300205C
:1072F00064230020D0730200D0730200ACFE0200B1
:107300009010030014230020142300200400030025
:107310000400030004000300040003000400030051
:107320000400030004000300040003008E100300A7
:10733000E010030064230020642300206423002065
:1073400002350020043500200435002004350020DB
:10735000045500209D730200ADB90200FEE7FEE770
:10736000FEE7FEE7FEE7FEE7FEE7FEE7FEE7FEE7F5
:1073700000F002B8FFF7FCBF0F484FF00701884349
:1073800085460E4880470E48016841F4700101604F
:10739000BFF34F8FBFF36F8FFFF732BF09480A4922
:1073A0000A4A884207D0521A05D0037801300B7080
:1073B0000131013AF9D17047000004209DA4020078
:1073C00088ED00E0F0FF02000023002014230020DD
:1073D000F0B595B01D46164608460C4601F0C6FDB0
:1073E0001A9B0D93CDE9086500252B46082205A9B7
:1073F00020460A958DF82C500C9501F0D4FD079B82
:107400000293069B03939DF814308DF8115003F0FE
:107410000302012A1DD1BDF81420059DC3F3C20348
:10742000C2F383168DF81030B20008230EA920464F
:1074300001F0B9FDC5F3952508AB0093324602ABC8
:107440000EA9284600F0E4FB204601F093FD15B09C
:10745000F0BD022AF8D1BDF81650C3F3C203C5F33C
:1074600089158DF810300827082D2E4628BF0826CC
:107470003B4632460EA9204601F095FDAD1B08ABF8
:1074800002AA31460EA8374400F026FC002DEBD1AD
:10749000DAE70000014B01221A707047A523002093
:1074A0007047000070B5124D06460FCD88B06C468F
:1074B0000FC495E80F00002E84E80F004FF0FF3353
:1074C0004FF00602CDE90023CDE90233094A0A480C
:1074D0004FF0EB7308BF00226946069303F0CAF928
:1074E00008B100F0C1FD054B1E7008B070BD00BFB3
:1074F000040003009574020014230020642300207C
:1075000007B5044B0093044A4023FFF761FF03B023
:107510005DF804FB1D7502006523002038B50D4B96
:107520000D4D002018700D4804782D5DD2B21C4618
:1075300065B1043004F0C6F808B100F095FD084BC1
:107540001A7812B12378002BFBD038BD0C3003F031
:1075500075FEF1E7A5230020242C00201423002031
:107560006423002008B50848084A0378D35C3BB17F
:10757000043004F041F8BDE808400020FFF792BF56
:107580000C3003F007FEF6E714230020242C002023
:107590000120FFF787BF000008B5FFF7F9FF044897
:1075A000042100F09DFA034B01225A7108BD00BF6F
:1075B000E0FF020028230020037813F0040216D015
:1075C00003F00303012B03D0022B09D001207047E5
:1075D0000A6800880232C0F3831002440A60F5E7AB
:1075E0000B684288023303EB92130B60EEE7104600
:1075F000704700002DE9F04F87B000230446861C39
:107600000DF107000F4615468DF8073000F01CFFFE
:10761000454801683960D0E90132134401335B1AEF
:10762000824600F21C4700F5836900F21448B34219
:107630001CD30020002D73D004F00F039B0143F0F6
:10764000050363F30F00DAF80020DAF8083013407E
:10765000033316444AF823009DF80700CAF8006077
:1076600000F016FF012007B0BDE8F08F0121384679
:1076700001F0ACF9484601F0C4F9404601F0C1F907
:10768000DAF80400DAF808B0029000EA0B000330E0
:107690000AEB800002A9FFF78FFF029B50BB0BEAA9
:1076A00003020AEB820203F1020CD2680392013357
:1076B00003EA0B0B0AEB8B0B02F00302012ADBF847
:1076C0000C10CDF808C023D0022A16D083464046BD
:1076D00001F09AF910B1029BCAF8043059463846B5
:1076E00001F074F9DAE901231344DAF800200133D8
:1076F0009B1A9CE70BEA0300C9E7BDF80E30C3F301
:10770000891303334FEA114B0CEB93030293DEE72B
:10771000BDF80C30C3F383134FEA114B6344F5E714
:10772000A40544F006008EE7782400200B4B0C489B
:10773000FF2210B59A600022C3F81824C3E9002282
:10774000C3F8142483F8202401F0C9FB044610B9BF
:10775000044801F071FC204610BD00BF78240020D1
:1077600014FF02005800030030B50A4C71B10A4AF8
:107770000A49121BD20800239A4201D1002030BDD1
:1077800031F82350854202D00133F5E7034654F81F
:107790003300F4E728FF0200E0FF0200142300207A
:1077A000094B013903EBC000032909D8DFE801F0D8
:1077B0000A02040604207047007970474079704738
:1077C000002070470220704728FF0200034BD3E9D6
:1077D0000030C31A58425841704700BF7824002037
:1077E0002DE9F04387B0FFF7F1FF0646002840F08F
:1077F000F9807D4DC5F81804BFF34F8F6B68AC68F6
:1078000002932340033305EB830002A9FFF7D4FE64
:10781000029B18B1D5F81824002A5FD004EA0302AD
:10782000991C013305EB8202234005EB8303D268E8
:10783000DB68049302F00303022B0392029160D1F0
:10784000BDF80E306948C3F38917502FB84628BFDA
:107850004FF0500868F38F1308F10801ADF80E30AF
:1078600001F055FB0646002800F0A78001F07EFBE2
:107870000023082203A9304601F08BFB029924EA79
:1078800001020132B8EB820F4FEA820332D95FFA6C
:1078900088F85BB32140DCB2A8EB040803315FFA3F
:1078A00088F9A046524C05EB810108234246304638
:1078B00001F06FFB34B108F108034A462146304617
:1078C00001F067FB029B033703EB97070297D5F89C
:1078D0001834002B49D1D5F8104459E02A689A424F
:1078E0008FD86A60304607B0BDE8F08340491C4637
:1078F0009946DAE70C40E11C0823424605EB81017A
:10790000DDE7012B59D1BDF80C303848C3F38311A2
:10791000062928BF062161F3891302318900ADF8D9
:107920000C3001F0F4FA0646002846D001F01EFBA8
:107930000023082203A9304601F02BFB0027BDF8E5
:107940000C20C2F38312BB00974203F10803BED29E
:1079500002994A1C21400331029205EB8101042265
:10796000304601F016FB0137E9E7304601F002FB33
:10797000FFF72CFF80F00100C6B2B3E7E3685B7944
:1079800023B1236831461B6820469847E3681C688A
:10799000002CF3D1304601F0EDFA0DF107008DF81F
:1079A000074000F051FDD5F818340BB9029B6B600D
:1079B0009DF8070000F06CFDDAE7D5F8104454B9E3
:1079C0000C4B0D480D49C01AC008000440F00200DD
:1079D00000F062F8CCE7236820469B689847E3688C
:1079E0001C68ECE700267DE77824002014FF0200E5
:1079F0008424002028FF020050FF02004100030001
:107A00002DE9F74F224D04460F46924601A9012267
:107A10001846D5F808909B46FFF7ECFD20B3019E71
:107A20004FF00008B21CD84508EB020126D11948D6
:107A3000002100F084FF80F31000000440EA1440AD
:107A4000E400731C04F0380403EA090306EA09069B
:107A500044F0010405EB8303033644EA881444EA46
:107A60008724D86045F8264095F820341BB1FFF7ED
:107A7000B7FE0028FBD103B0BDE8F08F09EA010191
:107A800005EB81015AF82830CB6008F10108CAE7FC
:107A9000782400209428002000231A46FFF7B0BF66
:107AA00007B50123019201AAFFF7AAFF03B05DF811
:107AB00004FB07B5CDE9002302236A46FFF7A0FFC8
:107AC00003B05DF804FB1FB5CDE90123069B0393CA
:107AD00001AA0323FFF794FF05B05DF804FB000043
:107AE00030B50F49D1F8102403460020144634B9AC
:107AF000DC6820714AB9C1F81034226030BDE468F6
:107B00002579854206D02468F1E7D26811682160A2
:107B10001360F3E701300A28E8D14FF0FF30EDE7BA
:107B200078240020094A38B50123D2F8104482F89D
:107B300020341D4604B938BDE3685D7123682046D2
:107B40005B689847E3681C68F4E700BF782400206E
:107B500007B503460846197A052911D05B7A2BB17F
:107B6000094A0A49019000F0B2FF019808490190C2
:107B700000F0ADFF019803B05DF804EB00F09CBF8E
:107B8000002AF8D0F2E700BF640003006900030098
:107B90008900030030B5C38885B004460D4633B173
:107BA000144A00921449154A284600F090FF217AA1
:107BB00005291DD0637A4BB1A088FFF7F1FD104B6A
:107BC000104953F82020284600F081FF227A0E4BFE
:107BD000A08853F8222003920021FFF7C5FD039AE5
:107BE0000A490346284605B0BDE8304000F06FBFA3
:107BF00005B030BD64000300740003006C00030096
:107C0000F000030069000300140103008C0003006E
:107C10002DE9F04385B01F460C9D002395F80C908C
:107C20002B7306460C46904629463846FFF7B2FFAE
:107C3000B8F1060F09D8DFE808F00412181F28333E
:107C400040003146284600F042FF002229463846CF
:107C5000FFF77EFF85F80C9005B0BDE8F083226841
:107C60003146284600F033FFEFE7D4E900233146E0
:107C7000284600F02CFFE8E7A36800933146D4E9DA
:107C80000023284600F023FFDFE7E3680193A368A1
:107C900000933146D4E90023284600F018FFD4E7CA
:107CA00023690293E3680193A36800933146D4E902
:107CB0000023284600F00BFFC7E76369039323699D
:107CC0000293E3680193A36800933146D4E900234B
:107CD000284600F0FCFEB8E708292DE9F74F80465A
:107CE0000E4617461C463CD8002593F80C901D7391
:107CF00019461046FFF74EFFDFF888A0DFF888B07E
:107D0000AE4231D918F805205946204600F0DFFE72
:107D10000135082DF4D11949194DDFF870A020461E
:107D200000F0D5FE4FF0000B5E4522D918F80B206D
:107D30007E2A05D81046019207F0F4FF019A00B997
:107D40002E225146204600F0C2FE0BF1010BBBF182
:107D5000080FE9D1012221463846FFF7F9FE84F8E1
:107D60000C9003B0BDE8F08F5146204600F0AFFE06
:107D7000CEE72946204600F0AAFEE6E7A000030071
:107D80009E0003009C00030096000300A200030075
:107D9000C30710B507D4F023054A4008145C2340FC
:107DA0001943115410BD0901C9B20F23F4E700BFF4
:107DB0006829002030B5094B1C78094B196800234D
:107DC0009C4202DC0022104630BD11F8335085423F
:107DD00001EBC302F7D00133F2E700BF34290020E2
:107DE0008829002013B504460191FFF7E3FF38B15D
:107DF00043682BB10199204602B0BDE810401847F6
:107E000002B010BD034B044819680022490800F075
:107E10002ABA00BF382900204029002010B5C0B27E
:107E2000FFF7C8FF0446007802F0DAFE63785A1EB6
:107E300053425341834208D1044BD3E900231343F7
:107E400003D1BDE81040FFF7DDBF10BD6029002061
:107E500037B54308354AD35CC2074CBF1B0903F052
:107E60000F0304460D46042B35D8DFE803F0032545
:107E70002C383C0079B30121FFF78AFF00230DF174
:107E800007008DF8073000F0DFFA0120A4F120038D
:107E9000C4F12001264A20FA01F100FA03F30B4352
:107EA000A040D2E9004120430B43C2E900039DF802
:107EB000070000F0EDFA0EE0002918BF022120466D
:107EC000FFF766FF07E041B10321FFF761FF0121E2
:107ED0002046FFF787FF03B030BD0121EFE70029FF
:107EE000F9D10421EBE709B10321E8E7FFF750FFDF
:107EF00029462046FFF776FF0DF107008DF8075061
:107F000000F0A2FA0120A4F12003C4F12001084AE4
:107F100020FA01F100FA03F30B43A040D2E900413B
:107F200024EA000021EA0303BFE700BF682900201C
:107F3000602900202DE9F041124E134F00243378C0
:107F4000A34208DC114BD3E90023134318D0BDE84A
:107F5000F041FFF757BF3D6805EBC40815F8340042
:107F600002F03EFE98F801305A1E53425341181A4F
:107F70004142414115F83400FFF76AFF0134DEE762
:107F8000BDE8F081342900208829002060290020E4
:107F9000092AF7B505460C4616463CD902F050FDB5
:107FA000D8B11E4B1E481D601E4B1F4F1C701F4B2F
:107FB000002120221E6007F016FF1D4B002000212B
:107FC000C3E90001013CE4B20326FF2C0BD1194A9E
:107FD0001948002100F03CF903E002F0F9FC002808
:107FE000DFD003B0F0BD9DF8063015F834008DF8F1
:107FF000046005EBC40223F007038DF8063001A9E5
:1080000093788DF805303A4602F024FD013CE4B245
:108010000028DAD0E5E70720E3E700BF8829002041
:1080200068290020342900201D7E02003829002004
:1080300060290020357F02003401030070B5084D2F
:10804000084E00242B789C4201D3002070BD336879
:10805000012113F8340002F079FD0134F2E700BF8A
:1080600034290020882900201FB50021039001AA8F
:1080700044F20100CDE9011100F004F805B05DF80B
:1080800004FB000010B572B6FFF74CFDFFF7A8FB2C
:108090000028FBD1104B114C1149E41AE4082404C8
:1080A00044F00100FFF7F8FC0E4B1B68DB0700D51E
:1080B00000BE0D4944F00200FFF7EEFCBFF34F8F06
:1080C0000A490B4BCA6802F4E0621343CB60BFF36A
:1080D0004F8F00BFFDE700BF28FF020050FF0200E6
:1080E00038010300F0ED00E04401030000ED00E082
:1080F0000400FA05D0E90223D1E90201994208BF40
:1081000090422CBF012000207047000008B50B48AA
:1081100000F0F5FA0A4B0B49D3E900231218D1E914
:10812000000143F100038B4208BF824203D212F1E7
:10813000807243F100031046194608BD3023002029
:1081400090290020082A002037B505460C460A4829
:1081500001A900F028FB60B10570446001A9064840
:1081600000F04BFB18B1054800F0CEFA002003B038
:1081700030BD0420FBE700BFF4290020302300209D
:1081800038B5184B1B78044613B90025284638BD6E
:108190000028FAD0037F03F0FF05002BF5D0FFF78E
:1081A000B5FFD4E90223994208BF904214D3236952
:1081B00003B92377D4E90530984721690029E4D031
:1081C000237F03F0FF05002BDFD0D4E902235218F0
:1081D00043F10003C4E902230348214600F04BFFAA
:1081E000D4E700BF982900205C01030013B50023E9
:1081F000ADF8043007238DF806300F490F480823E7
:10820000582200F09BFA044698B90D4A0D4801A97E
:1082100000F062F9044660B90A48012100F052FA00
:108220000123094A0748194600F0B4F9074B012217
:108230001A70204602B010BD9C290020F4290020AD
:10824000B182020030230020FFFF7F009829002028
:108250003AB103685A614A1E5142514119610020E6
:1082600070470720704738B5037F04460D4683B931
:108270008261FFF74BFF2369401941F10001C4E916
:10828000020103B1256121460020BDE83840FFF717
:108290005BBF002038BD0023014603770120FFF7B4
:1082A00053BF0000014800F02ABA00BF302300206D
:1082B0002DE9F04F85B0804600F00CFA40B15A4AE3
:1082C000D2E9003113F1807341F10001C2E90031BC
:1082D0000021404600F00DFA38B1544E336823B106
:1082E0003068FFF74DFF002333600121404600F066
:1082F00000FA20B1FFF70AFF4D4BC3E900014D48DA
:108300004A4F4D4EDFF8389103A900F086FA002855
:1083100045D1DFF82491454EDFF828A1484600F00A
:10832000C0FE3368002875D07BB13368D0E9020104
:10833000D3E90223994208BF90422DD233681B7FB4
:108340001BB13168484600F096FE484600F0A3FE97
:10835000D0E902B307460193FFF7D8FE019BBBEBC0
:10836000000463EB0105012C75F1000345DBB4F556
:10837000D40F40D3FFF796FF304A02444FF4160360
:108380000021504600F026F900283ED1336813B989
:10839000404600F0F7F8376005B0BDE8F08F03788D
:1083A000012B1DD0022B09D14FF0000A304600F0FE
:1083B00072FE002834D080F81CA0F7E73BB9416872
:1083C0000B7F23B901230B77304600F054FE03A93D
:1083D000184800F04DFA03A9164800F01EFA96E777
:1083E00041683B68994202D100233B60EFE7304689
:1083F00000F05AFEEBE7BA68C0E70021504600F0F3
:108400006EF93846FFF7BCFE01E00D28F9D00023D5
:10841000336083E7002BBFD1404600F0B7F8BBE7DD
:10842000012389F80030D2E790290020102A00208B
:10843000082A0020F42900205C010300FFFF6900E6
:10844000982900203023002070B5EFF3108672B613
:108450000C4A946801239CB993600B4B0B4DD3F8E5
:10846000801029401160C3F88050D3F88410516007
:108470004FF0FF32C3F88420047006B962B670BDB5
:108480000370FAE7142A002000E100E0FC06FFBDBB
:10849000084B9A6810B55AB150B9EFF3108172B613
:1084A000054A1C6814605C685460986001B962B643
:1084B00010BD00BF142A002000E100E0435882B044
:1084C0003BB10023435043580193019B012002B06C
:1084D00070471846FBE70000F8B5224B4679224C5E
:1084E00043F82620214A224B9B1A04EBC602DB08E4
:1084F00012791B04F70032B143F002001D49FFF767
:10850000CBFA0820F8BD02680D88C2F8085590F92A
:10851000045002798978002DADBF05F1604CDFF879
:108520005CC002F00F0E0CF5614C4FEA4111C9B26C
:10853000B4BF0CF80E108CF800136D090121DFF8A0
:1085400040C002F01F0201FA02F24CF82520E219A5
:1085500044F83600117143F003000749FFF79CFA15
:108560000020CFE7282A0020202A002028FF020030
:1085700060FF0200680103008A01030014ED00E0BF
:1085800000E100E0036801221A60704703680122DD
:108590005A60704773B501F15005AD000068ADB287
:1085A0004FF480348C400026C0F80843C0F848439C
:1085B000465101F5A8714559019522F07F42019D70
:1085C00040F82120C0F844430BB1C0F8044302B086
:1085D00070BD00002DE9F74F0D4622F07F44026880
:1085E0004FF4803705F150068F408046B60002EB0D
:1085F0008500C2F84873B6B2C2F80873D2F8041501
:1086000099464FF0000BD0F84035C0F8401542F8BD
:1086100006B05B1A9259009223F07F43012B009A17
:108620004FEA850A0CD1264B4FF4806043F00103DA
:108630009847D8F8003043F806B09B590193019B46
:10864000D8F80010D1F80465C1F84473A31B23F0D7
:108650007F43012B1CD11A4B05F5A875013443F05B
:10866000010341F825404FF480609847D8F8003066
:10867000D3F804359E4209D1D8F800300020C3F861
:108680004473C3F8047303B0BDE8F08F0D20FAE71C
:108690008A44C9F1FF13CAF84045D1F80405221AEB
:1086A000013A22F07F4203F57F439342EED3002A42
:1086B000E2D10134CAF84045D1F804359842DAE7EE
:1086C000A001030003680222C3F8442309B1C3F8E0
:1086D0000423704700684FF48271FFF7EFBE4FF438
:1086E000803303FA01F10368C3F84813C3F8081391
:1086F000704750318900006889B2FFF7DFBE036818
:10870000D3F804057047000090F9043001215A099C
:1087100003F01F0301FA03F34032024941F822300B
:10872000704700BF00E100E0024B034A1B6810687D
:10873000184700BF282A0020202A002010B561B168
:10874000B2FBF3F403FB1424A4B244B9C0E900144F
:1087500084608281C381204610BD0E20FCE7092081
:10876000FAE782B050E8022FC188B2EB324F4FF0E7
:10877000000317BF92B241EA014142EA014104E01D
:108780004268B2EB324F08BF012340E80212002AD0
:10879000E8D18DF807309DF80730002B0CBF112071
:1087A000002002B0704737B550E8013F9DB2C48940
:1087B00025448489A54228BF2D1B0489A54202BFF8
:1087C000BFF32F8F002207E0C5EA030540E80154FC
:1087D000002CE9D14FF001028DF803200193019B99
:1087E0009DF803200B6002F0FF0322B10B880068A4
:1087F000184403B030BD1846FBE70A884B889A42FC
:1088000009D150E8012FC2EA024240E80123002BBF
:10881000F7D1012070470020704737B550E8023F7C
:108820001FFAA3F5C488A54202BFBFF32F8F002211
:108830000DE0C48925448489A54228BF2D1BC3EAC5
:10884000054540E80254002CE8D14FF001028DF8B4
:1088500003200193019B9DF803200B6002F0FF03AE
:1088600022B14B880068184403B030BD1846FBE7BE
:108870000A884B889A4209D150E8022FC2EA224264
:1088800040E80223002BF7D10120704700207047F9
:1088900001F01F024B090121914000EB830000F021
:1088A00065B84B0910B501F01F040121A14000EB90
:1088B000830000F04FF8E04000F0010010BD01F02F
:1088C0001F0301229A404B0900EB8300D14300F0C3
:1088D00065B84B0901F01F0150F82300C84000F0B3
:1088E000010070472DE9F0474F1E7F0980460E4674
:1088F0000137002558F8254008EB8509E44394FA30
:10890000A4F4B4FA84F44FEA451A202C06D10135B8
:10891000AF42EFD834462046BDE8F0875444A64223
:10892000F5D921464046FFF7BCFF0028F3D0D9F81F
:108930000040E44394FAA4F4B4FA84F4E5E710B5F3
:10894000034653E8000F0A4643E8002494F0000F62
:10895000F7D110BD10B5034653E8000F40EA0102FD
:1089600043E8002494F0000FF6D110BD10B5034683
:1089700053E8002F42EA010043E8000494F0000F9E
:10898000F6D110BD10B5034653E8000F00EA01020E
:1089900043E8002494F0000FF6D110BD10B5034653
:1089A00053E8002F02EA010043E8000494F0000FAE
:1089B000F6D110BD10B5034653E8000F00EB0102DD
:1089C00043E8002494F0000FF6D110BD10B5034623
:1089D00053E8002F02EB010043E8000494F0000F7D
:1089E000F6D110BD10B5034653E8002FA2EB0100ED
:1089F00043E8000494F0000FF6D110BD0121FFF709
:108A0000A9BF0121FFF7B2BF0021FFF7BBBF10B51F
:108A100090B1D0E9012301689B1ADBB20A60013BE7
:108A2000DBB2FF2B026802D10020107110BD11686B
:108A30004C1C14600B70F2E70E20F7E737B50546C3
:108A400000240DF107008DF80740FFF7FDFC2A68B0
:108A50006B68116899420ED9481E106011F8014CDC
:108A6000EB68298A01FB0434AB6811791B1ADBB26D
:108A7000994238BF13719DF80700FFF709FD2046A2
:108A800003B030BD37B5054600230DF107000C4695
:108A90008DF80730FFF7D8FC2A681368591C11605D
:108AA000E968641A298AB4FBF1F41C709DF8070088
:108AB000FFF7EEFC03B030BD826810B504462AB162
:108AC00043690168006998470023A36010BD0EB494
:108AD00003B5039921B104AB01AA019300F06EF82C
:108AE00002B05DF804EB03B07047826830B40468EC
:108AF000551C8560A154D0E901329A4202D330BCA2
:108B0000FFF7DABF30BC70472DE9F84F9846DDE932
:108B10000A43154682460F460A464FF00109AA420B
:108B20000FD2C14538BFC14613F0010B01D16CB95A
:108B300000240126B8F1010F1BD908F1FF386E435C
:108B4000F8E709F10109B2FBF5F2E8E79B070ED55A
:108B5000B8F1000F0CBF30262026A145E9D2013C18
:108B600031465046FFF7C1FF002CF6D1E0E7202642
:108B7000F3E7B7FBF6F39D42E1D9DFF83C80B7FBA2
:108B8000F6F3504618F8031006FB1377FFF7ADFF16
:108B90003346AB42B6FBF5F6F1D2BBF1000F02D083
:108BA0000CB1A14501D3BDE8F88F20215046013C0E
:108BB000FFF79BFFF4E700BFA60103002DE9F74F85
:108BC000054617468846002900F0428118F8011B27
:108BD00049B92B7B002B00F03B81284603B0BDE850
:108BE000F04FFFF769BF252940F0B780002698F8BD
:108BF00000302D2B424608F1010823D0302B24D021
:108C00002B2B25D000242A2B02F1010123D13B6814
:108C10001A1D1B683A601C440A4613782E2B26D175
:108C200001324FF0000A104610F8011BA1F1300C80
:108C3000BCF1090F1DD80A2303FB0A13A3F1300A64
:108C40000246F0E746F00106D1E746F00206CEE71D
:108C500046F00406CBE711F8013CA3F130000928E7
:108C6000DBD80A2202FB0434303C0A46CBE74FF043
:108C7000000A12F8011B01F0FB0068289046F8D0AA
:108C8000782909D86F290CD8632962D022D82529E0
:108C900063D0582900F0888098F80030002B95D1D7
:108CA00097E770390829F7D801A353F821F000BFDE
:108CB0002B8E0200998C0200998C0200B98D020063
:108CC000998C0200978D0200998C0200998C020009
:108CD000A98D0200642901D06929DDD13A68D2F852
:108CE0000090111D89EAE9723960A2EBE9724FF038
:108CF000010B092A35DCD34538BFD3462CB1B9F175
:108D0000000F01DB720700D5013CB30702D5BAF1B1
:108D1000000F03D0F00701D44CBB0024B9F1000FC1
:108D20002DDAC9F100092D212846FFF7DEFE06F0F5
:108D30000302022A04D1BAF1000F01D11CBB0024A6
:108D4000CDE9004653460A2249462846FFF7DCFE95
:108D5000A2E73B681A1D19783A602846FFF7C5FE5E
:108D60009AE70A230BF1010BB2FBF3F2C1E7A3452B
:108D7000D4D220212846013CFFF7B7FECCE771078B
:108D8000D5D52B21D0E7A345DAD230212846013CA6
:108D9000FFF7ABFED2E73968CDE900460A1D3A601D
:108DA00053460A220968D0E739680A1D3A60CDE9BE
:108DB000004653461022F5E73B681A1D3A6016F04C
:108DC0000106D3F8009028D1B9F1000F03D048462E
:108DD00007F03CF80646B44200D904BB09F1FF395C
:108DE00019F8011F00293FF457AF2846FFF77DFE11
:108DF000F6E728460136FFF778FE19F80610002935
:108E0000F7D1A642BFF448AF002C3FF445AF202174
:108E10002846013CFFF769FEF3E70026EDE7202135
:108E20002846013CFFF761FED5E73B681A1D3A6012
:108E3000302128461C68FFF758FE78212846FFF7A6
:108E400054FE00220823CDE90032214610227CE79F
:108E500003B0BDE8F08F00BF2DE9F84FB0F806A0D1
:108E60004579D2F800B09DF828900AFB05F5043D3D
:108E700088460BEB0301A94203F1040488BFA5EB6C
:108E8000030BB4FBFAF607460AFB1644C2F800B01F
:108E90004EB9AAEB04055D4528BF5D46BBF1000F46
:108EA00004D1BDE8F88F3F68013EF1E7043408EBD8
:108EB00006003C442A46B9F1000F0DD02146ABEB29
:108EC000050B06F067FFDA452E443F6855464FF024
:108ED000000428BF5D46E1E701462046EFE7FFF7C3
:108EE00096BDF8B546790146721E054600239342A9
:108EF0002D6803D30024A64202D8F8BD0133F6E75B
:108F00000F682846FFF7BEFD01343946F3E72DE927
:108F1000F843068ACD1C0746FFF790FD043E354412
:108F20000446B5FBF6F5F0B14FF48073EDB28380E3
:108F3000C680013D076081464FF00008A84512D267
:108F40003846FFF77BFD064648B16379013363710C
:108F500008F10108C9F8000007608146EEE72046E5
:108F6000FFF7BFFF34462046BDE8F88301210430F7
:108F7000FFF72CBD10B5012104460430FFF732FD88
:108F800010F0FF0F04D12046BDE81040FFF7A9BF45
:108F900010BD1FB503920022009203AAFFF75CFFE9
:108FA00005B05DF804FB1FB503920122009203AAED
:108FB000FFF752FF05B05DF804FB41DF704700008A
:108FC000064B10B500241C70054B1C60BFF35F8F6F
:108FD0000449054800F039F8204610BD342A002025
:108FE000382A0020C00103002C2A002007B50023E6
:108FF0000DF107008DF80730FFF726FAF1EE103A71
:1090000023F09F03E1EE103ABFF35F8F094B40223C
:10901000C3F884219DF80700FFF73AFA06F0C6F975
:1090200020B1FFF7CAFF03B05DF804FB20BF40BFCB
:1090300020BFF8E700E100E0836800225A60C3E93E
:1090400004229A60DA601A6070470B684A684360CD
:10905000934208BF0023016008BF43607047436824
:1090600043B10268916852680B449342436004BF65
:1090700000234360704770B5446806460D4620687B
:1090800018B1B3682946984718B923682B60256042
:1090900070BD2468F3E74368186808B102681A6075
:1090A00070474368186870474368186800B970478C
:1090B000884203D102681A600120704703460068A5
:1090C000F4E7000010B50D49A1F59472914201D862
:1090D00000200FE08C1AE30F03EBE4035B1002EBBC
:1090E000C30452F83330834205D802D204F1080297
:1090F000ECE7606810BD2146E8E700BFCC0603003E
:1091000008B5FFF7DFFF024B002808BF184608BD6F
:109110008F05030070B5064D0646002455F8043B44
:109120000BB1304698470134042CF7D170BD00BF15
:10913000482A0020033080B240F2FE33984230B516
:109140001FD8134B1A783AB91C895D892C44044402
:10915000A4B2B4F5806F0AD91A7DAAB99A8BDC8BB8
:109160002244024492B2B2F5806F0DD801220A80E7
:109170001446142202FB04335A89104458810020FB
:1091800030BD48F20860FBE748F20660F8E700BF30
:109190007C2A00200B4A0C4B5188142000FB013123
:1091A000CB6833B90420496810700122074800F0E9
:1091B00071BF07490523137002238B8001220968C0
:1091C0000023F3E7602A00207C2A002000230020EF
:1091D000442B002007B5002305490093054A096880
:1091E0000548082300F0C0FE03B05DF804FB00BF93
:1091F000442B0020D80603000023002007B50023DD
:1092000001460093034A0448082300F0ADFE03B072
:109210005DF804FBD00603000023002013B50023F3
:109220000C4600930146084A0848042300F09CFEBF
:1092300038B90749142303FB04140123237402B033
:1092400010BD48F20D60FAE7CC06030000230020B1
:109250007C2A002037B50A480A4B42689C88196866
:1092600053880325033305709BB2002000909B00B8
:1092700001EB8401044800F077FE03B030BD00BF6D
:10928000602A0020442B00200023002010B5014656
:109290000448FFF788FA1C220446002106F0A3FDCB
:1092A000204610BD302B002068B10268084B9A425E
:1092B00009D14068074B984207D00133984214BF48
:1092C000032001207047032070470020704700BF33
:1092D000DEC0ADDEFE011EF14388033300EB8303E5
:1092E00099420BD382884FF6FF739A4208D00388C5
:1092F00033B18068431C5842584170470220704780
:10930000012070472DE9F0410D460223154F2B80B7
:10931000164600F5805100F108044FF001088C4218
:109320000ED2236801330BD02046FFF7D5FF48B19A
:109330000EB186F80080022809D14FF480632B809B
:10934000BDE8F081A3683A68934200D93B602B885E
:109350006288033313442B806388033304EB830454
:10936000DDE700BF742A002038B5144B14220D46E7
:1093700002FB00302B68446804F58051A3B15C887F
:10938000033403EB84048C4215D22368013312D0DA
:109390002046FFF7A1FF012808D002280BD00028A3
:1093A000F1D12C60012038BD0834ECE76388033329
:1093B00004EB8304E7E70020F5E700BF7C2A0020E8
:1093C000426873B504460D466AB3244BD9688A4295
:1093D00029D31B699A4226D812F0030323D12049CE
:1093E0000089098988421ED12068916888421AD173
:1093F0001C494868824203D900F5805082420DD34F
:1094000089698A420CD901F580518A4208D2012229
:109410002A80B3FA83F0400902B070BD1A46F7E71C
:1094200048F20963F5E700232B801E460196288841
:1094300001A9FFF799FF30B92B8801339BB2012BAB
:109440002B80F3D9E8E7019B226899689142EED11D
:109450006360034B1B892381DEE700BF00230020EC
:10946000602A00207C2A00202DE9F8431C461D4B71
:109470001B7806460F46154673B382B37CB3DFF8FC
:109480006C804FF01409A388012B02D948F20960BF
:1094900020E009FB03F318F803302BB9A08821461C
:1094A000FFF762FF20B92060A3880133A380EAE7B9
:1094B00023681EB1998832889142EFD11FB1198873
:1094C0003A889142EAD19A68C5E90023064B1B8984
:1094D0002B810020BDE8F88348F20160FAE748F2EA
:1094E0000460F7E7582A0020602A00207C2A002028
:1094F00008B5074B5888191DFFF736FF18B1BDE8AE
:109500000840FFF7A7BEBDE80840FFF743BE00BF15
:10951000602A00202DE9F04FA44FDFF8B49289B003
:109520000646B8463B6823B9A1484946FFF775F996
:109530003860D8F8005029784B1E052B07D8DFE893
:1095400013F022007C007C000E010E01660148F23F
:109550000E641422002103A806F045FC41F61D53B9
:109560009C4208BF0024D8F8003004941A78013ACD
:10957000052A00F2F681DFE812F0E201E6010602B8
:10958000160222022C022EB18A4B00225A604FF49E
:109590000644DEE72B79032B1DD8DFE803F0150224
:1095A0002B3685490B78022B08461AD00B7D022BEF
:1095B0004FF0010317D114225343C2180020C8549E
:1095C0005068FFF71BFE03E001232B71FFF702FE3B
:1095D000002800F0BE80774B00225A6048F20D64EC
:1095E000B7E70023E7E7734A13700023536041F69F
:1095F0001D54AEE771497248002302222B718A8004
:109600000968012200F046FDE2E76C4C00262E714D
:109610002068694DFFF7F2FD6A4BD4F800C05A8804
:1096200014235343EA18EE5451682160A188C2F80C
:1096300004C011810222A280CAE7B5F814A0AA7D55
:10964000DFF874B1AEB1022AEB8806D9142101FB10
:109650000AB1DA1C088902440A81142202FB0ABA00
:10966000C3F57F43BAF80A20FD331344AAF80A3041
:109670008DE7142303FB0AB318895C6804EB8004AC
:10968000062A69D8DFE802F0274E36441D5A040046
:1096900041F61D54AA7DEB88022A06D9142101FB4C
:1096A0000AB1DA1C088902440A81142202FB0ABAB0
:1096B000C3F57F43BAF80A20FD331344AAF80A30F1
:1096C00047E74148414900234360AB690360FFF726
:1096D00077FE00285BD00223AB75002300930423A0
:1096E000EA182146364800F03FFC002831D048F205
:1096F0000D64CFE72B69002B14BF03230123AB7547
:109700000023009305F10C02042304F10801E9E7AA
:109710000123AB750022EB8800922A699B0004F1BB
:109720000C01DFE703290CBF05230623AB750023DB
:109730000093042305F10802E118D3E70623AB7573
:10974000224B1988204B5868FFF768FD0446002813
:10975000A0D109B0BDE8F08F48F20E649AE7002E60
:109760007FF415AF2B79012B34D0022B3FF43FAFA0
:10977000002B7FF4ECAE02232B710DF10A01EB6894
:10978000039303A8CDE90466FFF71AFE10B948F267
:109790000964DEE60498BDF80A108388EB8003882C
:1097A0002B81FFF73BFD044627E000BF782A00200D
:1097B000302B0020582A00207C2A0020442B002037
:1097C00000230020602A00203C2A0020502B00208B
:1097D000702A0020804B03AA3146A81DFFF744FEE3
:1097E0007D4B044668B999880498FFF717FD044635
:1097F00048F209639C423FF4FAAE002C7FF4A9AE14
:10980000A7E708223146184606F0EDFAF0E7002EE9
:109810007FF4BDAE714B1A7BB2B11E731A78013A58
:10982000062A3FF694AE01A151F822F0D398020027
:10983000F9980200179902001D9902004F95020045
:1098400023990200359902001A78072AE6D801A167
:1098500051F822F0759802001D9802001D98020030
:109860009B980200AF980200CF980200CF980200A8
:10987000979802001A895A4901321A8100225A80A7
:109880001A730A78B2FA82F252099A720A7DB2FA0F
:1098900082F25209DA72012207E0524958688A8836
:1098A0004088033202448A8002221A70B6E74C4C88
:1098B0005A884C49142505FB0242086854685060D8
:1098C0008888108102228A800C600622EDE7072238
:1098D000EBE79A7A32B9DA7A8AB900221A705A809A
:1098E0005A6084E63E4900229A72CA68002AF2D180
:1098F000097C0029EFD05A80FFF7FAFD53E70022D8
:10990000DA72374A116A0029E7D192F82420002A36
:10991000E3D00122EFE7FFF79DFC44E7FFF73AFCB5
:1099200041E72F4A5B88142101FB03235868FFF7A6
:1099300065FC38E700225A60FFF74CFC33E7002350
:109940008DF80C300DE001228DF80C201A89ADF84D
:1099500018209A88DB680593ADF81A2000238DF84B
:109960001C3003A8FFF7D6FB002649461E48C8F85E
:109970000060FEF77DFF1D480121FFF733F8002846
:109980007FF4D0ADE5E602228DF80C201A89ADF8FF
:1099900018209A88ADF81A20DA689B7D05929A1FE4
:1099A00053425341DBE703228DF80C20DA88ADF8EF
:1099B00018201A89DB68ADF81A200593D1E7042234
:1099C0008DF80C20DB88ADF818300023ADF81A3084
:1099D000F3E70523B4E700BF542B0020602A0020E2
:1099E0007C2A0020442B0020302B0020402B00201C
:1099F0004068FFF78FBD000008B505480121FEF75C
:109A0000D9FF18B9BDE80840FFF784BD08BD00BF05
:109A1000402B00202DE9F3419846374B1B78064632
:109A20000D46002B5CD000295DD009884FF6FF73EE
:109A300099425BD06B88002B58D06B689B0758D13C
:109A40004AB92F890DF102013846FFF773FB30B197
:109A500002B0BDE8F08113885788ADF8023001A844
:109A6000FFF714FC044660B9BDF80230234A142104
:109A700001FB032358890338C01B588148F2076053
:109A8000E6E780F8008000238375BDF8023083820A
:109A90006B68036101211A48FEF798FF2B88238128
:109AA000B8F1030F6B88A38004BF0423A3754FF0A4
:109AB000000508BF3368E06008BFA3611148E78074
:109AC000658101A9FEF799FE36B1E36833600E4B5C
:109AD00075601B89B5723381FFF78EFF0020B7E7F1
:109AE00048F20160B4E748F20460B1E748F203606D
:109AF000AEE748F20260ABE7582A00207C2A00203B
:109B0000742A0020302B0020602A002008B503466C
:109B100007480268042A08D00168064A42F8213042
:109B20000121FEF753FF002008BD48F20B60FBE760
:109B30004C2B0020482A00202DE9F04F89B0142238
:109B4000002103A806F04FF9794A137803F0FF01CA
:109B5000009190463BB103A8FFF7DCFA0027384696
:109B600009B0BDE8F08F101DFEF748FF0028F5D1C1
:109B700040F6F8734FF080521B685C1C08BF6D4BB9
:109B80006D4C08BF1B6811695269581C08BF02FB65
:109B900001F323616949A3F5405300222046E360A5
:109BA00000F0B0F9019407460028D8D1644965480F
:109BB000DFF8A4B11C238C22FEF7C0FDBA463D4657
:109BC0004FF003093C46019BDE6856443046FFF7E0
:109BD0006BFB012862D0032817D000283DD15A49D9
:109BE0004FF0140C0CFB04FC01EB0C0201F80C0010
:109BF00056600CF110020CF1080C0A443046614426
:109C0000FFF780FB45F0020545E03268531C02D0A7
:109C10004E4B9A4234D1321D06F580511068013006
:109C20002ED104329142F9D1DBF800203AB9022258
:109C30000123CBF80060ABF8042000930BE0142262
:109C40006243414B022099189854414A4E60548017
:109C500001340881A4B245F001050AF5805ABAF52D
:109C6000405FB0D1B9F1010F98BF0025EDB2022DD0
:109C700003D0062D31D0002D39D148F20A676EE7A6
:109C8000314914226243881809F1FF3946600320E4
:109C900088541FFA89F90134A4B2DEE7009B6BB146
:109CA000294B14226243991802209854DBF80020B3
:109CB0004A60274A088154800134A4B20022254911
:109CC000CBF800603046FFF71DFBBBF80420022AEA
:109CD0000CBF042208221543BFE7012388F8003097
:109CE00003A80023C8F80430FFF714FA37E702A8E6
:109CF000FFF7CCFAC8B10123013D03700A2D09D842
:109D0000DFE805F006080608070807080F110F002E
:109D10000023037102A90B48FEF76FFDFFF76CFEED
:109D20001DE70323F5E70223F3E748F2076716E789
:109D3000582A00201410001000230020BC08030043
:109D4000A42A0020302B00207C2A0020DEC0ADDEBB
:109D5000602A0020482B0020442B002073B50D46BC
:109D60000446C8B1C1B10DF10601FFF729FBB0B13E
:109D70000C4BBDF806006668142202FB003001217E
:109D80000C30FEF723FE63682E600C336B600123FA
:109D9000A372002002B070BD48F20460FAE748F2F6
:109DA0000960F7E77C2A002013B50446A8B10DF13D
:109DB0000601FFF705FB98B10C4ABDF806301421E7
:109DC00001FB0323DA6872B1A27A62B1DA6800207B
:109DD000013ADA60A07202B010BD48F20460FAE7FE
:109DE00048F20960F7E748F20560F4E77C2A0020B2
:109DF00002230022FFF70EBE18B103230022FFF753
:109E000009BE48F204607047114B1B7813B5044635
:109E1000ABB14FF6FF73984214D001A8FFF736FAA2
:109E200098B10523037001230371C48001A9094877
:109E3000FEF7E3FCFFF7E0FD002002B010BD48F2A2
:109E40000160FAE748F20360F7E748F20760F4E7D9
:109E5000582A0020302B00200F4B1B7807B5A3B1E8
:109E600001A8FFF713FA98B10623037001A90B4864
:109E7000FEF7C3FC0A4B1A780AB101221A73FFF7E6
:109E8000BBFD002003B05DF804FB48F20160F9E778
:109E900048F20760F6E700BF582A0020302B002068
:109EA000602A002007B5ADF80600ADF804100DF1EA
:109EB000060001A9FFF7D8FA03B05DF804FB07B567
:109EC0001346ADF806000A4600200DF10601FFF723
:109ED000CBFA03B05DF804FB07B51346ADF80600F6
:109EE0000A460DF106000021FFF7BEFA03B05DF847
:109EF00004FB20B119B103680B600020704748F2E1
:109F00000460704713B50B46114680B9104B1148D9
:109F1000114AC01A0E23C0080093104B00041049C8
:109F200040F00100FDF7CFFD0E2002B010BD4BB98F
:109F3000074B08480B4AC01AC0080E2300930004C0
:109F4000064BECE703601B6802B0BDE81040184701
:109F500028FF020070FF0200E006030076080300FD
:109F6000E5060300140703002DE9F34188B93D4BD2
:109F70003D483E4AC01AC0080E243D4B00940004E0
:109F80003C4940F00100FDF79EFD204602B0BDE8CF
:109F9000F0814AB9334B3448374AC01AC0080E24FE
:109FA000334B00940004EBE7D0F800E0BEF1000F63
:109FB00009D12C4B2C48314AC01AC00808242C4B1C
:109FC00000940004DCE74BB9264B27482C4AC01A02
:109FD000C0080924264B00940004D1E74568D5F851
:109FE0000480B3FBF8F508FB15354DB11D4B1E4839
:109FF000244AC01AC00809241D4B00940004BFE77E
:10A000008D0709D0174B18481F4AC01AC0081024E2
:10A01000174B00940004B3E712F0030F09D0114B63
:10A0200011481A4AC01AC0081024114B00940004A9
:10A03000A6E7C568A9420BD34D1EEC180569AC42D2
:10A0400006D8DEF80C40A44602B0BDE8F0416047F7
:10A05000044B05480E4AC01AC0081024044B009453
:10A0600000048DE728FF020070FF0200E0060300F5
:10A0700088080300E5060300620703000E070300DB
:10A08000210703006807030092070300AA070300E3
:10A09000CD070300F7B580B92A4B2B482B4AC01ACD
:10A0A000C0080E242A4B009400042A4940F0010005
:10A0B000FDF709FD204603B0F0BDD0F800C0BCF1AB
:10A0C000000F09D11F4B2048234AC01AC00808249A
:10A0D0001F4B00940004E8E74AB91A4B1A481F4A7C
:10A0E000C01AC00809241A4B00940004DDE7476831
:10A0F000D7F800E00EF1FF370F4209D0114B12489C
:10A10000174AC01AC0081024114B00940004CCE771
:10A11000C768B9420CD304694D1E0EFB0255A54217
:10A1200006D8DCF81040A44603B0BDE8F040604714
:10A13000044B05480B4AC01AC0081024044B009475
:10A140000004B2E728FF020070FF0200E0060300EF
:10A150009B080300E50603000E0703002107030028
:10A16000F40703001A08030029DF704728DF70474F
:10A1700070B503689E6886B004460D466EB1142221
:10A180000021684605F02FFEA36805932379019509
:10A190002BB1012B0DD06846B04706B070BD01232E
:10A1A0008DF8003023690293E36803936369049395
:10A1B000F1E702238DF80030E3681B030293F5E713
:10A1C0000846704700207047024B187A003818BFC5
:10A1D00001207047F82B0020034B187A0122B0FAB7
:10A1E00080F05A7440097047F82B002008B51046DB
:10A1F0001A4605F0CFFD002008BD000008B5142266
:10A200000021044805F0EFFD0348FEF7AAFA0020FC
:10A2100008BD00BFF82B0020E82B002010B5094C2A
:10A22000094B43602046FEF7E9FB40B905F0BEF854
:10A23000064920741C2306488C22FEF77FFA002072
:10A2400010BD00BFF82B0020B00803005C2B0020DD
:10A25000E82B002070B5244C244E237A25463BB9C8
:10A2600023492448FEF7D9FA306008B9606070BD10
:10A27000022334682B72237973B1012B24D020463A
:10A280000321FFF775FF00232B726B6018491948F3
:10A29000BDE87040FEF7ECBAD4E90523D21AB2F556
:10A2A000805FD4E9031028BF4FF480529208012A3E
:10A2B00038BF012219441844FFF756FF50B1112846
:10A2C000DDD101232B72D2E7D4E903031844FFF751
:10A2D0004DFFF3E72B7C002BC9D10146BDE8704050
:10A2E000022000F009B800BFF82B0020102C00203D
:10A2F0000C2C0020E82B002038B5831E012B45D8FC
:10A30000234C237A002B41D0022B09D1032830D0D3
:10A31000204B00221B68E2601A793AB1012A22D050
:10A32000637C7BBBBDE83840FFF794BFD3E90512DF
:10A330008D1AB5F5805F94BF521902F580529A616B
:10A340009142EDD102284FF0000308BF1946237255
:10A35000104B18BF0D211868FFF70AFF0E490F4870
:10A36000FEF786FADCE71A6901321A615B699A42E4
:10A37000E7E7E3680133082B01D8E360D0E7002367
:10A38000E360DFE7BDE8384005F000B838BD00BF46
:10A39000F82B0020102C00200C2C0020E82B002093
:10A3A00000F0FD03012B08D1044B00225A74421E19
:10A3B000504250411874FFF74DBF7047F82B0020F2
:10A3C00010B5064C201DFEF719FB28B9637C1BB99C
:10A3D000BDE81040FFF73EBF10BD00BFF82B0020C6
:10A3E0002DE9F34180460D460F4801A916461F4648
:10A3F000FEF7D9F90446A8B11C22002105F0F3FCB0
:10A400002D0B0123237101A90748C4F80080A76020
:10A41000E5606661FEF7F1F9FFF7D2FF002002B0B8
:10A42000BDE8F0810420FAE7E82B00202DE9F7438E
:10A4300081468846104801A917461E46FEF7B3F923
:10A440000446B0B11C22002105F0CDFC00250A9B7A
:10A45000A36001A9C4E9037807482571C4F80090F6
:10A460006661FEF7CAF9FFF7ABFF284603B0BDE807
:10A47000F0830420FAE700BFE82B0020054B1B689F
:10A48000082B01BF044B1868B0FA80F0400918BFD0
:10A4900000207047300100103401001008B54FF063
:10A4A00080430022C3F80C21C3F81021C3F83825DB
:10A4B0004FF0805203F54043D2F80414C3F820153E
:10A4C000D2F80814C3F82415D2F80C14C3F82815D0
:10A4D000D2F81014C3F82C15D2F81414C3F83015A0
:10A4E000D2F81814C3F83415D2F81C14C3F8401568
:10A4F000D2F82014C3F84415D2F82414C3F8481530
:10A50000D2F82814C3F84C15D2F82C14C3F85015FF
:10A51000D2F83014C3F85415D2F83414C3F86015C7
:10A52000D2F83814C3F86415D2F83C14C3F868158F
:10A53000D2F84014C3F86C15D2F84424C3F870253F
:10A54000FFF79CFF10B1384B384A1A60FFF796FFAF
:10A5500018B1374BFB22C3F81825FFF78FFF48B11E
:10A560003449354B0A681B6822F00F0203F00F03D1
:10A5700013430B60FFF782FF18B1304B4FF40072AA
:10A580001A604FF08043D3F80024D20744BF6FF025
:10A590000102C3F800242A4AD2F8883043F4700339
:10A5A000C2F88830BFF34F8FBFF36F8F4FF0102387
:10A5B000D3F80022002A03DBD3F80432002B2FDA71
:10A5C000204B0122C3F80425D3F80024002AFBD035
:10A5D0004FF010221221C2F80012D3F80024002AF2
:10A5E000FBD04FF010231222C3F80422154B1A4659
:10A5F000D3F800140029FBD00021C3F80415D2F8C9
:10A600000034002BFBD0BFF34F8F0D490E4BCA68AF
:10A6100002F4E0621343CB60BFF34F8F00BFFDE74E
:10A620000A4B0B4A1A6008BD8C5600404881030053
:10A6300000F00040E40E0040580200104096024036
:10A6400000ED00E000E001400400FA05382300209E
:10A650000090D003074B1B5C1F2B8ABF064A4FF0AC
:10A66000A04203F01F03D2F80405D840C04300F015
:10A6700001007047DC08030000030050074B1B5C1F
:10A680001F2B86BF064903F01F034FF0A041012294
:10A6900002FA03F3C1F80C35704700BFDC08030071
:10A6A00000030050074B1B5C1F2B86BF064903F0BD
:10A6B0001F034FF0A041012202FA03F3C1F808354D
:10A6C000704700BFDC0803000003005008B50020FD
:10A6D000FFF7E8FF0120FFF7E5FF0220FFF7E2FFA9
:10A6E000BDE808400320FFF7DDBF08B50020FFF7F5
:10A6F000C5FF0120FFF7C2FF0220FFF7BFFFBDE843
:10A7000008400320FFF7BABF0A4B185C1F288ABF16
:10A71000094B4FF0A04300F01F00D3F8042501219E
:10A72000814021EA02000A40C3F80805C3F80C255D
:10A73000704700BFDC08030000030050034BD3F850
:10A7400010056FEA901000F0010070470003005000
:10A75000263818BF4FF0FF307047262070470000A2
:10A76000C10710B5044642D54FF08043D3F84036B8
:10A77000DA072ED54FF01023D3F8043303F0070384
:10A78000072B26D11D4B0122C3F80425D3F8002442
:10A79000002AFBD04FF01021D1F8042322F0070249
:10A7A00042F00402C1F804230022C3F80425134A2E
:10A7B000D2F80034002BFBD0BFF34F8F1049114B60
:10A7C000CA6802F4E0621343CB60BFF34F8F00BF4F
:10A7D000FDE74FF0A0420C490323C2F81837C2F836
:10A7E0002037C1F82437C2F83037FFF76FFFA307CF
:10A7F00042BF054B0C22C3F8182710BD00E00140F2
:10A8000000ED00E00400FA05000300501FB50378D6
:10A810008DF800304368019383688DF80830C36871
:10A82000054A0393054B684653F8213052F821102E
:10A83000984705B05DF804FB142C00201C2C002068
:10A840001FB503788DF800304368019383688DF855
:10A850000830C368054A0393054B684653F8213016
:10A8600052F82110984705B05DF804FB142C002025
:10A870001C2C0020F0B5194B90F800C0DFF86CE0FC
:10A8800043F82C20164B16460A6943F82C204B7FC0
:10A890000EF80C300C4607460FCC89B06D460FC53C
:10A8A00094E80F0085E80F001EF80C30CDF810C0BA
:10A8B0004BB1002E0B4A694608BF3246381D00F0E6
:10A8C000B7FD09B0F0BD002E074A694608BF324601
:10A8D00007F10C0000F088FBF3E700BF1C2C002000
:10A8E000142C00200DA8020041A80200242C0020F6
:10A8F000154B07B51A687AB100221A601B680093DD
:10A90000009B4FF080430122C3F808230F4B587976
:10A9100010B95A711B6898470D4B1A6882B1002212
:10A920001A601B680193019B4FF080430222C3F819
:10A930000823064B1B68012003B05DF804EB1847A1
:10A9400003B05DF804FB00BF00010040282C00208C
:10A950000401004000F1804000F5C040002382B0B7
:10A96000036003680193019B02B0704703681F2BCB
:10A9700083BF03F01F03036001484FF0A0407047FE
:10A980000003005007B5019001A8FFF7EFFF019BFE
:10A9900000EB8300D0F8003723F44033C0F80037D1
:10A9A000D0F8003743EA0141C0F8001703B05DF862
:10A9B00004FB0000054B4FF0FF32072843F820202E
:10A9C00084BFC01880F85820704700BF302C00208A
:10A9D00010B5174C94F86A3043BB04F130033021B2
:10A9E000FF22013911F0FF0103F8012BF9D1C8B2A0
:10A9F000FFF7E0FF01310C29F9D1062200210D48B3
:10AA000005F0F1F90C4BE02283F8062340221A608E
:10AA10004FF4BE70FFF79EFF084B4FF00042C3F8A3
:10AA20000423012384F86A30002010BD0820FCE7CD
:10AA3000302C0020942C002000E100E00060004059
:10AA4000034B93F86A00003818BF0120704700BF1D
:10AA5000302C0020F7B53B4E3318054693F93030C3
:10AA6000002B6CDA8B78C3F34003002B0BBF082458
:10AA700000240C200820844202D1042003B0F0BD41
:10AA800056F82470013743D1701946F8242080F815
:10AA9000304013B9331983F858508B785A0717D4BC
:10AAA000D80737D501A80195FFF760FF019B00EBA0
:10AAB0008300D0F8003723F00203C0F800372248A3
:10AAC000EA0805F007070123BB40875C3B4383543A
:10AAD0008B780A7813F0020328D0A40004F1804494
:10AAE00004F5C0442D02D4F8103523F44F3323F479
:10AAF0004073C4F810351204D4F8103505F47C55B1
:10AB000002F4403215431D43C4F810550020B5E748
:10AB10000134B0E701A84A780195FFF727FF019BB0
:10AB200003F5E073920040F82320C8E7083C344462
:10AB300094F8605045EA821284F86020E6E7082025
:10AB40009CE700BF302C0020942C002073B5224CD1
:10AB50002618054696F93020072A1ADD224492F875
:10AB600058309B09032B0FD1019001A8FFF7FEFE7F
:10AB7000019BD0F81015D94001F00101023128469F
:10AB8000FFF700FF02B070BD012B0CBF02210321B3
:10AB9000F5E7D3B2072BF5D8930003F1804303F513
:10ABA000C043D3F8100540F00100C3F8100502F1CE
:10ABB0004000800080B2FFF7CDFE0029E2D096F978
:10ABC000303054F82330002BDCD0012303FA02F29A
:10ABD000024BC3F80423D5E7302C0020006000406E
:10ABE00007B5019001A8FFF7C1FE019BD0F8100541
:10ABF000D84000F0010003B05DF804FB2DE9F04FF0
:10AC0000002489B0CDE90244624D4FF480720121E5
:10AC100002F1804303F5C04390B21B68012B06D1BB
:10AC2000D5F804330B4202D0FFF794FE0C430432F4
:10AC3000B2F5907F4FEA4101EAD1574B1B68012BD7
:10AC40000ED14FF4BE70FFF785FE4FF0A04344F0E5
:10AC50000044D3F810350293504BD3F810350393CA
:10AC600014F0FF0F1AD04E4F00250126344210D0A9
:10AC7000AB0003F1804303F5C043D3F81005D3F8CC
:10AC8000101557F8253023B1C1F30141C0F3052059
:10AC900098470135082D4FEA4606E7D1002C75DAB2
:10ACA00004AF002304937B604FF0FF33CDE90633FC
:10ACB000DFF8EC90DFF8EC800026354618F9012B20
:10ACC000531C4AD0C2F3C2000123D4B202F03F0B9E
:10ACD00002F0070203FA02F208AB191811F8083C57
:10ACE00013423AD009EB0B03A40993F9303059F819
:10ACF00023A0BAF1000F08D1032C2ED117F800C001
:10AD00004CEA020C07F800C001E0032CF6D001A8C1
:10AD1000CDF804B0FFF72AFE019B11F8181C03F5CB
:10AD2000E07C114250F82C00C0F3014005D002280D
:10AD300013D1032C0BD1214604E003280DD1032CA1
:10AD400005D102215846FFF71DFE0135EDB2BAF1DB
:10AD5000000F02D021465846D0470136042EADD10F
:10AD6000A5B14FF0A0430299D3F8102503F5407325
:10AD70009142D3F8103502D10399994206D002923C
:10AD80000393049A059B0692079393E709B0BDE8E5
:10AD9000F08F00BF006000407C6100400003005065
:10ADA000302C0020902C0020014B1B68184700BF5E
:10ADB0009C2C00200E4B984237B50C4602D0002048
:10ADC00003B030BD00230DF107008DF80730FDF70B
:10ADD0003BFB084B1D7915B901221C601A719DF8C7
:10ADE0000700FDF755FB002DE9D01120E8E700BF73
:10ADF000002000409C2C0020034B984201BF034BD5
:10AE000000221A601A717047002000409C2C00201C
:10AE10000023435082B043580193019B02B0704716
:10AE20000A4610B54FF48E71FFF7F2FF136A91686E
:10AE3000C95C136A01331362C0F81C1510BD8B691D
:10AE40000A4610B54FF4847123B9FFF7E1FFD0F83B
:10AE5000183510BDFFF7DCFF536AD168D0F818052C
:10AE6000C854536A01335362F3E700001FB501234E
:10AE70008DF80030044BCDE90110D3E9001268468B
:10AE8000904705B05DF804FBA42C002030B54C4879
:10AE9000D0F8043313F4007F85B005464DD0D0F8C8
:10AEA0002431002B49D04FF49271FFF7B1FF4FF4DA
:10AEB0000173C0F80833434B93F829200AB90122E3
:10AEC00042603F4902228DF80020D1F88024C1F869
:10AED000802403929A690292DA6801920022C3E9FF
:10AEE00006226846D3E9001290473548D0F81C3155
:10AEF0005BB134494A690B6A9A420A464AD991F8C9
:10AF00002830002B46D1FFF78BFF2D48D0F8443175
:10AF10008BB14FF4A271FFF77BFF2A4B93F82920E6
:10AF20000AB1012202609A692AB10022586AD968DE
:10AF30009A61FFF79BFF05B030BDD5F804335B077E
:10AF4000D3D5D5F80831002BCFD01E4C1C48214654
:10AF5000FFF775FF636AA2699A422346C5D1E26989
:10AF6000E1684AB12369E3600023606AA261E3619A
:10AF70006362FFF77BFFB8E794F829200AB9012242
:10AF80006A600F4A4FF40170C2F808030022586A41
:10AF90009A61EEE70A484FF48E71FFF739FF536963
:10AFA000002BB2D051690291002391688DF80030D6
:10AFB000019153616846D2E900139847A5E700BFA5
:10AFC00000200040A42C00201F2886BF00F01F0096
:10AFD000044B4FF0A04300F5E070022243F820201C
:10AFE000704700BF000300502DE9F843634B05791B
:10AFF00091462C2202FB0532064692F82A200C4686
:10B000009846002A40F0B6805D490068FFF7D2FEFE
:10B010000746002840F0B08021684A1C10D01F2944
:10B0200087BF584A01F01F030B464FF0A042012092
:10B03000984003F5E073C2F80805032042F82300A6
:10B040006068431C0DD01F288BBF00F01F03034610
:10B050004C4A4FF0A04203F5E0734FF0000C42F869
:10B0600023C03368A269C3F8242594F814C0627D14
:10B07000BCF1010F4CEA0202C3F86C25C3F81405B9
:10B08000C3F80C152BD1A168481C0DD01F298BBF0C
:10B0900001F01F020A463B484FF0A04002F5E07263
:10B0A0004FF0000C40F822C0E068421C13D01F286B
:10B0B00087BF344A00F01F0C84464FF0A0424FF087
:10B0C000010E0EFA0CFE0CF5E07CC2F808E54FF01C
:10B0D000030E42F82CE0C3F80805C3F810152C2322
:10B0E0006B4308EB0302C2F80490226948F803207E
:10B0F000B9F1000F2BD03068247F4FF48E71FFF729
:10B1000087FE30684FF4A271FFF782FE32681E4B53
:10B11000C2F80433110B42F30732002AA8BF02F130
:10B1200060404FEA4413BABF184801F00F0400F51D
:10B130006140DBB2B4BF035580F8003301F01F015A
:10B14000012303FA01F15209114B43F8221033682D
:10B150000422C3F800252C2303FB05830022C3E946
:10B16000062283F829205A61012283F82A203846D2
:10B17000BDE8F8830827FAE71127F8E7A42C002098
:10B180008DAE0200000300508000020014ED00E0CC
:10B1900000E100E02DE9F04103680479244D00222C
:10B1A000C3F800252C2202FB0452014652686AB102
:10B1B000204AC3F8082343F30732C3F30436520985
:10B1C0000120B04020321C4E46F82200D3F80C0576
:10B1D000D3F81485D3F80865D3F810754FF0FF3213
:10B1E0009042C3F81425C3F80C25C3F80825C3F80A
:10B1F000102501D0FFF7E8FEB8F1FF3F02D040462E
:10B20000FFF7E2FE7A1C02D03846FFF7DDFE731C22
:10B2100002D03046FFF7D8FE0868FFF7EDFD2C237B
:10B2200003FB0454002384F82A306360BDE8F081F6
:10B23000A42C00208402020000E100E02DE9F04788
:10B24000204F90F804904FF02C0808FB0974054635
:10B250006669002E34D162610068A16026624FF4F5
:10B260008E7184F82860FFF7D3FD2868012383607E
:10B270002146FFF7D5FD6368A0468BB92868D4F84E
:10B2800014A0236A9A4511D82A68D2F81C31002BE1
:10B29000FBD00123D3602C2303FB097300225A61E6
:10B2A0003046BDE8F08794F828303BB9D0F81C311F
:10B2B000002BF8D04146FFF7B3FDE2E70F26EAE79F
:10B2C0001126EDE7A42C00200023435082B0435800
:10B2D0000193019B02B070471FB501238DF8003028
:10B2E000044BCDE90110D3E900126846904705B040
:10B2F0005DF804FBD02C00201F2886BF00F01F0043
:10B30000044B4FF0A04300F5E070022243F82020E8
:10B31000704700BF000300507FB5434AD2F8246154
:10B32000002E60D010464FF49271FFF7CDFF02233C
:10B330008DF80030D2F88034C2F880340393D2F80C
:10B340003C350293394BDA6801920022C3E90622A8
:10B350006846D3E9001290473348D0F8443173B1BE
:10B360004FF4A271FFF7B0FF304B9A693AB1002257
:10B37000C3E90622D968D0F83C05FFF7ADFF2A489B
:10B38000D0F82031ABB14FF49071FFF79DFF01234E
:10B39000C360264B5A6962B1D0F84C150291002265
:10B3A00099688DF8002001915A616846D3E900122E
:10B3B00090471D48D0F858319BB14FF4AC71FFF75E
:10B3C00083FF1A4B5A6962B1D0F84C1502910022E2
:10B3D00099688DF8002001915A616846D3E90012FE
:10B3E000904704B070BDD2F81031002BB4D04FF4A8
:10B3F00088711046FFF768FF0C4BD2F83C0599693D
:10B400008842A9D1DC69D96864B1D2F8005225F02C
:10B410002005C2F800521A699C61DA60DE61FFF70C
:10B420005BFF99E79C61FAE700200040D02C0020E8
:10B430002DE9F8436A4B06799146242202FB063235
:10B44000044692F820200D469846002A40F0C3801A
:10B4500064490068FFF7AEFC0746002840F0BD8055
:10B460002868421C10D01F2887BF5F4A00F01F03C6
:10B4700003464FF0A0420121994003F5E073C2F862
:10B480000815032142F8231069684B1C0DD01F29B1
:10B490008BBF01F01F030B46534A4FF0A04203F548
:10B4A000E0734FF0000C42F823C02368AA69C3F888
:10B4B000242595F814C06A7DBCF1010F4CEA020204
:10B4C000C3F86C25C3F80C05C3F814152BD1A96873
:10B4D000481C0DD01F298BBF01F01F020A464248AD
:10B4E0004FF0A04002F5E0724FF0000C40F822C08F
:10B4F000E868421C13D01F2887BF3B4A00F01F0C8E
:10B5000084464FF0A0424FF0010E0EFA0CFE0CF5EF
:10B51000E07CC2F808E54FF0030E42F82CE0C3F8D7
:10B520000805C3F810152423734308EB0302C2F87F
:10B5300004902A6948F80320B9F1000F3AD0206836
:10B540002A7F4FF48871FFF7BFFE20684FF4907197
:10B55000FFF7BAFE20684FF49271FFF7B5FE20683E
:10B560004FF4A271FFF7B0FE20684FF4AC71FFF703
:10B57000ABFE23681D49C3F80413190B43F30733CB
:10B58000002BAEBF03F1604001F00F0518484FEAF1
:10B590004212A8BF00F56140D2B2B4BF425580F854
:10B5A000002301F01F01012202FA01F15B09114A97
:10B5B00042F8231023680822C3F80025242303FB44
:10B5C00006830022C3E906225A61012283F8202063
:10B5D0003846BDE8F8830827FAE71127F8E700BFE7
:10B5E000D02C002019B302000003005010034200C9
:10B5F00014ED00E000E100E02DE9F0412E4E057968
:10B60000242303FB056304465B6800686BB12B4B86
:10B61000C0F8083340F30733C0F304315B0901225B
:10B620008A402033264941F82320D0F800320122F5
:10B6300023F02003C0F800324FF4AC714260FFF7F2
:10B6400043FE2368DA60D3F85821002AFBD0002299
:10B65000C3F80025D3F80C05D3F81485D3F80815E2
:10B66000D3F810754FF0FF329042C3F80C25C3F8A1
:10B670001425C3F80825C3F8102501D0FFF73CFEB8
:10B68000B8F1FF3F02D04046FFF736FE7A1C02D0E9
:10B690003846FFF731FE4B1C02D00846FFF72CFE60
:10B6A0002068FFF7A9FB242303FB0565002385F829
:10B6B00020306B60BDE8F081D02C002010034200E8
:10B6C00000E100E001F06043B3F1005F2DE9F041DB
:10B6D000064638D11E4B0779242505FB07359846C9
:10B6E0006C69002C31D16A610068A9604FF49071D7
:10B6F000FFF7EAFD4FF4AC713068FFF7E5FD336802
:10B700006A69A968C3F84415C3F8482501229A60FC
:10B710006A68AAB9D3F82021D3F858411AB9002C85
:10B72000F8D00F2407E0002CFBD10122DA60D3F817
:10B730005821002AFBD0242303FB078700237B61C9
:10B740002046BDE8F0811024FAE71124F8E700BF95
:10B75000D02C002070DF704776DF70477ADF7047AB
:10B760007CDF70478FDF704733DF7047FCF77CBCAE
:10B7700008B5002004F0A2F908B1FCF775FC03F04D
:10B78000D9FF08B1FCF770FCFFF7EEFF18B1BDE878
:10B790000840FCF769BC08BD0388212B13B504469B
:10B7A00035D005D8102B17D0112B0AD002B010BD00
:10B7B0003B2B01D0562BF9D1A0881321FFF7CCFFEA
:10B7C00020E0174B17481849C01AC008000440F081
:10B7D0000300FCF761F9E9E7114B12481349C01A5D
:10B7E000C008000440F00300FCF756F9072004F0FD
:10B7F00065F908B1FCF738FC0D4BA1880D4819809C
:10B8000001F068F80028D1D0FCF72EFCCEE7002329
:10B8100001A98088ADF80430FFF7A4FFF2E700BF6C
:10B8200028FF020050FF0200FC0803000A09030081
:10B83000442300203C31002008B503784BB9054B68
:10B840003B211888FFF788FF18B1BDE80840FCF7D6
:10B850000BBC08BD44230020072808B513D00A28D4
:10B860000DD0042819D10D4B13211888FFF774FF50
:10B8700030F0080311D0BDE80840FCF7F5BBBDE887
:10B880000840FFF775BF054B1A884FF6FF739A42C1
:10B8900003D1034801F056FAEAE708BD442300202B
:10B8A000F42C002008B598B1032815D10B4B0C4897
:10B8B0000C49C01AC008000440F00300FCF7ECF883
:10B8C000022004F0FBF838B1BDE80840FCF7CCBB1F
:10B8D000BDE80840FFF74CBF08BD00BF28FF0200CD
:10B8E00050FF02001509030008B50548032101F0C7
:10B8F000E2F818B1BDE80840FCF7B6BB08BD00BFD0
:10B90000F42C002030B5037885B004460D2B12D8F6
:10B91000DFE803F00711131125112D3F113B113FF3
:10B92000383F1D481D4B1E49C01AC008000440F096
:10B930000300FCF7B1F805B030BD4088164D00F0AB
:10B94000C7FD02461548237A00932D1AED082D04F1
:10B950006388144945F00300FCF7B5F8EBE70023D2
:10B9600040888DF80C3003A902F028FBE3E7FEF7CE
:10B9700073FA48F207629042DDD00028DBD0FCF772
:10B9800073FBD8E7FFF7B0FFD5E700690028D2D0F6
:10B99000F5E78068FAE700BF50FF020028FF0200C9
:10B9A0002709030050090300FCF75EBB00B54FF404
:10B9B0000041B1B00020FBF7B9FE08B1FCF754FB21
:10B9C000FBF7EAFDFCF712FC08B1FCF74DFB7649EA
:10B9D000032004F07FF808B1FCF746FB05A900201E
:10B9E00003F0B8FE08B1FCF73FFB9DF81440FDF7EB
:10B9F000E7FA08B1FCF738FB03F05AFC08B1FCF792
:10BA000033FB002305A90120059303F019FD08B1BC
:10BA1000FCF72AFB05A803F0C5FD08B1FCF724FBE1
:10BA2000112362488DF8083004F010FA5F4982B2A1
:10BA300002A8FFF795FE08B1FCF716FB00210822CB
:10BA400003A804F0D0F95A494FF0C87303A8CDE910
:10BA50000313FFF783FE08B1FCF706FB0822002161
:10BA600005A804F0C0F9534B059305A8FFF772FE33
:10BA700008B1FCF7F9FA5048002100F023FE08B1A4
:10BA8000FCF7F2FAAC22002105A804F0ACF902237D
:10BA90008DF81430ADF82430484B0A934FF4C0624F
:10BAA0000123ADF816208DF890304FF4967244F2D1
:10BAB0005063CDE927234248424B2E9305A900F05D
:10BAC00083FF08B1FCF7D0FA3D48012100F079FF6F
:10BAD0003D4B3E48059305A900F0EAFE08B1FCF78E
:10BAE000C3FA1C22002105A804F07DF900234FF4BD
:10BAF0002032CDE90532ADF822304FF470228DF8B6
:10BB00002430334B07920A930322324B8DF82020C6
:10BB100005A80B9300F0E0FB08B1FCF7A5FA02F0D2
:10BB2000FDF908B1FCF7A0FA0522002105A804F0F0
:10BB30005AF9059B03F07C42274B134305939DF86C
:10BB4000183023F0030343F0030305A88DF81830E1
:10BB500002F02AFA08B1FCF787FA204802F00CFA42
:10BB600008B1FCF781FA1E4B1E481F49C01AC008D5
:10BB7000000440F003000190FBF78EFF022C0FD170
:10BB80001A490198FBF788FF02F026FA08B1FCF782
:10BB90006BFAFBF725FE0028FBD1FDF727FAF8E743
:10BBA000FFF7A2FEF5E700BF59B8020090090300B5
:10BBB0005000A00001021E00283100203C2300207C
:10BBC000F42C0020A5B802006DB702003C31002023
:10BBD00039B80200A9B902003107100305B9020003
:10BBE00028FF020050FF020098090300AE0903007D
:10BBF0006DDF704779DF70477DDF704764DF704726
:10BC00002DE9F04F85B000250E9CBDF83CB0B4F88E
:10BC100000A00191074690461E46A9463A884A452B
:10BC20000DDC45B12388013BA3EB0A039BB2FF2B3C
:10BC30003AD806F80A30002005B0BDE8F08F7A68DF
:10BC400052F82900039000220DF10B0103A8FFF721
:10BC5000D5FF0028F0D19DF80B20424521D1228844
:10BC6000002D14BF0020022002EB080101445945B9
:10BC70001ADC3DB9013292B2019B2280B354228872
:10BC80000132228022880DF10B01324403A8FFF714
:10BC9000B5FF0028D0D121889DF80B200A442280CE
:10BCA000012509F10109B9E70C20C5E72DE9F341A8
:10BCB000089FBDF824801546CDE90078022204468D
:10BCC0001E46FFF79DFF50B93346102229462046F5
:10BCD000CDE9087802B0BDE8F041FFF791BF02B0AE
:10BCE000BDE8F0812DE9F04F00231788138090F80C
:10BCF0002D3085B006460D46144653B3082F01D8A3
:10BD00000C2027E102A8FFF773FF002840F02281F2
:10BD100023880822EA54238801339BB21B22238004
:10BD2000EA542088013080B2208006220DF10901FA
:10BD3000284404F02FF823889DF8082006339BB28E
:10BD400012F0FE0218BF01222380EA542388013337
:10BD50002380B378FBB123880433BB42D0D802A838
:10BD6000FFF748FF002840F0F58023880322EA54BB
:10BD7000238801339BB219222380EA542388BDF81B
:10BD8000082001339BB2E9182380EA54120A4A7052
:10BD9000238802332380F2789AB12388D91CB942D0
:10BDA000AED80221E954238801339BB201212380BC
:10BDB000E95423880B449BB22380EA5423880B4424
:10BDC00023807268AAB12388D91CB94298D802216D
:10BDD00092F90020E954238801339BB20A21238081
:10BDE000E954238801339BB22380EA54238801332A
:10BDF00023803389002B40F0A180338A5BB1CDE9E9
:10BE000000472B460722032106F11000FFF74EFFE3
:10BE1000002840F09F80338B5BB1CDE900472B4673
:10BE20001522142106F11800FFF740FF002840F00A
:10BE30009180326A002A40F09080D6F82480B8F1D0
:10BE4000000F30D0B8F804302188981C8A1C0244B6
:10BE5000BA423FF655AFFE283FF652AF03336B545C
:10BE6000238801339BB2FF222380EA5423880133C5
:10BE70009BB22380B8F80020EA54E918120A4A70ED
:10BE80002088023080B22080B8F804205AB1D8F857
:10BE9000081000296BD0284403F07CFF2388B8F8F1
:10BEA00004201344238096F82C30002B40F09A8015
:10BEB000307800284ED03388012B58D0228802F1E8
:10BEC000020CBC453FF61CAF012805D17378023344
:10BED00013449F42FFF414AF023FBF1ABFB202A93E
:10BEE00005EB0C00ADF80870FFF786FE90BB3178CB
:10BEF000BDF80830022900F0BA8072789A4202D365
:10BF0000BB4240F2B280012940F0B380974293B225
:10BF1000C0F0AF80ADF808300821BDF80830FE2B26
:10BF20003FF6EEAE22880133AB542288013292B242
:10BF30002280A9542288134423800BE0CDE90047D6
:10BF40002B460622022106F10800FFF7AFFE00286B
:10BF50003FF453AF05B0BDE8F08FB4F800C00CF16A
:10BF60000603BB423FF6CCAE1188052901D8072055
:10BF7000F0E76FF4486E01EB0E039BB24FF27D3E8B
:10BF80007345F4D95388052BF1D96FF4486018181C
:10BF900080B27045EBD94FF6FF70814203D08342E7
:10BFA00001D09942E3D8052305F80C3023880133EA
:10BFB0009BB212212380E954238801339BB2238052
:10BFC0001188E954E818090A4170238802339BB2AA
:10BFD00023805288EA54E918120A4A7023880233EF
:10BFE00023802AE7B36A002BC1D04FF000094FF03D
:10BFF0000C0A4FF0160B96F82C305FFA89F2934238
:10C000007FF656AFB16A0AFB02F201EB0208B8F8FC
:10C010000430981CFE283FF673AE208803332B545F
:10C02000238801339BB2238005F803B023880133B2
:10C030009BB223808A5AEA54E918120A4A7020886F
:10C04000023080B22080B8F804205AB1D8F8081025
:10C0500000298CD0284403F09DFE2388B8F80420E2
:10C060001344238009F10109C5E7092155E7BB42C3
:10C07000FBD9ADF808704FE770B5E8B14AB1168842
:10C080000024B44203D305196D789D4208D0A14223
:10C0900001D8002010E0055D01352C44A4B2F0E782
:10C0A000A142F6D9005D0138A31C80B29DB210FAFE
:10C0B00083F38B42EDDC158070BD13B5134600226F
:10C0C000ADF806200DF106020446FFF7D5FF10B1CA
:10C0D000BDF80630E01802B010BD75DF704776DF9E
:10C0E00070477ADF70477BDF70470000034B1A8888
:10C0F00082420CBF18460020704700BF6431002008
:10C10000024B9B6903B11847704700BF48310020BC
:10C1100073B585B22846FFF7E9FF044670B1164EA5
:10C12000027A337B9A420BD200F10A012846FFF7CC
:10C13000D4FFE8B1112801D0FFF7E2FF02B070BDD3
:10C1400000230372337C43B13B212846FFF7C7FF2E
:10C1500030F0080301D0FFF7D3FF7369002BEDD057
:10C1600000228DF80420ADF8065001A89847E5E7B5
:10C17000237A01332372E1E74831002037B50B46BB
:10C18000497A0F4A71B9D2E901141D7A0246002D8D
:10C1900018BF21465868FCF766F808B1FFF7B0FFF2
:10C1A00003B030BD002119725369002BF8D0012271
:10C1B000ADF806008DF8042001A89847F0E700BF0D
:10C1C000483100204B8802889A4213D842889A420C
:10C1D00010D380888A8840F2F313984294BF031AE0
:10C1E000C31A934206D800F2F310904234BF0020E5
:10C1F00001207047002070470388122B70B501465C
:10C2000059D004D8102B1ED0112B44D070BD502B08
:10C21000FCD12F4BC288DB899A42F7D1038A022BCB
:10C22000F4D186883046FFF761FF05460028EDD03F
:10C2300001F1120000F0FCF938BB6868FCF72BF83C
:10C240000028E3D009E0C37B012BDFD14FF6FF705C
:10C25000FFF74CFF054620B90420BDE87040FFF70A
:10C260004FBF1C4A8E880680002303721368C0F8F3
:10C270000A305368C0F80E3010310A30FFF7A2FFC1
:10C28000134B6872DB89002BC0D129463046BDE8CC
:10C290007040FFF773BF8088FFF728FF044600282F
:10C2A000B4D04068FBF7F7FF08B1FFF729FF4FF65E
:10C2B000FF732380AAE786883046FFF717FF0546FD
:10C2C0000028A3D008310A30FFF77CFF6872DCE752
:10C2D0004831002078310020F8B5064648B30546BD
:10C2E0000FCD154F3C460FC495E8070084E80700C2
:10C2F0003068124C3C60B0B1FFF7F3FEC0B9326851
:10C3000013682360536863600D480E4A4FF6FF734D
:10C3100003800D4B40F8043F0021FBF799FF0028F4
:10C3200018BF032004E02046FFF7DDFE0028EBD015
:10C33000F8BD0E20FCE700BF483100207831002016
:10C340006431002011C1020080310020F7B517468A
:10C3500001900E4691B1019C6CB100252C462946F6
:10C3600001A8FCF7B6FA18B13946A8B2B0470134B3
:10C370000135142DF3D1204603B0F0BD0C46FAE789
:10C380000AB1FCF785BAFCF79ABA73B50191019C22
:10C3900006466CB100252C46294601A8FCF799FAFF
:10C3A00018B106EB440301349D800135142DF3D1FF
:10C3B0003046346002B070BD2DE9F04703888488B0
:10C3C000103B8CB005460A2B1FD8DFE803F0063F70
:10C3D0001E1E1E1E1E1E1E604400314EB368DB432F
:10C3E000009371686846FCF7D9FA009901A8FFF735
:10C3F000CCFF0DF108094FF00008019B984507D3C9
:10C40000132C13D90420FBF72FFE0CB0BDE8F087E6
:10C4100039F802AB00270137514606EB8700FCF7DD
:10C420004EFA1E2FF7D108F10108E6E71D48214614
:10C43000FCF72EFA1C482146FCF72AFAEB7B012B6D
:10C44000E3D01A482146FCF723FADEE715482146D7
:10C45000FCF735FAD9E7027A15483F2A4FEA121558
:10C46000214694BF00220122FFF78AFF022D94BFCC
:10C47000002201220F482146FFF782FF012D0E48BE
:10C4800094BF002201222146FFF77AFFBDE7037A1D
:10C49000002BBAD1427A0648C2F3C0022146F3E724
:10C4A000A0310020A8310020A4310020AC310020B0
:10C4B000B8310020B4310020B031002013280146EB
:10C4C00002D80248FCF705BA00207047A4310020CA
:10C4D00007B50190FFF7F2FF019930B10448FCF76E
:10C4E000F8F9002814BF0220012003B05DF804FB16
:10C4F000AC31002007B50190FFF7E0FF019930B1A2
:10C500000448FCF7E6F9002814BF0220012003B01C
:10C510005DF804FBA831002007B50190FFF7CEFFBE
:10C52000019928B1044803B05DF804EBFCF7D1B9D8
:10C5300003B05DF804FB00BFB031002007B50190E7
:10C54000FFF7BCFF019928B1044803B05DF804EB84
:10C55000FCF7BFB903B05DF804FB00BFB4310020A5
:10C5600007B50190FFF7AAFF019928B1044803B06D
:10C570005DF804EBFCF7ADB903B05DF804FB00BF58
:10C58000B831002008B518210248FCF7ABF9C0B259
:10C5900008BD00BFA031002070B50A4E05463046E8
:10C5A0000C46FCF796F958B12846FFF787FF38B1DB
:10C5B0000734294606EB8400BDE87040FCF789B9D2
:10C5C000002070BDA0310020F8B50B4F054638465D
:10C5D0000C461646FCF77DF960B12846FFF76EFF62
:10C5E00040B107343246294607EB8400BDE8F840E5
:10C5F000FFF7C6BEF8BD00BFA031002073B50B4DDC
:10C60000019204460E4601462846FCF762F950B1F5
:10C61000063405EB8404019A6068314602B0BDE837
:10C620007040FFF793BE02B070BD00BFA031002084
:10C63000007800F00100704790DF7047A5DF704779
:10C64000B5DF70477FB50023ADF80810ADF80A10CC
:10C650006A4602A9064603930093ADF80430FFF73B
:10C66000EBFF054600B3124B124CE41AE408FCF74A
:10C6700047FD240444F0010403460F493246204696
:10C68000FBF717FABDF80020BDF8023052EA0301AB
:10C6900003D00A492046FBF70CFABDF804201AB172
:10C6A00007492046FBF7FCF9284604B070BD00BFDF
:10C6B00028FF020068FF0200BB090300050A03000F
:10C6C000440A030078B14FF0171303601B23037172
:10C6D0001723C380038141F61B320023016143818C
:10C6E0008281184670470E207047000013B503463C
:10C6F00080880C46B8B91A88242A00F0958014D88E
:10C70000112A71D0232A00F09D80102A3BD0A37AF1
:10C710004BB1E1880020FFF791FF002840F098809E
:10C720004FF48073638102B010BD3A2A64D0552A59
:10C73000EDD1DB88C988A072172B38BF17238B4235
:10C7400028BF0B462381FFF77BFF60B1FCF7D8FCC5
:10C75000484B4949024649481B1ADB081B0443F071
:10C760000100FBF79DF9E37A002BD0D12369002B60
:10C77000CDD040F6772200922289ADF80420694698
:10C7800020469847C3E7DB7B0A790A73012B13D055
:10C79000022B14D0E18823898B4205D20020FFF7B9
:10C7A0004DFF70B90123E372217B637B8B42AED2D4
:10C7B0000020FFF747FFAAE70B88E380EAE74B88F2
:10C7C000FBE7112802D10123A372EDE7FCF798FCE7
:10C7D000284B2B49024629481B1ADB081B0443F04F
:10C7E0000100FBF75DF9DFE71723CB800B8141F6F2
:10C7F0001B3348818B818AE75B89CA88934228BFB3
:10C800001346172B0A6938BF17230B814AB1C97A1F
:10C8100039B140F677210091ADF8043069462046E1
:10C8200090470023638172E71A7A0B694A73002BE1
:10C830003FF46DAF4DF67A218DF8050000918DF82B
:10C8400004209CE7197A237B994228BF1946B0E758
:10C8500011283FF468AFFCF753FC064B0849024629
:10C8600006481B1ADB081B0443F00100FBF718F90C
:10C8700059E700BF68FF0200CB0A030028FF02004F
:10C880009A0A0300B0DF704766DF704710B50021D9
:10C8900004464088FFF7F8FF034608B9237210BD2D
:10C8A000112801D10123F9E76368BDE8104018475A
:10C8B00060B159B10378DE2B0AD00B684360DE23E8
:10C8C00003704FF6FF734380002070470E207047BF
:10C8D0000820704728B10378DE2B04D14180002066
:10C8E00070470E20704708207047F0B5054685B0A8
:10C8F0000C46F1B1E8B10B78DE2B1AD182884B8857
:10C900009A4204D10B7A13B10846FFF7BFFF2B8878
:10C91000112B32D0512B0ED0012B0AD12B7A012BA7
:10C9200007D1A9886288914203D123722046FFF77C
:10C93000ADFF05B0F0BDAE886388B342F9D1AF79E1
:10C94000022FF6D1AD7B2B1F022BF2D80021102233
:10C95000684603F048FA052D14BF4FF4C073002356
:10C96000694630468DF80070ADF80430FFF78AFF55
:10C970000028DED063689847DBE76388AA889A427C
:10C9800004BF4FF6FF736380D3E772DF704773DF36
:10C99000704774DF704738B5012204460D46B0F881
:10C9A0001414D0F81004FFF788FB00B1057004F1EF
:10C9B0003C0204F5826104F15400BDE83840FFF701
:10C9C000E4BF80F830107047F8B504460F460029E0
:10C9D0006DD000286BD091F87A301BB191F8983067
:10C9E000002B66D14FF0000C84F802C007F17806E6
:10C9F0000FCE251D0FC50FCE0FC596E8070085E8A1
:10CA0000070084F830C0D7F8A4306363D7F8A830A3
:10CA1000A3634FF6FF7504F58263C4F82034A4F8CD
:10CA200024540722614604F2264003F0DCF92378FF
:10CA30000BB984F8545094F82430002B14BFEE2323
:10CA40001F2304F15501C4F81014A4F8143404F29F
:10CA500014423846FFF746F940BB94F82430002BC7
:10CA600014BFEE231F2304F23121C4F81814A4F8D4
:10CA70001C3404F21C4207F13C00FFF733F9A8B95B
:10CA8000A369A4F848304FF480730125A4F850300E
:10CA900063692064014684F83C50636404F13C02FD
:10CAA00004F15400FFF771FF00B92570F8BD0E20A6
:10CAB000FCE70720FAE7F8B5077804460D46002F93
:10CAC00000F0098100F226468170072200213046DD
:10CAD00003F089F9E38813B1A378012B04D0E3793B
