:020000022000DC
:1070000000000420757302005D7302005F730200CC
:1070100061730200637302006573020000000000E8
:107020000000000000000000000000006773020084
:1070300069730200000000006B7302006D730200B0
:10704000959502006F7302004D9A02006F73020063
:107050006F7302006F730200A19802006F73020049
:107060006F7302006F7302006F7302006F73020090
:107070006F7302006F7302006F7302006F73020080
:107080006F730200118702006F7302006F730200BA
:107090006F7302006F73020061AE02006F73020033
:1070A0006F7302006F7302006F7302006F73020050
:1070B0006F7302006F730200000000000000000008
:1070C0006F7302006F7302006F7302006F73020030
:1070D0006F7302006F7302006F7302006F73020020
:1070E0006F7302006F7302006F73020000000000F4
:1070F000000000006F730200000000006F730200C8
:10710000000000000000000000000000000000007F
:10711000000000000000000000000000000000006F
:10712000000000000000000000000000000000005F
:10713000000000000000000000000000000000004F
:10714000000000000000000000000000000000003F
:10715000000000000000000000000000000000002F
:10716000000000000000000000000000000000001F
:10717000000000000000000000000000000000000F
:1071800000000000000000000000000000000000FF
:1071900000000000000000000000000000000000EF
:1071A00000000000000000000000000000000000DF
:1071B00000000000000000000000000000000000CF
:1071C00000000000000000000000000000000000BF
:1071D00000000000000000000000000000000000AF
:1071E000000000000000000000000000000000009F
:1071F000000000000000000000000000000000008F
:10720000354936480A1A02D0072291438D4634493F
:1072100034480A1A06D00722914381F309880222D2
:1072200082F3148830483149314A00F044F831483B
:107230003149324A00F03FF831483249324A00F0D1
:107240003AF832483249334A00F035F83248334987
:10725000334A00F030F833483349344A00F02BF811
:1072600033483449344A00F026F83448344900227F
:1072700000F02CF833483449002200F027F8334856
:107280003349091A082902DB002202604160314AB1
:1072900090471F481F49884205D00268043003B454
:1072A000904703BCF7E700208646EC46002000210B
:1072B000294A9047FEE7884207D0521A05D0037842
:1072C00001300B700131013AF9D17047884202D088
:1072D00002700130FAE770470000042000E003204C
:1072E00000000420000004203CC00200D818002048
:1072F0002C190020D0730200D07302009AB3020050
:107300003CC00200D8180020D818002050B4020059
:1073100050B4020050B4020050B4020050B4020055
:1073200050B4020050B4020050B402003AC002004F
:1073300090C002002C1900202C1900202C190020CC
:10734000AF210020B0210020B0210020B02100207A
:10735000B04100209D73020081A70200FEE7FEE716
:10736000FEE7FEE7FEE7FEE7FEE7FEE7FEE7FEE7F5
:1073700000F002B8FFF7FCBF0F484FF00701884349
:1073800085460E4880470E48016841F4700101604F
:10739000BFF34F8FBFF36F8FFFF732BF09480A4922
:1073A0000A4A884207D0521A05D0037801300B7080
:1073B0000131013AF9D1704700000420ED8F02003D
:1073C00088ED00E050B40200D8180020D818002042
:1073D000F0B595B01D46164608460C4601F022FD54
:1073E0001A9B0D93CDE9086500252B46082205A9B7
:1073F00020460A958DF82C500C9501F030FD079B26
:107400000293069B03939DF814308DF8115003F0FE
:107410000302012A1DD1BDF81420059DC3F3C20348
:10742000C2F383168DF81030B20008230EA920464F
:1074300001F015FDC5F3952508AB0093324602AB6C
:107440000EA9284600F0D8FB204601F0EFFC15B04D
:10745000F0BD022AF8D1BDF81650C3F3C203C5F33C
:1074600089158DF810300827082D2E4628BF0826CC
:107470003B4632460EA9204601F0F1FCAD1B08AB9D
:1074800002AA31460EA8374400F01AFC002DEBD1B9
:10749000DAE70000014B01221A7070476D190020D5
:1074A0007047000070B5124D06460FCD88B06C468F
:1074B0000FC495E80F00002E84E80F004FF0FF3353
:1074C0004FF00602CDE90023CDE90233094A0A480C
:1074D0004FF0EB7308BF00226946069301F0F2FFFC
:1074E00008B100F0B5FD054B1E7008B070BD00BFBF
:1074F00050B4020095740200D81800202C19002006
:1075000007B5044B0093044A4023FFF761FF03B023
:107510005DF804FB1D7502002D19002038B50D4BD8
:107520000D4D002018700D4804782D5DD2B21C4618
:1075300065B1043002F018FF08B100F089FD084B76
:107540001A7812B12378002BFBD038BD0C3002F032
:10755000C7FCF1E76D19002028200020D818002072
:107560002C19002008B50848084A0378D35C3BB1C1
:10757000043002F093FEBDE808400020FFF792BF00
:107580000C3002F059FCF6E7D81800202820002023
:107590000120FFF787BF000008B5FFF7F9FF044897
:1075A000042100F091FA034B01225A7108BD00BF7B
:1075B00040B40200EC180020037813F0040216D047
:1075C00003F00303012B03D0022B09D001207047E5
:1075D0000A6800880232C0F3831002440A60F5E7AB
:1075E0000B684288023303EB92130B60EEE7104600
:1075F000704700002DE9F04F87B000230446861C39
:107600000DF107000F4615468DF8073000F010FF0A
:10761000454801683960D0E90132134401335B1AEF
:10762000824600F21C4700F5836900F21448B34219
:107630001CD30020002D73D004F00F039B0143F0F6
:10764000050363F30F00DAF80020DAF8083013407E
:10765000033316444AF823009DF80700CAF8006077
:1076600000F00AFF012007B0BDE8F08F0121384685
:1076700001F003F9484601F018F9404601F015F908
:10768000DAF80400DAF808B0029000EA0B000330E0
:107690000AEB800002A9FFF78FFF029B50BB0BEAA9
:1076A00003020AEB820203F1020CD2680392013357
:1076B00003EA0B0B0AEB8B0B02F00302012ADBF847
:1076C0000C10CDF808C023D0022A16D083464046BD
:1076D00001F0EEF810B1029BCAF804305946384662
:1076E00001F0CBF8DAE901231344DAF80020013382
:1076F0009B1A9CE70BEA0300C9E7BDF80E30C3F301
:10770000891303334FEA114B0CEB93030293DEE72B
:10771000BDF80C30C3F383134FEA114B6344F5E714
:10772000A40544F006008EE7401A00200B4B0C48DD
:10773000FF2210B59A600022C3F81824C3E9002282
:10774000C3F8142483F8202401F025FB044610B963
:10775000044801F0CDFB204610BD00BF401A0020B8
:10776000BCB30200A4B4020030B50A4C71B10A4A9D
:107770000A49121BD20800239A4201D1002030BDD1
:1077800031F82350854202D00133F5E7034654F81F
:107790003300F4E7D0B3020040B40200D818002050
:1077A000094B013903EBC000032909D8DFE801F0D8
:1077B0000A02040604207047007970474079704738
:1077C0000020704702207047D0B30200034BD3E97A
:1077D0000030C31A58425841704700BF401A002079
:1077E0002DE9F04387B0FFF7F1FF0646002840F08F
:1077F000F9807D4DC5F81804BFF34F8F6B68AC68F6
:1078000002932340033305EB830002A9FFF7D4FE64
:10781000029B18B1D5F81824002A5FD004EA0302AD
:10782000991C013305EB8202234005EB8303D268E8
:10783000DB68049302F00303022B0392029160D1F0
:10784000BDF80E306948C3F38917502FB84628BFDA
:107850004FF0500868F38F1308F10801ADF80E30AF
:1078600001F0B1FA0646002800F0A78001F0DAFA2C
:107870000023082203A9304601F0E7FA029924EA1E
:1078800001020132B8EB820F4FEA820332D95FFA6C
:1078900088F85BB32140DCB2A8EB040803315FFA3F
:1078A00088F9A046524C05EB810108234246304638
:1078B00001F0CBFA34B108F108034A4621463046BC
:1078C00001F0C3FA029B033703EB97070297D5F841
:1078D0001834002B49D1D5F8104459E02A689A424F
:1078E0008FD86A60304607B0BDE8F08340491C4637
:1078F0009946DAE70C40E11C0823424605EB81017A
:10790000DDE7012B59D1BDF80C303848C3F38311A2
:10791000062928BF062161F3891302318900ADF8D9
:107920000C3001F050FA0646002846D001F07AFAF1
:107930000023082203A9304601F087FA0027BDF88A
:107940000C20C2F38312BB00974203F10803BED29E
:1079500002994A1C21400331029205EB8101042265
:10796000304601F072FA0137E9E7304601F05EFA7D
:10797000FFF72CFF80F00100C6B2B3E7E3685B7944
:1079800023B1236831461B6820469847E3681C688A
:10799000002CF3D1304601F049FA0DF107008DF8C3
:1079A000074000F045FDD5F818340BB9029B6B6019
:1079B0009DF8070000F060FDDAE7D5F8104454B9EF
:1079C0000C4B0D480D49C01AC008000440F00200DD
:1079D00000F062F8CCE7236820469B689847E3688C
:1079E0001C68ECE700267DE7401A0020BCB30200CB
:1079F0004C1A0020D0B30200F8B302008DB402008C
:107A00002DE9F74F224D04460F46924601A9012267
:107A10001846D5F808909B46FFF7ECFD20B3019E71
:107A20004FF00008B21CD84508EB020126D11948D6
:107A3000002100F0FFFE80F31000000440EA144033
:107A4000E400731C04F0380403EA090306EA09069B
:107A500044F0010405EB8303033644EA881444EA46
:107A60008724D86045F8264095F820341BB1FFF7ED
:107A7000B7FE0028FBD103B0BDE8F08F09EA010191
:107A800005EB81015AF82830CB6008F10108CAE7FC
:107A9000401A00205C1E002000231A46FFF7B0BFEA
:107AA00007B50123019201AAFFF7AAFF03B05DF811
:107AB00004FB07B5CDE9002302236A46FFF7A0FFC8
:107AC00003B05DF804FB000030B50F49D1F8102475
:107AD00003460020144634B9DC6820714AB9C1F865
:107AE0001034226030BDE4682579854206D02468D0
:107AF000F1E7D268116821601360F3E701300A28CA
:107B0000E8D14FF0FF30EDE7401A0020094A38B5C0
:107B10000123D2F8104482F820341D4604B938BD40
:107B2000E3685D71236820465B689847E3681C68DA
:107B3000F4E700BF401A002007B503460846197A4B
:107B4000052911D05B7A2BB1094A0A49019000F04E
:107B500012FF01980849019000F00DFF019803B051
:107B60005DF804EB00F0FCBE002AF8D0F2E700BF9D
:107B7000B0B40200B5B40200D5B4020030B5C38879
:107B800085B004460D4633B1144A00921449154A93
:107B9000284600F0F0FE217A05291DD0637A4BB10A
:107BA000A088FFF7FDFD104B104953F82020284610
:107BB00000F0E1FE227A0E4BA08853F822200392B7
:107BC0000021FFF7D1FD039A0A490346284605B074
:107BD000BDE8304000F0CFBE05B030BDB0B402000B
:107BE000C0B40200B8B402003CB50200B5B4020053
:107BF00060B50200D8B402002DE9F04385B01F46FD
:107C00000C9D002395F80C902B7306460C4690466D
:107C100029463846FFF7B2FFB8F1060F09D8DFE86A
:107C200008F00412181F283340003146284600F09F
:107C3000A2FE002229463846FFF77EFF85F80C9009
:107C400005B0BDE8F08322683146284600F093FE77
:107C5000EFE7D4E900233146284600F08CFEE8E740
:107C6000A36800933146D4E90023284600F083FE40
:107C7000DFE7E3680193A36800933146D4E900236A
:107C8000284600F078FED4E723690293E368019365
:107C9000A36800933146D4E90023284600F06BFE28
:107CA000C7E76369039323690293E3680193A368B9
:107CB00000933146D4E90023284600F05CFEB8E783
:107CC00008292DE9F74F80460E4617461C463CD83A
:107CD000002593F80C901D7319461046FFF74EFFD0
:107CE000DFF888A0DFF888B0AE4231D918F8052057
:107CF0005946204600F03FFE0135082DF4D11949C0
:107D0000194DDFF870A0204600F035FE4FF0000B53
:107D10005E4522D918F80B207E2A05D8104601921C
:107D200003F0AAFA019A00B92E225146204600F02B
:107D300022FE0BF1010BBBF1080FE9D10122214614
:107D40003846FFF7F9FE84F80C9003B0BDE8F08FD9
:107D50005146204600F00FFECEE72946204600F0AF
:107D60000AFEE6E7ECB40200EAB40200E8B402005E
:107D7000E2B40200EEB40200C30710B507D4F0234A
:107D8000054A4008145C23401943115410BD0901F1
:107D9000C9B20F23F4E700BF301F002030B5094BF4
:107DA0001C78094B196800239C4202DC0022104613
:107DB00030BD11F83350854201EBC302F7D00133D7
:107DC000F2E700BFFC1E0020501F002013B5044640
:107DD0000191FFF7E3FF38B143682BB101992046C9
:107DE00002B0BDE81040184702B010BD034B044874
:107DF00019680022490800F02ABA00BF001F0020BD
:107E0000081F002010B5C0B2FFF7C8FF0446007875
:107E100001F038FD63785A1E53425341834208D122
:107E2000044BD3E90023134303D1BDE81040FFF70F
:107E3000DDBF10BD281F002037B54308354AD35C8D
:107E4000C2074CBF1B0903F00F0304460D46042B69
:107E500035D8DFE803F003252C383C0079B3012145
:107E6000FFF78AFF00230DF107008DF8073000F0BF
:107E7000DFFA0120A4F12003C4F12001264A20FAF0
:107E800001F100FA03F30B43A040D2E90041204383
:107E90000B43C2E900039DF8070000F0EDFA0EE085
:107EA000002918BF02212046FFF766FF07E041B115
:107EB0000321FFF761FF01212046FFF787FF03B091
:107EC00030BD0121EFE70029F9D10421EBE709B129
:107ED0000321E8E7FFF750FF29462046FFF776FF2A
:107EE0000DF107008DF8075000F0A2FA0120A4F16F
:107EF0002003C4F12001084A20FA01F100FA03F33B
:107F00000B43A040D2E9004124EA000021EA030328
:107F1000BFE700BF301F0020281F00202DE9F041DF
:107F2000124E134F00243378A34208DC114BD3E9DF
:107F30000023134318D0BDE8F041FFF757BF3D6859
:107F400005EBC40815F8340001F09CFC98F80130EA
:107F50005A1E53425341181A4142414115F8340008
:107F6000FFF76AFF0134DEE7BDE8F081FC1E002068
:107F7000501F0020281F0020092AF7B505460C468F
:107F800016463CD901F0AEFBD8B11E4B1E481D6011
:107F90001E4B1F4F1C701F4B002120221E6003F040
:107FA00099F91D4B00200021C3E90001013CE4B216
:107FB0000326FF2C0BD1194A1948002100F03CF987
:107FC00003E001F057FB0028DFD003B0F0BD9DF8BF
:107FD000063015F834008DF8046005EBC40223F078
:107FE00007038DF8063001A993788DF805303A46DD
:107FF00001F082FB013CE4B20028DAD0E5E707207B
:10800000E3E700BF501F0020301F0020FC1E0020AF
:10801000057E0200001F0020281F00201D7F020097
:1080200080B5020070B5084D084E00242B789C42A4
:1080300001D3002070BD3368012113F8340001F032
:10804000D7FB0134F2E700BFFC1E0020501F0020C8
:108050001FB50021039001AA44F20100CDE90111EE
:1080600000F004F805B05DF804FB000010B572B62E
:10807000FFF74CFDFFF7B4FB0028FBD1104B114C70
:108080001149E41AE408240444F00100FFF704FD58
:108090000E4B1B68DB0700D500BE0D4944F0020003
:1080A000FFF7FAFCBFF34F8F0A490B4BCA6802F483
:1080B000E0621343CB60BFF34F8F00BFFDE700BF0B
:1080C000D0B30200F8B3020084B50200F0ED00E086
:1080D00090B5020000ED00E00400FA05D0E90223AB
:1080E000D1E90201994208BF90422CBF0120002033
:1080F0007047000008B50B4800F0F5FA0A4B0B4931
:10810000D3E900231218D1E9000143F100038B42A7
:1081100008BF824203D212F1807243F1000310467D
:10812000194608BDF4180020581F0020D01F002059
:1081300037B505460C460A4801A900F006FB60B1B8
:108140000570446001A9064800F029FB18B10548F4
:1081500000F0CEFA002003B030BD0420FBE700BFE2
:10816000BC1F0020F418002038B5184B1B780446BB
:1081700013B90025284638BD0028FAD0037F03F044
:10818000FF05002BF5D0FFF7B5FFD4E90223994294
:1081900008BF904214D3236903B92377D4E905308B
:1081A000984721690029E4D0237F03F0FF05002BC5
:1081B000DFD0D4E90223521843F10003C4E90223BB
:1081C0000348214600F0B3FED4E700BF601F002043
:1081D000ACB5020013B5114B114918680190082382
:1081E0001048582200F09EFA044698B90E4A0F48EB
:1081F00001A900F065F9044660B90C48012100F0BE
:1082000055FA01230A4A0948194600F0B7F9094B03
:1082100001221A70204602B010BD00BFA8B50200AE
:10822000641F0020BC1F002099820200F418002067
:10823000FFFF7F00601F00203AB103685A614A1EA9
:10824000514251411961002070470720704738B5ED
:10825000037F04460D4683B98261FFF74BFF236914
:10826000401941F10001C4E9020103B12561214631
:108270000020BDE83840FFF75BBF002038BD002379
:10828000014603770120FFF753BF0000014800F0CB
:108290002ABA00BFF41800202DE9F04F85B08046BF
:1082A00000F00CFA40B15A4AD2E9003113F1807360
:1082B00041F10001C2E900310021404600F00DFA11
:1082C00038B1544E336823B13068FFF74DFF0023B7
:1082D00033600121404600F000FA20B1FFF70AFFA9
:1082E0004D4BC3E900014D484A4F4D4EDFF83891E0
:1082F00003A900F064FA002845D1DFF82491454E27
:10830000DFF828A1484600F028FE3368002875D021
:108310007BB13368D0E90201D3E90223994208BF57
:1083200090422DD233681B7F1BB13168484600F064
:10833000FEFD484600F00BFED0E902B3074601936C
:10834000FFF7D8FE019BBBEB000463EB0105012C9A
:1083500075F1000345DBB4F5350F40D3FFF796FF09
:10836000304A02444FF496030021504600F026F9AB
:1083700000283ED1336813B9404600F0F7F8376063
:1083800005B0BDE8F08F0378012B1DD0022B09D179
:108390004FF0000A304600F0DAFD002834D080F8B3
:1083A0001CA0F7E73BB941680B7F23B901230B778A
:1083B000304600F0BCFD03A9184800F02BFA03A9D1
:1083C000164800F0FCF996E741683B68994202D1F3
:1083D00000233B60EFE7304600F0C2FDEBE7BA68F0
:1083E000C0E70021504600F06EF93846FFF7BCFEAA
:1083F00001E00D28F9D00023336083E7002BBFD1C3
:10840000404600F0B7F8BBE7012389F80030D2E717
:10841000581F0020D81F0020D01F0020BC1F0020A4
:10842000ACB50200FFFFB400601F0020F41800206C
:1084300070B5EFF3108672B60C4A946801239CB9AC
:1084400093600B4B0B4DD3F8801029401160C3F89B
:108450008050D3F8841051604FF0FF32C3F884206D
:10846000047006B962B670BD0370FAE7DC1F002025
:1084700000E100E0FC06FFBD084B9A6810B55AB158
:1084800050B9EFF3108172B6054A1C6814605C683D
:108490005460986001B962B610BD00BFDC1F0020B7
:1084A00000E100E0435882B03BB100234350435801
:1084B0000193019B012002B070471846FBE70000C2
:1084C000F8B5224B4679224C43F82620214A224B0C
:1084D0009B1A04EBC602DB0812791B04F70032B1C9
:1084E00043F002001D49FFF7D7FA0820F8BD0268E3
:1084F0000D88C2F8085590F9045002798978002D4A
:10850000ADBF05F1604CDFF85CC002F00F0E0CF55A
:10851000614C4FEA4111C9B2B4BF0CF80E108CF88F
:1085200000136D090121DFF840C002F01F0201FABB
:1085300002F24CF82520E21944F83600117143F09C
:1085400003000749FFF7A8FA0020CFE7F01F00203B
:10855000E81F0020D0B3020008B40200B8B5020042
:10856000DAB5020014ED00E000E100E0036801224A
:108570001A607047036801225A60704773B501F1B1
:108580005005AD000068ADB24FF480348C40002639
:10859000C0F80843C0F84843465101F5A871455951
:1085A000019522F07F42019D40F82120C0F844430C
:1085B0000BB1C0F8044302B070BD00002DE9F74FC5
:1085C0000D4622F07F4402684FF4803705F15006D3
:1085D0008F408046B60002EB8500C2F84873B6B201
:1085E000C2F80873D2F8041599464FF0000BD0F882
:1085F0004035C0F8401542F806B05B1A9259009217
:1086000023F07F43012B009A4FEA850A0CD1264BB9
:108610004FF4806043F001039847D8F8003043F8E6
:1086200006B09B590193019BD8F80010D1F804655E
:10863000C1F84473A31B23F07F43012B1CD11A4BB9
:1086400005F5A875013443F0010341F825404FF4C6
:1086500080609847D8F80030D3F804359E4209D19D
:10866000D8F800300020C3F84473C3F8047303B093
:10867000BDE8F08F0D20FAE78A44C9F1FF13CAF86C
:108680004045D1F80405221A013A22F07F4203F551
:108690007F439342EED3002AE2D10134CAF8404529
:1086A000D1F804359842DAE7F0B5020003680222F7
:1086B000C3F8442309B1C3F80423704700684FF49A
:1086C0008271FFF7EFBE4FF4803303FA01F10368C4
:1086D000C3F84813C3F80813704750318900006885
:1086E00089B2FFF7DFBE0368D3F8040570470000C6
:1086F00090F9043001215A0903F01F0301FA03F332
:108700004032024941F82230704700BF00E100E0EA
:10871000024B034A1B681068184700BFF01F002077
:10872000E81F002010B561B1B2FBF3F403FB142481
:10873000A4B244B9C0E9001484608281C381204698
:1087400010BD0E20FCE70920FAE737B550E8013FDD
:108750009DB2C48925448489A54228BF2D1B048964
:10876000A54202BFBFF32F8F002207E0C5EA030531
:1087700040E80154002CE9D14FF001028DF80320AC
:108780000193019B9DF803200B6002F0FF0322B1CF
:108790000B880068184403B030BD1846FBE70A8810
:1087A0004B889A4209D150E8012FC2EA024240E8C0
:1087B0000123002BF7D1012070470020704737B507
:1087C00050E8023F1FFAA3F5C488A54202BFBFF3D9
:1087D0002F8F00220DE0C48925448489A54228BF3B
:1087E0002D1BC3EA054540E80254002CE8D14FF0A8
:1087F00001028DF803200193019B9DF803200B607B
:1088000002F0FF0322B14B880068184403B030BD6A
:108810001846FBE70A884B889A4209D150E8022F94
:10882000C2EA224240E80223002BF7D10120704720
:108830000020704710B5034653E8000F0A4643E88E
:10884000002494F0000FF7D110BD10B5034653E893
:10885000002F42EA010043E8000494F0000FF6D133
:1088600010BD10B5034653E8000F00EA010243E8CB
:10887000002494F0000FF6D110BD10B5034653E864
:10888000002F02EB010043E8000494F0000FF6D142
:1088900010BD10B5034653E8002FA2EB010043E8DA
:1088A000000494F0000FF6D110BD0121FFF7CDBFF9
:1088B0000021FFF7D6BF10B590B1D0E901230168C0
:1088C0009B1ADBB20A60013BDBB2FF2B026802D1CC
:1088D0000020107110BD11684C1C14600B70F2E781
:1088E0000E20F7E737B5054600240DF107008DF897
:1088F0000740FFF79DFD2A686B68116899420ED901
:10890000481E106011F8014CEB68298A01FB043401
:10891000AB6811791B1ADBB2994238BF13719DF80D
:108920000700FFF7A9FD204603B030BD37B5054667
:1089300000230DF107000C468DF80730FFF778FD96
:108940002A681368591C1160E968641A298AB4FB03
:10895000F1F41C709DF80700FFF78EFD03B030BDE9
:10896000826810B504462AB14369016800699847D6
:108970000023A36010BD0EB403B5039921B104AB6D
:1089800001AA019300F076F802B05DF804EB03B0A1
:1089900070470A2938B504460D4602D10D21FFF76C
:1089A000F8FFA3682268591CA160D554D4E90132AC
:1089B0009A4204D32046BDE83840FFF7D1BF38BD06
:1089C0002DE9F84F9846DDE90A43154682460F46E1
:1089D0000A464FF00109AA420FD2C14538BFC1462D
:1089E00013F0010B01D16CB900240126B8F1010F7D
:1089F0001BD908F1FF386E43F8E709F10109B2FB12
:108A0000F5F2E8E79B070ED5B8F1000F0CBF302652
:108A10002026A145E9D2013C31465046FFF7B9FF77
:108A2000002CF6D1E0E72026F3E7B7FBF6F39D42F2
:108A3000E1D9DFF83C80B7FBF6F3504618F8031095
:108A400006FB1377FFF7A5FF3346AB42B6FBF5F6FF
:108A5000F1D2BBF1000F02D00CB1A14501D3BDE8AA
:108A6000F88F20215046013CFFF793FFF4E700BF49
:108A7000F6B502002DE9F74F05461746884600294E
:108A800000F0428118F8011B49B92B7B002B00F044
:108A90003B81284603B0BDE8F04FFFF761BF2529B1
:108AA00040F0B780002698F800302D2B424608F1A0
:108AB000010823D0302B24D02B2B25D000242A2BA7
:108AC00002F1010123D13B681A1D1B683A601C4466
:108AD0000A4613782E2B26D101324FF0000A104699
:108AE00010F8011BA1F1300CBCF1090F1DD80A23AD
:108AF00003FB0A13A3F1300A0246F0E746F0010631
:108B0000D1E746F00206CEE746F00406CBE711F8BF
:108B1000013CA3F130000928DBD80A2202FB04340F
:108B2000303C0A46CBE74FF0000A12F8011B01F077
:108B3000FB0068289046F8D0782909D86F290CD80E
:108B4000632962D022D8252963D0582900F0888073
:108B500098F80030002B95D197E770390829F7D89D
:108B600001A353F821F000BFE38C0200518B0200F7
:108B7000518B0200718C0200518B02004F8C02005D
:108B8000518B0200518B0200618C0200642901D0DC
:108B90006929DDD13A68D2F80090111D89EAE9729D
:108BA0003960A2EBE9724FF0010B092A35DCD3459D
:108BB00038BFD3462CB1B9F1000F01DB720700D5E5
:108BC000013CB30702D5BAF1000F03D0F00701D47E
:108BD0004CBB0024B9F1000F2DDAC9F100092D2199
:108BE0002846FFF7D6FE06F00302022A04D1BAF1A6
:108BF000000F01D11CBB0024CDE9004653460A22D8
:108C000049462846FFF7DCFEA2E73B681A1D1978A3
:108C10003A602846FFF7BDFE9AE70A230BF1010BE5
:108C2000B2FBF3F2C1E7A345D4D220212846013C90
:108C3000FFF7AFFECCE77107D5D52B21D0E7A345D1
:108C4000DAD230212846013CFFF7A3FED2E739688B
:108C5000CDE900460A1D3A6053460A220968D0E76A
:108C600039680A1D3A60CDE9004653461022F5E7FF
:108C70003B681A1D3A6016F00106D3F8009028D11F
:108C8000B9F1000F03D0484602F057FB0646B44244
:108C900000D904BB09F1FF3919F8011F00293FF47D
:108CA00057AF2846FFF775FEF6E728460136FFF76F
:108CB00070FE19F806100029F7D1A642BFF448AF9C
:108CC000002C3FF445AF20212846013CFFF761FE10
:108CD000F3E70026EDE720212846013CFFF759FE87
:108CE000D5E73B681A1D3A60302128461C68FFF71B
:108CF00050FE78212846FFF74CFE00220823CDE9DC
:108D00000032214610227CE703B0BDE8F08F00BF9F
:108D10002DE9F84FB0F806A04579D2F800B09DF8DB
:108D200028900AFB05F5043D88460BEB0301A94298
:108D300003F1040488BFA5EB030BB4FBFAF6074666
:108D40000AFB1644C2F800B04EB9AAEB04055D4513
:108D500028BF5D46BBF1000F04D1BDE8F88F3F6826
:108D6000013EF1E7043408EB06003C442A46B9F121
:108D7000000F0DD02146ABEB050B02F082FADA456D
:108D80002E443F6855464FF0000428BF5D46E1E79A
:108D900001462046EFE7FFF78EBDF8B5467901465C
:108DA000721E0546002393422D6803D30024A64279
:108DB00002D8F8BD0133F6E70F682846FFF7B6FD85
:108DC00001343946F3E72DE9F843068ACD1C0746FE
:108DD000FFF788FD043E35440446B5FBF6F5F0B1D7
:108DE0004FF48073EDB28380C680013D07608146F9
:108DF0004FF00008A84512D23846FFF773FD06462B
:108E000048B163790133637108F10108C9F80000C2
:108E100007608146EEE72046FFF7BFFF3446204655
:108E2000BDE8F88301210430FFF727BD10B501210B
:108E300004460430FFF72DFD10F0FF0F04D120464B
:108E4000BDE81040FFF7A9BF10BD1FB50392002277
:108E5000009203AAFFF75CFF05B05DF804FB1FB5A5
:108E600003920122009203AAFFF752FF05B05DF8BA
:108E700004FB41DF70470000064B10B500241C7056
:108E8000054B1C60BFF35F8F0449054800F039F8BB
:108E9000204610BDFC1F00200020002010B602005C
:108EA000F41F002007B500230DF107008DF80730EF
:108EB000FFF7BEFAF1EE103A23F09F03E1EE103A0D
:108EC000BFF35F8F094B4022C3F884219DF8070050
:108ED000FFF7D2FA01F0AAFF20B1FFF7CAFF03B0F3
:108EE0005DF804FB20BF40BF20BFF8E700E100E0D1
:108EF000836800225A60C3E904229A60DA601A602B
:108F000070470B684A684360934208BF00230160C2
:108F100008BF43607047436843B102689168526874
:108F20000B449342436004BF00234360704770B515
:108F3000446806460D46206818B1B368294698472C
:108F400018B923682B60256070BD2468F3E7436877
:108F5000186808B102681A6070474368186870475B
:108F60004368186800B97047884203D102681A60E4
:108F70000120704703460068F4E7000010B50D4972
:108F8000A1F59472914201D800200FE08C1AE30FF2
:108F900003EBE4035B1002EBC30452F8333083426B
:108FA00005D802D204F10802ECE7606810BD214642
:108FB000E8E700BF1CBB020008B5FFF7DFFF024B6C
:108FC000002808BF184608BDDFB90200054B1B6822
:108FD000082B01BF044B1868B0FA80F0400918BF95
:108FE00000207047300100103401001008B54FF028
:108FF00080430022C3F80C21C3F81021C3F83825A0
:109000004FF0805203F54043D2F80414C3F8201502
:10901000D2F80814C3F82415D2F80C14C3F8281594
:10902000D2F81014C3F82C15D2F81414C3F8301564
:10903000D2F81814C3F83415D2F81C14C3F840152C
:10904000D2F82014C3F84415D2F82414C3F84815F4
:10905000D2F82814C3F84C15D2F82C14C3F85015C4
:10906000D2F83014C3F85415D2F83414C3F860158C
:10907000D2F83814C3F86415D2F83C14C3F8681554
:10908000D2F84014C3F86C15D2F84424C3F8702504
:10909000FFF79CFF10B1384B384A1A60FFF796FF74
:1090A00018B1374BFB22C3F81825FFF78FFF48B1E3
:1090B0003449354B0A681B6822F00F0203F00F0396
:1090C00013430B60FFF782FF18B1304B4FF400726F
:1090D0001A604FF08043D3F80024D20744BF6FF0EA
:1090E0000102C3F800242A4AD2F8883043F47003FE
:1090F000C2F88830BFF34F8FBFF36F8F4FF010234C
:10910000D3F80022002A03DBD3F80432002B2FDA35
:10911000204B0122C3F80425D3F80024002AFBD0F9
:109120004FF010221221C2F80012D3F80024002AB6
:10913000FBD04FF010231222C3F80422154B1A461D
:10914000D3F800140029FBD00021C3F80415D2F88D
:109150000034002BFBD0BFF34F8F0D490E4BCA6874
:1091600002F4E0621343CB60BFF34F8F00BFFDE713
:109170000A4B0B4A1A6008BD8C5600404881030018
:1091800000F00040E40E00405802001040960240FB
:1091900000ED00E000E001400400FA05FC180020AA
:1091A0000090D003074B1B5C1F2B8ABF064A4FF071
:1091B000A04203F01F03D2F80405D840C04300F0DA
:1091C000010070471CBB020000030050074B1B5CF2
:1091D0001F2B86BF064903F01F034FF0A041012259
:1091E00002FA03F3C1F80C35704700BF1CBB020044
:1091F00000030050074B1B5C1F2B86BF064903F082
:109200001F034FF0A041012202FA03F3C1F8083511
:10921000704700BF1CBB02000003005008B50020CF
:10922000FFF7E8FF0120FFF7E5FF0220FFF7E2FF6D
:10923000BDE808400320FFF7DDBF08B50020FFF7B9
:10924000C5FF0120FFF7C2FF0220FFF7BFFFBDE807
:1092500008400320FFF7BABF0A4B185C1F288ABFDB
:10926000094B4FF0A04300F01F00D3F80425012163
:10927000814021EA02000A40C3F80805C3F80C2522
:10928000704700BF1CBB020000030050263818BF07
:109290004FF0FF3070470000C10710B5044642D5BB
:1092A0004FF08043D3F84036DA072ED54FF0102325
:1092B000D3F8043303F00703072B26D11D4B0122FB
:1092C000C3F80425D3F80024002AFBD04FF0102166
:1092D000D1F8042322F0070242F00402C1F804236B
:1092E0000022C3F80425134AD2F80034002BFBD027
:1092F000BFF34F8F1049114BCA6802F4E062134369
:10930000CB60BFF34F8F00BFFDE74FF0A0420C4989
:109310000323C2F81837C2F82037C1F82437C2F83F
:109320003037FFF77BFFA30742BF054B0C22C3F882
:10933000182710BD00E0014000ED00E00400FA0530
:109340000003005038B5074C051E04F1080318BF90
:109350001C4623682BB11A6822605B682846984730
:10936000F7E738BD0C20002020B9054B01225A70C8
:10937000FFF7E8BF012802D1014A9070F8E7704773
:109380000420002020B9034B01225A70FFF7DABFF6
:10939000704700BF0420002038B50B4C237883B9F8
:1093A0000A486360A3602361E36000F0C9F80546E2
:1093B00001F03CFD08B900F0CFF8012323702846E6
:1093C00038BD8525FBE700BF04200020699302001B
:1093D00037B50B4C00230DF107008DF80730FFF770
:1093E00027F8E368013BE360E56815B900F0C6F8CB
:1093F000A5709DF80700FFF73FF803B030BD00BF30
:1094000004200020012813B508D003281CD018B967
:10941000104B0122C3F8802002B010BD0E4C002377
:109420000DF107008DF80730FFF702F823780BB92C
:10943000FFF7B2FFE3689DF807000133E360012303
:10944000A370FFF719F8E7E700F086F8FFF7C0FF11
:10945000E2E700BF00E100E0042000201FB5037830
:109460008DF800304368019383688DF80830C36835
:10947000054A0393054B684653F8213052F82110F2
:10948000984705B05DF804FB18200020202000203C
:109490001FB503788DF800304368019383688DF819
:1094A0000830C368054A0393054B684653F82130DA
:1094B00052F82110984705B05DF804FB18200020F1
:1094C00020200020F0B5194B90F800C0DFF86CE0C8
:1094D00043F82C20164B16460A6943F82C204B7F84
:1094E0000EF80C300C4607460FCC89B06D460FC500
:1094F00094E80F0085E80F001EF80C30CDF810C07E
:109500004BB1002E0B4A694608BF3246381D00F0A9
:10951000E1FD09B0F0BD002E074A694608BF32469A
:1095200007F10C0000F0B2FBF3E700BF20200020A1
:10953000182000205D940200919402002820002051
:10954000044A137923B901211060918018467047AD
:10955000852070472C200020074B1A68D2075FBF78
:10956000C02283F8002301221A604FF080430122B9
:10957000C3F81825704700BF00E100E0044B01224A
:109580001A604FF08042D2F81834DB03FBD47047E6
:109590000C000040154B07B51A687AB100221A601A
:1095A0001B680093009B4FF080430122C3F80823FF
:1095B0000F4B587910B95A711B6898470D4B1A68B0
:1095C00082B100221A601B680193019B4FF0804317
:1095D0000222C3F80823064B1B68012003B05DF884
:1095E00004EB184703B05DF804FB00BF0001004026
:1095F0002C2000200401004000F1804000F5C04014
:10960000002382B0036003680193019B02B070479E
:1096100003681F2B83BF03F01F03036001484FF053
:10962000A04070470003005007B5019001A8FFF764
:10963000EFFF019B00EB8300D0F8003723F44033A9
:10964000C0F80037D0F8003743EA0141C0F80017EE
:1096500003B05DF804FB0000054B4FF0FF32072814
:1096600043F8202084BFC01880F85820704700BFFE
:109670003420002010B5174C94F86A3043BB04F135
:1096800030033021FF22013911F0FF0103F8012BD3
:10969000F9D1C8B2FFF7E0FF01310C29F9D1062258
:1096A00000210D4801F016FE0C4BC02283F8062362
:1096B00040221A604FF4BE70FFF79EFF084B4FF038
:1096C0000042C3F80423012384F86A30002010BD4F
:1096D0000820FCE7342000209820002000E100E072
:1096E00000600040034B93F86A00003818BF012067
:1096F000704700BF34200020F7B53B4E33180546B5
:1097000093F93030002B6CDA8B78C3F34003002BD5
:109710000BBF082400240C200820844202D104201E
:1097200003B0F0BD56F82470013743D1701946F8E4
:10973000242080F8304013B9331983F858508B78BF
:109740005A0717D4D80737D501A80195FFF760FF4E
:10975000019B00EB8300D0F8003723F00203C0F830
:1097600000372248EA0805F007070123BB40875C61
:109770003B4383548B780A7813F0020328D0A4006B
:1097800004F1804404F5C0442D02D4F8103523F4CC
:109790004F3323F44073C4F810351204D4F8103555
:1097A00005F47C5502F4403215431D43C4F81055AE
:1097B0000020B5E70134B0E701A84A780195FFF72A
:1097C00027FF019B03F5E073920040F82320C8E7D0
:1097D000083C344494F8605045EA821284F86020D2
:1097E000E6E708209CE700BF3420002098200020F6
:1097F00073B5224C2618054696F93020072A1ADD43
:10980000224492F858309B09032B0FD1019001A8F4
:10981000FFF7FEFE019BD0F81015D94001F00101C1
:1098200002312846FFF700FF02B070BD012B0CBFCC
:1098300002210321F5E7D3B2072BF5D8930003F1FA
:10984000804303F5C043D3F8100540F00100C3F88E
:10985000100502F14000800080B2FFF7CDFE002924
:10986000E2D096F9303054F82330002BDCD00123BD
:1098700003FA02F2024BC3F80423D5E73420002098
:109880000060004007B5019001A8FFF7C1FE019BF1
:10989000D0F81005D84000F0010003B05DF804FBDB
:1098A0002DE9F04F002489B0CDE90244624D4FF418
:1098B0008072012102F1804303F5C04390B21B681E
:1098C000012B06D1D5F804330B4202D0FFF794FEEA
:1098D0000C430432B2F5907F4FEA4101EAD1574B75
:1098E0001B68012B0ED14FF4BE70FFF785FE4FF0C1
:1098F000A04344F00044D3F810350293504BD3F802
:109900001035039314F0FF0F1AD04E4F0025012697
:10991000344210D0AB0003F1804303F5C043D3F8C9
:109920001005D3F8101557F8253023B1C1F30141C4
:10993000C0F3052098470135082D4FEA4606E7D1C8
:10994000002C75DA04AF002304937B604FF0FF33E3
:10995000CDE90633DFF8EC90DFF8EC8000263546E1
:1099600018F9012B531C4AD0C2F3C2000123D4B210
:1099700002F03F0B02F0070203FA02F208AB1918DB
:1099800011F8083C13423AD009EB0B03A40993F9F0
:10999000303059F823A0BAF1000F08D1032C2ED192
:1099A00017F800C04CEA020C07F800C001E0032CD5
:1099B000F6D001A8CDF804B0FFF72AFE019B11F8FC
:1099C000181C03F5E07C114250F82C00C0F3014054
:1099D00005D0022813D1032C0BD1214604E0032823
:1099E0000DD1032C05D102215846FFF71DFE01358C
:1099F000EDB2BAF1000F02D021465846D0470136E9
:109A0000042EADD1A5B14FF0A0430299D3F8102593
:109A100003F540739142D3F8103502D1039999426E
:109A200006D002920393049A059B0692079393E74C
:109A300009B0BDE8F08F00BF006000407C610040CD
:109A4000000300503420002094200020014B1B68AC
:109A5000184700BFA02000200E4B984237B50C4697
:109A600002D0002003B030BD00230DF107008DF8B7
:109A70000730FEF7DDFC084B1D7915B901221C608B
:109A80001A719DF80700FEF7F7FC002DE9D01120B0
:109A9000E8E700BF00200040A0200020034B9842D0
:109AA00001BF034B00221A601A717047002000406A
:109AB000A02000200023435082B043580193019B13
:109AC00002B070470A4610B54FF48E71FFF7F2FFEF
:109AD000136A9168C95C136A01331362C0F81C15DC
:109AE00010BD8B690A4610B54FF4847123B9FFF796
:109AF000E1FFD0F8183510BDFFF7DCFF536AD168DD
:109B0000D0F81805C854536A01335362F3E70000D4
:109B10001FB501238DF80030044BCDE90110D3E9C6
:109B200000126846904705B05DF804FBA8200020AD
:109B300030B54C48D0F8043313F4007F85B00546A7
:109B40004DD0D0F82431002B49D04FF49271FFF75B
:109B5000B1FF4FF40173C0F80833434B93F8292049
:109B60000AB9012242603F4902228DF80020D1F853
:109B70008024C1F8802403929A690292DA680192E3
:109B80000022C3E906226846D3E90012904735480F
:109B9000D0F81C315BB134494A690B6A9A420A46D3
:109BA0004AD991F82830002B46D1FFF78BFF2D487A
:109BB000D0F844318BB14FF4A271FFF77BFF2A4BF1
:109BC00093F829200AB1012202609A692AB1002281
:109BD000586AD9689A61FFF79BFF05B030BDD5F888
:109BE00004335B07D3D5D5F80831002BCFD01E4CFA
:109BF0001C482146FFF775FF636AA2699A42234613
:109C0000C5D1E269E1684AB12369E3600023606A73
:109C1000A261E3616362FFF77BFFB8E794F8292054
:109C20000AB901226A600F4A4FF40170C2F80803B2
:109C30000022586A9A61EEE70A484FF48E71FFF7E6
:109C400039FF5369002BB2D051690291002391680A
:109C50008DF80030019153616846D2E900139847AE
:109C6000A5E700BF00200040A82000201F2886BFD5
:109C700000F01F00044B4FF0A04300F5E0700222FB
:109C800043F82020704700BF000300502DE9F8433F
:109C9000634B057991462C2202FB0532064692F869
:109CA0002A200C469846002A40F0B6805D4900689C
:109CB000FFF7D2FE0746002840F0B08021684A1C1A
:109CC00010D01F2987BF584A01F01F030B464FF0E1
:109CD000A0420120984003F5E073C2F80805032074
:109CE00042F823006068431C0DD01F288BBF00F092
:109CF0001F0303464C4A4FF0A04203F5E0734FF0B8
:109D0000000C42F823C03368A269C3F8242594F8F4
:109D100014C0627DBCF1010F4CEA0202C3F86C254D
:109D2000C3F81405C3F80C152BD1A168481C0DD03D
:109D30001F298BBF01F01F020A463B484FF0A0408D
:109D400002F5E0724FF0000C40F822C0E068421CBF
:109D500013D01F2887BF344A00F01F0C84464FF0F1
:109D6000A0424FF0010E0EFA0CFE0CF5E07CC2F89A
:109D700008E54FF0030E42F82CE0C3F80805C3F8DD
:109D800010152C236B4308EB0302C2F804902269E0
:109D900048F80320B9F1000F2BD03068247F4FF42E
:109DA0008E71FFF787FE30684FF4A271FFF782FED5
:109DB00032681E4BC2F80433110B42F30732002AFB
:109DC000A8BF02F160404FEA4413BABF184801F03F
:109DD0000F0400F56140DBB2B4BF035580F80033D7
:109DE00001F01F01012303FA01F15209114B43F85D
:109DF000221033680422C3F800252C2303FB0583BB
:109E00000022C3E9062283F829205A61012283F83F
:109E10002A203846BDE8F8830827FAE71127F8E733
:109E2000A8200020319B02000003005080000200A7
:109E300014ED00E000E100E02DE9F0410368047951
:109E4000244D0022C3F800252C2202FB04520146B7
:109E500052686AB1204AC3F8082343F30732C3F3B8
:109E6000043652090120B04020321C4E46F8220030
:109E7000D3F80C05D3F81485D3F80865D3F810751A
:109E80004FF0FF329042C3F81425C3F80C25C3F8F5
:109E90000825C3F8102501D0FFF7E8FEB8F1FF3F11
:109EA00002D04046FFF7E2FE7A1C02D03846FFF7A8
:109EB000DDFE731C02D03046FFF7D8FE0868FFF7BE
:109EC000EDFD2C2303FB0454002384F82A30636047
:109ED000BDE8F081A82000208402020000E100E03B
:109EE0002DE9F047204F90F804904FF02C0808FB24
:109EF000097405466669002E34D162610068A1606C
:109F000026624FF48E7184F82860FFF7D3FD28682D
:109F1000012383602146FFF7D5FD6368A0468BB916
:109F20002868D4F814A0236A9A4511D82A68D2F870
:109F30001C31002BFBD00123D3602C2303FB0973BE
:109F400000225A613046BDE8F08794F828303BB9CA
:109F5000D0F81C31002BF8D04146FFF7B3FDE2E703
:109F60000F26EAE71126EDE7A82000200023435042
:109F700082B043580193019B02B070471FB5012383
:109F80008DF80030044BCDE90110D3E9001268468A
:109F9000904705B05DF804FBD42000201F2886BF41
:109FA00000F01F00044B4FF0A04300F5E0700222C8
:109FB00043F82020704700BF000300507FB5434A9C
:109FC000D2F82461002E60D010464FF49271FFF752
:109FD000CDFF02238DF80030D2F88034C2F88034EF
:109FE0000393D2F83C350293394BDA680192002290
:109FF000C3E906226846D3E9001290473348D0F8F7
:10A00000443173B14FF4A271FFF7B0FF304B9A693E
:10A010003AB10022C3E90622D968D0F83C05FFF71F
:10A02000ADFF2A48D0F82031ABB14FF49071FFF763
:10A030009DFF0123C360264B5A6962B1D0F84C15CD
:10A040000291002299688DF8002001915A616846BA
:10A05000D3E9001290471D48D0F858319BB14FF416
:10A06000AC71FFF783FF1A4B5A6962B1D0F84C15F7
:10A070000291002299688DF8002001915A6168468A
:10A08000D3E90012904704B070BDD2F81031002B14
:10A09000B4D04FF488711046FFF768FF0C4BD2F82C
:10A0A0003C0599698842A9D1DC69D96864B1D2F8C4
:10A0B000005225F02005C2F800521A699C61DA604E
:10A0C000DE61FFF75BFF99E79C61FAE70020004043
:10A0D000D42000202DE9F8436A4B067991462422CA
:10A0E00002FB0632044692F820200D469846002ACC
:10A0F00040F0C38064490068FFF7AEFC07460028C3
:10A1000040F0BD802868421C10D01F2887BF5F4ADE
:10A1100000F01F0303464FF0A0420121994003F5D0
:10A12000E073C2F80815032142F8231069684B1C3C
:10A130000DD01F298BBF01F01F030B46534A4FF070
:10A14000A04203F5E0734FF0000C42F823C02368EF
:10A15000AA69C3F8242595F814C06A7DBCF1010FE3
:10A160004CEA0202C3F86C25C3F80C05C3F81415B9
:10A170002BD1A968481C0DD01F298BBF01F01F02ED
:10A180000A4642484FF0A04002F5E0724FF0000C42
:10A1900040F822C0E868421C13D01F2887BF3B4A02
:10A1A00000F01F0C84464FF0A0424FF0010E0EFA53
:10A1B0000CFE0CF5E07CC2F808E54FF0030E42F807
:10A1C0002CE0C3F80805C3F810152423734308EBEB
:10A1D0000302C2F804902A6948F80320B9F1000F7D
:10A1E0003AD020682A7F4FF48871FFF7BFFE2068BD
:10A1F0004FF49071FFF7BAFE20684FF49271FFF7A9
:10A20000B5FE20684FF4A271FFF7B0FE20684FF44E
:10A21000AC71FFF7ABFE23681D49C3F80413190B9B
:10A2200043F30733002BAEBF03F1604001F00F058D
:10A2300018484FEA4212A8BF00F56140D2B2B4BF3D
:10A24000425580F8002301F01F01012202FA01F1BA
:10A250005B09114A42F8231023680822C3F800253D
:10A26000242303FB06830022C3E906225A6101224C
:10A2700083F820203846BDE8F8830827FAE711273D
:10A28000F8E700BFD4200020BD9F0200000300506B
:10A290001003420014ED00E000E100E02DE9F04180
:10A2A0002E4E0579242303FB056304465B68006892
:10A2B0006BB12B4BC0F8083340F30733C0F30431C4
:10A2C0005B0901228A402033264941F82320D0F837
:10A2D0000032012223F02003C0F800324FF4AC71A9
:10A2E0004260FFF743FE2368DA60D3F85821002A62
:10A2F000FBD00022C3F80025D3F80C05D3F8148551
:10A30000D3F80815D3F810754FF0FF329042C3F818
:10A310000C25C3F81425C3F80825C3F8102501D06F
:10A32000FFF73CFEB8F1FF3F02D04046FFF736FE94
:10A330007A1C02D03846FFF731FE4B1C02D008468B
:10A34000FFF72CFE2068FFF7A9FB242303FB05651C
:10A35000002385F820306B60BDE8F081D420002018
:10A360001003420000E100E001F06043B3F1005F40
:10A370002DE9F041064638D11E4B0779242505FB0F
:10A38000073598466C69002C31D16A610068A96074
:10A390004FF49071FFF7EAFD4FF4AC713068FFF7AE
:10A3A000E5FD33686A69A968C3F84415C3F8482510
:10A3B00001229A606A68AAB9D3F82021D3F85841DB
:10A3C0001AB9002CF8D00F2407E0002CFBD1012291
:10A3D000DA60D3F85821002AFBD0242303FB078737
:10A3E00000237B612046BDE8F0811024FAE71124A8
:10A3F000F8E700BFD42000200220FEF72DBF0000A8
:10A4000008B5094B1B7853B10020FEF7F3FE01207D
:10A41000FEF7F0FEBDE808400320FEF7EBBEBDE806
:10A420000840FEF7FBBE00BFF9200020F8B57B4CCA
:10A43000237805461BB100232370FFF7E1FF172D9A
:10A4400000F28880DFE805F00C171743546576802A
:10A45000888D888D959A9A9A9A9AC4C9D1D9E4E43C
:10A46000FFF7CEFF6E48FDF70AFF6E4B0022044651
:10A470001A702046F8BD0020FEF794FEF8B10020C7
:10A48000FEF7B8FE022D0CBF4FF4E1614FF47A6184
:10A49000644B1D704FF400404FF47A740025E0FBCC
:10A4A00001454FF4FA6200232046294600F024FEBD
:10A4B00000220146BDE8F8405948FDF7C8BEFEF746
:10A4C00085FE022D0CBFC8214FF4C871E0E70020C3
:10A4D000FEF768FE40B10020FEF78CFE4FF4487195
:10A4E000504B03221A70D5E7FEF770FEC821F7E73C
:10A4F0000020FEF757FE38B10020FEF77BFE4FF438
:10A500007A61484B0422EDE7FEF760FE4FF4C87114
:10A51000F7E70020FEF746FE48B10020FEF76AFE8E
:10A52000404B05221A7040F6CD410022C2E7FEF7EB
:10A530004DFEF5E70020FEF78FFE3A4B06221A701B
:10A54000002240F26661B5E70020FEF73FFE354B82
:10A5500007221A7000248CE701202070FEF77CFE91
:10A56000EEE701202070FEF777FE00224FF4005145
:10A57000A0E7FEF762FE2B4B0C22EAE72A482B4E9F
:10A58000FDF77DFED5F1110504461CD0D8B9012D8B
:10A5900013D0C8235D434FF400474FF47A70002175
:10A5A0004FF4FA620023C7FB050100F0A5FD224627
:10A5B00001461D48FDF74BFE04460220FEF706FE4D
:10A5C0000123337055E70220FEF714FE0023F8E75D
:10A5D000FFF716FF134B1222BBE7FFF711FF002016
:10A5E000FEF7F4FD0F4B1322B3E7FFF709FF01203D
:10A5F000FEF7ECFD0B4B1422ABE7FFF701FF002049
:10A60000FEF7E4FD0120FEF7E1FD064B1522A0E771
:10A61000FEF713FE034B1D709CE700BF682100206E
:10A62000402100207021002000210020F92000207E
:10A63000044B1B68DB0703D5034B1878FFF7F6BE06
:10A64000704700BF64210020702100202DE9F041F7
:10A6500006460C46FEF71AFE68B9012C0DD0022CF6
:10A6600025D044B91348FDF70AFE134B9C78134BD1
:10A670001B78A34211D0BDE8F0810F4D6A782C7889
:10A6800042B10F4F0B483A464FF48041FDF7DFFDD2
:10A6900000B93E70094BAA781A70002CEBD0094B18
:10A6A0001B68002BE7D02046BDE8F0411847024B5D
:10A6B0005C78F2E720210020602100207121002039
:10A6C000F82000206C21002000780221FFF7BEBF97
:10A6D000044B1B6813F0010301D0FFF7A7BE184617
:10A6E000704700BF6421002038B5194B1860194B22
:10A6F00010F002040546196014D0174B17480E22BB
:10A700001A70012140F23332FDF736FC044648B995
:10A71000FDF788FC044628B90146114A1148FDF7A7
:10A720008BFD0446EB0711D50120FEF7B5FD6CB992
:10A7300021460D4A0D48FDF77FFD044630B9BDE8BE
:10A7400038400B4A0B480121FDF776BD204638BD45
:10A75000642100206C2100206021002044BB020005
:10A76000C9A6020050BB020031A6020054BB020081
:10A77000F9A302004CBB020072DF704773DF704721
:10A7800000B54FF4804191B00020FCF7CFFF08B135
:10A79000FDF75EFCFCF700FFFDF71CFD08B1FDF7BF
:10A7A00057FC00210120FFF79FFF08B1FDF750FC87
:10A7B000FEF762FB08B1FDF74BFC00F0F9FA08B1B7
:10A7C000FDF746FC002301A90120019300F078FB6E
:10A7D00008B1FDF73DFC01A800F022FC08B1FDF72F
:10A7E00037FC3C22002101A800F074FD224C062316
:10A7F00000258DF8073001232946ADF814301822C2
:10A800001E4B8DF804502046069300F063FD6560F2
:10A810002575A5811A4D2A46052352F8041B23707D
:10A8200001A8A023A36000F0AFF8164822462946ED
:10A83000FFF7A2FF08B1FDF70BFC134B13481449B7
:10A84000C01AC008000440F00300FDF725F90D4BC5
:10A8500001211878FFF792FF08B1FDF7F9FB0220FC
:10A86000FFF736FF08B1FDF7F3FBFCF7B9FF00284F
:10A87000FBD1FEF717FBF8E7742100201219002026
:10A880000019002010190020D0B30200F8B3020014
:10A8900058BB02006DDF704779DF70477DDF70477E
:10A8A00064DF70472DE9F04F85B000250E9CBDF8A0
:10A8B0003CB0B4F800A00191074690461E46A94658
:10A8C0003A884A450DDC45B12388013BA3EB0A03D6
:10A8D0009BB2FF2B3AD806F80A30002005B0BDE83D
:10A8E000F08F7A6852F82900039000220DF10B01D5
:10A8F00003A8FFF7D5FF0028F0D19DF80B204245B3
:10A9000021D12288002D14BF0020022002EB080173
:10A91000014459451ADC3DB9013292B2019B2280B3
:10A92000B35422880132228022880DF10B01324477
:10A9300003A8FFF7B5FF0028D0D121889DF80B2090
:10A940000A442280012509F10109B9E70C20C5E775
:10A950002DE9F341089FBDF824801546CDE9007824
:10A96000022204461E46FFF79DFF50B933461022CF
:10A9700029462046CDE9087802B0BDE8F041FFF74E
:10A9800091BF02B0BDE8F0812DE9F04F0023178898
:10A99000138090F82D3085B006460D46144653B30B
:10A9A000082F01D80C2027E102A8FFF773FF002829
:10A9B00040F0228123880822EA54238801339BB285
:10A9C0001B222380EA542088013080B22080062296
:10A9D0000DF10901284400F054FC23889DF808205B
:10A9E00006339BB212F0FE0218BF01222380EA5404
:10A9F000238801332380B378FBB123880433BB421F
:10AA0000D0D802A8FFF748FF002840F0F58023883F
:10AA10000322EA54238801339BB219222380EA548B
:10AA20002388BDF8082001339BB2E9182380EA543B
:10AA3000120A4A70238802332380F2789AB123885D
:10AA4000D91CB942AED80221E954238801339BB204
:10AA500001212380E95423880B449BB22380EA54CC
:10AA600023880B4423807268AAB12388D91CB94279
:10AA700098D8022192F90020E954238801339BB22F
:10AA80000A212380E954238801339BB22380EA54AE
:10AA90002388013323803389002B40F0A180338A3F
:10AAA0005BB1CDE900472B460722032106F11000D8
:10AAB000FFF74EFF002840F09F80338B5BB1CDE95C
:10AAC00000472B461522142106F11800FFF740FF1E
:10AAD000002840F09180326A002A40F09080D6F839
:10AAE0002480B8F1000F30D0B8F804302188981CC9
:10AAF0008A1C0244BA423FF655AFFE283FF652AFD9
:10AB000003336B54238801339BB2FF222380EA5422
:10AB1000238801339BB22380B8F80020EA54E91857
:10AB2000120A4A702088023080B22080B8F80420CF
:10AB30005AB1D8F8081000296BD0284400F0A1FBC6
:10AB40002388B8F804201344238096F82C30002B77
:10AB500040F09A80307800284ED03388012B58D0AE
:10AB6000228802F1020CBC453FF61CAF012805D13A
:10AB70007378023313449F42FFF414AF023FBF1AAD
:10AB8000BFB202A905EB0C00ADF80870FFF786FE16
:10AB900090BB3178BDF80830022900F0BA80727895
:10ABA0009A4202D3BB4240F2B280012940F0B38006
:10ABB000974293B2C0F0AF80ADF808300821BDF8DD
:10ABC0000830FE2B3FF6EEAE22880133AB542288CC
:10ABD000013292B22280A9542288134423800BE0D0
:10ABE000CDE900472B460622022106F10800FFF7B7
:10ABF000AFFE00283FF453AF05B0BDE8F08FB4F8C6
:10AC000000C00CF10603BB423FF6CCAE118805290B
:10AC100001D80720F0E76FF4486E01EB0E039BB2FA
:10AC20004FF27D3E7345F4D95388052BF1D96FF46B
:10AC30004860181880B27045EBD94FF6FF7081421A
:10AC400003D0834201D09942E3D8052305F80C30A4
:10AC5000238801339BB212212380E95423880133D6
:10AC60009BB223801188E954E818090A41702388AF
:10AC700002339BB223805288EA54E918120A4A70C0
:10AC80002388023323802AE7B36A002BC1D04FF018
:10AC900000094FF00C0A4FF0160B96F82C305FFAB3
:10ACA00089F293427FF656AFB16A0AFB02F201EBDA
:10ACB0000208B8F80430981CFE283FF673AE2088CE
:10ACC00003332B54238801339BB2238005F803B050
:10ACD000238801339BB223808A5AEA54E918120A66
:10ACE0004A702088023080B22080B8F804205AB11F
:10ACF000D8F8081000298CD0284400F0C2FA238824
:10AD0000B8F804201344238009F10109C5E709219B
:10AD100055E7BB42FBD9ADF808704FE710DF70472D
:10AD200013B5044609496846FEF7EBF8019808B9DF
:10AD300002B010BDD0E900212046904718B1684606
:10AD4000FEF7E9F8F2E71120F2E700BF7CBB020052
:10AD500013B5044607496846FEF7D3F8019B0BB9C3
:10AD600002B010BD2046D3E9002190476846FEF7A7
:10AD7000D2F8F3E794BB02000B4991F816335A0955
:10AD8000EC231341DB0706D5084B9A683AB94FF418
:10AD900080030B60704742F20200FDF759B91A6850
:10ADA00042F480021A60704700E100E0DC1F0020DE
:10ADB000F7B5194F3C7864BB184E01252046357015
:10ADC000FFF7AEFF112821D02046FFF7C1FF144B3B
:10ADD0008DF80340186801900DF10300FDF728FB82
:10ADE000104901A8FFF79AFF0446B0FA80F0400925
:10ADF00038709DF80300FDF73FFB3CB90A4B3470F7
:10AE00001C70FFF7B9FF2846FFF7A2FF204603B0EA
:10AE1000F0BD0824FAE700BFAC210020AB210020E0
:10AE200078BB02006D800200AD210020014B187834
:10AE3000704700BFAC21002007B508496846FEF7FF
:10AE400060F8019B13B903B05DF804FBD3E900205F
:10AE500090476846FEF75FF8F3E700BF88BB020043
:10AE6000FFF7EABF60DF704769DF704761DF704757
:10AE700030B5114B1B7891B0E3B1104D34240DF176
:10AE8000020103A8ADF80240FFF7F0FF70B92946B0
:10AE900001A8FEF736F8029B002BF0D003A8D3E9F7
:10AEA0000021904701A8FEF736F8F4E7052801D005
:10AEB000FDF7CEF811B030BDAE210020D8BD0200A4
:10AEC00030B5054685B00C46002900F097804C4B04
:10AED0000B600C22002101A800F0FCF901238DF881
:10AEE000063022688DF80450062301A92020ADF811
:10AEF0000830FFF7B9FF60B1FEF75EF8414B4249F9
:10AF0000024642481B1ADB081B0443F00100FCF711
:10AF1000C7FD0C22002101A800F0DCF90023226803
:10AF20008DF8053001A94020ADF80630FFF79CFFF1
:10AF300060B1FEF741F8334B3549024633481B1ADE
:10AF4000DB081B0443F00100FCF7AAFD0C220021E2
:10AF500001A800F0BFF9002322688DF8043001A990
:10AF60000120FFF781FF60B1FEF726F8254B294944
:10AF7000024626481B1ADB081B0443F00100FCF7BD
:10AF80008FFD0C22002101A800F0A4F9F82322680B
:10AF9000019301A9A120FFF767FF60B1FEF70CF84C
:10AFA000184B1D49024619481B1ADB081B0443F0C5
:10AFB0000100FCF775FD0C22002101A800F08AF9C0
:10AFC0009DF8043022686FF3000301A9A0208DF8DA
:10AFD0000430FFF749FF034668B1FDF7EDFF094B69
:10AFE0000E49024609481B1ADB081B0443F0010006
:10AFF000FCF756FD0023184605B030BD0E23FAE7D6
:10B00000D818002020B40200A0BB0200D0B3020078
:10B01000E6BB020032BC02007EBC0200CFBC0200D4
:10B0200073B505460668FFF71DFF2B68B34204465B
:10B030001DD91A481A4B1B491B1ADB081B0443F085
:10B0400002000190FCF728FD2B6817490198324651
:10B05000FCF72FFD4FF080532A68D3F80C311349C9
:10B0600001989B0203F100539A1AFCF719FD2CB9C1
:10B070000F4B01221A70204602B070BD2046FDF72A
:10B080009BFF074B0B49024604481B1ADB081B04B5
:10B0900043F00100FCF704FDEDE700BFD0B3020070
:10B0A00020B4020022BD020051BD020082BD020098
:10B0B000AE210020ACBD02004BDF70471FB50D4C28
:10B0C00001A8FFF7F9FF70B9214602A8FDF719FFA3
:10B0D000039B002BF4D00198D3E90021904702A8EC
:10B0E000FDF719FFF4E7052801D0FCF7B1FF04B024
:10B0F00010BD00BFF0BD020053EA020C61D02DE983
:10B10000F04BB3FA83F51E0007BFB2FA82F502FADC
:10B1100005F403FA05F41646C5F120051EBF22FA10
:10B1200005F73C43203556EA044C4FEA144418BF57
:10B130000134A3464FF00009C846904271EB030C5E
:10B1400039D3094207BFB0FA80F700FA07F6B1FA1F
:10B1500081F701FA07F6C7F120071EBF20FA07FCA6
:10B1600046EA0C062037B6FBFBFC7F1B103F07F0BE
:10B170001F04C4F120060CFA04F42CFA06F644BFAE
:10B1800034460026202FA4BF2646002454EA060C8D
:10B1900008BF012418EB040849EB0609A4FB027C54
:10B1A000C01B06FB02CC04FB03CC71EB0C019042EC
:10B1B00071EB030CC5D20B46024649464046BDE83A
:10B1C000F08BB2FBF3F200007F2805D8034B185C2C
:10B1D000034B5B5C184070470020704708BE0200BC
:10B1E00088BE0200A0F16103192B98BF2038704778
:10B1F000A0F14103192B98BF203070477F2805D854
:10B20000034B185C034B5B5C184070470020704791
:10B2100008BE020088BE0200A0F16103192B98BF8E
:10B2200020387047A0F14103192B98BF2030704798
:10B230007F299ABF017001206FF02E0070475AB12C
:10B240000A787F2A0AD800B102600021196059608B
:10B25000501A18BF01207047002070476FF02E0071
:10B260007047000008B5034B5B689B681B689847F4
:10B2700008BD00BF1819002008B50921FFF7F2FF2B
:10B2800008BD844640EA010313F0030F18D1844639
:10B29000202A0BD32DE9F007B1E8F807A0E8F8075A
:10B2A000A2F12002202AF7D2BDE8F007042A07D332
:10B2B00051F8043B40F8043BA2F10402042AF7D2FF
:10B2C000002A05D011F8013B00F8013B013AF9D101
:10B2D000604670478446002A2DD010F0030F04D03A
:10B2E00000F8011B013A26D0F7E7C9B241EA012173
:10B2F00041EA0141202A12D3A2F120022DE9F003F4
:10B300000B460C460D460E460F4688468946A0E879
:10B31000FA03203AFBD2BDE8F00320320BD0042A16
:10B3200005D340F8041B043A05D0042AF9D200F8EA
:10B33000011B013AFBD16046704700F1010110F09A
:10B34000030F11D010F8012B002A23D010F0030FA7
:10B350000AD010F8012B002A1CD010F0030F03D0E4
:10B3600010F8012B002A15D02DE970004FF00132A2
:10B370004FF0803350F8044BA4EB020525EA040596
:10B380001D4000D1F6E7A0F1040070BC10F8012BBD
:0AB39000002AFBD1A0EB010070477A
:08B39C0085930200000000008F
:08B3A400059402000000000006
:10B3AC0071AE020000000000BDB002000000000001
:10B3BC0070190020381A0020401A0020781900203B
:04B3CC001800000065
:10B3D00026BB0200000000002CBB020000000000A1
:10B3E00033BB02000000000037BB02000000000079
:10B3F0003CBB0200000000009EB4020000000303FA
:10B4000074B50200000000009DB5020000000000BD
:10B4100020BB02000000000070BB0200000003031C
:10B42000C9BD020000000303E4BD020000000303E5
:10B4300006B60200000000001CB60200000000007A
:10B4400070B40200000000007CB40200EC18002080
:10B45000FFFFFFFFFFFFFFFFFFFFFFFFFFFFFFFFFC
:10B4600000000000000000000000D60106010000FE
:10B470000175020065750200A174020075617274A5
:10B480005F6C6F675F6261636B656E6400426163EE
:10B490006B656E647320666C7573686564006170BB
:10B4A00070000000641E00207F000000E41E0020E9
:10B4B0001B5B306D002573001B5B313B33316D002E
:10B4C00025734C6F67732064726F707065642028F9
:10B4D00025642925730D0A003C25733E2025733A07
:10B4E0002000202530327800202020007C002563B9
:10B4F000001B5B313B33306D001B5B313B33326DE6
:10B50000001B5B313B33336D001B5B313B33346DD0
:10B51000001B5B313B33356D001B5B313B33366DBC
:10B52000001B5B313B33376D007761726E696E676C
:10B5300000696E666F00646562756700B0B40200F2
:10B54000F1B40200B8B40200F9B4020001B502007F
:10B5500009B5020011B5020019B5020021B50200BB
:10B56000000000008AB5020029B5020031B50200D2
:10B5700036B502006170705F627574746F6E0000A2
:10B58000081F0020466174616C206572726F720042
:10B5900053797374656D20726573657400617070A2
:10B5A0005F74696D65720000010006000000000014
:10B5B000541F0020DD80020052544320696E7374D2
:10B5C000616E636520616C726561647920696E6982
:10B5D0007469616C697A65642E005254433A20693B
:10B5E0006E697469616C697A65642E000000000000
:10B5F0000338FDD870473031323334353637383977
:10B600004142434445467077725F6D676D74000038
:10B61000A4B30200A4B3020004000000736F7274AC
:10B620006C697374004E52465F5355434345535300
:10B63000004E52465F4552524F525F5356435F4849
:10B64000414E444C45525F4D495353494E47004E7D
:10B6500052465F4552524F525F534F4654444556EF
:10B660004943455F4E4F545F454E41424C4544006F
:10B670004E52465F4552524F525F494E5445524ECC
:10B68000414C004E52465F4552524F525F4E4F5F03
:10B690004D454D004E52465F4552524F525F4E4F00
:10B6A000545F464F554E44004E52465F4552524FEE
:10B6B000525F4E4F545F535550504F5254454400C3
:10B6C0004E52465F4552524F525F494E56414C4989
:10B6D000445F504152414D004E52465F4552524FD9
:10B6E000525F494E56414C49445F535441544500C2
:10B6F0004E52465F4552524F525F494E56414C4959
:10B70000445F4C454E475448004E52465F455252A6
:10B710004F525F494E56414C49445F464C41475356
:10B72000004E52465F4552524F525F494E56414C71
:10B7300049445F44415441004E52465F4552524F86
:10B74000525F444154415F53495A45004E52465F4F
:10B750004552524F525F54494D454F5554004E5239
:10B76000465F4552524F525F4E554C4C004E52462A
:10B770005F4552524F525F464F5242494444454EF4
:10B78000004E52465F4552524F525F494E56414C11
:10B7900049445F41444452004E52465F4552524F25
:10B7A000525F42555359004E52465F4552524F52D6
:10B7B0005F434F4E4E5F434F554E54004E52465FCF
:10B7C0004552524F525F5245534F555243455300D5
:10B7D0004E52465F4552524F525F4D4F44554C4575
:10B7E0005F4E4F545F494E495449414C495A454474
:10B7F000004E52465F4552524F525F4D5554455888
:10B800005F494E49545F4641494C4544004E5246BB
:10B810005F4552524F525F4D555445585F4C4F4310
:10B820004B5F4641494C4544004E52465F4552529B
:10B830004F525F4D555445585F554E4C4F434B5FEB
:10B840004641494C4544004E52465F4552524F5284
:10B850005F4D555445585F434F4E445F494E4954E0
:10B860005F4641494C4544004E52465F4552524F57
:10B87000525F4D4F44554C455F414C5245414459F0
:10B880005F494E495449414C495A4544004E52463D
:10B890005F4552524F525F53544F524147455F46A6
:10B8A000554C4C004E52465F4552524F525F4150EC
:10B8B000495F4E4F545F494D504C454D454E5445A0
:10B8C00044004E52465F4552524F525F46454154E6
:10B8D0005552455F4E4F545F454E41424C454400E2
:10B8E0004E52465F4552524F525F494F5F50454E50
:10B8F00044494E47004E52465F4552524F525F44B4
:10B9000052565F5457495F4552525F4F5645525207
:10B91000554E004E52465F4552524F525F4452566A
:10B920005F5457495F4552525F414E41434B004E71
:10B9300052465F4552524F525F4452565F545749E8
:10B940005F4552525F444E41434B004E52465F4565
:10B9500052524F525F424C455F495053505F5258CC
:10B960005F504B545F5452554E4341544544004E32
:10B9700052465F4552524F525F424C455F495053C9
:10B98000505F4348414E4E454C5F414C5245414407
:10B99000595F455849535453004E52465F455252E1
:10B9A0004F525F424C455F495053505F4C494E4B9C
:10B9B0005F444953434F4E4E4543544544004E5215
:10B9C000465F4552524F525F424C455F495053507B
:10B9D0005F504545525F52454A45435445440055E2
:10B9E0006E6B6E6F776E206572726F7220636F641C
:10B9F000650000000000000025B602000100000004
:10BA000031B60200020000004FB602000300000041
:10BA100070B602000400000083B6020005000000BA
:10BA200094B6020006000000A8B60200070000005D
:10BA3000C0B6020008000000D8B6020009000000ED
:10BA4000F0B602000A00000009B702000B00000077
:10BA500021B702000C00000038B702000D00000002
:10BA60004CB702000E0000005EB702000F0000009D
:10BA70006DB702001000000081B702001100000045
:10BA800098B7020012000000A7B7020013000000E0
:10BA9000BCB7020080000000D0B7020081000000A7
:10BAA000F1B70200820000000DB802008300000020
:10BAB00029B802008400000047B802008500000099
:10BAC00068B80200860000008DB8020090000000F7
:10BAD000A4B8020091000000C2B802009200000069
:10BAE000E0B8020000820000F5B802000182000008
:10BAF00013B90200028200002FB902000084000086
:10BB00004BB90200018400006FB9020002840000FA
:10BB100099B9020003840000BEB902000608290C8E
:10BB2000636C6F636B00434C4F434B004750494F6E
:10BB300054450050525300554152540055415254FF
:10BB400045000000260003004DA602000021002051
:10BB50002021002040210020426561636F6E206536
:10BB600078616D706C6520737461727465642E0009
:10BB70006E72665F7364680001000007BCB3020068
:10BB8000BCB3020008000000ACB30200BCB302006A
:10BB900008000000A4B30200ACB3020008000000DB
:10BBA00073645F626C655F6366675F7365742829A1
:10BBB0002072657475726E656420257320776865E0
:10BBC0006E20617474656D7074696E6720746F2087
:10BBD00073657420424C455F434F4E4E5F4346476A
:10BBE0005F4741502E0073645F626C655F636667F8
:10BBF0005F73657428292072657475726E656420A0
:10BC00002573207768656E20617474656D70746942
:10BC10006E6720746F2073657420424C455F474106
:10BC2000505F4346475F524F4C455F434F554E541C
:10BC30002E0073645F626C655F6366675F73657433
:10BC400028292072657475726E65642025732077CB
:10BC500068656E20617474656D7074696E672074B8
:10BC60006F2073657420424C455F434F4D4D4F4EDE
:10BC70005F4346475F56535F555549442E007364F2
:10BC80005F626C655F6366675F7365742829207205
:10BC9000657475726E6564202573207768656E2003
:10BCA000617474656D7074696E6720746F2073655C
:10BCB0007420424C455F47415454535F4346475FAD
:10BCC000415454525F5441425F53495A452E0073C8
:10BCD000645F626C655F6366675F736574282920C3
:10BCE00072657475726E6564202573207768656E61
:10BCF00020617474656D7074696E6720746F207351
:10BD0000657420424C455F47415454535F43464756
:10BD10005F534552564943455F4348414E4745446A
:10BD20002E00496E73756666696369656E7420528C
:10BD3000414D20616C6C6F636174656420666F7245
:10BD40002074686520536F66744465766963652E58
:10BD5000004368616E6765207468652052414D201C
:10BD60007374617274206C6F636174696F6E2066A6
:10BD7000726F6D203078257820746F2030782578A8
:10BD80002E004D6178696D756D2052414D207369AB
:10BD90007A6520666F72206170706C696361746986
:10BDA0006F6E20697320307825782E0073645F628F
:10BDB0006C655F656E61626C6528292072657475BB
:10BDC000726E65642025732E006E72665F73646800
:10BDD0005F626C6500000000A4B30200A4B302001F
:10BDE000080000006E72665F7364685F736F6300C3
:10BDF0009CB30200A4B3020008000000430000004E
:10BE0000504F53495800000020202020202020209F
:10BE100020682828282820202020202020202020BA
:10BE2000202020202020202048101010101010105A
:10BE30001010101010101010848484848484848462
:10BE40008484101010101010108181818181810173
:10BE500001010101010101010101010101010101D2
:10BE60000101011010101010108282828282820261
:10BE700002020202020202020202020202020202A2
:10BE80000202021010101020000703200417020104
:10BE90000857104080000000FCBD020000BF0200F7
:10BEA00014C0020053756E004D6F6E00547565002E
:10BEB00057656400546875004672690053617400E8
:10BEC000000000004A616E00466562004D6172002C
:10BED000417072004D6179004A756E004A756C00C0
:10BEE00041756700536570004F6374004E6F7600B4
:10BEF0004465630000000000414D00504D0000000B
:10BF000038C0020034C0020034C0020034C0020055
:10BF100034C0020034C0020034C0020034C0020049
:10BF200034C0020034C00200FFFFFFFFFFFFFFFF2D
:10BF3000FFFFFFFFFFFF000074BF0200A4BE02006E
:10BF4000B0BF0200C4BE0200F8BE020058BF02002B
:10BF500008C0020064BF0200256D2F25642F2579DB
:10BF60000000000025612025622025652025542041
:10BF70002559000053756E646179004D6F6E6461E0
:10BF8000790054756573646179005765646E6573F3
:10BF900064617900546875727364617900467269EE
:10BFA0006461790053617475726461790000000006
:10BFB0004A616E7561727900466562727561727967
:10BFC000004D6172636800417072696C004D617967
:10BFD000004A756E65004A756C7900417567757326
:10BFE000740053657074656D626572004F63746FA1
:10BFF000626572004E6F76656D62657200446563BE
:10C00000656D62657200000025483A254D3A25535A
:10C0100000000000C9B10200E5B10200F1B1020068
:10C02000FDB1020019B2020025B2020031B20200D5
:0AC030003FB20200000000002E00E5
:10C03C000000000000200040000000000020004034
:10C04C000000000000000000FF0000000010014094
:10C05C00110004000090D0038C2100201F00000070
:10C06C000000000000000000FF000A1802000000A1
:10C07C0098BE020098BE020098BE020098BE020054
:04C08C0098BE020058
:0400000320007375F1
:00000001FF
