:02000002D0002C
:1040000000400D0024540D00000006000C000501C6
:084010000401DE0500000000C0
:044018001C500D002B
:10401C0009480A49884208B505D0094A824202D0AB
:10402C00121A00F0B1FF0748074A0021121A00F0DB
:10403C00B6FF014808BD00BF8CE3032094530D006C
:10404C00F4E30320F4E30320F0E7032070B500F061
:10405C0011FE074C074BE41AA40800251E46A54286
:10406C0004D056F8253098470135F8E770BD00BFED
:10407C0088530D0050530D0000F014B808B500F033
:10408C0021F8BDE8084000F0B7BD00F063B900F0BE
:10409C0061B90078B0FA80F04009704701230370D1
:1040AC007047000008B500F025FD4FF4165100F0E4
:1040BC0015FD00F01FFD0249BDE8084000F0C7BB2C
:1040CC0096500D00704700F039B8000008B5024B4F
:1040DC001B689B68019308BD4802030008B5024B9E
:1040EC001B681B69019308BD4802030008B5024B0D
:1040FC001B685B69019308BD4802030008B5024BBD
:10410C001B685B6C019308BD4802030008B5024BA9
:10411C001B689B6C019308BD4802030008B5024B59
:10412C001B685B68019308BD1802030008B5024BBD
:10413C001B685B69019308BD1802030008B5024BAC
:10414C001B681B68019308BD2C02030008B5024BC9
:10415C001B685B69019308BD6402030008B5024B40
:10416C001B689B68019308BD6802030008B5024BED
:10417C001B68DB68019308BD6802030008B5024B9D
:10418C001B681B68019308BD3C02030008B5024B79
:10419C001B68DB68019308BD3C02030008B5024BA9
:1041AC001B681B69019308BD3C02030008B5024B58
:1041BC001B685B69019308BD3C02030008B5024B08
:1041CC001B689B69019308BD3C02030008B5024BB8
:1041DC001B68DB69019308BD3C02030008B5024B68
:1041EC001B689B6A019308BD3C02030008B5024B97
:1041FC001B681B68019308BD4C02030008B5024BF9
:10420C001B685B68019308BD4C02030008B5024BA8
:10421C001B681B69019308BD4C02030008B5024BD7
:10422C001B685B69019308BD4C02030008B5024B87
:10423C001B689B69019308BD4C02030008B5024B37
:10424C001B68DB69019308BD4C02030008B5024BE7
:10425C001B681B6A019308BD4C02030008B5024B96
:10426C001B685B68019308BD2002030008B5034B73
:10427C001B68D3F88830019308BD000020020300AE
:10428C0008B5034B1B68D3F89430019308BD0000AC
:10429C002002030008B5024B1B68DB6B019308BDC1
:1042AC004402030008B5024B1B685B68019308BD10
:1042BC004002030008B5024B1B689B68019308BDC4
:1042CC004002030008B5024B1B68DB68019308BD74
:1042DC004002030008B5024B1B681B69019308BD23
:1042EC004002030008B5024B1B685B69019308BDD3
:1042FC004002030008B5024B1B689B69019308BD83
:10430C004002030008B5024B1B68DB69019308BD32
:10431C004002030008B5024B1B681B6A019308BDE1
:10432C004002030008B5024B1B681B6B019308BDD0
:10433C004002030008B5024B1B685B6B019308BD80
:10434C004002030008B5024B1B681B68019308BDB3
:10435C001C02030008B5024B1B685B68019308BD87
:10436C001C02030010B50446006808B1FFF7CEFE2E
:10437C00204610BD10B5064C002320462360FFF7E5
:10438C00BDFE2046034A0449BDE8104000F09EBC27
:10439C00F8E30320F4E3032071430D0010B58368A8
:1043AC00044613B1032201469847204610BD002253
:1043BC0011464068FFF7AEBF002211464068FFF778
:1043CC00B9BF00224068FFF7ADBF002281F00101A8
:1043DC004068FFF797BF00231A4619464068FFF75D
:1043EC0089BF00231A4619464068FFF77BBF00229D
:1043FC0011464068FFF76EBF002211464068FFF778
:10440C0059BF002202214068FFF75CBF00231A4607
:10441C004068FFF747BF0000024B03225A60024A74
:10442C001A607047FCE30320A4500D00704710B5D0
:10443C001821044600F04FFC204610BDF0B5037D5A
:10444C00062B8DB00E4600F104074FF0000402D08D
:10445C0000F1080518E00CAD394605F8304D2F2356
:10446C002A460A20FFF772FE284600F0C9FD336881
:10447C000246DB682946304698470FE024B12E21CE
:10448C00304600F0D5F9044415F8011D0A223046D7
:10449C0000F0E7F9BD420444F0D120460DB0F0BD68
:1044AC0010B5054B0446112240F8043B002100F0E6
:1044BC0076FD204610BD00BFD8500D000346074ABC
:1044CC0010B543F8042B01F1100251F8044B43F8DA
:1044DC00044B9142F9D10A781A7010BDD8500D00D6
:1044EC0010B59DF8084044EA032343EA024242EA2D
:1044FC00016104234160037510BD37B50D788B78CD
:10450C004A78C97800912946FFF7EAFF03B030BD1D
:10451C00014B024A1A60704704E4032057510D0006
:10452C00002211464068FFF7F5BE00221146406894
:10453C00FFF700BF00224068FFF7F4BE002281F0B5
:10454C0001014068FFF7DEBE00231A4601214068D6
:10455C00FFF7D0BE00231A4619464068FFF7C2BECB
:10456C00002211464068FFF7B5BE00221146406894
:10457C00FFF7A0BE002202214068FFF7A3BE002374
:10458C001A464068FFF78EBE38B5054688B10468F8
:10459C004CB1A3681BB10322214620469847102139
:1045AC00204600F098FB28461421BDE8384000F066
:1045BC0092BB38BD10B103685B681847704710B5E3
:1045CC0003680446BBB15868FFF780FD78B92368CF
:1045DC005A7C12B95868FFF781FD23685868FFF7B9
:1045EC0085FD20680023236028B1FFF7CDFF2068EC
:1045FC0008B1FFF7C9FF204610BD38B50446D0F806
:10460C00C40108B1FFF743FDD4F8C00108B1FFF7AE
:10461C007DFDD4F8BC5135B12846FFF7D0FF0421FD
:10462C00284600F058FB206808B1FFF7C3FF20466E
:10463C0038BD000010B5044B044640F8083BFFF7AA
:10464C00DCFF204610BD00BFCC510D0038B50E4C20
:10465C000E4B23600025022304F5E4706360A56013
:10466C00C4F8C451C4F8C851FFF748FD084BC4F84E
:10467C00CC5184F8D05123602046064A0649BDE847
:10468C00384000F023BB00BF08E4032000520D00AB
:10469C00CC510D00F4E3032041460D0000231A46D3
:1046AC004068FFF7FFBD002202214068FFF70ABEF9
:1046BC00002211464068FFF7FDBD002211464068FC
:1046CC00FFF708BE00231A4619464068FFF70ABEDA
:1046DC0000231A4619464068FFF70CBE002281F0F1
:1046EC0001014068FFF70EBE00224068FFF71ABEBA
:1046FC00002211464068FFF71DBE0022114640689B
:10470C00FFF708BE2DE9F043002495B016460D4680
:10471C000746FFF7C5FE214620220CA8009400F0A6
:10472C003EFC40230C9321466B460CAA3046FFF707
:10473C001DFD0446002844D1024601216868FFF79C
:10474C00C9FD0221804622466868FFF7C3FD009E22
:10475C0081462146002E34D0002932D17368022BB9
:10476C0002D00A2B09D02AE0B8F1000F27D07169CA
:10477C0038460431FFF7C1FE20E0B9F1000F1ED01E
:10478C007469112201A800F00AFC06238DF814307C
:10479C0001AD04F108031834186859682A4603C29D
:1047AC000833A3421546F7D101A906A807ADFFF7B8
:1047BC0085FE0FCD3C1D0FC42B6823700121F669BB
:1047CC00C8E70098FFF7CAFC384615B0BDE8F0837F
:1047DC00024B034A1A6000225A607047DCE5032042
:1047EC0000520D00F8B506460D468F180024BD4248
:1047FC000CD0336815F8011B9B683046984700288D
:10480C0001DB0444F3E7002C08BF04462046F8BD46
:10481C0070B505460C46084649B100F0F1FB2B6813
:10482C00024621462846DB68BDE87040184770BD3B
:10483C0003689B68184738B50D210546FFF7F8FF4C
:10484C000A2104462846FFF7F3FF204438BD38B54B
:10485C000546FFF7DDFF04462846FFF7ECFF204432
:10486C0038BD30B58BB00B4600218DF82410012AD1
:10487C0098BF0A220DF12304B3FBF2F505FB1233AA
:10488C0003F0FF03092B94BF30333733DBB22146DF
:10489C0004F801392B46002DEED1FFF7B9FF0BB010
:1048AC0030BD10B50446FFF779FD204610BD000061
:1048BC000348044A04490023836000F007BA00BF90
:1048CC00E4E50320F4E30320AF480D0010B50446E3
:1048DC00006818B1FFF73EFD0023236010BD10B532
:1048EC000446FFF7F3FF204610BD000010B5094C3D
:1048FC0000204FF6FF732060A080A071208163819F
:10490C00FFF7ACFC2046044A0449BDE8104000F017
:10491C00DDB900BFF4E50320F4E30320EB480D0000
:10492C00024B1A68024B1A60704700BF8CE30320DD
:10493C0000E6032070474174704708B5007CFFF710
:10494C004DFC20EAE07008BD08B5007CFFF726FCA2
:10495C0020EAE07008BD08B5007CFFF72FFC30EAB8
:10496C00200028BF4FF0FF3008BD08B5007CFFF7D2
:10497C001DFC30EA200028BF4FF0FF3008BD007C42
:10498C00FFF724BC10B51421044600F0A4F920460E
:10499C0010BD70B5457C04460E4625B9007CFFF76A
:1049AC001DFC002805DD3146207CBDE87040FFF77A
:1049BC00EDBB284670BD000010B5044608461146F4
:1049CC00002262604FF47A72A260054A22600122D2
:1049DC00207462741A46FFF7D1FB204610BD00BF4D
:1049EC0060520D0038B50C4D296811F0010411D13D
:1049FC002846FFF74EFB68B1084A094B0948214687
:104A0C00FFF7DAFF2846FFF749FB074A0749054835
:104A1C0000F05CF9034838BD9CE60320A0E60320B7
:104A2C0018E6032004E60320F4E3032041490D00BB
:104A3C0041747047704708B50021007CFFF7F6FB06
:104A4C0030EA200028BF4FF0FF3008BD08B5012127
:104A5C00007CFFF7EBFB30EA200028BF4FF0FF3063
:104A6C0008BD08B5007CFFF7D9FB20EAE07008BD53
:104A7C0008B5007CFFF7CAFB20EAE07008BD007C9B
:104A8C00FFF7E4BB10B51421044600F024F92046CE
:104A9C0010BD38B50446007C0D46FFF7BFFB00285F
:104AAC0001DC607C28B12946207CFFF7C7FB20EA9B
:104ABC00E07038BD10B50446002363604FF47A7380
:104ACC00A360054B236001230846217463741146CF
:104ADC00FFF78CFB204610BD90520D000022007C8D
:104AEC00FFF78CBB10B514220446002100F057FAD6
:104AFC00204610BD30B50E4D87B001A8FFF7F2FF70
:104B0C00296811F0010410D12846FFF7C2FA60B1F0
:104B1C0001AA21460748FFF7CDFF2846FFF7BEFA4A
:104B2C00054A0649034800F0D1F8024807B030BDE9
:104B3C0024E7032028E70320F4E30320414A0D0077
:104B4C00002211464068FFF7C5BB002211464068A1
:104B5C00FFF7E0BB002211464068FFF7EBBB0022D9
:104B6C004068FFF7DFBB002281F001014068FFF7CE
:104B7C00C9BB00231A4619464068FFF7BBBB00238C
:104B8C001A4619464068FFF7ADBB00221146406833
:104B9C00FFF790BB002202214068FFF793BB002374
:104BAC001A464068FFF77EBB024B04225A60024A49
:104BBC001A6070473CE70320C0520D0008B50C4B3F
:104BCC0033B1FFF797FF03681B699847002809DC8E
:104BDC00084B63B1FFF706FF03681B699847002871
:104BEC0003DC08BDAFF30080F2E7AFF3008008BD33
:104BFC00000000000000000008B5FFF7DFFFFFF722
:104C0C0095FA014B186008BD4CE703200248034A93
:104C1C000349121A00F0B8B900F4032004F403207D
:104C2C0090530D0007B5002300931A466FF07701DF
:104C3C00FFF726FB03B05DF804FB000007B54388C3
:104C4C000A2B08D0502B09D1094B1B683BB103B080
:104C5C005DF804EB1847FFF7E5FF06E0002300932F
:104C6C001A466FF07701FFF70BFB03B05DF804FBFE
:104C7C0044E7032038B5104C104D2368AB42104B61
:104C8C000CBF012200221A7002D0FFF7BFFF256073
:104C9C00FFF744FA044600F08BF90A4B13B1204697
:104CAC00AFF3008000210748FFF7F4FA0021064813
:104CBC00BDE83840FFF7DABA00F403201E1C279A2F
:104CCC0048E7032000000000494C0D000B4601464C
:104CDC00184600F04BB9FFF7D8B90000244B1A68FE
:104CEC00D0075CBF01221A60224B1A68D1075CBF47
:104CFC0001221A60204B1A68D2075CBF01221A608D
:104D0C001E4B1A68D0075CBF01221A601C4B1A6834
:104D1C00D1075CBF01221A601A4B1A68D2075CBF1C
:104D2C0001221A60184B1A68D0075CBF01221A6066
:104D3C00164B1A68D1075CBF01221A60144B1A6813
:104D4C00D2075CBF01221A60124B1A68D0075CBFF5
:104D5C0001221A60104B1A68D1075CBF01221A603D
:104D6C000E4B1A68D2075CBF01221A60704700BF55
:104D7C007CE7032078E7032074E7032070E7032027
:104D8C006CE7032068E7032064E7032060E7032057
:104D9C005CE7032058E7032054E7032050E7032087
:104DAC00184B1A68D1075CBF01221A60164B1A689F
:104DBC00D2075CBF01221A60144B1A68D0075CBF83
:104DCC0001221A60124B1A68D1075CBF01221A60CB
:104DDC00104B1A68D2075CBF01221A600E4B1A687E
:104DEC00D0075CBF01221A600C4B1A68D1075CBF5C
:104DFC0001221A600A4B1A68D2075CBF01221A60A2
:104E0C00704700BF9CE7032098E7032094E703203A
:104E1C0090E703208CE7032088E7032084E7032036
:104E2C0080E70320184B1A68D1075CBF01221A6077
:104E3C00164B1A68D2075CBF01221A60144B1A6811
:104E4C00D0075CBF01221A60124B1A68D1075CBFF5
:104E5C0001221A60104B1A68D2075CBF01221A603B
:104E6C000E4B1A68D0075CBF01221A600C4B1A68F3
:104E7C00D1075CBF01221A600A4B1A68D2075CBFCB
:104E8C0001221A60704700BFBCE70320B8E703207B
:104E9C00B4E70320B0E70320ACE70320A8E7032026
:104EAC00A4E70320A0E70320244B1A68D0075CBFBB
:104EBC0001221A60224B1A68D1075CBF01221A60CA
:104ECC00204B1A68D2075CBF01221A601E4B1A686D
:104EDC00D0075CBF01221A601C4B1A68D1075CBF5B
:104EEC0001221A601A4B1A68D2075CBF01221A60A1
:104EFC00184B1A68D0075CBF01221A60164B1A684F
:104F0C00D1075CBF01221A60144B1A68D2075CBF30
:104F1C0001221A60124B1A68D0075CBF01221A607A
:104F2C00104B1A68D1075CBF01221A600E4B1A682D
:104F3C00D2075CBF01221A60704700BFECE7032068
:104F4C00E8E70320E4E70320E0E70320DCE70320A5
:104F5C00D8E70320D4E70320D0E70320CCE70320D5
:104F6C00C8E70320C4E70320C0E7032010B5054CB5
:104F7C0013462CB10A4601460220AFF3008010BD47
:104F8C00204610BD0000000010B5431E0A4491429B
:104F9C0004D011F8014B03F8014FF8E710BD02449F
:104FAC000346934202D003F8011BFAE77047000056
:104FBC0038B5124B1C68A36B0546D3B91820FFF704
:104FCC00C1F943F20E33A06303804AF6CD3343801C
:104FDC0041F2342383804EF26D63C3804DF6EC6353
:104FEC000381052343810B23838101220023C0E924
:104FFC000423A36B00221D615A6138BDF0E303202A
:10500C00034613F8012B002AFBD1181A01387047FC
:10501C001D400D0059400D0085400D0089400D00CC
:10502C00000000006469725F726561642D3E256446
:10503C00002E2E00202000257320282564290A002C
:10504C0025732F2573006469725F6F70656E282558
:10505C0073292D3E2564004572726F72206F706546
:10506C006E696E6720726F6F743A2025640A002D8A
:10507C002D2D2D2D206469726563746F72792074E7
:10508C00726565002D2D2D2D2D00536574757000E6
:10509C00000000000000000019440D000F440D003A
:1050AC0005440D00FB430D00EF430D00E3430D00E1
:1050BC00D7430D00CF430D00C5430D00BB430D007E
:1050CC0011470D00000000000000000049440D00D5
:1050DC0039440D003B440D006261756400536572E8
:1050EC0069616C0053657269616C3100747970652B
:1050FC0000706172616D00636D6400696400686EBC
:10510C0064007374726D0066696C74006C766C006C
:10511C0061646448616E646C65720072656D6F7673
:10512C006548616E646C657200656E756D48616E84
:10513C00646C657273004A534F4E53747265616DA3
:10514C004C6F6748616E646C65720061707000250D
:10515C003031307520005D20002C200028293A20A9
:10516C0000205B00636F6465203D200025690064AE
:10517C00657461696C73203D20000D0A0066006C3B
:10518C006E00666E00636F64650064657461696CC3
:10519C00006E6F6E6500747261636500696E666F98
:1051AC00007761726E006572726F720070616E6969
:1051BC006300616C6C000000000000000000000047
:1051CC008B450D0081450D0077450D006D450D009B
:1051DC0061450D0055450D0049450D0041450D003B
:1051EC0037450D002D450D0011470D000000000046
:1051FC0000000000A9460D00B3460D00BD460D0091
:10520C00C7460D00D1460D00DD460D00E9460D00E8
:10521C00F5460D00FD460D0007470D0011470D002A
:10522C005A00252B3033643A253032750025592D20
:10523C00256D2D25645425483A254D3A2553257A5C
:10524C000061736374696D6500000000000000006C
:10525C000000000041490D0091490D009F490D00CF
:10526C00F1470D0055490D0077490D0063490D00BC
:10527C008B490D0043490D0047490D00000000000B
:10528C0000000000414A0D00914A0D009F4A0D009C
:10529C00F1470D007D4A0D00434A0D00594A0D009F
:1052AC008B4A0D006F4A0D003D4A0D0000000000B6
:1052BC0000000000AB4B0D00A14B0D00974B0D00F7
:1052CC004D4B0D008B4B0D007F4B0D00734B0D00A8
:1052DC006B4B0D00614B0D00574B0D0011470D0032
:1052EC0000000000000000000000000000000000B2
:1052FC0000000000000000000000000000000000A2
:10530C000000000000000000000000000000000091
:10531C000000000000000000000000000000000081
:10532C000000000000000000000000000000000071
:10533C000000000000000000000000000000000061
:10534C0043000000D3400D0081430D0025440D00A7
:10535C001D450D0059460D00DD470D00BD480D00E3
:10536C00F9480D002D490D00B54B0D00E94C0D0011
:10537C00AD4D0D00314E0D00B54E0D00000000007E
:04538C00000000001D
:045390000000000019
:105394004D520D0000000000EC520D000C530D00A6
:1053A4002C530D000000000000000000000000006D
:1053B400000000004C530D0000000000000000003D
:1053C40000000000000000000000000000000000D9
:1053D40000000000000000000000000000000000C9
:1053E40000000000000000000000000000000000B9
:0853F4000000000090E303201B
:1053FC00FFFFFFFF00000102030405060708090A6E
:10540C000B0C0D0E0F101112131415161718191A68
:08541C001B1C1D1E1F202800AF
:045424007856341270
:04000003D000401CCD
:00000001FF
