:02000002D0002C
:1040000000400D0028630D00000006000C000501B3
:084010000401DE0500000000C0
:04401800345D0D0006
:10401C0009480A49884208B505D0094A824202D0AB
:10402C00121A01F0A3FD0748074A0021121A01F0E9
:10403C00A8FD014808BD00BFF4DE032084620D001A
:10404C0070DF032070DF0320F0E7032070B501F070
:10405C00FFFB074C074BE41AA40800251E46A5429B
:10406C0004D056F8253098470135F8E770BD00BFED
:10407C0078620D0040620D0000F09CB908B500F0AC
:10408C00A3F9BDE8084001F0A5BB00F0D7BB00F0D8
:10409C00DDBB00F0DBBB0078B0FA80F04009704764
:1040AC0001230370704710B5044601F009FA20464D
:1040BC0010BD000038B50446154600F05FFE0549FA
:1040CC00204600F05BFE29462046BDE8384000F053
:1040DC0068BE00BFDE5E0D0038B50546144600F024
:1040EC004DFE0B49284600F049FE002C05DA2D2127
:1040FC00284600F047FE614200E0214628460A228D
:10410C0000F059FE2846BDE8384000F03EBE00BF26
:10411C00DE5E0D002DE9F04F0D461E464FF0FF33CD
:10412C0089B00446136000212846924600F0E3FE55
:10413C00D5F838C060B92968BCF1000F02D01FFA5D
:10414C008CF200E050220023204601F009F811E027
:10415C00704B029305F1140EBEE80F0003AF0FC7AE
:10416C00DEF800303B701FFA8CF2002302A92046C7
:10417C0001F078F8003018BF012018B9204601F082
:10418C00EBF8C3E01299204600F0F8FD6249204696
:10419C0000F0F4FDA96A204600F0F0FD5F492046CE
:1041AC0000F0ECFD5E495F4A2046FFF783FF0021DB
:1041BC00284600F0A0FE20B92A685B492046FFF78C
:1041CC0079FF05F13C070021384600F094FE08B950
:1041DC006A6C05E05549129801F004FD024618B9C5
:1041EC0053492046FFF778FF5EB1316849B17268D8
:1041FC00204612B1FFF75EFF01E000F0D2FD083659
:10420C00F3E7204600F0C1FD204600F0D1FE00216E
:10421C00384600F070FE18B9E96B204600F0C1FD7D
:10422C0004F11C0B4FF480620021584601F0A9FCEC
:10423C0000F0A8F9009000F0A5F9B5F84C8041F217
:10424C0088330026B8F1000F08BF98464FF00109DB
:10425C003546204601F098F8C0B3204600F03DFFEB
:10426C00C7B200F08FF90090B9F1000F18D00A2FE7
:10427C0011D10A2E13D104F1250001F065FC4FF089
:10428C000009CAF800004FF480620021584601F082
:10429C0078FC4D46DDE70D2F18BF3E4600E03E464C
:1042AC0040F2FE339D4202D863191F770CE040F2B6
:1042BC00FF339D4208D14FF0000384F81B34204695
:1042CC0001F04AF8012702E00135C2E7074600F089
:1042DC0059F9009BC31A019327B9434502D8C8204A
:1042EC0000F0CCFA204600F064FE20B1019B43455F
:1042FC0001D8002FADD0204601F02EF8B9F1000FF7
:10430C0004D159460AF1040000F0E4FD09B0BDE8FF
:10431C00F08F00BF4C5E0D00DA5E0D00485D0D00A5
:10432C005A5D0D00545D0D00655D0D00795D0D004D
:10433C006A5D0D0010B50446043000F071FD204696
:10434C0010BD10B504463C3000F06AFD04F12800A5
:10435C0000F066FD204600F063FD204610BD000015
:10436C0038B584690A4B036005467CB16368013B30
:10437C0063605BB9236820469B689847A368013B40
:10438C00A3601BB923682046DB689847284638BDD4
:10439C00C05F0D0010B50446FFF7E2FF204610BDCC
:1043AC0010B50446FFF7DCFF20461C2101F081FA12
:1043BC00204610BD08B501F08BF94FF41651BDE83D
:1043CC00084001F079B90000F7B500F0DBF8294B93
:1043DC001A6882421F464BD8274C284D01F078F9B9
:1043EC0000F0D3FC01F074F9254900F0DAFC254902
:1043FC00204600F06FFD4FF4FA532349A36304F1F8
:10440C00280000F067FD214904F13C0000F062FD3A
:10441C001F4B00932A461F4B1F482146FFF77AFE7D
:10442C0001F056F91D4900F0A9FC01F051F92C6876
:10443C00002C064604DA2D2100F0A4FC614200E0B9
:10444C0021460A22304600F0B6FC304600F09DFCB6
:10445C0001F03EF9124900F091FC01F039F969685C
:10446C0000F09FFC00F08EF800F51C501030386006
:10447C0003B0F0BDF4E30320A4E3032090E3032096
:10448C007E5D0D009A5D0D00A85D0D00AE5D0D000A
:10449C00BE5D0D00F4DE032074DF0320C25D0D0051
:1044AC00E15D0D0070B5174C174E184D2046FFF707
:1044BC00FAFD2046164C1749324601F0F5F929460B
:1044CC00204600F0F4FC04F1100000F079FA2946C3
:1044DC0004F1280000F0EBFC294604F13C0000F04C
:1044EC00E6FC20460C4C0D49324601F0DDF929461C
:1044FC00201D00F0DCFC324620460949BDE8704026
:10450C0001F0D2B974DF032070DF0320535D0D007E
:10451C00A4E30320A1430D0090E303204F430D00BF
:10452C0041430D0008B5024B1B689B68019308BD05
:10453C004802030008B5024B1B681B69019308BDB8
:10454C004802030008B5024B1B685B69019308BD68
:10455C004802030008B5024B1B685B6C019308BD55
:10456C004802030008B5024B1B689B6C019308BD05
:10457C004802030008B5024B1B685B68019308BD39
:10458C001802030008B5024B1B685B69019308BD58
:10459C001802030008B5024B1B685B69019308BD48
:1045AC006C02030008B5024B1B685B69019308BDE4
:1045BC006402030008B5024B1B681B6A019308BD1B
:1045CC006402030008B5024B1B689B6A019308BD8B
:1045DC006402030008B5024B1B689B68019308BD7D
:1045EC006802030008B5024B1B68DB68019308BD29
:1045FC006802030008B5024B1B689B69019308BD58
:10460C003802030008B5024B1B68DB69019308BD37
:10461C003802030008B5024B1B681B6A019308BDE6
:10462C003802030008B5024B1B689B6A019308BD56
:10463C003802030008B5024B1B681B6B019308BDC5
:10464C003802030008B5024B1B689B6B019308BD35
:10465C003802030008B5024B1B681B68019308BDA8
:10466C003C02030008B5024B1B68DB68019308BDD4
:10467C003C02030008B5024B1B681B69019308BD83
:10468C003C02030008B5024B1B685B69019308BD33
:10469C003C02030008B5024B1B689B69019308BDE3
:1046AC003C02030008B5024B1B68DB69019308BD93
:1046BC003C02030008B5024B1B689B6A019308BDC2
:1046CC003C02030008B5024B1B681B68019308BD34
:1046DC004C02030008B5024B1B685B68019308BDD4
:1046EC004C02030008B5024B1B681B69019308BD03
:1046FC004C02030008B5024B1B685B69019308BDB3
:10470C004C02030008B5024B1B689B69019308BD62
:10471C004C02030008B5024B1B68DB69019308BD12
:10472C004C02030008B5024B1B681B6A019308BDC1
:10473C004C02030008B5024B1B681B6D019308BDAE
:10474C006002030008B5024B1B685B68019308BD4F
:10475C002002030008B5024B1B685B69019308BD7E
:10476C002002030008B5034B1B68D3F88830019373
:10477C0008BD00002002030008B5034B1B68D3F8EA
:10478C009430019308BD00002002030008B5024BD1
:10479C001B68DB6B019308BD4402030008B5024B98
:1047AC001B685B68019308BD4002030008B5024B0F
:1047BC001B689B68019308BD4002030008B5024BBF
:1047CC001B68DB68019308BD4002030008B5024B6F
:1047DC001B681B69019308BD4002030008B5024B1E
:1047EC001B685B69019308BD4002030008B5024BCE
:1047FC001B689B69019308BD4002030008B5024B7E
:10480C001B68DB69019308BD4002030008B5024B2D
:10481C001B681B6A019308BD4002030008B5024BDC
:10482C001B681B6B019308BD4002030008B5024BCB
:10483C001B685B6B019308BD4002030008B5024B7B
:10484C001B681B68019308BD1C02030008B5024BD2
:10485C001B685B68019308BD1C02030008B5024B82
:10486C001B689B68019308BD1C02030008B5024B32
:10487C001B68DB6B019308BD1C0203000021FFF7D2
:10488C0069BF10B50446006808B1FFF76BFE2046FF
:10489C0010BD000010B5064C002320462360FFF726
:1048AC0059FE2046034A0449BDE8104000F0FCBF05
:1048BC00F8E3032070DF03208F480D0010B58368E8
:1048CC00044613B1032201469847204610BD00222E
:1048DC0011464068FFF79ABF002211464068FFF767
:1048EC00A5BF00224068FFF799BF002281F00101AB
:1048FC004068FFF783BF00231A4619464068FFF74C
:10490C0075BF00231A4619464068FFF767BF00229F
:10491C0011464068FFF75ABF002211464068FFF766
:10492C0045BF002202214068FFF748BF00231A460A
:10493C004068FFF733BF0000024B03225A60024A63
:10494C001A607047FCE30320185E0D00704710B529
:10495C001821044600F0ADFF204610BDF0B5037DD4
:10496C00062B8DB00E4600F104074FF0000402D068
:10497C0000F1080518E00CAD394605F8304D2F2331
:10498C002A460A20FFF70EFE284601F035F9336857
:10499C000246DB682946304698470FE024B12E21A9
:1049AC00304600F0EFF9044415F8011D0A22304698
:1049BC0000F001FABD420444F0D120460DB0F0BD28
:1049CC0010B5054B0446112240F8043B002101F0C0
:1049DC00D8F8204610BD00BF4C5E0D000346074AB8
:1049EC0010B543F8042B01F1100251F8044B43F8B5
:1049FC00044B9142F9D10A781A7010BD4C5E0D002F
:104A0C00037D042B01D1406808E0062B0AD14368D2
:104A1C0053B9836843B9C36833B90069003018BF10
:104A2C0001207047002070470120704710B59DF899
:104A3C00084044EA032343EA024242EA01610423A8
:104A4C004160037510BD37B50D788B784A78C978FD
:104A5C0000912946FFF7EAFF03B030BD014B024A33
:104A6C001A60704704E40320CB5E0D00002211464F
:104A7C004068FFF7CBBE002211464068FFF7D6BE58
:104A8C0000224068FFF7CABE002281F00101406895
:104A9C00FFF7B4BE00231A4601214068FFF7A6BEFB
:104AAC0000231A4619464068FFF798BE00221146AB
:104ABC004068FFF78BBE002211464068FFF776BEB8
:104ACC00002202214068FFF779BE00231A46406895
:104ADC00FFF764BE38B5054688B104684CB1A368CD
:104AEC001BB103222146204698471021204600F096
:104AFC00E0FE28461421BDE8384000F0DABE38BD8F
:104B0C0010B103685B681847704710B5036804461A
:104B1C00BBB15868FFF706FD78B923685A7C12B907
:104B2C005868FFF707FD23685868FFF70BFD2068EE
:104B3C000023236028B1FFF7CDFF206808B1FFF7F1
:104B4C00C9FF204610BD38B50446D0F8C40108B1E1
:104B5C00FFF79FFAD4F8C00108B1FFF703FDD4F8B2
:104B6C00BC5135B12846FFF7D0FF0421284600F090
:104B7C00A0FE206808B1FFF7C3FF204638BD000037
:104B8C0010B5044B044640F8083BFFF7DCFF204609
:104B9C0010BD00BF3C5F0D0038B50E4C0E4B2360B2
:104BAC000025022304F5E4706360A560C4F8C451C9
:104BBC00C4F8C851FFF7CEFC084BC4F8CC5184F8AC
:104BCC00D05123602046064A0649BDE8384000F023
:104BDC006BBE00BF08E40320705F0D003C5F0D004E
:104BEC0070DF03208D4B0D0000231A464068FFF741
:104BFC00D5BD002202214068FFF7E0BD002211461E
:104C0C004068FFF7D3BD002211464068FFF7DEBDB8
:104C1C0000231A4619464068FFF7E0BD00231A46E8
:104C2C0019464068FFF7E2BD002281F0010140689F
:104C3C00FFF7E4BD00224068FFF7F0BD00221146EB
:104C4C004068FFF7F3BD002211464068FFF7DEBD58
:104C5C002DE9F043002495B016460D460746FFF7A4
:104C6C00AFFE214620220CA8009400F08AFF4023BE
:104C7C000C9321466B460CAA3046FFF7B3FC044656
:104C8C00002844D1024601216868FFF79FFD0221EC
:104C9C00804622466868FFF799FD009E81462146B2
:104CAC00002E34D0002932D17368022B02D00A2B8B
:104CBC0009D02AE0B8F1000F27D0716938460431C9
:104CCC00FFF7C1FE20E0B9F1000F1ED0746911226C
:104CDC0001A800F056FF06238DF8143001AD04F145
:104CEC0008031834186859682A4603C20833A342CB
:104CFC001546F7D101A906A807ADFFF76FFE0FCD3A
:104D0C003C1D0FC42B6823700121F669C8E700987D
:104D1C00FFF760FC384615B0BDE8F083024B034A40
:104D2C001A6000225A607047DCE50320705F0D00AA
:104D3C00F8B506460D468F180024BD420CD03368DA
:104D4C0015F8011B9B6830469847002801DB04448A
:104D5C00F3E7002C08BF04462046F8BD70B50546A5
:104D6C000C46084649B100F047FF2B680246214625
:104D7C002846DB68BDE87040184770BD08B5FFF7E2
:104D8C00EDFF08BD03689B68184738B50D21054633
:104D9C00FFF7F8FF0A2104462846FFF7F3FF2044EB
:104DAC0038BD38B50546FFF7D9FF04462846FFF74E
:104DBC00ECFF204438BD30B58BB00B4600218DF88C
:104DCC002410012A98BF0A220DF12304B3FBF2F53B
:104DDC0005FB123303F0FF03092B94BF3033373339
:104DEC00DBB2214604F801392B46002DEED1FFF73A
:104DFC00B5FF0BB030BD10B50446FFF75FFD204684
:104E0C0010BD00000348044A04490023836000F0ED
:104E1C004BBD00BFE4E5032070DF0320034E0D0003
:104E2C0010B504460068FFF711FD204610BD10B503
:104E3C000446006808B1FFF709FD00232360A36056
:104E4C00636010BD38B504460D4600680131FFF7AC
:104E5C0005FD10B184E82100012038BD10B50368B0
:104E6C00044613B143688B4207D22046FFF7EAFF92
:104E7C0020B1A3680BB922681370012010BD70B566
:104E8C000E46114604461546FFF7E8FF18B92046B2
:104E9C00FFF7CDFF09E02A463146A560206800F0F7
:104EAC0065FE2268A3680021D154204670BD38B538
:104EBC000023044603604360836003730D4639B1DD
:104ECC00084600F099FE294602462046FFF7D7FF18
:104EDC00204638BD38B505460C4641B1084600F0B1
:104EEC008BFE214602462846FFF7C9FF01E0FFF77B
:104EFC009EFF284638BD08B582680B4612B919B911
:104F0C00012008BD11B90368187802E0006800F0B0
:104F1C0069FEB0FA80F0400908BD10B5044600687F
:104F2C0018B1FFF793FC0023236010BD10B50446A5
:104F3C00FFF7F3FF204610BD10B5094C00204FF6CB
:104F4C00FF732060A080A07120816381FFF7FAFBC2
:104F5C002046044A0449BDE8104000F0A5BC00BF3F
:104F6C00F4E5032070DF0320394F0D0037B502AC98
:104F7C00036804F8011DDD6B01224FF0FF3321465D
:104F8C00A84703B030BD10B40368DC6B4FF0FF339F
:104F9C00A4465DF8044B604737B502AC036804F8CF
:104FAC00011DDD6B214613460122A84703B030BD1D
:104FBC00704738B543691A68002A044605DAB3F815
:104FCC008620B3F884309A4201D001250BE00368A7
:104FDC001B699847002814BF0125002503D12368BD
:104FEC002046DB6A9847284638BD43691868C04399
:104FFC00C00F704770470020704710B5142104464D
:10500C0000F057FC204610BDFFF741B87FB516469F
:10501C0000224260029203925A1C04460D4608D0AC
:10502C004FF47A72B3FBF2F1029102FB11314A4355
:10503C00039260690823009341F205026B4440F629
:10504C00FF710068FFF7D6FA002808DB60690023BF
:10505C00324629460068FFF7EDFA002804DAFFF71C
:10506C0005FC03686360002004B070BD10B50368D4
:10507C0004469B689847A368013BA3602BB923683F
:10508C002046DB68BDE81040184710BD70B50446DB
:10509C004D69054B44F8043B8C3506460FCD0FC4C7
:1050AC002B682370304670BD4C5E0D0010B5436903
:1050BC00B3F88620B3F884309A42044605D062696E
:1050CC00B2F884301344187910BD03681B699847F3
:1050DC000028F4D14FF0FF3010BD10B54369B3F880
:1050EC008620B3F884309A42044608D06269B2F83C
:1050FC008430591C1344A2F88410187910BD03682D
:10510C001B6998470028F1D14FF0FF3010BDF8B55E
:10511C0043691746B3F88620B3F884309A420546A3
:10512C000E4606D103681B69984710B94FF0FF343F
:10513C0014E06969B1F88430B1F88640E41ABC42D5
:10514C0028BF3C46194422460431304600F00EFD7F
:10515C006A69B2F884302344A2F884302046F8BD42
:10516C002DE9F0439846036893B0DB6A0D4606467A
:10517C001746984712AB002443F8484D2246214667
:10518C002846FFF72FFA814600283DD1009B002BC3
:10519C0056D05B69002B53D006A8FFF711FC009B7F
:1051AC005C696378022B01D1211D13E00A2B14D109
:1051BC001122494601A800F0E4FCA36833BBE36864
:1051CC0023BB4FF6FF702569FFF7F4F985421DD11B
:1051DC0004F1140106A8FFF736FC06A8FFF710FC33
:1051EC0000282DD0336807ADD3F82090184B0C93C2
:1051FC000FCD0DAC0FC42B6823703A4643460CA957
:10520C003046C84781461BE0A14619E004F108036B
:10521C0001AD1834186859682A4603C20833A342F2
:10522C001546F7D1062301A90CA80DAD8DF8143045
:10523C00FFF7D4FB0FCD07AC0FC42B682370CCE762
:10524C000098FFF7C7F9484613B0BDE8F08300BFDC
:10525C004C5E0D0042690023A2F884304269A2F82A
:10526C00863070472DE9F0411E4603680C468AB023
:10527C00DB6A054617469847237DD5F81480042B26
:10528C000CBF02200A2006220121FFF7DBF9C8F827
:10529C0000006B691B68002B18DB2846FFF7DAFF50
:1052AC00D6B1002303A9F0B20393ADF81030FFF789
:1052BC0071F958B968690623009341F20B0203ABEC
:1052CC0040F6FF710068FFF795F928B12B68284666
:1052DC00DB6A002498473BE01C263246002103A8D9
:1052EC0000F04FFC237D8DF80C60042B0CD10223B5
:1052FC0038468DF80D30FFF765F9ADF80E00606893
:10530C00FFF758F9049013E00A2338468DF80D3056
:10531C00FFF758F905AEADF80E00231D04F1140784
:10532C0018685968324603C20833BB421646F7D197
:10533C006B691C2203A91868FFF76CF90028C5D10A
:10534C0004340FCC6D698C350FC523682B70012488
:10535C0020460AB0BDE8F08110B5436904461868D0
:10536C00002801DBFFF74EF963694FF0FF321A603A
:10537C006069112200218C3000F003FC2046BDE84E
:10538C001040FFF767BF000030B54269B2F88630B5
:10539C008BB004461BB1B2F884209A4240D06369AA
:1053AC00186800283FDBB3F886507F2D3BD8191DB9
:1053BC00C5F1800208232944FFF734F900280CDDDD
:1053CC006369B3F886200AB9A3F884206269B2F83D
:1053DC0086301844A2F8860025E0FFF747FA0368E8
:1053EC000B2B20D0FFF742FA03680B2B1BD020238A
:1053FC00002502930395FFF739FA036801930E4BCE
:10540C00009302AA2B460D493220FFF793F96369EA
:10541C001868FFF7F7F863694FF0FF321A6002E083
:10542C00FFF718FFBBE76269B2F88630B2F8840068
:10543C00181A0BB030BD00BF0B600D0004600D00DE
:10544C0010B5002304460160A0F88430A0F8863023
:10545C008830FFF7B5FA204610BD00004FF47A7281
:10546C0070B500238260144A43600260436183611B
:10547C000446A0200E46FEF708FE054610B1314644
:10548C00FFF7DEFF1420FEF700FE034628B10122D1
:10549C0042608260094A02600561A0696561A3618E
:1054AC0028B14368013B43600BB9FFF7DFFD204691
:1054BC00FFF7D0FE204670BDC05F0D00A45F0D004D
:1054CC0010B54FF0FF310446FFF7C8FF204610BD62
:1054DC0010B504460068002801DBFFF793F820465E
:1054EC0010BD10B504692046FFF7F2FF24B1204629
:1054FC00BDE81040FEF7CBBD10BD0000024B1A6892
:10550C00024B1A60704700BF04DF032000E6032043
:10551C0070474174704708B5007CFFF7CBF820EA60
:10552C00E07008BD08B5007CFFF7A4F820EAE07035
:10553C0008BD08B5007CFFF7ADF830EA200028BFA5
:10554C004FF0FF3008BD08B5007CFFF79BF830EA40
:10555C00200028BF4FF0FF3008BD007CFFF7A2B839
:10556C0010B51421044600F0A4F9204610BD70B506
:10557C00457C04460E4625B9007CFFF79BF80028B5
:10558C0005DD3146207CBDE87040FFF76BB828463E
:10559C0070BD000010B5044608461146002262603A
:1055AC004FF47A72A260054A226001222074627460
:1055BC001A46FFF74FF8204610BD00BF4C600D0097
:1055CC0038B50C4D296811F0010411D12846FEF7AD
:1055DC0062FD68B1084A094B09482146FFF7DAFF1A
:1055EC002846FEF75DFD074A0749054800F05CF9BF
:1055FC00034838BD9CE60320A0E6032018E60320F0
:10560C0004E6032070DF03201D550D004174704724
:10561C00704708B50021007CFFF774F830EA2000D1
:10562C0028BF4FF0FF3008BD08B50121007CFFF703
:10563C0069F830EA200028BF4FF0FF3008BD08B5EC
:10564C00007CFFF757F820EAE07008BD08B5007C35
:10565C00FFF748F820EAE07008BD007CFFF762B85D
:10566C0010B51421044600F024F9204610BD38B5BD
:10567C000446007C0D46FFF73DF8002801DC607CF9
:10568C0028B12946207CFFF745F820EAE07038BDA8
:10569C0010B50446002363604FF47A73A360054B86
:1056AC00236001230846217463741146FFF70AF83E
:1056BC00204610BD7C600D000022007CFFF70AB86C
:1056CC0010B514220446002100F05BFA204610BDF0
:1056DC0030B50E4D87B001A8FFF7F2FF296811F025
:1056EC00010410D12846FEF7D6FC60B101AA214670
:1056FC000748FFF7CDFF2846FEF7D2FC054A0649BE
:10570C00034800F0D1F8024807B030BD24E703206D
:10571C0028E7032070DF03201D560D0000221146E0
:10572C004068FFF753B8002211464068FFF76EB887
:10573C00002211464068FFF779B800224068FFF755
:10574C006DB8002281F001014068FFF757B80023C3
:10575C001A4619464068FFF749B800231A461946FD
:10576C004068FFF73BB8002211464068FFF71EB8AF
:10577C00002202214068FFF721B800231A46406836
:10578C00FFF70CB8024B04225A60024A1A607047A9
:10579C003CE70320AC600D0008B50C4B33B1FFF7B0
:1057AC0097FF03681B699847002809DC084B63B115
:1057BC00FFF706FF03681B699847002803DC08BD48
:1057CC00AFF30080F2E7AFF3008008BD00000000EB
:1057DC000000000008B5FFF7DFFFFEF7D3FE014B1A
:1057EC00186008BD4CE703200248034A0349121A0B
:1057FC0000F0BCB900F4032004F4032080620D0017
:10580C0007B5002300931A466FF07701FEF7B4FF3B
:10581C0003B05DF804FB000007B543880A2B08D0E1
:10582C00502B09D1094B1B683BB103B05DF804EB5D
:10583C001847FFF7E5FF06E0002300931A466FF0C8
:10584C007701FEF799FF03B05DF804FB44E70320F2
:10585C0038B5104C104D2368AB42104B0CBF0122D5
:10586C0000221A7002D0FFF7BFFF2560FEF782FE00
:10587C00044600F08FF90A4B13B12046AFF30080B9
:10588C0000210748FEF782FF00210648BDE838409A
:10589C00FEF768BF00F403201E1C279A48E703207C
:1058AC000000000025580D000B460146184600F07C
:1058BC004FB9FEF7ECBB0000244B1A68D0075CBF55
:1058CC0001221A60224B1A68D1075CBF01221A60B0
:1058DC00204B1A68D2075CBF01221A601E4B1A6853
:1058EC00D0075CBF01221A601C4B1A68D1075CBF41
:1058FC0001221A601A4B1A68D2075CBF01221A6087
:10590C00184B1A68D0075CBF01221A60164B1A6834
:10591C00D1075CBF01221A60144B1A68D2075CBF16
:10592C0001221A60124B1A68D0075CBF01221A6060
:10593C00104B1A68D1075CBF01221A600E4B1A6813
:10594C00D2075CBF01221A60704700BF7CE70320BE
:10595C0078E7032074E7032070E703206CE703204B
:10596C0068E7032064E7032060E703205CE703207B
:10597C0058E7032054E7032050E70320184B1A681C
:10598C00D1075CBF01221A60164B1A68D2075CBFA4
:10599C0001221A60144B1A68D0075CBF01221A60EE
:1059AC00124B1A68D1075CBF01221A60104B1A689F
:1059BC00D2075CBF01221A600E4B1A68D0075CBF7D
:1059CC0001221A600C4B1A68D1075CBF01221A60C5
:1059DC000A4B1A68D2075CBF01221A60704700BFDD
:1059EC009CE7032098E7032094E7032090E703202B
:1059FC008CE7032088E7032084E7032080E703205B
:105A0C00184B1A68D1075CBF01221A60164B1A6832
:105A1C00D2075CBF01221A60144B1A68D0075CBF16
:105A2C0001221A60124B1A68D1075CBF01221A605E
:105A3C00104B1A68D2075CBF01221A600E4B1A6811
:105A4C00D0075CBF01221A600C4B1A68D1075CBFEF
:105A5C0001221A600A4B1A68D2075CBF01221A6035
:105A6C00704700BFBCE70320B8E70320B4E703206E
:105A7C00B0E70320ACE70320A8E70320A4E703204A
:105A8C00A0E70320244B1A68D0075CBF01221A60E0
:105A9C00224B1A68D1075CBF01221A60204B1A688E
:105AAC00D2075CBF01221A601E4B1A68D0075CBF7C
:105ABC0001221A601C4B1A68D1075CBF01221A60C4
:105ACC001A4B1A68D2075CBF01221A60184B1A686D
:105ADC00D0075CBF01221A60164B1A68D1075CBF55
:105AEC0001221A60144B1A68D2075CBF01221A609B
:105AFC00124B1A68D0075CBF01221A60104B1A684F
:105B0C00D1075CBF01221A600E4B1A68D2075CBF2A
:105B1C0001221A60704700BFECE70320E8E703207E
:105B2C00E4E70320E0E70320DCE70320D8E70320C9
:105B3C00D4E70320D0E70320CCE70320C8E70320F9
:105B4C00C4E70320C0E703200A22002100F0E2B8DA
:105B5C0010B5054C13462CB10A4601460220AFF392
:105B6C00008010BD204610BD0000000010B5431E83
:105B7C000A44914204D011F8014B03F8014FF8E7A5
:105B8C0010BD02440346934202D003F8011BFAE70E
:105B9C007047000038B5124B1C68A36B0546D3B98F
:105BAC001820FEF74BFE43F20E33A06303804AF637
:105BBC00CD33438041F2342383804EF26D63C38036
:105BCC004DF6EC630381052343810B238381012272
:105BDC000023C0E90423A36B00221D615A6138BD68
:105BEC006CDF032010F8012B11F8013B012A28BFB0
:105BFC009A42F7D0D01A7047034613F8012B002AAB
:105C0C00FBD1181A013870472DE9F04780464048FF
:105C1C00D0F800900F463D4615F8014B09EB0400F7
:105C2C00407800F0080000F0FF0608B12F46F2E7BC
:105C3C002D2C03D1BD1C7C78012603E02B2C04BF3A
:105C4C007C78BD1C13B1102B0AD15BE0302C57D1E2
:105C5C00287800F0DF0058284DD16C7810230235DD
:105C6C00002E14BF4FF0004C6FF0004C0027BCFB13
:105C7C00F3FA384603FB1ACC09EB040E9EF801E04C
:105C8C001EF0040F01D0303C0BE01EF0030E1BD0B5
:105C9C00BEF1010F0CBF4FF0370E4FF0570ECEEB8D
:105CAC000404A34210DDB7F1FF3F0AD0504506D8DB
:105CBC0001D1644503DC03FB0040012701E04FF0F8
:105CCC00FF3715F8014BD7E77B1C0CD1002E4FF09A
:105CDC00220314BF4FF000406FF00040C8F80030B2
:105CEC002AB9BDE8F08706B1404272B107B1691E0E
:105CFC001160BDE8F0873024002BB1D10823AFE749
:105D0C000A23ADE7302CA3D0AAE7BDE8F08700BF8B
:105D1C0008DF032013460A46014602480068FFF7D5
:105D2C0073BF00BF6CDF03201D400D0059400D00F8
:105D3C0085400D0089400D0000000000204854549F
:105D4C00502F312E300D0A00636C6F736500436F5A
:105D5C006E6E656374696F6E00484F535400436FE9
:105D6C006E74656E742D4C656E67746800504F537D
:105D7C0054004170706C69636174696F6E3E0953B5
:105D8C0074617274206F66204C6F6F702E00313905
:105D9C00322E3136382E302E313036002F6461746D
:105DAC0061007B226B6579223A2276616C756522E3
:105DBC007D00505554004170706C69636174696F5B
:105DCC006E3E09526573706F6E73652073746174E7
:105DDC0075733A20004170706C69636174696F6E01
:105DEC003E094854545020526573706F6E73652091
:105DFC00426F64793A2000416363657074002A2F06
:105E0C002A000000000000000000000039490D00CD
:105E1C002F490D0025490D001B490D000F490D00A0
:105E2C0003490D00F7480D00EF480D00E5480D0043
:105E3C00DB480D005D4C0D00000000000000000070
:105E4C0069490D0059490D005B490D00626175648B
:105E5C000053657269616C0053657269616C310045
:105E6C007479706500706172616D00636D640069B6
:105E7C006400686E64007374726D0066696C740003
:105E8C006C766C0061646448616E646C657200725F
:105E9C00656D6F766548616E646C657200656E75D4
:105EAC006D48616E646C657273004A534F4E537447
:105EBC007265616D4C6F6748616E646C65720061F0
:105ECC00707000253031307520005D20002C2000D2
:105EDC0028293A2000205B00636F6465203D200078
:105EEC0025690064657461696C73203D200066004F
:105EFC006C6E00666E00636F646500646574616946
:105F0C006C006E6F6E6500747261636500696E661D
:105F1C006F007761726E006572726F720070616EE5
:105F2C00696300616C6C0000000000000000000060
:105F3C00D74A0D00CD4A0D00C34A0D00B94A0D00D9
:105F4C00AD4A0D00A14A0D00954A0D008D4A0D0079
:105F5C00834A0D00794A0D005D4C0D0000000000D5
:105F6C0000000000F54B0D00FF4B0D00094C0D001F
:105F7C00134C0D001D4C0D00294C0D00354C0D0023
:105F8C00414C0D00494C0D00534C0D005D4C0D0067
:105F9C00000000000000000001500D0007500D0033
:105FAC00EF540D0015500D0003500D0000000000C3
:105FBC00000000006D430D00AD430D00794F0D0046
:105FCC00934F0D0095530D00E7500D00B9500D0087
:105FDC00BD4F0D0071520D006D510D001B510D0088
:105FEC0065530D00BF4F0D00F74F0D00A54F0D0071
:105FFC0019500D0099500D00776972696E67007227
:10600C00656376206572726F72203D202564005A9C
:10601C0000252B3033643A253032750025592D2557
:10602C006D2D25645425483A254D3A2553257A0083
:10603C0061736374696D650000000000000000006E
:10604C001D550D006D550D007B550D003D4D0D0082
:10605C0031550D0053550D003F550D0067550D0082
:10606C001F550D0023550D0000000000000000001E
:10607C001D560D006D560D007B560D003D4D0D004F
:10608C0059560D001F560D0035560D0067560D0064
:10609C004B560D0019560D000000000000000000CA
:1060AC0087570D007D570D0073570D0029570D00B4
:1060BC0067570D005B570D004F570D0047570D00EC
:1060CC003D570D0033570D005D4C0D000020202076
:1060DC00202020202020282828282820202020208C
:1060EC00202020202020202020202020208810105C
:1060FC0010101010101010101010101010040404B8
:10610C000404040404040410101010101010414175
:10611C004141414101010101010101010101010163
:10612C000101010101010101101010101010424277
:10613C004242424202020202020202020202020233
:10614C0002020202020202021010101020000000D3
:10615C000000000000000000000000000000000033
:10616C000000000000000000000000000000000023
:10617C000000000000000000000000000000000013
:10618C000000000000000000000000000000000003
:10619C0000000000000000000000000000000000F3
:1061AC0000000000000000000000000000000000E3
:1061BC0000000000000000000000000000000000D3
:1061CC0000000000000000000000000000000000C3
:1061DC0000000000000000000000000000000000B3
:1061EC0000000000000000000000000000000000A3
:1061FC000000000000000000000000000000000093
:10620C000000000000000000000000000000000082
:10621C000000000000000000000000000000000072
:10622C000000000000000000000000000000000062
:10623C0043000000B1440D00A1480D0045490D007C
:10624C00694A0D00A54B0D00294D0D00114E0D0096
:10625C00454F0D0009550D0091570D00C5580D0007
:10626C0089590D000D5A0D00915A0D0000000000C7
:04627C00000000001E
:04628000000000001A
:10628400035E0D000A5E0D00000000000000000027
:106294003C600D00D8600D0000000000DC610D00C2
:1062A400FC610D001C620D000000000000000000F5
:1062B40000000000000000003C620D00000000002F
:1062C40000000000000000000000000000000000CA
:1062D40000000000000000000000000000000000BA
:1062E40000000000000000000000000000000000AA
:0C62F40000000000000000000CDF032090
:10630000FFFFFFFF00000102030405060708090A5A
:106310000B0C0D0E0F101112131415161718191A55
:086320001B1C1D1E1F2028009C
:04632800785634125D
:04000003D000401CCD
:00000001FF
