:1010000000000420751300005D1300000945000076
:10101000611300006313000065130000000000006E
:101020000000000000000000000000006713000046
:1010300069130000000000006B1300006D13000036
:101040007D5700006F1300008D5700006F130000E4
:101050006F1300006F130000995400006F1300001D
:101060006F1300006F1300006F1300006F13000078
:101070006F1300006F1300006F1300006F13000068
:101080006F130000F54400006F1300006F130000A1
:101090006F1300006F1300006F1300006F13000048
:1010A0006F1300006F1300006F1300006F13000038
:1010B0006F1300006F13000000000000000000002C
:1010C0006F1300006F1300006F1300006F13000018
:1010D0006F1300006F1300006F130000F970000021
:1010E0006F1300006F1300006F130000000000007A
:1010F000000000006F130000000000006F130000EC
:1011000000000000000000000000000000000000DF
:1011100000000000000000000000000000000000CF
:1011200000000000000000000000000000000000BF
:1011300000000000000000000000000000000000AF
:10114000000000000000000000000000000000009F
:10115000000000000000000000000000000000008F
:10116000000000000000000000000000000000007F
:10117000000000000000000000000000000000006F
:10118000000000000000000000000000000000005F
:10119000000000000000000000000000000000004F
:1011A000000000000000000000000000000000003F
:1011B000000000000000000000000000000000002F
:1011C000000000000000000000000000000000001F
:1011D000000000000000000000000000000000000F
:1011E00000000000000000000000000000000000FF
:1011F00000000000000000000000000000000000EF
:10120000354936480A1A02D0072291438D4634499F
:1012100034480A1A06D00722914381F30988022232
:1012200082F3148830483149314A00F044F831489B
:101230003149324A00F03FF831483249324A00F031
:101240003AF832483249334A00F035F832483349E7
:10125000334A00F030F833483349344A00F02BF871
:1012600033483449344A00F026F8344834490022DF
:1012700000F02CF833483449002200F027F83348B6
:101280003349091A082902DB002202604160314A11
:1012900090471F481F49884205D00268043003B4B4
:1012A000904703BCF7E700208646EC46002000216B
:1012B000294A9047FEE7884207D0521A05D00378A2
:1012C00001300B700131013AF9D17047884202D0E8
:1012D00002700130FAE770470000042000E00320AC
:1012E0000000042000000420F89E0000CC00002034
:1012F000DC010020D0130000D0130000C08E0000DD
:10130000F89E0000CC000020CC0000207890000067
:1013100078900000789000007890000078900000AD
:10132000789000007890000078900000F79E000010
:1013300008A00000DC010020DC010020DC0100200E
:10134000100F0020100F0020100F0020100F0020A1
:10135000102F00209D130000557A0000FEE7FEE7E5
:10136000FEE7FEE7FEE7FEE7FEE7FEE7FEE7FEE755
:1013700000F002B8FFF7FCBF0F484FF007018843A9
:1013800085460E4880470E48016841F470010160AF
:10139000BFF34F8FBFF36F8FFFF732BF09480A4982
:1013A0000A4A884207D0521A05D0037801300B70E0
:1013B0000131013AF9D17047000004206D7B000033
:1013C00088ED00E0B48F000008000020CC00002071
:1013D000F0B595B01D46164608460C4603F0D8FCFD
:1013E0001A9B0D93CDE9086500252B46082205A917
:1013F00020460A958DF82C500C9503F0E6FC079BCF
:101400000293069B03939DF814308DF8115003F05E
:101410000302012A1DD1BDF81420059DC3F3C203A8
:10142000C2F383168DF81030B20008230EA92046AF
:1014300003F0CBFCC5F3952508AB0093324602AB15
:101440000EA9284600F02AFC204603F0A5FC15B0A2
:10145000F0BD022AF8D1BDF81650C3F3C203C5F39C
:1014600089158DF810300827082D2E4628BF08262C
:101470003B4632460EA9204603F0A7FCAD1B08AB45
:1014800002AA31460EA8374400F06CFC002DEBD1C7
:10149000DAE70000014B01221A7070471D0200209C
:1014A0007047000070B5124D06460FCD88B06C46EF
:1014B0000FC495E80F00002E84E80F004FF0FF33B3
:1014C0004FF00602CDE90023CDE90233094A0A486C
:1014D0004FF0EB7308BF00226946069303F0B2FD9C
:1014E00008B100F0D1FE054B1E7008B070BD00BF02
:1014F0007890000095140000CC000020DC01002052
:1015000007B5044B0093044A4023FFF761FF03B083
:101510005DF804FB1D150000DD01002038B50D4B02
:101520000D4D002018700D4804782D5DD2B21C4678
:1015300065B1043004F0CAFD08B100F0A5FE084B07
:101540001A7812B12378002BFBD038BD0C3004F090
:1015500079FBF1E71D020020EC0A0020CC000020FE
:10156000DC01002008B50848084A0378D35C3BB189
:10157000043004F045FDBDE808400020FFF792BFAD
:101580000C3004F00BFBF6E7CC000020EC0A002046
:10159000037813F0040216D003F00303012B03D0E9
:1015A000022B09D0012070470A6800880232C0F37C
:1015B000831002440A60F5E70B684288023303EBAC
:1015C00092130B60EEE71046704700002DE9F04FD4
:1015D000044685B0861C00200F46154602F042FEE8
:1015E000454801683960D0E90132134401335B1A80
:1015F000824600F21C4700F5836900F21448B342AA
:101600001BD30020002D72D004F00F039B0143F088
:10161000050363F30F00DAF80020DAF8083013400E
:10162000033316444AF823000020CAF8006002F091
:101630001BFE012005B0BDE8F08F0121384603F004
:10164000CCF8484603F0EFF8404603F0ECF8DAF83F
:101650000400DAF808B0009000EA0B0003300AEB4F
:1016600080006946FFF794FF009B50BB0BEA030222
:101670000AEB820203F1020CD2680192013303EA01
:101680000B0B0AEB8B0B02F00302012ADBF80C10A8
:10169000CDF800C023D0022A16D08346404603F07E
:1016A000C5F810B1009BCAF804305946384603F01B
:1016B00094F8DAE901231344DAF8002001339B1A85
:1016C0009DE70BEA0300C9E7BDF80630C3F38913B1
:1016D00003334FEA114B0CEB93030093DEE7BDF8A5
:1016E0000430C3F383134FEA114B6344F5E7A405B9
:1016F00044F006008FE700BFF002002030B50A4B2F
:101700000A4A0B49D21AD20800239A4201D1052075
:1017100006E031F823500468A54202D1036000209E
:1017200030BD0133F1E700BFC08E0000808F0000A4
:10173000080000202DE9F84F224B2348FF229A6031
:101740000022C3F81824C3E90022C3F8142483F844
:10175000202403F0D6FA814688B91C481C4E1D4C43
:10176000DFF87CA003F03BFBA41BE4084D46A54238
:1017700008D10023184A19481946A3421BD14846EC
:10178000BDE8F88F4FF00008474606EBC50BBD4299
:101790000AD056F83710DBF80000142206F039FCA6
:1017A0000028C8BF08F101080137BC42EFD12AF870
:1017B00025800135DBE720F8231042F8041B0133B4
:1017C000DBE700BFF0020020988F0000E0900000EF
:1017D000C08E0000808F0000680000200A000020FA
:1017E0000800002007B5019031B9019A064B53F863
:1017F000320003B05DF804FB01A8FFF77FFF00286B
:10180000F3D00020F5E700BFC08E0000094B01397E
:1018100003EBC000032909D8DFE801F00A0204063F
:101820000420704700797047407970470020704766
:1018300002207047C08E0000034BD3E90030C31A6A
:1018400058425841704700BFF00200202DE9FF4781
:10185000FFF7F2FF0646002840F01A818D4DC5F8CB
:101860001804BFF34F8F6B68AC68009323400333B9
:1018700005EB83006946FFF78BFE009B18B1D5F896
:101880001824002A69D004EA0302991C013305EBED
:101890008202234005EB8303D268DB68029302F0E7
:1018A0000303022B019200916AD1BDF806307A48F9
:1018B0009DF80460C3F38918B8F1500FC14628BFE2
:1018C0004FF0500969F38F1309F10801ADF80630A4
:1018D00003F02FFAC6F3C2060746002800F0BF80C7
:1018E00003F056FA0023082201A9384603F063FAF0
:1018F000009924EA01020132B9EB820F4FEA820318
:1019000037D95FFA89F983B32140DCB2A9EB040926
:1019100003315FFA89FAA146604C05EB8101082387
:101920004A46384603F047FA34B109F108035246F3
:101930002146384603F03FFA009B08F1030803EB09
:1019400098030093D5F81834002B52D1D5F81044E1
:10195000DFF85C914FF0070870E02A689A4285D85A
:101960006A60304604B0BDE8F0874C491C469A4690
:10197000D5E70C40E11C08234A4605EB8101D8E776
:10198000012B6CD1BDF804604348C6F383110629CE
:1019900028BF062161F3891602318900ADF8046081
:1019A00003F0C7F9C6F3C2060746002857D003F074
:1019B000EFF90023082201A9384603F0FCF94FF0A3
:1019C0000008BDF80420C2F383124FEA8803904553
:1019D00003F10803B6D200994A1C2140033100925A
:1019E00005EB81010422384603F0E5F908F101080E
:1019F000E7E7384603F0D0F9FFF71EFF80F001005B
:101A0000C6B2AEE7E3685A79B2B11B79BDF80810E7
:101A100003EB430259F8211008FA02F3052E03EAFA
:101A2000010323FA02F308BF0326B34204D3236859
:101A300039461B6820469847E3681C68002CE1D1B2
:101A4000384603F0A9F9204602F00CFCD5F818340A
:101A50000BB9009B6B60002002F006FCCCE7D5F8C8
:101A6000104474B90E4B5B88012BC5D90D4B0E4841
:101A70000E49C01AC008000440F0020000F066F8E9
:101A8000BAE7236820469B689847E3681C68E8E744
:101A9000002666E7F0020020988F0000FC0200207C
:101AA00020000020C08E0000F08E0000B5900000E5
:101AB000680000202DE9F74F224D04460F4692465C
:101AC00001A901221846D5F808909B46FFF77EFD34
:101AD00020B3019E4FF00008B21CD84508EB02016C
:101AE00026D11948002102F055FE80F310000004B1
:101AF00040EA1440E400731C04F0380403EA0903CC
:101B000006EA090644F0010405EB8303033644EAC0
:101B1000881444EA8724D86045F8264095F8203494
:101B20001BB1FFF793FE0028FBD103B0BDE8F08F97
:101B300009EA010105EB81015AF82830CB6008F170
:101B40000108CAE7F00200200C07002000231A4613
:101B5000FFF7B0BF07B50123019201AAFFF7AAFF63
:101B600003B05DF804FB07B5CDE9002302236A4604
:101B7000FFF7A0FF03B05DF804FB1FB5CDE901231B
:101B8000069B039301AA0323FFF794FF05B05DF8BA
:101B900004FB1FB5CDE90023069B0293079B03932B
:101BA0006A460423FFF786FF05B05DF804FB0000DA
:101BB000094A38B50123D2F8104482F820341D4672
:101BC00004B938BDE3685D71236820465B689847B7
:101BD000E3681C68F4E700BFF002002007B5034685
:101BE0000846197A052911D05B7A2BB1094A0A49AE
:101BF000019002F075FE01980849019002F070FE14
:101C0000019803B05DF804EB02F05FBE002AF8D043
:101C1000F2E700BFEC900000F1900000119100008D
:101C200030B5C38885B004460D4633B1144A0092DE
:101C30001449154A284602F053FE217A05291DD081
:101C4000637A4BB1A088FFF7E1FD104B104953F8C0
:101C50002020284602F044FE227A0E4BA08853F83A
:101C6000222003920021FFF7BDFD039A0A49034693
:101C7000284605B0BDE8304002F032BE05B030BDA8
:101C8000EC900000FC900000F490000078910000BF
:101C9000F19000009C910000149100002DE9F043A8
:101CA00085B01F460C9D002395F80C902B730646BB
:101CB0000C46904629463846FFF7B2FFB8F1060FAA
:101CC00009D8DFE808F00412181F28334000314615
:101CD000284602F005FE002229463846FFF77EFF1F
:101CE00085F80C9005B0BDE8F0832268314628469F
:101CF00002F0F6FDEFE7D4E900233146284602F072
:101D0000EFFDE8E7A36800933146D4E900232846B5
:101D100002F0E6FDDFE7E3680193A3680093314634
:101D2000D4E90023284602F0DBFDD4E723690293BF
:101D3000E3680193A36800933146D4E90023284661
:101D400002F0CEFDC7E76369039323690293E3685A
:101D50000193A36800933146D4E90023284602F09A
:101D6000BFFDB8E708292DE9F74F80460E46174614
:101D70001C463CD8002593F80C901D73194610465C
:101D8000FFF74EFFDFF888A0DFF888B0AE4231D908
:101D900018F805205946204602F0A2FD0135082D0D
:101DA000F4D11949194DDFF870A0204602F098FDD2
:101DB0004FF0000B5E4522D918F80B207E2A05D87B
:101DC0001046019206F0E4F8019A00B92E2251461D
:101DD000204602F085FD0BF1010BBBF1080FE9D1A4
:101DE000012221463846FFF7F9FE84F80C9003B033
:101DF000BDE8F08F5146204602F072FDCEE729463D
:101E0000204602F06DFDE6E72891000026910000D3
:101E1000249100001E910000219C0000074B1B5CD8
:101E20001F2B8ABF064A4FF0A04203F01F03D2F8CF
:101E30000405D840C04300F001007047B091000095
:101E400000030050074B1B5C1F2B86BF064903F0A5
:101E50001F034FF0A041012202FA03F3C1F80C3531
:101E6000704700BFB091000000030050074B1B5C9F
:101E70001F2B86BF064903F01F034FF0A04101222C
:101E800002FA03F3C1F80835704700BFB0910000B3
:101E90000003005008B50020FFF7E8FF0120FFF71E
:101EA000E5FF0220FFF7E2FFBDE808400320FFF74F
:101EB000DDBF08B50020FFF7C5FF0120FFF7C2FF17
:101EC0000220FFF7BFFFBDE808400320FFF7BABFBD
:101ED0000A4B185C1F288ABF094B4FF0A04300F043
:101EE0001F00D3F804250121814021EA02000A40A5
:101EF000C3F80805C3F80C25704700BFB091000077
:101F000000030050263818BF4FF0FF307047000024
:101F1000C10710B5044642D54FF08043D3F8403690
:101F2000DA072ED54FF01023D3F8043303F007035C
:101F3000072B26D11D4B0122C3F80425D3F800241A
:101F4000002AFBD04FF01021D1F8042322F0070221
:101F500042F00402C1F804230022C3F80425134A06
:101F6000D2F80034002BFBD0BFF34F8F1049114B38
:101F7000CA6802F4E0621343CB60BFF34F8F00BF27
:101F8000FDE74FF0A0420C490323C2F81837C2F80E
:101F90002037C1F82437C2F83037FFF77BFFA3079B
:101FA00042BF054B0C22C3F8182710BD00E00140CA
:101FB00000ED00E00400FA0500030050C30710B56F
:101FC00007D4F023054A4008145C234019431154F8
:101FD00010BD0901C9B20F23F4E700BFC0070020FC
:101FE00030B5094B1C78094B196800239C4202DC70
:101FF0000022104630BD11F83350854201EBC30278
:10200000F7D00133F2E700BFAC070020E007002063
:1020100013B504460191FFF7E3FF38B143682BB1D4
:102020000199204602B0BDE81040184702B010BD2B
:10203000034B044819680022490800F032BA00BF77
:10204000B0070020E800002010B5C0B2FFF7C8FFBD
:102050000446007803F012FA63785A1E5342534143
:10206000834208D1044BD3E90023134303D1BDE8D5
:102070001040FFF7DDBF10BDB807002038B5334A68
:1020800043080446D35CC2074CBF1B0903F00F038F
:102090000D46042B59D8DFE803F003222A36390015
:1020A000002952D00121FFF789FF002002F0DAF861
:1020B0000120A4F12003C4F12001254A20FA01F1F6
:1020C00000FA03F30B43A040D2E9004120430B4345
:1020D000C2E90003BDE83840002002F0C5B800297D
:1020E00018BF02212046BDE83840FFF767BF41B165
:1020F0000321FFF763FF20460121BDE83840FFF7C9
:1021000087BF0121EEE701BB0421EBE709B1032101
:10211000E8E7FFF753FF29462046FFF779FF2846F7
:1021200002F0A0F80120A4F12003C4F12001084A24
:1021300020FA01F100FA03F30B43A040D2E9004179
:1021400024EA000021EA0303C2E738BDC0070020EB
:10215000B80700202DE9F041124E134F00243378C8
:10216000A34208DC114BD3E90023134318D0BDE888
:10217000F041FFF75DBF3D6805EBC40815F834007A
:1021800003F07CF998F801305A1E53425341181A53
:102190004142414115F83400FFF770FF0134DEE79A
:1021A000BDE8F081AC070020E0070020B807002060
:1021B000092AF7B505460C4616463CD903F08EF8B9
:1021C000D8B11E4B1E481D601E4B1F4F1C701F4B6D
:1021D000002120221E6005F073FF1D4B002000210E
:1021E000C3E90001013CE4B20326FF2C0BD1194ADC
:1021F0001948002100F04AF903E003F037F80028FD
:10220000DFD003B0F0BD9DF8063015F834008DF82E
:10221000046005EBC40223F007038DF8063001A922
:1022200093788DF805303A4603F062F8013CE4B249
:102230000028DAD0E5E70720E3E700BFE007002049
:10224000C0070020AC07002049200000B007002094
:10225000B807002055210000E491000070B5084D3A
:10226000084E00242B789C4201D3002070BD3368B7
:10227000012113F8340003F0B7F80134F2E700BF8E
:10228000AC070020E00700201FB50021039001AA41
:1022900044F20100CDE9011100F004F805B05DF849
:1022A00004FB000010B572B6FFF782FCFFF7CEFA10
:1022B0000028FBD1154C62884AB11548154B1649C8
:1022C000C01AC008000440F00100FFF73FFC134BA8
:1022D0001B68DB0700D500BE6388012B09D90C48B9
:1022E0000C4B0F49C01AC008000440F00200FFF771
:1022F0002DFCBFF34F8F0B490B4BCA6802F4E06211
:102300001343CB60BFF34F8F00BFFDE720000020D9
:10231000F08E0000C08E0000E8910000F0ED00E0BB
:10232000F491000000ED00E00400FA05D0E902237A
:10233000D1E90201994208BF90422CBF0120002040
:102340007047000008B50B4802F0BFF80A4B0B4974
:10235000D3E900231218D1E9000143F100038B42B5
:1023600008BF824203D212F1807243F1000310468B
:10237000194608BD24010020E8070020500800206D
:1023800037B505460C460A4801A902F08EF960B13E
:102390000570446001A9064802F0B1F918B105487A
:1023A00002F098F8002003B030BD0420FBE700BF26
:1023B000100100202401002038B5194B1B78044679
:1023C00013B90025284638BD0028FAD090F82030EF
:1023D00003F0FF05002BF4D0FFF7B4FFD4E902238C
:1023E000994208BF904216D323690BB984F8203074
:1023F000D4E90530984721690029E2D094F82030CB
:1024000003F0FF05002BDCD0D4E90223521843F17E
:102410000003C4E902230348214602F0E9FCD1E7A6
:10242000F00700202492000013B5114B11491868E1
:10243000019008231048582202F024F9044698B964
:102440000E4A0F4801A901F01FFF044660B90C486D
:10245000012102F01DF801230A4A0948194601F03A
:102460007FFF094B01221A70204602B010BD00BF49
:102470001E920000F407002010010020F12400004B
:1024800024010020FFFF7F00F00700203AB103681D
:102490005A614A1E5142514119610020704707207C
:1024A000704738B590F8203004460D4683B98261F4
:1024B000FFF748FF2369401941F10001C4E9020117
:1024C00003B1256121460020BDE83840FFF758BF21
:1024D000002038BD0023014680F820300120FFF79E
:1024E0004FBF0000014801F0F0BF00BF24010020F1
:1024F0002DE9F04F85B0804601F0D2FF40B15C4A33
:10250000D2E9003113F1807341F10001C2E90031D9
:102510000021404601F0D3FF38B1564E336823B155
:102520003068FFF749FF002333600121404601F086
:10253000C6FF20B1FFF706FF4F4BC3E900014F482C
:102540004C4F4F4EDFF8409103A902F0E8F8002805
:1025500046D1DFF82C91474EDFF830A1484602F013
:102560005DFC3368002878D083B13368D0E902017C
:10257000D3E90223994208BF90422ED2336893F8E0
:1025800020301BB13168484602F032FC484602F068
:102590003FFCD0E902B307460193FFF7D3FE019B4E
:1025A000BBEB000463EB0105012C75F1000347DB75
:1025B000B4F5350F42D3FFF795FF324A02444FF48A
:1025C00096030021504601F0EBFE002840D133680D
:1025D00013B9404601F0BCFE376005B0BDE8F08F8E
:1025E0000378012B1FD0022B09D14FF0000A30468F
:1025F00002F00EFC002836D080F820A0F7E74BB997
:10260000416891F820302BB9012381F82030304601
:1026100002F0EEFB03A9194802F0ACF803A9174831
:1026200002F07DF893E741683B68994202D10023AC
:102630003B60EFE7304602F0F4FBEBE7BA68BEE739
:102640000021504601F031FF3846FFF7B5FE01E0AA
:102650000D28F9D00023336080E7002BBDD1404620
:1026600001F07AFEB9E7012389F80030D2E700BF14
:10267000E807002058080020500800201001002022
:1026800024920000FFFFB400F00700202401002086
:1026900043681B6818470000024B5B6803B118478A
:1026A000704700BF60080020020600F00F034CBF17
:1026B00002480348DB001844704700BF6C08002044
:1026C000B408002008B5FFF7EFFF016009B14B68BF
:1026D0001968416008BD0000024B0146D3E90002C1
:1026E000104700BFB408002038B5831EDBB2062BAC
:1026F00098BF1A4A1A4D98BFD25C2B78A3F10203F7
:10270000DBB288BF0022062B9ABF1449CB5C0023A2
:102710009342044603D0B2B1124802F0F9FB022CF6
:1027200014D0A4F10800424242412B78022B0FD072
:10273000A3F108014B424B41934202D052B104F045
:1027400023FA2C7038BD02F00DFCE8E70122ECE71B
:102750000123F1E704F00EFAF3E700BF4E92000008
:102760001C0A00202C0100200378052B37B50446F5
:102770000CD12C4AD2F88434D2F8802412F0FF0F06
:1027800004D1294ADBB2052B08BF1446237813BBBA
:10279000264B1D68C5B92846254D01F063FD2A6802
:1027A00012B9244B62881A800121214802F015F8E1
:1027B000002001F059FD204B1B6813B10121204678
:1027C00098472B6803B030BD2B6860889B6898479A
:1027D0002B685D68DEE7194801A901F066FF054630
:1027E0000028EFD023680360002001F03BFD114B6F
:1027F0000F481B88026801339B1AEB80002101F00F
:10280000C9FFA880002001F02FFD01A90B4801F0AD
:1028100076FF094B1B680146002BD3D02046984712
:10282000D0E700BF0070024068920000100A00204C
:10283000180A0020FC080020600800203401002055
:10284000FFF792BF012805D0022805D030B904480F
:10285000FFF78ABF0348FBE70348F9E7704700BF6B
:102860005C92000060920000649200000148FFF753
:102870007BBF00BF6C9200002DE9F04F87B00026AF
:102880000546884691461F4602966B6800225C68A2
:102890002946012302A8A047044638B98DF806004E
:1028A00004908246564503D8052028E00136ECE71F
:1028B0006B680DF10602D3F804B02946012304A881
:1028C000D8476B680DF10702D3F804B029460123FD
:1028D00004A8D8479DF8073043459DF8063013D12A
:1028E0004C450FD1109A13603B7087F801806A68DD
:1028F000023B54682946BA1C04A8A047002007B030
:10290000BDE8F08F0134E4B26A68023BD2F804B04B
:102910002946002204A8D8479DF806309A44C1E70A
:102920002DE9F743082305462D492E484FF48472BC
:1029300001F0A8FE002851D12B4804F03BF90446D1
:10294000002847D1294B1870294B1860294B0146A4
:1029500018604822284805F0B3FB28484822214641
:1029600005F0AEFB264B8DB9C3E900551D72002062
:1029700002F00CFB18B1852801D0FFF785FC214F30
:10298000002697F8089007F1090810E095E807007D
:1029900083E80700EBE7A37823443946985CFFF708
:1029A00091FE01356378EAB29342F4D80136F4B26D
:1029B000A14504D904EB440444440025F2E70B2369
:1029C00010488DF8043001A9FFF762FE044608B1F3
:1029D00003F0A8FF204603B0BDE8F0830324F9E725
:1029E000FE08002034010020412800001C0A0020BD
:1029F000080A00200C0A00206C080020B4080020FF
:102A000060080020A092000010B504F06FF810B923
:102A10000823184610BD04F071F804460028F7D1C9
:102A2000044802F0CEFA03460028F2D0FFF72CFC4F
:102A30002346EEE75892000003F07EBF04F05CBC32
:102A40004FF08043D3F83824920702D50348FFF7AC
:102A50008BBED3F83824D107F4D470476D920000B0
:102A600007B5822301A88DF80430FFF77DFE03B07F
:102A70005DF804FB2DE9F74300F1090190F8089097
:102A8000054600260F46F3B24B452AD291F8018045
:102A90000024E3B298450AD98B780A190134D05C36
:102AA000FFF702FE0368002BF3D0112028E0013667
:102AB0000331E8E7A37823442946985CFFF702FE38
:102AC00001366378F2B29342F4D808F101082B7A08
:102AD0005FFA88F4A34216D904EB44043C44002670
:102AE000EFE74FF00008F2E713681A68002AFBD1FD
:102AF0001D6001A90B2328468DF80430FFF7C8FD9F
:102B000003B0BDE8F083014BEFE700BF080A0020E7
:102B1000024B1878003818BF01207047140A0020B3
:102B2000030710B5044604D404F078F9204604F0F5
:102B3000A9FC2046BDE8104004F050BC04F01CBCC9
:102B4000014B1868704700BF080A0020F0B50A4B17
:102B50000246186878B1057A0023861DDCB2A542CA
:102B600001D80368F5E7013303EB4307F75D9742AC
:102B7000F4D101B10C70F0BD080A00201146FFF736
:102B800087BD08B500F00F03082B07D8FFF78CFDB1
:102B9000006818B1BDE80840FFF77ABD102008BDF5
:102BA00038B5054B05461C6804B938BD2946204692
:102BB000FFF76EFD2368F6E7080A002038B5074BDB
:102BC00005461C680CB9062038BD29462046FFF78B
:102BD0005FFD0628F8D12368F3E700BF080A00204C
:102BE00013B50446019104F02BF850B1064B1B7845
:102BF000022B06D10199204602B0BDE8104004F036
:102C00002FB8082002B010BD1C0A002013B50446DE
:102C1000019104F015F850B1064B1B78022B06D138
:102C20000199204602B0BDE8104004F08DB808209C
:102C300002B010BD1C0A0020F8B543689B68054629
:102C40000C46164613B92EB1072002E09847062815
:102C5000F9D0F8BD2B7AA34213D9093504EB44040B
:102C60002C446778F3B29F4201D80020F1E76278E4
:102C70009A4208D9A219A378D05CFFF751FF013618
:102C8000F0E77378FFDE00231B78FBE74368DB681F
:102C900070B505460C4603B198472B7AA34213D969
:102CA000093504EB44042C4400256678EBB29E42BF
:102CB00000D870BD62789A4209D96219A378D05CB5
:102CC00004F05AFB0135F1E700235B78FFDE0023B7
:102CD0001B78FBE743681B6903B118471846704728
:102CE00070B5084B1C6804B970BD267A0025E9B29E
:102CF0008E4201D82368F5E700222046FFF79CFFAB
:102D00000135F4E7080A002070B5084B1C6804B9C7
:102D100070BD267A0025E9B28E4201D82368F5E716
:102D20002046FFF7B3FF0135F5E700BF080A002092
:102D300038B503780F2B044610D9A3F1800283F035
:102D40008003052B00D938BD052AFCD8DFE812F036
:102D500067002C00490073007E00E0000F2BF2D8C2
:102D600001A252F823F000BF6F2E00009F2E00003A
:102D7000FF2E0000C32E0000E12E0000112F0000E6
:102D8000232F0000472D00004D2F0000512F000081
:102D9000552F0000472D0000472D0000472D000053
:102DA000472D00001B2F00006B48FFF795FC6A4879
:102DB000FFF7F6FE0D20FFF76FFCFFF7A5FF00F011
:102DC00060FF664B1B6853B9654B187A00F0010031
:102DD00003F062FE0120BDE83840FFF785BC01200A
:102DE000F4E7FFF791FF04F069FA0020FFF77CFC9D
:102DF0005C48FFF7D5FE5B48FFF76EFC0E20FFF73F
:102E00004BFC594B1B78023BDBB2062B9BD8574A35
:102E1000D35C002B97D0BDE8384002F0A3B8524BEA
:102E20001B78062B05D003F0FD03052B8BD1022068
:102E3000D1E70820CFE74C4B1B78032B83D104F05C
:102E400075FA00283FF47FAF0420C4E7464B1B7897
:102E5000032B05D104F06AFA10B10420FFF744FCFB
:102E600003F056FE00283FF46EAF0620B3E73E4B5A
:102E70001B78032B01D0082B02D13D48FFF758FFE8
:102E80000020FFF709FC354B1D68002D3FF45BAFB8
:102E900028462146FFF7FCFB2B685D68F5E7FFF746
:102EA00033FF00F0E5FE0220FFF71EFC0120FFF7D4
:102EB000F3FB2046FFF710FC2046BDE83840FFF743
:102EC0006FBE294B1B78082B06D10220FFF70CFCA4
:102ED00003F064FE0320EAE70520FFF705FCF9E7AD
:102EE0000320FFF7D9FB2348FFF7F6FB2148FFF744
:102EF00057FE1D4B1B78062B99D107206BE703204B
:102F0000FFF7F2FB0220FFF7C7FB2046FFF748FE62
:102F10002046BDE83840FFF7DFBB0F20FFF7BCFBC2
:102F2000CAE78078FFF7C0FB2146436800689847EE
:102F300000283FF408AFA07802073FF404AF03076E
:102F40003FF501AFBDE8384003F042BF0820E5E798
:102F50000920E3E70A20E1E76E9200000C0A002056
:102F6000600800206F9200001C0A00204E920000B2
:102F7000709200007192000073B5224D00230193FE
:102F80002B6823B92049214801F0C9FB28602C682F
:102F9000ECB1A68886B1E388B3F5006F24BF0023A7
:102FA000E380E388ADF806305A1C013EE280A6803B
:102FB00001A8FFF7BDFE07E02046FFF7B9FE124962
:102FC000124801F0D7FB2E60012002B070BD104BFB
:102FD00018680028F9D0204601F044F90D4B0C4840
:102FE0001A88B2F5006F28BF1C801A88ADF8062039
:102FF000511C1980012101F008FC002001F034F976
:10300000D6E700BF200A00205C0800203401002021
:10301000180A0020FC080020C36903B11847704754
:1030200003680022C3E91E22C3E920221A845A62DF
:10303000DA6203F134025A677047CA699A4210B5DE
:1030400043600CD38C690460086F18440867D01A79
:103050001C44C86100388C6118BF012010BD01F10B
:10306000280202608B670020F8E70000F0B50468D2
:103070000D7A002C00F08780A4F212347C2C00F230
:1030800022837C2C00F21F83DFE814F085008F0080
:103090009D00A900B500C100CD00D9001D031D038E
:1030A0001D031D031D031D03EF00FB001D031D0376
:1030B0001D031D031801240132011D031D031D03FF
:1030C000450151017F011D031D031D031D03670100
:1030D00073017F011D031D031D031D031D031D033C
:1030E0008B011D031D031D031D039F01AB01B701D0
:1030F000C301CF011D031D03DB01E701F301FF0144
:103100000B021D031D0317022302340240021D039C
:103110001D034C025802640270027C021D031D0351
:103120001D031D031D031D031D031D031D031D039F
:103130001D031D031D031D031D031D031D031D038F
:103140001D039B02A7021D031D031D03C0021D03D7
:103150001D031D031D03DD021D031D031D031D03B0
:10316000DD021D031D031D031D031D031D03E902D5
:10317000F5021D031D031D031D0313031D031D0382
:103180001D031D0313030824047123B940F21233F5
:1031900003600120F0BD0AB1047914700B24012BE7
:1031A00004710ED840F21333F2E700240AB1067915
:1031B000165501340E7D06719C4205D34FF44573BC
:1031C000E6E70124F2E700240AB106791655013436
:1031D00002269C42067103D340F21533D8E700243F
:1031E0000AB106791655013402269C42067103D3B2
:1031F00040F21633CCE700240AB1067916550134A3
:1032000002269C42067103D340F21733C0E7002424
:103210000AB10679165501344E7E06719C4203D3DD
:103220004FF44673B4E700240AB106791655013409
:1032300000269C42067103D340F21933A8E700240C
:103240000AB106791655A94E002701343770A74EEA
:103250003678AE4202D340F2993399E70926A34269
:10326000067103D84FF4487392E700240AB1067937
:103270001655013404269C42067103D340F22133D3
:1032800086E700240AB106791655984E0F7A3678EB
:10329000DFF85CC2B74204F1010440F2188201F188
:1032A000090706EB460607EB060E9C42BE5DCCF80E
:1032B00000E0067103D340F2263369E700240AB127
:1032C00006791655013400269C42067103D340F25C
:1032D00027335DE700240AB106791655844E366817
:1032E0000134767806719C4203D34FF44A734FE75A
:1032F00000240AB1067916557D4E0F7D3668367862
:10330000B74204F101041ED102269C42067103D388
:103310004FF44B733CE700240AB10679165501348B
:1033200002269C42067103D340F22D3330E700247D
:103330000AB10679165501344E7E06719C4225D39A
:1033400040F22E3324E78F7DB74223D10A269C42D8
:10335000067103D340F233331AE700240AB1067929
:103360001655013400269C42067103D34FF44D7369
:103370000EE700240AB106791655013400269C4256
:10338000067103D340F2353302E700240AB106790F
:10339000165501340026A342067103D84FF44F732B
:1033A000F6E600240AB106791655514E0F7D3668AF
:1033B0003678B74204F1010440F0E98005269C42CA
:1033C000067103D340F24133E2E600240AB10679E4
:1033D0001655013424269C42067103D340F2423331
:1033E000D6E600240AB106791655013400269C421F
:1033F000067103D340F24333CAE600240AB10679CA
:103400001655013410269C42067103D34FF45173B4
:10341000BEE600240AB106791655013401269C4205
:10342000067103D340F24533B2E600240AB10679AF
:103430001655013405269C42067103D34FF452738E
:10344000A6E600240AB106791655013424269C42CA
:10345000067103D340F249339AE600240AB1067993
:103460001655013401269C42067103D340F24A33BB
:103470008EE600240AB106791655013403269C42D3
:10348000067103D340F24B3382E600240AB1067979
:10349000165501348E7D06719C4203D34FF453734D
:1034A00076E600240AB106791655013404269C42BA
:1034B000067103D340F24F336AE600240AB106795D
:1034C0001655013424269C42067103D34FF45473DD
:1034D0005EE600240AB106791655013402269C42A4
:1034E000067108D340F2513352E600BF250A00208E
:1034F000280A002000240AB1067916550134022654
:103500009C42067103D340F2523341E600240AB1D3
:1035100006791655013405269C42067103D340F204
:10352000553335E600240AB10679165501342426B0
:103530009C42067103D340F2563329E600240AB1B7
:1035400006791655013406269C42067103D340F2D3
:1035500057331DE600240AB10679165501340E7D55
:1035600006719C4203D34FF4567311E600240AB14E
:103570000679165501348E7D06719C4203D340F2C4
:10358000593305E600240AB1067916550134534E25
:1035900036687778524E3770524E00273770514E4A
:1035A00037784F4E3678B74204D34F4F3E780136C6
:1035B0003E704CE60726A342067103D840F26D33F5
:1035C000E6E500240AB106791655013405269C4229
:1035D000067103D340F26E33DAE500240AB10679AE
:1035E00016553E4E3F4F36683F7896F801C0BC45B1
:1035F00004F1010470D996F802C03E449C4216F8CA
:103600000C60067103D340F27233C1E500240AB1A5
:1036100006791655314E0F7D36683678B74204F17B
:10362000010406D103269C4206710DD340F2773384
:10363000AEE58F7DB7420BD102269C42067103D3C3
:103640004FF45F73A4E500240AB1067916550134DE
:103650004026A342067103D840F2833398E5002444
:103660000AB106791655013400269C42067103D32F
:103670004FF461738CE500240AB106791655174E94
:103680000F7D36683678B74204F1010407D10E6A1F
:103690009C42367806710DD340F2893378E58F7DF0
:1036A000B7420BD100269C42067103D340F28E3301
:1036B0006EE500240AB1067916550134094F3E78AB
:1036C00001363E706BE700230360184662E5002375
:1036D000CCF800301B78FFDE0023FBE7280A00202F
:1036E000240A0020260A0020250A002010B50446DE
:1036F00058B90868037B202B09D100F10E0107227D
:10370000183004F0B4FC204610BD0320FCE706206E
:10371000FAE7037A012B08D9427B012A00F10C0356
:1037200006D9827B13445878704700235B78FFDE0C
:1037300000231B78FBE700002DE9F0470B7888B0E9
:1037400005460E460E2B17D8DFE803F00A080A0AD2
:10375000160C9D161608160A0A0A0A00FFF760FCE6
:10376000002427E04A78D1094FEA521330D013F0F1
:10377000030303D0012B21D006241BE002F01F021B
:10378000012AF9D1B478062CF6D105A8039300F0EC
:10379000F3FC03AB0093F2783179034607462846E1
:1037A000FFF76AF8052805D0039A3946701C00F027
:1037B00083FA0446204608B0BDE8F087B378212B91
:1037C000DAD1B6F80720072AD6D101681831EDE71B
:1037D000012BD1D1B3780768202B35D0222BCBD148
:1037E000B6F80730002BC7D197F82020B6F8033081
:1037F0003B8402F0010203F001018A42B0D08CB296
:10380000C1F10301C9B2FFF707FC002CA8D12B7A44
:10381000012B40F2CE806B7B05F10C02002B00F0F7
:10382000CA80AB7BD05C03F029FC2846FFF771FF10
:1038300003F024FC07F13403C7E91E44C7E9204420
:103840007C62FC627B67B5E7B6F80730072B93D143
:103850004FF4E462BA8100200E37CDE9057307907A
:1038600000F000FD05A90020FFF7BAF9044630B9C1
:10387000534B03A9CDE9033500F00CFA04460020B0
:1038800000F0F2FC96E7037A002B00F09680837A32
:1038900000F10901002B00F08E80C27AB3788A5CB7
:1038A0009A423FF45DAF1B06F77809D527B1032F85
:1038B00014BF032400247DE70121FFF7ADFB4FE790
:1038C00007F0FD03012B3FF44BAF002F6FD10668CB
:1038D000FFF71FFF3B4BB46A059306F10C038146CB
:1038E0000693C4B9F36FB467C6E91F43F36A63B1C3
:1038F000D6E90B0106F1240383E80300F46205A96D
:103900004846FFF783F9044600E074620021284628
:10391000FFF782FB4EE7D6F884A0706A544528BFB3
:10392000544606F134082246414604F0A0FBF36FEA
:103930002344C6E91F73AAEB0403B367F36A444444
:1039400074672BB306F1240406F12C0898E80300F1
:1039500084E80300B36F706AF7621BB9736A002BC7
:10396000CDD116E0B26A716F9A4214D804F07FFB91
:10397000B36AB26FC6F88030D21AB267726F1A4457
:10398000726700212846FFF747FBF36A002BDDD161
:1039900073620024BAE71A4604F069FBB26FB36A97
:1039A000F2679B1AB362736A13447362D6E7032407
:1039B00000E76378FFDE1B78FCE75B78FAE700BF7F
:1039C000ED3600003B3000001FB503681B8CDC07A0
:1039D00014D5037A012B13D9437B00F10C0493B166
:1039E000837BE05C9306CDE901120CBF0123002329
:1039F00001A90393FFF7F4F804B010BD0820FBE71A
:103A000000235B78FFDE1B78FCE70368D3F88000B7
:103A100070470368986F7047F7B50468238CDB071D
:103A20000F4616463BD5656A002D32D1A16F9142F3
:103A30000ED3616F384604F01AFBA36FC4F88060A0
:103A40009B1BA367636F33446367284603B0F0BDD5
:103A5000C4E90972FFF75DFE134B009304F10C03F8
:103A60000646019369B10A463846616F04F0FFFAD1
:103A7000A36FA26AD21AA262626AC4E91E531A44F0
:103A8000626269463046FFF7C1F8002808BF9220FD
:103A9000DCE7E36A2BB9C4E90B129220D6E70820D1
:103AA000D4E71120D2E700BF3B300000F0B5066834
:103AB0000C4685B005460020174600F0D3FB202CAD
:103AC00035D8032C29D8631E012B2ED8718CA4B2B3
:103AD000002F2FD00C4342F2A103F38102220023D6
:103AE000B282748433827382F482297A2A6821B381
:103AF000A97A05F1090411B3E87A0E32205C01922B
:103B000001A90A22CDE90223FFF76AF80446002042
:103B100000F0AAFB204605B0F0BD221FD3B201225F
:103B20009A40084B1340002BD0D10624EFE7402CDD
:103B3000FBD1CBE721EA0404CDE74B78FFDE0B781D
:103B4000FCE700BF11100010002070472DE9F04F76
:103B50002DED028B4B6885B080460C4601926BB907
:103B60000B681B681B684BB98D683DB9C0E90055EF
:103B7000284605B0BDEC028BBDE8F08F03F024F9B8
:103B8000019BE7689F4228BF1F4604F110034FF0D6
:103B9000000A08EE103A8146564601254FB3A36845
:103BA0006168BB429B4628BFBB4629B35A4609EB16
:103BB000060004F05CFA00236360A268E368A2EBED
:103BC0000B02A3EB0B03A260E360A7EB0B075E44C1
:103BD0000ABBBAF1000F03D0226812681268226093
:103BE000DBB12368DBB963601EB1019BB34288BFC0
:103BF0000025C8E90096BBE7002BDED021684B68A2
:103C000018EE100AD3F804A009EB06025B46D04771
:103C10004FF0010AD1E7002BC0D10025BEE70023F9
:103C2000029321684B680022D3F804B002A8012354
:103C3000D84708B92061B1E7A3680133A360F0E772
:103C4000084B1A7882420CD0052818BF064A187013
:103C500018BF137805481CBF23F002031370FFF749
:103C600067B87047380A0020540A0020B09200005C
:103C700008B50020FEF754FFBDE808408020FEF79D
:103C80004FBF08B50020FEF759FFBDE8084080206F
:103C9000FEF754BF38B505460C4603F039F9A84283
:103CA00005BFD4E90001034B1020C3E9000108BFA0
:103CB000002038BD580A00207FB5C38893421E46B5
:103CC00028BF164693420D46144620D9802002F0A4
:103CD000B1FFB4FBF0F202FB1040B0FA80F04009F3
:103CE00003900020CDE9015600F0BCFA01A9802024
:103CF000FEF776FF044620B906498020FFF7CAFF89
:103D00000446002000F0B0FA204604B070BD002048
:103D1000E6E700BFE49200002DE9F04F0B780E2B90
:103D200089B00D4613D8A3B1013B0D2B11D8DFE8A4
:103D300013F012001A00160010002A00F5011000FE
:103D40001000100010001A00DF01E301F301852BC1
:103D500013D00624DCE10320FFF772FFF9E7B14836
:103D600000F064FD08B90024D2E1AF4B01221A60D3
:103D7000BFF36F8FBFF34F8FF5E7AC4B1B78032B6F
:103D8000E7D10420E8E70523A94D8DF814300DF1A3
:103D9000150003F053F800232B609DF8153003F055
:103DA0001F07032F00F25D81DFE817F00400F60023
:103DB00052013E0013F0600FC3F3411834D1DB0908
:103DC0009DF8161000F0A280062916D0082900F0F0
:103DD0008F8049BB974C0222204604F071F923786A
:103DE00043F001022270944A1278920744BF43F0D4
:103DF0000303237002228F490EE09DF81830022B36
:103E000016D0032B64D0012B0ED1BDF81B30002B34
:103E100000F06B81894912220DF11500FFF74CFF6C
:103E20000446062C40F0258105A8FEF7C7FEF7E002
:103E3000BDF81B60002E00F05881092E28BF09260E
:103E4000FEF77EFE4FF00909044654BB794C7C49CD
:103E50003246204604F00BF92771A4F80290FEF7D1
:103E600057FE18B1E37943F02003E371FEF768FED3
:103E7000744BC3E900049E60BDF81B20DA6000208B
:103E800000F0F0F970498020FEF7C0FE044620B92A
:103E90006E498020FFF7FEFE0446002000F0E4F9A2
:103EA000BFE7CDF80C804FF0000A63680022D3F81A
:103EB00004B02146012303A8D84730B9237A1F4410
:103EC0002368D1441C68FFB2BFE70AF1010AECE79E
:103ED000BDF81B30002B00F00881BDF819109DF8CB
:103EE000170000F099F9014600289DD0027893E769
:103EF0004E4A1278052A03D14E4A137001227AE7FE
:103F0000042A91D14B4B83F80080F7E703290FD0A7
:103F100009292BD0012987D1BDF81730012B83D176
:103F2000FEF7F6FD60B1444A137823F002030FE078
:103F3000BDF81730012B7FF477AFFEF7E9FD18B914
:103F40000F2402F0E2FFE3E03B4A137843F0020360
:103F500013702B68002B00F0C88002F0D9FF0446D4
:103F600000287FF400AF02F08FFFD1E02F4B1B78C9
:103F7000043B012B01D90824E3E79DF817302BB946
:103F8000FEF7C2FE0420FFF75BFEE2E7012B40D103
:103F9000FEF7A6FE0520F6E79DF8190003A9FEF737
:103FA000D5FD064608B91024CBE79DF80C1005AAEC
:103FB000FEF7E4FD062804465BD19DF8152012F0BB
:103FC000600FBED1194B9DF80C1018789DF8163073
:103FD000D20916D07BB10A2BB3D10528CBD13046FC
:103FE0000192FEF777FE1349019A08700DF1150052
:103FF000FFF762FE14E00528BDD10E490B800222B6
:10400000F4E70B2B9DD10528B5D1BDF81730FF2B58
:1040100001D9072495E79DF817203046FEF70CFEDE
:10402000044626E0600A00205C700240380A002046
:10403000580A0020640A0020540A0020D092000090
:10404000B19200003C0A0020EC920000E4920000D3
:104050009DF81900070706D19DF8153013F0600F81
:104060000BD006246DE705A9FEF78BFD0628044654
:10407000F2D0002C3FF46DAF63E79DF81620394B6A
:104080009DF819401B78012A1DD0032A0CD0002A64
:10409000E7D1052B02D026077FF46DAF204602F052
:1040A000A3FE31490880AAE72007DAD4BDF817201B
:1040B000002AD6D1052B02D021077FF45CAF204621
:1040C00002F086FE45E72207CBD4BDF81720002A70
:1040D000C7D1052B02D023077FF44DAF204602F055
:1040E0009DFE204603F0CEF933E702F00BFF3AE6DF
:1040F0000020FFF7A5FD36E64FF08043D3F83844A3
:1041000014F0010401D00220F3E70120FFF798FD2D
:10411000204609B0BDE8F08F0120EAE7C8780328FF
:104120003FF417AE114E3368D3B10022716832608C
:104130009847044600287FF404AF336823B1AB7876
:10414000002B7FF410AE0EE7094B1B68082B04D13F
:10415000084B1B68002B3FF406AE02F0D3FED7E7F6
:104160000E24EEE6380A0020640A0020580A0020D7
:10417000300100103401001008B1402303600148F1
:10418000704700BF640A002070B54FF0805286B0BF
:10419000D2F8A830D2F8A42000926FEA83436FEAE5
:1041A00093430B4A0B4E9BB20D2102A803F0F5FE80
:1041B00002AD002402A803F0B6FF844201D306B08A
:1041C00070BD15F8013B06F8013B0134F2E700BF72
:1041D000F4920000A40A002010B50E4B53F82040C2
:1041E00023780BB9A01C10BD0020FFF7C5FF013CD0
:1041F00000235A1CA15C39B9DBB201335B00DBB28E
:1042000043F440730380EEE7D3B220F81310134653
:10421000EFE700BF4C93000008B9FFF7DDBF0528AA
:1042200007D8054A105C20B1044B53F82030002B0E
:10423000F3D10020704700BF649300004C9300004E
:1042400072B6024A1368013313607047B40A002043
:10425000034A1368013B136003B962B6704700BF9D
:10426000B40A0020FFF7ECBFFFF7F2BF435882B05B
:104270003BB10023435043580193019B012002B0FE
:1042800070471846FBE70000F8B5284B4679284CE4
:1042900043F82620274B5F8804EBC6034FEAC60C81
:1042A0001B796BB1012F09D92348244B2449C01A2B
:1042B000C008000440F00200FDF748FC0820F8BDEB
:1042C00003680A88C3F8082590F904508A780379AE
:1042D000002DADBF05F160411A4903F00F0E01F545
:1042E00061414FEA4212D2B2B4BF01F80E2081F808
:1042F00000236D090122144903F01F0302FA03F39E
:1043000041F8253004EB0C03022F44F836001A71F3
:1043100009D90948094B0D49C01AC008000440F0EA
:104320000300FDF713FC0020C9E700BFC00A00200E
:10433000B80A002028000020008F0000C08E000076
:104340006A93000014ED00E000E100E08C930000AF
:10435000036801221A607047036801225A6070479F
:1043600073B501F15005AD000068ADB24FF4803473
:104370008C400026C0F80843C0F84843465101F578
:10438000A8714559019522F07F42019D40F82120F6
:10439000C0F844430BB1C0F8044302B070BD000044
:1043A0002DE9F74F0D4622F07F4402684FF4803725
:1043B00005F150068F408046B60002EB8500C2F83A
:1043C0004873B6B2C2F80873D2F8041599464FF094
:1043D000000BD0F84035C0F8401542F806B05B1A23
:1043E0009259009223F07F43012B009A4FEA850AED
:1043F0000CD1264B4FF4806043F001039847D8F866
:10440000003043F806B09B590193019BD8F8001087
:10441000D1F80465C1F84473A31B23F07F43012B3B
:104420001CD11A4B05F5A875013443F0010341F87E
:1044300025404FF480609847D8F80030D3F8043511
:104440009E4209D1D8F800300020C3F84473C3F865
:10445000047303B0BDE8F08F0D20FAE78A44C9F178
:10446000FF13CAF84045D1F80405221A013A22F098
:104470007F4203F57F439342EED3002AE2D1013419
:10448000CAF84045D1F804359842DAE7A093000015
:1044900003680222C3F8442309B1C3F80423704718
:1044A00000684FF48271FFF7E1BE4FF4803303FAE6
:1044B00001F10368C3F84813C3F80813704750317B
:1044C0008900006889B2FFF7D1BE0368D3F80405FC
:1044D0007047000090F9043001215A0903F01F03CE
:1044E00001FA03F34032024941F82230704700BF1D
:1044F00000E100E0024B034A1B681068184700BF48
:10450000C00A0020B80A00201EF0040F1CBFEFF301
:1045100009800AE0EFF308800549064A884201D87D
:10452000904202D88D464FF00000034B1847000020
:104530000000042000E0032061450000BFF34F8F1E
:104540000549064BCA6802F4E0621343CB60BFF32F
:104550004F8F00BFFDE700BF00ED00E00400FA054B
:104560002DE9F74F0646FDF723FBFDF76FF900280D
:10457000FBD1374C3748384B384D9F6A6B88241A2B
:10458000E408240444F00104002E59D0D3B1B269E8
:1045900033492046FDF7DEFA6B889BB1F36801933F
:1045A000B36800932F49D6E900232046FDF7F1FABE
:1045B0006B883BB1F36900932B49D6E9042320466D
:1045C000FDF7DBFA244BDB6A990705D56B881BB135
:1045D00026492046FDF7BAFADFF8A0A0DFF8A0B020
:1045E0004FF000084FF0010909FA08F33B4208D0E8
:1045F0005AF828202AB16B881BB159462046FDF78E
:10460000A9FA08F10108B8F11A0FEDD13A0607D559
:104610006B882BB1104B16495A6B2046FDF79AFA5E
:104620003B0407D56B882BB10B4B12499A6B204684
:10463000FDF790FA3046FFF781FF03B0BDE8F08F39
:10464000002BBFD00C492046FDF780FABAE700BF27
:10465000688F0000C08E000000ED00E05C000020CC
:10466000A6930000BB930000F09300004B94000061
:104670009A940000BA9400001894000094990000E5
:104680008F94000010B561B1B2FBF3F403FB142466
:10469000A4B244B9C0E9001484608281C381204679
:1046A00010BD0E20FCE70920FAE737B550E8013FBE
:1046B0009DB2C48925448489A54228BF2D1B048945
:1046C000A54202BFBFF32F8F002207E0C5EA030512
:1046D00040E80154002CE9D14FF001028DF803208D
:1046E0000193019B9DF803200B6002F0FF0322B1B0
:1046F0000B880068184403B030BD1846FBE70A88F1
:104700004B889A4209D150E8012FC2EA024240E8A0
:104710000123002BF7D1012070470020704737B5E7
:1047200050E8023F1FFAA3F5C488A54202BFBFF3B9
:104730002F8F00220DE0C48925448489A54228BF1B
:104740002D1BC3EA054540E80254002CE8D14FF088
:1047500001028DF803200193019B9DF803200B605B
:1047600002F0FF0322B14B880068184403B030BD4B
:104770001846FBE70A884B889A4209D150E8022F75
:10478000C2EA224240E80223002BF7D10120704701
:104790000020704710B5034653E8000F0A4643E86F
:1047A000002494F0000FF7D110BD10B5034653E874
:1047B000002F42EA010043E8000494F0000FF6D114
:1047C00010BD10B5034653E8000F00EA010243E8AC
:1047D000002494F0000FF6D110BD10B5034653E845
:1047E000002F02EB010043E8000494F0000FF6D123
:1047F00010BD10B5034653E8002FA2EB010043E8BB
:10480000000494F0000FF6D110BD10B5034653E834
:10481000002F8A422CBF501A104643E8000494F03F
:10482000000FF4D110BD0121FFF7BFBF0021FFF73A
:10483000C8BF10B590B1D0E9012301689B1ADBB263
:104840000A60013BDBB2FF2B026802D1002010712D
:1048500010BD11684C1C14600B70F2E70E20F7E7D6
:1048600038B504460020FFF7FDFC22686368116834
:10487000994213D9481E106011F8015CE368218B3E
:1048800001FB0535A36811791B1ADBB2994200D2EE
:1048900013710020FFF7E8FC284638BD0025F8E733
:1048A00038B5054600200C46FFF7DCFC2A68136883
:1048B000591C1160E968641A298BB4FBF1F41C706F
:1048C000BDE838400020FFF7CFBC826810B5044631
:1048D0002AB143690168006998470023A36010BDAD
:1048E0000EB403B5039921B104AB01AA019300F002
:1048F00077F802B05DF804EB03B070470A2938B5C9
:1049000004460D4602D10D21FFF7F8FFA368226887
:10491000591CA160D554D4E901329A4204D32046EF
:10492000BDE83840FFF7D1BF38BD00002DE9F84F92
:104930009846DDE90A43154682460F460A464FF07F
:104940000109AA420FD2C14538BFC14613F0010B7D
:1049500001D16CB900240126B8F1010F1BD908F16F
:10496000FF386E43F8E709F10109B2FBF5F2E8E719
:104970009B070ED5B8F1000F0CBF30262026A145AD
:10498000E9D2013C31465046FFF7B8FF002CF6D182
:10499000E0E72026F3E7B7FBF6F39D42E1D9DFF825
:1049A0003C80B7FBF6F3504618F8031006FB13776C
:1049B000FFF7A4FF3346AB42B6FBF5F6F1D2BBF1ED
:1049C000000F02D00CB1A14501D3BDE8F88F202122
:1049D0005046013CFFF792FFF4E700BF059A000044
:1049E0002DE9F74F054617468846002900F0428119
:1049F00018F8011B49B92B7B002B00F03B8128469E
:104A000003B0BDE8F04FFFF760BF252940F0B78045
:104A1000002698F800302D2B424608F1010823D0DB
:104A2000302B24D02B2B25D000242A2B02F101017E
:104A300023D13B681A1D1B683A601C440A46137850
:104A40002E2B26D101324FF0000A104610F8011B20
:104A5000A1F1300CBCF1090F1DD80A2303FB0A1386
:104A6000A3F1300A0246F0E746F00106D1E746F02E
:104A70000206CEE746F00406CBE711F8013CA3F1AD
:104A800030000928DBD80A2202FB0434303C0A46F5
:104A9000CBE74FF0000A12F8011B01F0FB00682879
:104AA0009046F8D0782909D86F290CD8632962D0AC
:104AB00022D8252963D0582900F0888098F8003042
:104AC000002B95D197E770390829F7D801A353F83F
:104AD00021F000BF4F4C0000BD4A0000BD4A00005D
:104AE000DD4B0000BD4A0000BB4B0000BD4A00008A
:104AF000BD4A0000CD4B0000642901D06929DDD1F9
:104B00003A68D2F80090111D89EAE9723960A2EB87
:104B1000E9724FF0010B092A35DCD34538BFD34683
:104B20002CB1B9F1000F01DB720700D5013CB307CE
:104B300002D5BAF1000F03D0F00701D44CBB00241A
:104B4000B9F1000F2DDAC9F100092D212846FFF730
:104B5000D5FE06F00302022A04D1BAF1000F01D1FA
:104B60001CBB0024CDE9004653460A22494628468C
:104B7000FFF7DCFEA2E73B681A1D19783A60284669
:104B8000FFF7BCFE9AE70A230BF1010BB2FBF3F22D
:104B9000C1E7A345D4D220212846013CFFF7AEFE51
:104BA000CCE77107D5D52B21D0E7A345DAD2302148
:104BB0002846013CFFF7A2FED2E73968CDE900465E
:104BC0000A1D3A6053460A220968D0E739680A1D6F
:104BD0003A60CDE9004653461022F5E73B681A1DBE
:104BE0003A6016F00106D3F8009028D1B9F1000F11
:104BF00003D0484603F097FA0646B44200D904BBF6
:104C000009F1FF3919F8011F00293FF457AF284671
:104C1000FFF774FEF6E728460136FFF76FFE19F836
:104C200006100029F7D1A642BFF448AF002C3FF48C
:104C300045AF20212846013CFFF760FEF3E7002640
:104C4000EDE720212846013CFFF758FED5E73B68F9
:104C50001A1D3A60302128461C68FFF74FFE782164
:104C60002846FFF74BFE00220823CDE900322146FB
:104C700010227CE703B0BDE8F08F00BF2DE9F84FAC
:104C8000B0F806A04579D2F800B09DF828900AFB4C
:104C900005F5043D88460BEB0301A94203F104042A
:104CA00088BFA5EB030BB4FBFAF607460AFB1644D4
:104CB000C2F800B04EB9AAEB04055D4528BF5D46B9
:104CC000BBF1000F04D1BDE8F88F3F68013EF1E76A
:104CD000043408EB06003C442A46B9F1000F0DD01D
:104CE0002146ABEB050B03F0C2F9DA452E443F68D1
:104CF00055464FF0000428BF5D46E1E701462046D7
:104D0000EFE7FFF796BDF8B546790146721E0546F6
:104D1000002393422D6803D30024A64202D8F8BD95
:104D20000133F6E70F682846FFF7BAFD013439462C
:104D3000F3E72DE9F843068BCD1C0746FFF790FDFE
:104D4000043E35440446B5FBF6F5F0B14FF48073EC
:104D5000EDB28380C680013D076081464FF00008B8
:104D6000A84512D23846FFF77BFD064648B1637965
:104D70000133637108F10108C9F80000076081463A
:104D8000EEE72046FFF7BFFF34462046BDE8F88334
:104D900001210430FFF721BD10B501210446043084
:104DA000FFF727FD10F0FF0F04D12046BDE81040AB
:104DB000FFF7A9BF10BD1FB503920022009203AAFE
:104DC000FFF75CFF05B05DF804FB1FB503920122FD
:104DD000009203AAFFF752FF05B05DF804FB836859
:104DE00000225A60C3E904229A60DA601A607047B0
:104DF00070B5446806460D46206818B1B368294668
:104E0000984718B923682B60256070BD2468F3E7C4
:104E10004368186808B102681A60704743681868E8
:104E200070474368186800B97047884203D1026828
:104E30001A600120704703460068F4E738B5074C54
:104E4000051E04F1080318BF1C4623682BB11A681D
:104E500022605B6828469847F7E738BDCC0A0020F7
:104E600020B9054B01225A70FFF7E8BF012802D193
:104E7000014A9070F8E77047C40A002038B5094C21
:104E800023786BB908486360A3602361E36000F096
:104E900023F9054600F02CF901232370284638BD7C
:104EA0008525FBE7C40A0020614E000038B5134C8D
:104EB000A378054603F0FF0073B115B16B680120BC
:104EC00098470020FFF7CEF9E3680133E360002044
:104ED000BDE83840FFF7C8B9FFF7C4F925B122692A
:104EE00013463BB92A602561E368002BECD100F042
:104EF00015F9E9E79D42F7D01B68F2E7C40A0020E4
:104F00004FF08043D3F81804C0F30040704700000E
:104F100038B5134C6378054603F0FF0073B115B143
:104F20006B68002098470020FFF79CF96368013305
:104F300063600020BDE83840FFF796B9FFF792F9AB
:104F400025B1A26813463BB92A60A5606368002BAF
:104F5000ECD100F0F5F8E9E79D42F7D01B68F2E7E5
:104F6000C40A002038B5084C0020FFF77BF96368BD
:104F7000013B6360656815B900F0F4F86570BDE841
:104F800038400020FFF770B9C40A002010B5074C64
:104F900023784BB9064B002808BF184600F062FB87
:104FA00008B90123237010BD8520FCE7D80A002032
:104FB0002D9A000008B500F084FBBDE8084000F021
:104FC00087BB07B50190FFF7F5FF019800F06CFB78
:104FD00000F070FB002003B05DF804FB1FB5037800
:104FE0008DF800304368019383688DF80830C368FA
:104FF000054A0393054B684653F8213052F82110B7
:10500000984705B05DF804FBDC0A0020E40A0020A4
:105010001FB503788DF800304368019383688DF8DD
:105020000830C368054A0393054B684653F821309E
:1050300052F82110984705B05DF804FBDC0A002007
:10504000E40A0020F0B5194B90F800C0DFF86CE0DE
:1050500043F82C20164B16460A6943F82C204B7F48
:105060000EF80C300C4607460FCC89B06D460FC5C4
:1050700094E80F0085E80F001EF80C30CDF810C042
:105080004BB1002E0B4A694608BF3246381D00F06E
:10509000D3FE09B0F0BD002E074A694608BF32466C
:1050A00007F10C0000F0A4FCF3E700BFE40A0020C5
:1050B000DC0A0020DD4F000011500000EC0A002047
:1050C00010B5034653E8000F00EA010243E800244C
:1050D00094F0000FF6D110BD044A137923B90121D1
:1050E000106091801846704785207047F00A0020B4
:1050F000084B1A68D2075FBFC02283F80023012241
:105100001A604FF080420123C2F81835024A13702A
:10511000704700BF00E100E0F80A0020074B0022C2
:105120001A6082B01B680193019B4FF080430222FA
:10513000C3F8042301229A6002B0704704010040C2
:10514000074B00221A6082B01B680193019B4FF04D
:1051500080430122C3F804231A6002B0704700BFE5
:1051600000010040074B01221A604FF08042D2F844
:105170000C3403F00113B3F1011FF8D0024B0022ED
:105180005A71704704000040F00A0020154B07B523
:105190001A687AB100221A601B680093009B4FF0D6
:1051A00080430122C3F808230F4B587910B95A7174
:1051B0001B6898470D4B1A6882B100221A601B6861
:1051C0000193019B4FF080430222C3F80823064B52
:1051D0001B68012003B05DF804EB184703B05DF8CD
:1051E00004FB00BF00010040F00A00200401004061
:1051F00000F1804000F5C040002382B003600368E6
:105200000193019B02B0704703681F2B83BF03F01B
:105210001F03036001484FF0A04070470003005097
:1052200007B5019001A8FFF7EFFF019B00EB83009A
:10523000D0F8003723F44033C0F80037D0F80037F7
:1052400043EA0141C0F8001703B05DF804FB000019
:10525000054B4FF0FF32072843F8202084BFC018C9
:1052600080F85820704700BFFC0A002010B5174C8A
:1052700094F86A3043BB04F130033021FF22013936
:1052800011F0FF0103F8012BF9D1C8B2FFF7E0FFDD
:1052900001310C29F9D1062200210D4802F010FF3E
:1052A0000C4BC02283F8062340221A604FF4BE70D4
:1052B000FFF79EFF084B4FF00042C3F80423012381
:1052C00084F86A30002010BD0820FCE7FC0A0020AA
:1052D000600B002000E100E000600040034B93F809
:1052E0006A00003818BF0120704700BFFC0A002088
:1052F000F7B53B4E3318054693F93030002B6CDA86
:105300008B78C3F34003002B0BBF082400240C2030
:105310000820844202D1042003B0F0BD56F8247066
:10532000013743D1701946F8242080F8304013B972
:10533000331983F858508B785A0717D4D80737D5C4
:1053400001A80195FFF760FF019B00EB8300D0F8F7
:10535000003723F00203C0F800372248EA0805F0BE
:1053600007070123BB40875C3B4383548B780A7853
:1053700013F0020328D0A40004F1804404F5C044D3
:105380002D02D4F8103523F44F3323F44073C4F8BE
:1053900010351204D4F8103505F47C5502F440326F
:1053A00015431D43C4F810550020B5E70134B0E79C
:1053B00001A84A780195FFF727FF019B03F5E073E9
:1053C000920040F82320C8E7083C344494F8605029
:1053D00045EA821284F86020E6E708209CE700BFD7
:1053E000FC0A0020600B002073B5224C26180546ED
:1053F00096F93020072A1ADD224492F858309B098A
:10540000032B0FD1019001A8FFF7FEFE019BD0F8FE
:105410001015D94001F0010102312846FFF700FFC5
:1054200002B070BD012B0CBF02210321F5E7D3B2FE
:10543000072BF5D8930003F1804303F5C043D3F85D
:10544000100540F00100C3F8100502F14000800093
:1054500080B2FFF7CDFE0029E2D096F9303054F843
:105460002330002BDCD0012303FA02F2024BC3F8F5
:105470000423D5E7FC0A00200060004007B5019036
:1054800001A8FFF7C1FE019BD0F81005D84000F03D
:10549000010003B05DF804FB2DE9F04F002489B052
:1054A000CDE90244624D4FF48072012102F1804344
:1054B00003F5C04390B21B68012B06D1D5F8043325
:1054C0000B4202D0FFF794FE0C430432B2F5907FFA
:1054D0004FEA4101EAD1574B1B68012B0ED14FF423
:1054E000BE70FFF785FE4FF0A04344F00044D3F8B0
:1054F00010350293504BD3F81035039314F0FF0F7F
:105500001AD04E4F00250126344210D0AB0003F1D3
:10551000804303F5C043D3F81005D3F8101557F8AE
:10552000253023B1C1F30141C0F30520984701356F
:10553000082D4FEA4606E7D1002C75DA04AF0023A8
:1055400004937B604FF0FF33CDE90633DFF8EC9036
:10555000DFF8EC800026354618F9012B531C4AD0A1
:10556000C2F3C2000123D4B202F03F0B02F00702E3
:1055700003FA02F208AB191811F8083C13423AD0AA
:1055800009EB0B03A40993F9303059F823A0BAF1C1
:10559000000F08D1032C2ED117F800C04CEA020CE2
:1055A00007F800C001E0032CF6D001A8CDF804B044
:1055B000FFF72AFE019B11F8181C03F5E07C11424D
:1055C00050F82C00C0F3014005D0022813D1032C61
:1055D0000BD1214604E003280DD1032C05D1022173
:1055E0005846FFF71DFE0135EDB2BAF1000F02D0AB
:1055F00021465846D0470136042EADD1A5B14FF013
:10560000A0430299D3F8102503F540739142D3F8D3
:10561000103502D10399994206D002920393049A5D
:10562000059B0692079393E709B0BDE8F08F00BF92
:10563000006000407C61004000030050FC0A002034
:105640005C0B002000F1804382B01A68002A14BF6E
:105650000120002004D000221A601B680193019BE6
:1056600002B070470E4B1A78C2B902784FF08041F1
:10567000C2F34002C1F88025027802F00102C1F8AD
:105680007825084A1168C9075FBFC02182F8001356
:105690000121116001221A70002070478520704797
:1056A000740B002000E100E0014B02681A607047B3
:1056B000700B00204FF080434FF46072C3F8042356
:1056C00070474FF080434FF46072C3F8082370476F
:1056D000014B00221A607047700B00204FF080438E
:1056E00010B5D3F80443620707D54FF48470FFF771
:1056F000A9FF10B11E4B1B689847A30608D54FF4AD
:105700008A70FFF79FFF18B11A4B00201B6898475B
:10571000600608D54FF48C70FFF794FF18B1154B55
:1057200001201B689847210608D54FF48E70FFF7BB
:1057300089FF18B1104B00201B689847E20508D577
:105740004FF49070FFF77EFF18B10B4B01201B68E0
:105750009847A3050AD54FF49270FFF773FF28B15D
:10576000054BBDE810401B680220184710BD00BF64
:10577000680B00206C0B0020700B002008B5FFF7B1
:10578000ADFFBDE80840FFF701BD0000014B1B68FD
:10579000184700BF780B002038B50B4B98420C46D9
:1057A00001D0002038BD0020FEF75CFD074B1D79BD
:1057B00015B901221C601A710020FEF755FD002D5D
:1057C000EFD01120EEE700BF00200040780B002052
:1057D000034B984201BF034B00221A601A717047B5
:1057E00000200040780B0020044A91689368CB1A8F
:1057F00023F07F438342F9D3704700BF10E000E0FD
:10580000034B044A1B68B3FBF2F35843FFF7ECBFAA
:10581000C401002040420F000023435082B043588F
:105820000193019B02B070470A4610B54FF48E7188
:10583000FFF7F2FF136A9168C95C136A01331362C0
:10584000C0F81C1510BD8B690A4610B54FF4847161
:1058500023B9FFF7E1FFD0F8183510BDFFF7DCFFE3
:10586000536AD168D0F81805C854536A013353629B
:10587000F3E700001FB501238DF80030044BCDE99C
:105880000110D3E900126846904705B05DF804FBAB
:10589000800B002030B54C48D0F8043313F4007F5F
:1058A00085B005464DD0D0F82431002B49D04FF4B7
:1058B0009271FFF7B1FF4FF40173C0F80833434B07
:1058C00093F829200AB9012242603F4902228DF84B
:1058D0000020D1F88024C1F8802403929A690292B2
:1058E000DA6801920022C3E906226846D3E9001271
:1058F00090473548D0F81C315BB134494A690B6A8E
:105900009A420A464AD991F82830002B46D1FFF72F
:105910008BFF2D48D0F844318BB14FF4A271FFF7C3
:105920007BFF2A4B93F829200AB1012202609A6971
:105930002AB10022586AD9689A61FFF79BFF05B027
:1059400030BDD5F804335B07D3D5D5F80831002B2B
:10595000CFD01E4C1C482146FFF775FF636AA26931
:105960009A422346C5D1E269E1684AB12369E360FE
:105970000023606AA261E3616362FFF77BFFB8E71F
:1059800094F829200AB901226A600F4A4FF4017085
:10599000C2F808030022586A9A61EEE70A484FF4F9
:1059A0008E71FFF739FF5369002BB2D05169029114
:1059B000002391688DF80030019153616846D2E967
:1059C00000139847A5E700BF00200040800B00208F
:1059D0001F2886BF00F01F00044B4FF0A04300F5C6
:1059E000E070022243F82020704700BF00030050FF
:1059F0002DE9F843634B057991462C2202FB0532D1
:105A0000064692F82A200C469846002A40F0B680B6
:105A10005D490068FFF7C0FE0746002840F0B080EF
:105A200021684A1C10D01F2987BF584A01F01F0364
:105A30000B464FF0A0420120984003F5E073C2F8F6
:105A40000805032042F823006068431C0DD01F287E
:105A50008BBF00F01F0303464C4A4FF0A04203F5F2
:105A6000E0734FF0000C42F823C03368A269C3F81A
:105A7000242594F814C0627DBCF1010F4CEA0202A7
:105A8000C3F86C25C3F81405C3F80C152BD1A16815
:105A9000481C0DD01F298BBF01F01F020A463B484E
:105AA0004FF0A04002F5E0724FF0000C40F822C029
:105AB000E068421C13D01F2887BF344A00F01F0C37
:105AC00084464FF0A0424FF0010E0EFA0CFE0CF58A
:105AD000E07CC2F808E54FF0030E42F82CE0C3F872
:105AE0000805C3F810152C236B4308EB0302C2F81A
:105AF0000490226948F80320B9F1000F2BD03068D8
:105B0000247F4FF48E71FFF787FE30684FF4A27147
:105B1000FFF782FE32681E4BC2F80433110B42F3CA
:105B20000732002AA8BF02F160404FEA4413BABF0F
:105B3000184801F00F0400F56140DBB2B4BF035513
:105B400080F8003301F01F01012303FA01F152092B
:105B5000114B43F8221033680422C3F800252C238C
:105B600003FB05830022C3E9062283F829205A613A
:105B7000012283F82A203846BDE8F8830827FAE78F
:105B80001127F8E7800B0020955800000003005013
:105B90008000020014ED00E000E100E02DE9F0419A
:105BA00003680479244D0022C3F800252C2202FB4F
:105BB0000452014652686AB1204AC3F8082343F3ED
:105BC0000732C3F3043652090120B04020321C4E84
:105BD00046F82200D3F80C05D3F81485D3F80865ED
:105BE000D3F810754FF0FF329042C3F81425C3F874
:105BF0000C25C3F80825C3F8102501D0FFF7E8FEEF
:105C0000B8F1FF3F02D04046FFF7E2FE7A1C02D017
:105C10003846FFF7DDFE731C02D03046FFF7D8FE92
:105C20000868FFF7D5FD2C2303FB0454002384F8F8
:105C30002A306360BDE8F081800B002084020200FE
:105C400000E100E02DE9F047204F90F804904FF07C
:105C50002C0808FB097405466669002E34D1626180
:105C60000068A16026624FF48E7184F82860FFF707
:105C7000D3FD2868012383602146FFF7D5FD6368C3
:105C8000A0468BB92868D4F814A0236A9A4511D885
:105C90002A68D2F81C31002BFBD00123D3602C23BF
:105CA00003FB097300225A613046BDE8F08794F87F
:105CB00028303BB9D0F81C31002BF8D04146FFF713
:105CC000B3FDE2E70F26EAE71126EDE7800B00209F
:105CD0000023435082B043580193019B02B07047A8
:105CE0001FB501238DF80030044BCDE90110D3E935
:105CF00000126846904705B05DF804FBAC0B00202D
:105D00001F2886BF00F01F00044B4FF0A04300F592
:105D1000E070022243F82020704700BF00030050CB
:105D20007FB5434AD2F82461002E60D010464FF46C
:105D30009271FFF7CDFF02238DF80030D2F8803446
:105D4000C2F880340393D2F83C350293394BDA68B9
:105D500001920022C3E906226846D3E90012904767
:105D60003348D0F8443173B14FF4A271FFF7B0FF5C
:105D7000304B9A693AB10022C3E90622D968D0F8BB
:105D80003C05FFF7ADFF2A48D0F82031ABB14FF406
:105D90009071FFF79DFF0123C360264B5A6962B1E2
:105DA000D0F84C150291002299688DF800200191DD
:105DB0005A616846D3E9001290471D48D0F858311F
:105DC0009BB14FF4AC71FFF783FF1A4B5A6962B174
:105DD000D0F84C150291002299688DF800200191AD
:105DE0005A616846D3E90012904704B070BDD2F8FA
:105DF0001031002BB4D04FF488711046FFF768FFC4
:105E00000C4BD2F83C0599698842A9D1DC69D96864
:105E100064B1D2F8005225F02005C2F800521A6988
:105E20009C61DA60DE61FFF75BFF99E79C61FAE74E
:105E300000200040AC0B00202DE9F8436A4B0679A6
:105E40009146242202FB0632044692F820200D4699
:105E50009846002A40F0C38064490068FFF79CFC24
:105E60000746002840F0BD802868421C10D01F283B
:105E700087BF5F4A00F01F0303464FF0A042012195
:105E8000994003F5E073C2F80815032142F8231086
:105E900069684B1C0DD01F298BBF01F01F030B46F7
:105EA000534A4FF0A04203F5E0734FF0000C42F864
:105EB00023C02368AA69C3F8242595F814C06A7D15
:105EC000BCF1010F4CEA0202C3F86C25C3F80C05C3
:105ED000C3F814152BD1A968481C0DD01F298BBFFE
:105EE00001F01F020A4642484FF0A04002F5E0725E
:105EF0004FF0000C40F822C0E868421C13D01F2865
:105F000087BF3B4A00F01F0C84464FF0A0424FF081
:105F1000010E0EFA0CFE0CF5E07CC2F808E54FF01D
:105F2000030E42F82CE0C3F80805C3F8101524232B
:105F3000734308EB0302C2F804902A6948F803206F
:105F4000B9F1000F3AD020682A7F4FF48871FFF72B
:105F5000BFFE20684FF49071FFF7BAFE20684FF43F
:105F60009271FFF7B5FE20684FF4A271FFF7B0FE03
:105F700020684FF4AC71FFF7ABFE23681D49C3F8EE
:105F80000413190B43F30733002BAEBF03F160403A
:105F900001F00F0518484FEA4212A8BF00F5614012
:105FA000D2B2B4BF425580F8002301F01F01012294
:105FB00002FA01F15B09114A42F823102368082212
:105FC000C3F80025242303FB06830022C3E906222D
:105FD0005A61012283F820203846BDE8F88308275B
:105FE000FAE71127F8E700BFAC0B0020215D0000A5
:105FF000000300501003420014ED00E000E100E057
:106000002DE9F0412E4E0579242303FB0563044658
:106010005B6800686BB12B4BC0F8083340F3073363
:10602000C0F304315B0901228A402033264941F83C
:106030002320D0F80032012223F02003C0F80032E0
:106040004FF4AC714260FFF743FE2368DA60D3F887
:106050005821002AFBD00022C3F80025D3F80C05F4
:10606000D3F81485D3F80815D3F810754FF0FF3224
:106070009042C3F80C25C3F81425C3F80825C3F8CB
:10608000102501D0FFF73CFEB8F1FF3F02D040469B
:10609000FFF736FE7A1C02D03846FFF731FE4B1C64
:1060A00002D00846FFF72CFE2068FFF791FB24235F
:1060B00003FB0565002385F820306B60BDE8F081A7
:1060C000AC0B00201003420000E100E001F060434F
:1060D000B3F1005F2DE9F041064638D11E4B077938
:1060E000242505FB073598466C69002C31D16A617F
:1060F0000068A9604FF49071FFF7EAFD4FF4AC71AE
:106100003068FFF7E5FD33686A69A968C3F844158C
:10611000C3F8482501229A606A68AAB9D3F82021F9
:10612000D3F858411AB9002CF8D00F2407E0002CFE
:10613000FBD10122DA60D3F85821002AFBD02423B6
:1061400003FB078700237B612046BDE8F081102414
:10615000FAE71124F8E700BFAC0B002000F1804003
:1061600000F51C3001230360BFF36F8FBFF34F8F27
:1061700070470000064B1B68082B01BF054B1868D1
:10618000B0FA80F0400918BF002000F0010070470D
:10619000300100103401001030B54C680D68A34286
:1061A00097BFC0E900530021E41AED188EBFC0E983
:1061B00000514C600D60934203D1201E18BF012096
:1061C00030BD0020FCE74B6810B59A420C6828BF30
:1061D0001A46C0E90042981A0B6848601A44003811
:1061E0000A6018BF012010BD30B54C680B68A24290
:1061F00028BF2246002A14BF1D460025C0E90052D0
:10620000A4EB02041A444C600A6014BF0120002071
:1062100030BD0000054B10F0800FA3F1900208BFC5
:10622000134600F00F0003EB00107047440D0020F0
:1062300010F0800F14BF0023102300F00F0018444B
:1062400070470000054B1B68082B02BF044B00225F
:106250001A60044B00221A70704700BF3001001012
:106260001C7C0240D10B002007B5094A00231370A3
:10627000084AADF8053013708DF8073001238DF80A
:106280000430054B01A81B68984703B05DF804FB78
:10629000D00B0020D80D0020D40D00207047000046
:1062A000F8B54B680B4F93420C4628BF1346064681
:1062B0001A46096838461D4601F0D9FE6068226812
:1062C000401BC6E900752A4460600038226018BF90
:1062D0000120F8BDE00D0020F8B54B68934228BFBF
:1062E000134606460D461C468BB10A4F09681A46EE
:1062F000384601F0BCFE37606B6874601B1B6B6036
:106300002B68201E23442B6018BF0120F8BD0360BA
:10631000F2E700BFE00D002007B500238DF8043040
:106320000B4BD3F82025ADF80620D3F8C034094A2A
:10633000002B13680CBF4FF480714FF001210B4309
:106340001360054B01A81B68984703B05DF804FB78
:1063500000700240B00C0020D40D002008B50146AA
:10636000FFF770FFFFF756FF837B032B0BD1084627
:10637000FFF75EFF012303FA00F0C143BDE80840C8
:106380000348FEF79DBE0368002BF0D008BD00BF98
:10639000400C00208720FFF7E1BF8620FFF7DEBF1B
:1063A0008520FFF7DBBF8420FFF7D8BF8320FFF7EE
:1063B000D5BF8220FFF7D2BF8120FFF7CFBF0000FB
:1063C00008B5FFF73FFF084B93F89E20032A06D13C
:1063D000BDE8084005486FF00101FEF771BED3F833
:1063E0009030002BF4D008BDB40C0020400C0020ED
:1063F000FFF7E6BF07B5FFF725FF0D4B93F88E209B
:10640000032A11D0D3F8803073B90A486FF0807135
:10641000FEF756FE06238DF804300823ADF806304B
:10642000054B01A81B68984703B05DF804FB00BF4B
:10643000B40C0020400C0020D40D002007B5FFF75D
:1064400001FF104B93F81E21032A07D10E486FF469
:106450008071FEF735FE03B05DF804FBD3F8103110
:10646000002BF8D16FF480710748FEF729FE062350
:106470008DF804308823ADF80630044B01A81B6862
:106480009847E8E7B40C0020400C0020D40D002011
:10649000244B13B5D3F80044C3F80044BFF36F8F07
:1064A000BFF34F8FBFF36F8FBFF34F8FE1050ED553
:1064B0001D4B01221A700023ADF805308DF807300E
:1064C00002238DF80430194B01A81B689847A205D8
:1064D0000DD5154A00231370ADF805308DF807303F
:1064E00003238DF80430114B01A81B6898476305FE
:1064F00016D50D4B1A789AB100221A70094B01215A
:10650000C3F808155820FFF729FE04238DF804303E
:10651000064BADF805201B688DF8072001A89847A9
:1065200002B010BD00700240D00B0020D40D00203E
:10653000064B1868082802D104331B6823B9A0F160
:106540000D03584258417047012070473001001038
:10655000012273B502FA01F51E491F4E0B6810F0B7
:10656000800F43EA050304460B6027D000F00F02BA
:106570001A4B33F8123003F1804303F51C331A68C9
:106580004AB100221A60BFF36F8FBFF34F8F80288C
:1065900011D0FFF7E3FE316829400AD106238DF8B8
:1065A00004308DF806408DF807100D4B01A81B68CC
:1065B000984702B070BDFFF703FFECE733681D4258
:1065C000F7D106238DF804308DF806008DF80720EA
:1065D000EBE700BFB00C0020400C0020589A0000F0
:1065E000D40D002008B5054B1A781046FFF720FEA1
:1065F000BDE8084001461046FFF7AABFD80D0020AD
:106600002DE9F04F7C4B87B01A780093002A40F0B8
:106610008380DFF810A2DFF8E4B1784BDAF80010DD
:106620001D68294078D011F0012578D095FAA5F59C
:10663000B5FA85F50F2D86BFA5F11004E4B245F03B
:1066400080042046FFF7E6FD4FFA84F8B8F1000F0A
:106650008289064604F0080966DAD0E9003104A808
:10666000984700B93060664B1B68082B02BF654B2A
:1066700082221A60009B059A049801211970B36860
:10668000A940DBF80050134425EA0101B8F1000FDE
:10669000B360CBF800105C4B04F00F047FDAB9F163
:1066A000000F74D0C3F8A006C3F8A426FFF762FD5C
:1066B00025B2A300554A56496400002800F08180A5
:1066C000B8F1000FB2BF042528250A46514E524F9B
:1066D0001D4414444FF00008C6F80080BFF36F8FCC
:1066E000BFF34F8F2846FFF739FD0220FFF788F8E8
:1066F0003368002BF0D01E20FFF782F83B689B0622
:106700005DD50120FFF77CF8238803F1804303F572
:106710001C331B68002BDFD007B0BDE8F08F91FA67
:10672000A1F1B1FA81F585E73749B9F1000F27D01A
:10673000D1F8C03413F4803F18BF00237168376864
:10674000019304A8B847049A002A8AD0059A019BAD
:106750009A4286D201214FF00208A94086F80E80A5
:10676000C9435046FEF7ACFC06238DF80C302B4B8A
:106770008DF80E401B688DF80F8003A898474CE7F2
:1067800004F00F0303F5947351F82330D6E7142176
:1067900001FB0433C3F80006C3F8042686E7B9F109
:1067A000000F04D0C3F8A007C3F8A4277EE7142184
:1067B00001FB0433C3F80007C3F8042776E702207F
:1067C0009AE7B8F1000FB4BF042028201844FFF75F
:1067D000C5FC12EA280838BF8846114938F8153038
:1067E00003F1804303F51C331A68002A94D10A6828
:1067F000002AF9D090E700BFD10B0020B00C002098
:10680000300100101C7C024000700240589A0000C9
:10681000749A00000471024074740240D40D002088
:1068200000710240400C002038B5174BD3F86C447F
:10683000C3F86C44BFF36F8FBFF34F8FFFF79AFC21
:1068400038B1124A136823F0011103F001130C430D
:10685000136001251CB9BDE83840FFF7D1BE94FA9A
:10686000A4F1B1FA81F30F2BC8BFA3F110001946B0
:10687000D4BF43F08000C0B205FA03F324EA030456
:10688000FFF766FEE6E700BF00700240DC0D002067
:1068900037B50446FFF7D6FCFFF7BCFC837B032B20
:1068A0000DD12046FFF7C4FC012303FA00F0C143D9
:1068B0000F48FEF705FCFFF7A3FE03B030BD0568E7
:1068C000002DF8D12046FFF7B3FC012303FA00F0B6
:1068D000C1430748FEF7F4FB06238DF80430054B4F
:1068E0008DF806401B688DF8075001A89847E2E72D
:1068F000400C0020D40D00200720FFF7C9BF062060
:10690000FFF7C6BF0520FFF7C3BF0420FFF7C0BFD6
:106910000320FFF7BDBF0220FFF7BABF0120FFF73A
:10692000B7BF0000024A00231360024A1370704789
:10693000D40D0020D20B00204D4B4FF4006210B557
:10694000C3F80024BFF36F8FBFF34F8FFFF7F0FD45
:1069500080B10020FDF786FC464B474A18680321AA
:1069600000287AD149F27530186011601860002053
:10697000FDF77AFC414B1B68082B10D10020FDF776
:1069800071FC3C4B3E4A1868C021002867D149F28F
:1069900075301860116018600020FDF765FC344BFD
:1069A0000122C3F80025BFF36F8FBFF34F8FD3F8D9
:1069B00000241205FBD54FF40062C3F80024BFF396
:1069C0006F8FBFF34F8F2D4B1B68082B1DD10020FD
:1069D000FDF748FC274B2A4A1868002841D149F2A4
:1069E00075311960106019600020FDF73DFC234BE4
:1069F0001B68082B09D1234B40F2E3721A60402236
:106A00005A60BFF36F8FBFF34F8F194B0024802262
:106A1000C3F81C25C3F830451B4B40F2FF121A6027
:106A20001A4B1C60FFF70EFC194B1C70194B02220D
:106A30001A70FFF77DFDC8B12046FDF713FC0D4B22
:106A40000D4A186880B949F27531196010601960F3
:106A5000BDE810400020FDF707BC116087E711601A
:106A60009AE700231360BFE71460F1E710BD00BF91
:106A70000070024000EC064014ED064030010010AA
:106A800014EC064000780240B00C0020400C0020BE
:106A9000D80D0020D20B002008B50F4B00221A7031
:106AA000C0B9FFF767FB0D4B0D4A002814BF18460D
:106AB00010460C4B0C4AC3F80403C02182F827137C
:106AC000802151600122C3F80425BFF36F8FBFF30B
:106AD0004F8F08BD0148ECE7D00B00200714E00100
