:02000002D0002C
:1040000000400D0090820D00000006000C0005012C
:084010000401DE0500000000C0
:04401800A07C0D007B
:1040200009480A49884208B505D0094A824202D0A7
:10403000121A03F0D9FC0748074A0021121A03F0AC
:10404000F9FC014808BD00BF74E20320F4810D00B3
:10405000E8E20320E8E20320F0E7032070B502F075
:1040600045FE074C074BE41AA40800251E46A5424E
:1040700004D056F8253098470135F8E770BD00BFE9
:10408000E8810D00B0810D0000F061B808B500F0C6
:104090006FF8BDE8084002F0EBBD00F0C3BB00F0D4
:1040A000C9BB00F0C7BB000008B5034A00210C20C3
:1040B00000F004FBFEE700BF5D440D000078B0FA9D
:1040C00080F0400970470123037070477047006A11
:1040D0000368DB68184700000A4B10B5044603600C
:1040E00001F00EFB214601F0FBFC02F03FFD02F067
:1040F00031FD2046044B40F8043B01F0F7FB20461D
:1041000010BD00BFD47C0D00BC7C0D0010B5044672
:10411000FFF7E2FF2046242102F0D7FE204610BD23
:104120000EB400B58CB00DAA202352F8041B0392E4
:104130008DE8060004930168002304AA1E2005935D
:1041400000F0C4FA0CB05DF804EB03B0704708B59A
:1041500002F00CFD4FF4165102F0F8FC0021222071
:1041600002F012FE00212320BDE8084002F00CBE40
:1041700030B52120A7B002F02BFE0446222002F029
:1041800014FE0546232002F010FE039020460295FF
:1041900003F054F92AA3D3E9002303F0B5F903F09F
:1041A000C5FB03F05DF9204ACDE90001802106A896
:1041B00000F050FB1D4906A803F084FC00282FD016
:1041C00000F054F91A4A1368C01AB0F5FA6F154690
:1041D00026D9184B18491B788DF8003006AA3C23C5
:1041E00004A800F019FD059C7CB16368013B636085
:1041F0005BB9236820469B689847A368013BA3608E
:104200001BB923682046DB68984706A90B48FFF7CF
:1042100087FF06A9054803F05FFC00F027F9286036
:1042200027B030BDAFF30080E47C0D0014E3032021
:1042300010E3032094E30320FF7C0D00D8E3032068
:104240009402C1D2AF63523F70B50468436814262C
:10425000054606FB0346A64204D0204602F0FFFABC
:104260001434F8E7286800F0E5FA284670BD884263
:10427000F8B506460C46154616D9904215D2A2F15D
:1042800014056C1AA1F114070444AF421CD02CB1E0
:104290002946204602F0D3FA2B7C2374284602F0EC
:1042A000DEFA143D143CF0E70ED0AC420CD02EB137
:1042B0002146304602F0C3FA237C3374204602F0D4
:1042C000CEFA14341436F0E7F8BD2DE9F04100239E
:1042D0000360436083604E689E4204460F4624DDBF
:1042E0004FF0140808FB06F000F09CFA0546E0B118
:1042F00094E8060008FB0212FFF7B9FF206800F0FF
:1043000099FA2560A6603E687B6808FB036846450D
:1043100009D02DB13146284602F0F7FA337C2B74D0
:1043200014361435F3E77B6863602046BDE8F081FE
:1043300070B5234B234C8CB001221A7000F09EF80C
:10434000002300930193029302F010FC6946064695
:1043500003A8FFF7BAFF254603A906A8FFF7B5FF94
:10436000194B45F8043B06A909A8FFF7AEFF09AAB7
:104370001E21284601F01BFD09A8FFF765FF06A8CE
:10438000FFF762FF114B236003A82662FFF75CFF73
:104390000F4B236002F0EAFB4FF4165102F0D6FBFC
:1043A00001F0AEF9214601F095FC6846FFF74CFF9D
:1043B000084A0949204602F083FD0CB070BD00BFD9
:1043C00094E30320ECE20320BC7C0D00D07E0D00C2
:1043D000D47C0D00E8E20320D9400D0008B5024B63
:1043E0001B689B68019308BD4802030008B5024B97
:1043F0001B681B69019308BD4802030008B5024B06
:104400001B685B69019308BD4802030008B5024BB5
:104410001B685B6C019308BD4802030008B5024BA2
:104420001B689B6C019308BD4802030008B5024B52
:104430001B68DB6C019308BD4802030008B5024B02
:104440001B685B6D019308BD4802030008B5024B71
:104450001B685B68019308BD1802030008B5024B96
:104460001B68DB68019308BD1802030008B5024B06
:104470001B685B69019308BD1802030008B5024B75
:104480001B681B68019308BD2C02030008B5024B92
:104490001B685B68019308BD2C02030008B5024B42
:1044A0001B689B68019308BD2C02030008B5024BF2
:1044B0001B68DB68019308BD2C02030008B5024BA2
:1044C0001B685B69019308BD2C02030008B5024B11
:1044D0001B681B6B019308BD2C02030008B5024B3F
:1044E0001B681B6A019308BD2802030008B5024B34
:1044F0001B685B6A019308BD2802030008B5024BE4
:104500001B689B6A019308BD2802030008B5024B93
:104510001B68DB6A019308BD2802030008B5024B43
:104520001B681B6B019308BD2802030008B5024BF2
:104530001B685B6B019308BD2802030008B5024BA2
:104540001B681B6C019308BD2802030008B5024BD1
:104550001B685B69019308BD6402030008B5024B48
:104560001B689B68019308BD6802030008B5024BF5
:104570001B68DB68019308BD6802030008B5024BA5
:104580001B68DB69019308BD3002030008B5024BCC
:104590001B681B6A019308BD3002030008B5024B7B
:1045A0001B681B68019308BD3C02030008B5024B61
:1045B0001B689B68019308BD3C02030008B5024BD1
:1045C0001B68DB68019308BD3C02030008B5024B81
:1045D0001B681B69019308BD3C02030008B5024B30
:1045E0001B685B69019308BD3C02030008B5024BE0
:1045F0001B689B69019308BD3C02030008B5024B90
:104600001B68DB69019308BD3C02030008B5024B3F
:104610001B681B6A019308BD3C02030008B5024BEE
:104620001B689B6A019308BD3C02030008B5024B5E
:104630001B68DB6A019308BD3C02030008B5024B0E
:104640001B681B68019308BD4C02030008B5024BB0
:104650001B685B68019308BD4C02030008B5024B60
:104660001B689B68019308BD4C02030008B5024B10
:104670001B681B69019308BD4C02030008B5024B7F
:104680001B685B69019308BD4C02030008B5024B2F
:104690001B689B69019308BD4C02030008B5024BDF
:1046A0001B68DB69019308BD4C02030008B5024B8F
:1046B0001B681B6A019308BD4C02030008B5024B3E
:1046C0001B685B6B019308BD6002030008B5024BD9
:1046D0001B685B6D019308BD6002030008B5024BC7
:1046E0001B68DB6E019308BD6002030008B5024B36
:1046F0001B681B6F019308BD6002030008B5024BE5
:104700001B685B68019308BD2002030008B5024BDB
:104710001B68DB6C019308BD2002030008B5024B47
:104720001B685B6D019308BD2002030008B5034BB5
:104730001B68D3F88830019308BD000020020300F5
:1047400008B5034B1B68D3F89430019308BD0000F3
:104750002002030008B5024B1B685B69019308BD8A
:104760004402030008B5024B1B681B6A019308BD95
:104770004402030008B5024B1B68DB6B019308BDC4
:104780004402030008B5024B1B685B68019308BD37
:104790004002030008B5024B1B689B68019308BDEB
:1047A0004002030008B5024B1B68DB68019308BD9B
:1047B0004002030008B5024B1B681B69019308BD4A
:1047C0004002030008B5024B1B685B69019308BDFA
:1047D0004002030008B5024B1B689B69019308BDAA
:1047E0004002030008B5024B1B68DB69019308BD5A
:1047F0004002030008B5024B1B681B6A019308BD09
:104800004002030008B5024B1B681B6B019308BDF7
:104810004002030008B5024B1B685B6B019308BDA7
:104820004002030008B5024B1B681B68019308BDDA
:104830001C02030008B5024B1B685B68019308BDAE
:104840001C02030008B5024B1B689B68019308BD5E
:104850001C02030008B5024B1B68DB69019308BD0D
:104860001C02030008B5024B1B685B6A019308BD7C
:104870001C02030008B5024B1B68DB6A019308BDEC
:104880001C02030008B5024B1B681B6B019308BD9B
:104890001C02030010B5836804460BB902F031FB1B
:1048A000C3689847A3681BB1032221462046984756
:1048B00020461021BDE8104002F007BB10B50446A9
:1048C000006808B1FFF7AAFD204610BD10B50368C7
:1048D00004469B689847A368013BA3602BB92368F3
:1048E0002046DB68BDE81040184710BD0B68036028
:1048F00013B15A6801325A60704710B50446006817
:1049000028B14368013B43600BB9FFF7DFFF204646
:1049100010BD38B50C6803689C4205460CD014B134
:10492000636801336360286828B14368013B4360D2
:104930000BB9FFF7CBFF2C60284638BD10B5064CED
:10494000002320462360FFF761FD2046034A044907
:10495000BDE8104002F0B4BA98E30320E8E2032077
:10496000BD480D0070470020704710B51021044667
:1049700002F0ABFA204610BD08B508B1FFF7F5FF0D
:1049800008BD10B58368044613B103220146984759
:10499000204610BD0022026010B54FF69C72828046
:1049A000B1F9044084808A8002680C6804600A605F
:1049B00010BD10B504460068FFF73CFF204610BD4F
:1049C00038B5C468F4B12378022B03D104F10C008C
:1049D000FFF7EFFF656835B12846FFF7D2FF1021DA
:1049E000284602F072FAA56835B12846FFF7C9FFDC
:1049F0001021284602F069FA20461421BDE838400B
:104A000002F063BA38BD13B5044691E805000023EF
:104A10004B600B602060626001A801930093FFF778
:104A20006CFF204602B010BDF7B50C4602AD54F83D
:104A3000043B45F8083D06460F4601A82146FFF70E
:104A400055FF29463046FFF7DEFF01A8FFF755FF67
:104A50002046FFF752FF3846082102F036FA30466A
:104A600003B0F0BD13B50B46044603C88DE8030040
:104A700093E8030084E803009DE8030083E8030053
:104A800002B010BD38B500230446036010200D4667
:104A9000FFF703FB28B1012343608360024B0360EF
:104AA000C5602060204638BD107D0D00826810B5BD
:104AB0000AB902F026FAC368BDE81040184708B5E5
:104AC000006800F11001FFF7F1FF08BD826810B522
:104AD0000AB902F016FAC368BDE81040184708B5D5
:104AE000006800F11001FFF7F1FF08BD38B50023A1
:104AF00083608B6804460D462BB102229847EB6811
:104B0000E360AB68A360204638BD0000F0B589B013
:104B100004686846FFF73EFF00238DF808304FF029
:104B20000202D4E84F3F002B03D1C4E8412F0029F3
:104B3000F7D102D08DF8083063E014F10C0503D0F2
:104B400069462846FFF726FFBFF35F8F0123637096
:104B5000002004F10803BFF35F8F53E8006F43E8C0
:104B60000002002AF9D1BFF35F8F002E49D0FFF772
:104B7000CDFD20B129463046FFF798FF3AE0314697
:104B800002A8FFF7B3FFE068B4F9105008B102F0D3
:104B9000ABFF06901020ADF81C50FFF77EFA0546DB
:104BA000E8B1002787601820FFF777FA044688B13C
:104BB0000146876002A8FFF755FF049BA268A36027
:104BC000059B049206A9E268E36004F110000592D7
:104BD000FFF7E0FE0D4BEB600D4B2C60AB6006A8C1
:104BE000FFF7E7FE02A8FFF7CCFE0022294609489E
:104BF000FFF794FD3046FFF7C4FE1021304602F067
:104C000064F96846FFF7D5FE09B0F0BDBF4A0D0054
:104C1000354D0D0095480D002DE9F04F8BB006463F
:104C20000F46904699469DF850A0FFF793FD07ADBB
:104C3000834630BB4FF62E73059005A92846ADF884
:104C40001830FFF7A7FE1420FFF727FA044658B1E3
:104C50000223037001234370C0F804B0C0F808B009
:104C600029460C30FFF796FE3046214640F8044BAB
:104C7000FFF708FF2846FFF79CFE05A8FFF799FEFF
:104C800052E000240C2314206C60AC600793FFF703
:104C900004FA014618B1047044704460846004A8AA
:104CA0000391FFF7EFFE224B08930820FFF7F5F979
:104CB000044628B1039B40F8043B04A9FFF716FE05
:104CC00000955FFA8AF34A46414638460994FFF751
:104CD00049FD20B9039B5B7803F0FF0283B1039B7E
:104CE000059304A906A8FFF701FE05A93046FFF7C2
:104CF0008AFE06A8FFF701FE04A8FFF7FEFD13E0F9
:104D00004FF69C7305A903A80592ADF81830FFF77C
:104D1000FDFE05A8FFF74DFE05A80999FFF784FEE3
:104D200006A8FFF7EAFDDAE730460BB0BDE8F08FE2
:104D3000A54E0D00022AF8B5044606D0032A17D066
:104D4000012A22D10B6803601FE018200E68FFF7CC
:104D5000A4F9054650B13146FFF7C8FE3069B6F9EF
:104D6000147008B102F0C0FE2861AF8225600CE02B
:104D7000046854B104F11000FFF71BFE2046FFF752
:104D800000FE1821204602F0A0F80020F8BD38B53A
:104D9000002383608B6804460D462BB1022298479E
:104DA000EB68E360AB68A360204638BD022A70B5AB
:104DB000044606D0032A11D0012A18D10B680360DB
:104DC00015E014200E68FFF768F9054620B131465A
:104DD000FFF7DDFF337C2B74256008E0046834B1F5
:104DE0002046FFF7CEFD1421204602F06EF8002089
:104DF00070BD0000F0B5002387B00C46BFF35F8F95
:104E000050E8006F40E80032002AF9D1BFF35F8F0D
:104E1000002E3FD01846FFF779FC074620B1214607
:104E20003046FFF753FE2EE0314601A8FFF7AFFFF3
:104E300023788DF814301020FFF72FF90546D0B1F4
:104E400087601420FFF729F9044678B1876001468E
:104E500001A8FFF707FE039BA268A360049B0392CF
:104E6000E268E3609DF81430049223740A4BEB600F
:104E70000A4B2C60AB6001A8FFF783FD0022294696
:104E80000748FFF74BFC3046FFF77BFD102130460B
:104E900002F01BF807B0F0BDDF4A0D00AD4D0D006C
:104EA00095480D0030B585B004460D46684611465C
:104EB000FFF7BAFD7CB124B228460DB102F014FE12
:104EC000029002A96846ADF80C40FFF71FFE02A849
:104ED000FFF76FFD1DE000988DF808404FF00102CC
:104EE000D0E84F3FA34203D1C0E8412F0029F7D1BA
:104EF00002D08DF808300CE010F10C014FF00103E6
:104F000018BF0373BFF35F8F043000F8033CFFF753
:104F100071FF01A8FFF7F1FC05B030BD002211467A
:104F20004068FFF767BC002211464068FFF772BC7B
:104F300000224068FFF766BC002281F00101406852
:104F4000FFF750BC00231A4619464068FFF742BCE1
:104F500000231A4619464068FFF734BC0022114668
:104F60004068FFF727BC002211464068FFF712BCDB
:104F7000002202214068FFF715BC00231A46406852
:104F8000FFF700BC024B03225A60024A1A607047C6
:104F90009CE303202C7D0D007047F8B506461546AE
:104FA0000C468F18BC4206D0336814F8011B9B686E
:104FB00030469847F6E72846F8BD0022007CFFF708
:104FC0008DBA0021007CFFF791BA0021007CFFF729
:104FD00095BA0021007CFFF799BA0021007CFFF709
:104FE0009DBA10B51421044601F06FFF204610BD94
:104FF00010B50446002363604FF47A73A360044B3A
:105000002174084623601146FFF798FA204610BD28
:10501000607D0D000021007CFFF788BA704710B555
:105020001821044601F051FF204610BDF0B5037D64
:10503000062B8DB00E4600F104074FF0000402D09D
:1050400000F1080518E00CAD394605F8304D2F2366
:105050002A460A20FFF77AFA284602F060FD3368F4
:105060000246DB682946304698470FE024B12E21DE
:10507000304601F04DFB044415F8011D0A2230466C
:1050800001F055FBBD420444F0D120460DB0F0BD07
:1050900010B5054B0446112240F8043B002102F0F4
:1050A000C9FC204610BD00BF887D0D000346074A9D
:1050B00010B543F8042B01F1100251F8044B43F8EA
:1050C000044B9142F9D10A781A7010BD887D0D0009
:1050D00010B59DF8084044EA032343EA024242EA3D
:1050E000016104234160037510BD37B50D788B78DD
:1050F0004A78C97800912946FFF7EAFF03B030BD2E
:1051000000F11002012312F8101C0129104604D1ED
:1051100052F8041C03EB410304E0022904BF52F8D7
:10512000041C5B18013B02F11002ECD170470EB475
:105130002DE9F04187B000AF07F13404054654F87B
:10514000046B7C6023463246102107F10800FFF70C
:1051500089FB0F2816D900F1080323F00703E8465E
:10516000ADEB030D3246411C234668467C60FFF7D9
:1051700079FB021E04DD2B6869469B682846984728
:10518000C54607E030B12B6802469B6807F108016D
:10519000284698471C37BD46BDE8F04103B070472C
:1051A00013B502AB026803F8011D94681946012289
:1051B000A04702B010BD8368FBB11A78032A1AD841
:1051C000DFE802F00417021D0520704702685B68E3
:1051D0005268D05C2D2814D0A0F13003092B10D9CF
:1051E000742810D066280ED0A0F16E0358425841A2
:1051F000704706207047002070471846704704200B
:105200007047032070470220704710B50446FFF72F
:10521000D2FF02280DD016D3042814D82268A36820
:1052200050685B680A2200211844BDE8104002F073
:105230002DBD2268A36852685B68D05CA0F174033E
:105240005842584110BD002010BD10B543690446B6
:105250005BB18068E060013B1030A0602061636159
:105260002BB1FFF74DFFA06001E0184610BD0120F3
:1052700010BD10B57D210446FFF792FF0123237175
:10528000204610BD08B50379012B02D0022B02D0B5
:1052900008BD2C2100E03A21FFF782FF08BD10B5C0
:1052A0000446FFF7EFFF20467B21FFF779FF00233D
:1052B0002371204610BD000038B504460D46FFF7A7
:1052C000E1FF23680449DB6820462A46984701230A
:1052D0002371204638BD00BFFC7C0D0038B5044664
:1052E0000D46FFF7CFFF23680449DB6820462A46B6
:1052F000984701232371204638BD00BFA37D0D00D0
:10530000F8B50D461746222104462F44FFF748FF03
:105310002A462946BA4238D0164616F8015B222D95
:1053200003D05C2D01D01F2D2DD82368521A9B6805
:10533000204698475C212046FFF732FF0C2D19D0FC
:1053400007D8092D0FD00A2D12D0082D14D16221B3
:105350000AE0222D05D05C2D03D00D2D0CD1722139
:1053600002E0294600E074212046FFF719FF09E01A
:105370006E21F9E76621F7E723680A49DB682A46C8
:105380002046984731463246C4E7914204D023680C
:10539000521A9D682046A84722212046FFF700FFA9
:1053A000F8BD00BFB47D0D0070B504460D4616462D
:1053B000FFF768FF204632462946FFF7A1FF022388
:1053C0002371204670BD70B504460D461646FFF7A2
:1053D00059FF204632462946FFF792FF01232371E9
:1053E000204670BD10B5002304460360436010489A
:1053F000A060E360D1B10B78032B06D0B3B913687A
:1054000058684B68C35C6E2B08D0136858684B68AB
:105410000344A3608B6849685B1AE3601146204629
:1054200051F8043B40F8043BFFF773FA204610BDE7
:10543000907E0D00002310B5044603604360836036
:10544000C3600361436171B10B78012B0BD101F192
:1054500010038360CB684361114651F8043B40F868
:10546000043BFFF756FA204610BD002310B5044652
:1054700003604360816031B1114651F8043B40F84C
:10548000043BFFF746FA204610BD80680368DB68DE
:105490001847704719B10B6808465B681847704792
:1054A00019B10B6808465B6818477047704770472A
:1054B000704738B504460D4600682E2102F0F8FA10
:1054C0002368C31A2B6023B1037803B1013023682A
:1054D0002060184638BD10B50C21044601F0F5FCDB
:1054E000204610BD10B50421044601F0EEFC204614
:1054F00010BD10B50421044601F0E7FC204610BDA4
:1055000038B50C46054601F031FB84420DD001F060
:10551000A1FA844205D101F09DFABDE8384001F0BE
:1055200092BA21462846FFF7BBFF38BD08B502F006
:10553000C9FAB0FA80F0400908BD38B505460846FA
:105540000C4602F0ECFA214602462846BDE83840F7
:10555000FFF739BF0068FEF769BF70B5044608461B
:105560000D4602F0DCFA2368024629462046DB6835
:10557000BDE87040184713B502AB026803F8011D7F
:10558000D46819460122A04702B010BD2DE9F04FA2
:105590004568076885B09146142255430193AB10C6
:1055A000194D02925D438B463C460123002D039327
:1055B00023DD029B6E1003FB06F004EB00084A4655
:1055C000B8F804A02058D14528BF5246594602F0E9
:1055D000AEFA039B48B9D14503D1019A1370354601
:1055E000E4E78CBF0120002000E0C00F0028F6D0C7
:1055F000AE1B08F11404013EF1E7E41B0248A410BD
:10560000604305B0BDE8F08FCDCCCCCCF0B585B013
:1056100003690191067E13B309B304AF002347F871
:10562000043D00F10C041D46394601A8FFF741FF77
:105630000146A0B104AB039A03F8055D2046FFF7CD
:10564000A5FF9DF80B3053B12368142404FB0034EC
:10565000083434F9023C002BA8BFDEB2E4E7304640
:1056600005B0F0BD10B5094C2368DB070BD420460C
:10567000FEF724FD38B12046FEF725FD044A054912
:10568000054801F01DFC044810BD00BFA4E3032041
:10569000E8E20320AF540D0078E2032010B5094C76
:1056A0002368DB070BD42046FEF708FD38B12046FF
:1056B000FEF709FD044A0549054801F001FC0448CC
:1056C00010BD00BFD4E30320E8E20320AD540D0079
:1056D00074E2032038B50025044605604560856006
:1056E00005614561856140F8245FFEF78FFEFFF795
:1056F000B9FFE061FFF7D2FF25732062204638BD75
:1057000010B50A4C2368DB070ED42046FEF7D6FC02
:1057100050B10748FFF7DEFF2046FEF7D4FC054AEC
:105720000549034801F0CCFB014810BDA8E3032064
:10573000ACE30320E8E203206B5B0D000023024A88
:1057400002490348FEF7D2BF4D5A0D00DD590D0046
:1057500065590D0000231A4619461846FEF7C6BFC4
:1057600073B502AC8E6851F8043B44F8083D054619
:1057700001A8FFF7BBF8224631462846FFF75AFE3C
:1057800001A8FFF7BAF8284602B070BD73B502ACA5
:105790000E6951F8043B44F8083D054601A8FFF79F
:1057A000A5F8224631462846FFF75FFE01A8FFF71D
:1057B000A4F8284602B070BD73B502ACCE6851F8AB
:1057C000043B44F8083D054601A8FFF78FF8224640
:1057D00031462846FFF706FE01A8FFF78EF8284657
:1057E00002B070BD30B58BB00D46014604A8FFF77E
:1057F000B7FF04A8FFF729FDE8B104A96846FFF741
:10580000DBFF0F490298FFF791FE044610B12C1CF4
:1058100018BF012401A8FFF770F8002CE9D004A9F3
:105820006846FFF7B3FF6846FFF7EFFC286001A862
:10583000FFF763F8DDE705A8FFF75FF80BB030BDB1
:10584000EC7D0D0037B50C4620461349154602F095
:1058500039F940B901F08AF94FF4165101F076F99F
:1058600001F084F915E00D49204602F02BF978B9D2
:1058700002A94FF4165341F8043D2846FFF7B2FF42
:1058800001F0E8F8019901F0DBF801F0E3F800E03D
:10589000002003B030BD00BFF17D0D00F87D0D008C
:1058A00070B5046843681426054606FB0346A64205
:1058B00005D004F10800FFF7F3FF1434F7E7286878
:1058C000FEF7B8FF284670BD70B50468436805460A
:1058D00004EB0316A64204D0204600F0C0FF1034AB
:1058E000F8E72868FEF7A6FF284670BD10B5044605
:1058F0000C30FFF7D5FF2046FFF7E6FF204610BD2E
:1059000010B5044B044640F8043BFFF7EFFF204678
:1059100010BD00BFBC7C0D0010B50446FFF7F0FFC2
:105920002046242101F0D1FA204610BD10B5034BCA
:1059300003600446FFF7E4FF204610BDDC7D0D0048
:1059400010B50446FFF7F2FF2046242101F0BDFA0E
:10595000204610BD10B5036804461868FEF76EFDBA
:10596000204610BD2DE9F04F9B461B4B5B68C3F3EF
:10597000080385B082460E46904653BBFFF7C0FE33
:10598000044624300390FFF7E5FD237BF3B90123A0
:10599000237325686368F6B205EB83094D4513D080
:1059A00055F8047B4146381DFFF730FE8642F5D39B
:1059B0003B68CDF800B09B689E4638464346324669
:1059C00051467746B847E9E70023237303A8FFF75A
:1059D000C1FF05B0BDE8F08F00ED00E02DE9F74F05
:1059E0009946194B5B68C3F3080307468846164679
:1059F00033BBFFF785FE044624300190FFF7AAFD74
:105A0000237BD3B901232373256863685FFA86FB80
:105A100005EB830A55450ED055F8046B4946301DF9
:105A2000FFF7F4FD8345F5D333684246DB6839461A
:105A300030469847EEE70023237301A8FFF78AFF5B
:105A400003B0BDE8F08F00BF00ED00E02DE9F341A9
:105A5000154B5B68C3F3080304468846FBB9FFF7A0
:105A60004FFE064624300190FFF774FD96E8A00033
:105A7000462605EB8707AF4207D101A8FFF76AFF6B
:105A8000B442B4BF002001200AE055F8040B41469F
:105A90000430FFF7BBFD8642A8BF0646EBE70020B7
:105AA00002B0BDE8F08100BF00ED00E070B5036812
:105AB0004268044603EB82029A4218460ED00668FA
:105AC0000D68AE4203F10403F6D1011D521A01F034
:105AD00096FF6368013B6360012070BD002070BDCC
:105AE0001FB50446243001910390FFF733FD01A94F
:105AF0002046FFF7DBFF20B903A8FFF72BFF04B018
:105B000010BD6368002BF7D1FFF724FEF4E770B5F2
:105B1000056943691826044606FB0356AE4215D0B4
:105B200005F110012046FFF7C1FF63680BB9FFF7CD
:105B300011FEE06929690368DB689847696919B152
:105B4000206A0368DB6898471835E7E725696369C9
:105B5000182606FB0356B54204D0284600F07FFE07
:105B60001835F8E70023636170BD73B5044602ADD4
:105B7000FFF7F0FD04F1240045F8040DFFF7EAFCFF
:105B80002046FFF7C4FF2846FFF7E4FE606A08B12D
:105B9000FEF744FC25696369182606FB0356B542E7
:105BA00004D0284600F05BFE1835F8E72069FEF7C0
:105BB00041FE2068FEF73EFE204602B070BD03683D
:105BC0000A6802600B6043684A6842604B60836801
:105BD0008A6882608B60704710B5002304460360BA
:105BE00043608360FFF7EBFF204610BD8842F8B5A5
:105BF0000446164625D9904224D2551A143D2C4409
:105C0000A1F11407A2F10C050026A5F108039F429B
:105C100037D084B155F8083C236035F8043CA380A4
:105C200035F9023CE380A660E6602661294604F16E
:105C30000800FFF7C4FF2846FFF732FE143C143D6E
:105C4000E3E71ED001F108050027A5F108039E42F5
:105C500017D084B155F8083C236035F8043CA38084
:105C600035F9023CE380A760E7602761294604F12B
:105C70000800FFF7A4FF2846FFF712FE143414357E
:105C8000E3E7F8BDF8B5456883689D4204460E46D3
:105C900017460EDB0135002D05DDA9000068FEF773
:105CA000D1FD20B9F8BD0068FEF7C4FD00202060DA
:105CB000A5602568626805EB860105EB8202521A31
:105CC000081D01F09CFE45F826706368013363608F
:105CD0000120F8BD37B5044624300D460190FFF78A
:105CE00039FC2368616803EB810083421A4609D0BE
:105CF0001268AA4203F10403F7D101A8FFF72AFEB4
:105D000000250EE02A462046FFF7BCFF0546002886
:105D1000F3D06368012B01D1FFF710FD01A8FFF755
:105D200019FE284603B030BD8842F8B506460C4639
:105D3000154614D9904213D2A2F110056C1AA1F1A4
:105D400010070444AF4218D01CB12946204600F089
:105D500076FD284600F083FD103D103CF2E70CD0A4
:105D6000AC420AD01EB12146304600F068FD204604
:105D700000F075FD10341036F2E7F8BD70B50E1E58
:105D800005460BDD3001FEF74DFD044670B195E888
:105D9000060001EB0212FFF7C7FF00E000242868AD
:105DA000FEF748FD2C60AE60012070BD70BD2DE98E
:105DB000F04F002395B09246462203604360836013
:105DC000C3600361436102760291DAF8041008931C
:105DD0009942054609930A9340F39D8008A8FFF76E
:105DE000CDFF002840F097808EE021460BA800F000
:105DF00026FD0BA90FA8099E00F021FD09990A9B19
:105E00009942C0F2CE80013108A8FFF7B7FF002801
:105E100040F0C7800FA800F022FD0BA800F01FFD86
:105E20001434A742E1D100260B960C960D96B1468C
:105E3000099B9E4280F2A8803301089AD3580693AA
:105E4000002B00F09F8014237343CDF81C90019326
:105E50000BAC07A906A8FFF72CFB0746002800F0AB
:105E6000918014AB014603F8399D079A2046FFF74D
:105E70008DFB9DF817800090B8F1000F53D1BDF84D
:105E80001C30ADF840304FF6FF730F97ADF842303D
:105E9000CDF84480CDF84880CDF84C806768A36881
:105EA0009F424FDA009BD4F800B06168142253433C
:105EB0000BEB030702FB01B207F114003946039311
:105EC000FFF794FEA7B1039B0F9A4BF80320BDF890
:105ED0004030BB80BDF94230FB80C7F80890C7F85E
:105EE0000C90C7F8109011A907F10800FFF767FEA2
:105EF00063680133636011A8FFF7D2FCB8F1000FAB
:105F000011D00BA8FFF7CCFC08A8FFF7DDFC284652
:105F100015B0BDE8F08FDAF80040DAF80430142745
:105F200007FB03477DE72368009A142404FB02342F
:105F3000069B1B7823BBDAF80030019A13441B7CC4
:105F4000E3801DE00137002F0FDD142303FB07F072
:105F50000393FEF767FC834678B194E80600039B41
:105F600003FB0212FFF742FE00E0C3462068FEF783
:105F700061FCC4F800B0A76094E74FF00108BAE7ED
:105F8000083466E7013653E708A92846FFF717FEED
:105F90000BA905F10C00FFF712FE9DF808302B76D7
:105FA000AFE7089B099A03EB061603EB0212314692
:105FB00006F11000FFF7B8FE1EB10FA9304600F041
:105FC0003EFC099B0133099324E700007FB504469A
:105FD000094B44F8043B05460E4601A81146FEF75E
:105FE00074F901AA31462046FFF7E1FE01A8FEF749
:105FF0002BF9284604B070BDBC7C0D00F0B50F46EF
:106000008BB02B49109C384616461D4601F05AFDB0
:1060100028BB002C49D0294601A8FFF7DDFD254902
:10602000242000F05DFF0546B8B101A904A8FFF7E0
:10603000D3FD04A907A8FEF748F907AA3146284668
:10604000FFF7C4FF07A8FEF7FFF81B4B2B602C627D
:1060500004A8FEF7F9F8194B2B6001A81FE01849B6
:10606000384601F02FFDF0B9FCB1294604A8FFF72E
:10607000B3FD1049242000F033FF054670B104A998
:1060800007A8FEF722F907AA31462846FFF79EFF28
:1060900007A8FEF7D9F8084B2B602C6204A8FEF77E
:1060A000D3F8284602E0002000E020460BB0F0BD07
:1060B0004A7E0D0048800D00D07E0D00DC7D0D0075
:1060C0004E7E0D00014B024A1A607047D8E3032050
:1060D0005F7E0D002DE9F047089DD0F82090044622
:1060E0000E461746984600F041FD814505D15A48B5
:1060F00000F073FA002840F0AC802B791B0705D51F
:106100006B69564A206A002100F031FBB8F1000F9C
:106110000DD05B212046FFF72EFA41462046FFF7BF
:106120001CFA23684E49DB680222204698472B79E7
:10613000D90725D5D5F808802F21404601F00CFD60
:1061400008B100F1010841462046FFF706FA2B7915
:106150009A0709D53A212046FFF70DFAEB68414A24
:10616000206A002100F003FB2B7913F0040F236851
:1061700018BF3D49DB6808BF3C49022220469847CA
:106180002B795B0718D529690A46134613F8010BCA
:1061900038B1202801D1194601E0282801D01A463B
:1061A000F3E72368521ADB68204698472368304992
:1061B000DB6804222046984700213846FEF78EFA15
:1061C00001462046FFF7C9F923682849DB68022207
:1061D000204698471EB131462046FFF7BEF92B797D
:1061E00013F0300F2DD023682249DB6820460222AD
:1061F00098472B79D8060BD523681F49DB680722FF
:1062000020469847AB691D4A206A002100F0AFFA8A
:106210002B79990611D5DA0605D523681249DB6872
:1062200002222046984723681549DB6820460A2247
:106230009847E9692046FFF790F95D212046FFF76E
:106240009AF923680F49DB6820460222BDE8F0472F
:106250001847BDE8F08700BFB0E50320637E0D005E
:106260006A7E0D00FC7C0D006D7E0D00727E0D00BF
:10627000707E0D00757E0D00787E0D00807E0D0015
:10628000837E0D008E7E0D002DE9F04385B0D0F8A1
:1062900020800C9C06460F4691461D4600F066FC89
:1062A000804505D14A4800F098F9002840F08C80DC
:1062B000336A484A01924FF0000801A803938DF811
:1062C0000880FEF7ECFF41464846FEF707FA4249D0
:1062D0008046012201A8FFF767F84146FFF72DF934
:1062E0003FB13E49012201A8FFF75EF83946FFF7AA
:1062F00024F93DB13A49012201A8FFF755F8294692
:10630000FFF71BF92379DF070ED5A5682F21284653
:1063100001F022FC00B1451C3249012201A8FFF71F
:1063200043F82946FFF709F923799D0707D52E4938
:10633000022201A8FFF738F8E168FEF7BDFF2379D4
:10634000580716D525692F463B4613F8012B3AB15D
:10635000202A01D11D4601E0282A01D01F46F3E77B
:106360000222224901A8FFF71FF87A1B2946FFF7EE
:106370002AF82379190707D51D49012201A8FFF73B
:1063800013F86169FEF7AAFF2379DA0608D504221B
:1063900018490DEB0200FFF707F8A169FEF78CFF23
:1063A00023799B0607D51449062201A8FEF7FCFFB6
:1063B000E169FFF7C2F801A8FEF75BFF306A0F49F9
:1063C00003680222DB68984705B0BDE8F08300BF90
:1063D000B0E50320C47D0D00F67D0D00097E0D00A3
:1063E000C27E0D00AA7D0D00917E0D00947E0D00F1
:1063F0001E7E0D00977E0D009C7E0D008E7E0D0092
:10640000002211464068FEF7F5B9002211464068A7
:10641000FEF700BA00224068FEF7F4B9002281F0CE
:1064200001014068FEF7DEB900231A4601214068E9
:10643000FEF7D0B900231A4619464068FEF7C2B9E4
:10644000002211464068FEF7B5B9002211464068A7
:10645000FEF7A0B9002202214068FEF7A3B900238D
:106460001A464068FEF78EB938B5054688B104680B
:106470004CB1A3681BB10322214620469847102146
:10648000204600F022FD28461421BDE8384000F0E7
:106490001CBD38BD10B103685B681847704710B564
:1064A00003680446BBB15868FDF798FF78B92368C4
:1064B0005A7C12B95868FDF799FF23685868FDF7B0
:1064C0009DFF20680023236028B1FFF7CDFF2068DF
:1064D00008B1FFF7C9FF204610BD38B50446D0F813
:1064E000C40108B1FDF7DDFDD4F8C00108B1FDF726
:1064F00095FFD4F8BC5135B12846FFF7D0FF0421F1
:10650000284600F0E2FC206808B1FFF7C3FF2046F0
:1065100038BD000010B5044B044640F8083BFFF7B7
:10652000DCFF204610BD00BF187F0D0038B50E4CB3
:106530000E4B23600025022304F5E4706360A56020
:10654000C4F8C451C4F8C851FDF760FF084BC4F843
:10655000CC5184F8D05123602046064A0649BDE854
:10656000384000F0ADBC00BFDCE303204C7F0D00E1
:10657000187F0D00E8E2032015650D0000231A4680
:106580004068FEF7FFB8002202214068FEF70AB912
:10659000002211464068FEF7FDB80022114640680F
:1065A000FEF708B900231A4619464068FEF70AB9F3
:1065B00000231A4619464068FEF70CB9002281F004
:1065C00001014068FEF70EB900224068FEF71AB9D3
:1065D000002211464068FEF71DB9002211464068AE
:1065E000FEF708B92DE9F043002495B016460D4694
:1065F0000746FEF74DFD214620220CA8009401F02D
:1066000019FA40230C9321466B460CAA3046FDF73D
:10661000ADFF0446002844D1024601216868FEF718
:10662000C9F80221804622466868FEF7C3F8009E3A
:1066300081462146002E34D0002932D17368022BC6
:1066400002D00A2B09D02AE0B8F1000F27D07169D7
:1066500038460431FEF749FD20E0B9F1000F1ED0A5
:106660007469112201A801F0E5F906238DF81430B0
:1066700001AD04F108031834186859682A4603C2AA
:106680000833A3421546F7D101A906A807ADFEF7C6
:106690000DFD0FCD3C1D0FC42B6823700121F66941
:1066A000C8E70098FDF75AFF384615B0BDE8F083FB
:1066B000024B034A1A6000225A607047B0E503207B
:1066C0004C7F0D00F8B506460D468F180024BD42DC
:1066D0000CD0336815F8011B9B683046984700289A
:1066E00001DB0444F3E7002C08BF04462046F8BD54
:1066F00070B505460C46084649B101F010FA2B6802
:10670000024621462846DB68BDE87040184770BD48
:1067100003689B68184738B50D210546FFF7F8FF59
:106720000A2104462846FFF7F3FF204438BD30B560
:106730008BB00B4600218DF82410012A98BF0A2245
:106740000DF12304B3FBF2F505FB123303F0FF0355
:10675000092B94BF30333733DBB2214604F80139BB
:106760002B46002DEED1FFF7C3FF0BB030BD0CB4AC
:106770002DE9F04387B000AF07F13804054654F81F
:10678000049B3C600E4623464A461421381DFEF702
:1067900069F8132805D8391D2846FFF7A9FF0446D4
:1067A00013E000F1080323F00703E846ADEB030D07
:1067B000411C23464A4668463C60FEF753F869464A
:1067C0002846FFF795FF0446C5461EB12846FFF749
:1067D000A2FF044420461C37BD46BDE8F04302B08A
:1067E000704710B50446FEF7CCF8204610BD0000F7
:1067F0000348044A04490023836000F061BB00BFE2
:10680000B8E50320E8E20320E3670D00704710B508
:106810000C21044600F059FB204610BD10B5054B75
:106820000360044601710846FDF7A8FE0023A3603B
:10683000204610BD807F0D000079FDF7A7BE002324
:10684000036043608360037310B50C6804604C6898
:1068500044608C6884600B604B608B6010BD10B529
:1068600004460068FDF7E6FF204610BD10B504465B
:10687000006808B1FDF7DEFF00232360A3606360BA
:1068800010BD38B504460D4600680131FDF7DAFF4A
:1068900010B184E82100012038BD10B5036804461A
:1068A00013B143688B4207D22046FFF7EAFF20B1BD
:1068B000A3680BB922681370012010BD70B50E4695
:1068C000114604461546FFF7E8FF18B92046FFF7C2
:1068D000CDFF09E02A463146A560206801F084F822
:1068E0002268A3680021D154204670BD884210B5AB
:1068F0000B46044607D0096819B19A68FFF7DEFF16
:1069000001E0FFF7B3FF204610BD10B50023044699
:106910000360436083600373FFF7E8FF204610BD08
:1069200010B50446006818B1FDF784FF002323600A
:1069300010BD10B50446FFF7F3FF204610BD000060
:1069400010B5094C00204FF6FF732060A080A071A5
:1069500020816381FDF7D2FE2046044A0449BDE848
:10696000104000F0ADBA00BFC8E50320E8E2032004
:1069700033690D00024B1A68024B1A60704700BF62
:106980007CE20320D4E5032070474174704708B5CA
:10699000007CFDF743FE20EAE07008BD08B5007CEE
:1069A000FDF714FE20EAE07008BD08B5007CFDF795
:1069B0001DFE30EA200028BF4FF0FF3008BD08B5AB
:1069C000007CFDF70BFE30EA200028BF4FF0FF30BF
:1069D00008BD007CFDF712BE10B51421044600F07E
:1069E00074FA204610BD70B5457C04460E4625B9A4
:1069F000007CFDF713FE002805DD3146207CBDE854
:106A00007040FDF7DBBD284670BD000010B50446A0
:106A100008461146002262604FF47A72A260054A6D
:106A200022600122207462741A46FDF7B7FD2046E9
:106A300010BD00BFBC7F0D000023007CFDF7F6BD3C
:106A40000022FFF7F9BF007CFDF7B0BD007CFDF729
:106A5000DDBD000038B50C4D296811F0010411D1DD
:106A60002846FDF72BFB68B1084A094B0948214627
:106A7000FFF7CCFF2846FDF726FB074A07490548E4
:106A800000F01EFA034838BD70E6032074E60320C8
:106A9000ECE50320D8E50320E8E2032089690D0036
:106AA00041747047704708B50021007CFDF7EEFD8A
:106AB00030EA200028BF4FF0FF3008BD08B50121A3
:106AC000007CFDF7E3FD30EA200028BF4FF0FF30E7
:106AD00008BD08B5007CFDF7D1FD20EAE07008BDD7
:106AE00008B5007CFDF7C2FD20EAE07008BD007C1F
:106AF000FDF7DCBD10B51421044600F0E6F9204690
:106B000010BD38B50446007C0D46FDF7B7FD0028E2
:106B100001DC607C28B12946207CFDF7BFFD20EA1E
:106B2000E07038BD10B50446002363604FF47A73FB
:106B3000A360054B2360012308462174637411464A
:106B4000FDF77CFD204610BDEC7F0D000022007C8F
:106B5000FDF77CBD007CFDF781BD10B51422044615
:106B6000002100F067FF204610BD000030B50E4D3B
:106B700087B001A8FFF7F1FF296811F0010410D1D7
:106B80002846FDF79BFA60B101AA21460748FFF7A6
:106B9000C9FF2846FDF797FA054A0649034800F061
:106BA0008FF9024807B030BDF8E60320FCE6032069
:106BB000E8E20320A56A0D00002211464068FDF7B7
:106BC000F9BD002211464068FDF714BE00221146AF
:106BD0004068FDF71FBE00224068FDF713BE00228B
:106BE00081F001014068FDF7FDBD00231A461946FA
:106BF0004068FDF7EFBD00231A4619464068FDF7CF
:106C0000E1BD002211464068FDF7C4BD002202210B
:106C10004068FDF7C7BD00231A464068FDF7B2BDC6
:106C2000024B04225A60024A1A60704710E70320A0
:106C30001C800D0008B50C4B33B1FFF797FF0368BC
:106C40001B699847002809DC084B63B1FFF702FF76
:106C500003681B699847002803DC08BDAFF3008078
:106C6000F2E7AFF3008008BD000000000000000064
:106C700008B5FFF7DFFFFDF7F9FB014B186008BD12
:106C800020E703200248034A0349121A00F0ACBE71
:106C900000F4032004F40320F0810D0007B5002365
:106CA00000931A466FF07701FDF74AFD03B05DF8D7
:106CB00004FB000007B543880A2B08D0502B09D1EC
:106CC000094B1B683BB103B05DF804EB1847FFF7B5
:106CD000E5FF06E0002300931A466FF07701FDF709
:106CE0002FFD03B05DF804FB18E7032038B5104C06
:106CF000104D2368AB42104B0CBF012200221A70CA
:106D000002D0FFF7BFFF2560FDF7A0FB044600F0AF
:106D100099FE0A4B13B12046AFF3008000210748CB
:106D2000FDF728FD00210648BDE83840FDF7FEBC10
:106D300000F403201E1C279A1CE70320000000001B
:106D4000B56C0D0010B5044600F09AF8FFF774FD1D
:106D500028B1A4F10B03022B01D8002010BD00F0D4
:106D600069F8FEF757F908B1012CF6D9FFF772FE62
:106D7000FFF76CFE18B1A4F10903012BEDD9232C08
:106D80008CBF0020012010BD232838B504460D46D5
:106D90000AD8FF2908D0FFF7D5FF28B12946204699
:106DA000BDE83840FDF77ABB38BD10B50446FDF7A5
:106DB0007DFB0438C0B2012808D92046FFF7C2FF86
:106DC00020B12046BDE81040FDF778BB002010BD83
:106DD0000D2810B504469CBF0E34A4B22046FFF720
:106DE000B1FF50B103212046FDF750FB032804D129
:106DF0002046BDE81040FDF769BB002010BD000033
:106E000070B5044614252A46094E002100F012FEF2
:106E1000258020253146A5602561284600F06FF8C1
:106E200031466060284600F06AF8E060204670BD98
:106E300048800D0030B50E4D296811F0010487B06F
:106E400013D12846FDF73AF978B101A8FFF7D8FF2A
:106E500001AA21460748FEF7CBF82846FDF733F98B
:106E6000054A0649034800F02BF8024807B030BD38
:106E700024E7032028E70320E8E20320994F0D00D0
:106E800038B50B4D296811F001040FD12846FDF7E4
:106E900015F958B121460748FFF7C0FC2846FDF711
:106EA00012F9054A0549034800F00AF8014838BDBF
:106EB00048E703203CE70320E8E203200D680D00CB
:106EC0000B460146184600F081BDFDF7E8B800000A
:106ED000024B1868BFF35F8F704700BF4CE7032079
:106EE00010B5002814BF044601242046FDF79AFC83
:106EF00020B9FFF7EDFF08B18047F6E710BDFFF7B7
:106F0000EFBF08B5FDF7B6FC244B1A68D0075CBF8D
:106F100001221A60224B1A68D1075CBF01221A6055
:106F2000204B1A68D2075CBF01221A601E4B1A68F8
:106F3000D0075CBF01221A601C4B1A68D1075CBFE6
:106F400001221A601A4B1A68D2075CBF01221A602C
:106F5000184B1A68D0075CBF01221A60164B1A68DA
:106F6000D1075CBF01221A60144B1A68D2075CBFBC
:106F700001221A60124B1A68D0075CBF01221A6006
:106F8000104B1A68D1075CBF01221A600E4B1A68B9
:106F9000D2075CBF01221A60704700BF7CE7032064
:106FA00078E7032074E7032070E703206CE70320F1
:106FB00068E7032064E7032060E703205CE7032021
:106FC00058E7032054E7032050E70320184B1A68C2
:106FD000D1075CBF01221A60164B1A68D2075CBF4A
:106FE00001221A60144B1A68D0075CBF01221A6094
:106FF000124B1A68D1075CBF01221A60104B1A6845
:10700000D2075CBF01221A600E4B1A68D0075CBF22
:1070100001221A600C4B1A68D1075CBF01221A606A
:107020000A4B1A68D2075CBF01221A60704700BF82
:107030009CE7032098E7032094E7032090E70320D0
:107040008CE7032088E7032084E7032080E7032000
:10705000184B1A68D1075CBF01221A60164B1A68D8
:10706000D2075CBF01221A60144B1A68D0075CBFBC
:1070700001221A60124B1A68D1075CBF01221A6004
:10708000104B1A68D2075CBF01221A600E4B1A68B7
:10709000D0075CBF01221A600C4B1A68D1075CBF95
:1070A00001221A600A4B1A68D2075CBF01221A60DB
:1070B000704700BFBCE70320B8E70320B4E7032014
:1070C000B0E70320ACE70320A8E70320A4E70320F0
:1070D000A0E70320244B1A68D0075CBF01221A6086
:1070E000224B1A68D1075CBF01221A60204B1A6834
:1070F000D2075CBF01221A601E4B1A68D0075CBF22
:1071000001221A601C4B1A68D1075CBF01221A6069
:107110001A4B1A68D2075CBF01221A60184B1A6812
:10712000D0075CBF01221A60164B1A68D1075CBFFA
:1071300001221A60144B1A68D2075CBF01221A6040
:10714000124B1A68D0075CBF01221A60104B1A68F4
:10715000D1075CBF01221A600E4B1A68D2075CBFD0
:1071600001221A60704700BFECE70320E8E7032024
:10717000E4E70320E0E70320DCE70320D8E703206F
:10718000D4E70320D0E70320CCE70320C8E703209F
:10719000C4E70320C0E7032081F0004102E000BF04
:1071A00083F0004330B54FEA41044FEA430594EAC7
:1071B000050F08BF90EA020F1FBF54EA000C55EA02
:1071C000020C7FEA645C7FEA655C00F0E2804FEAD3
:1071D0005454D4EB5555B8BF6D420CDD2C4480EAB5
:1071E000020281EA030382EA000083EA010180EAE5
:1071F000020281EA0303362D88BF30BD11F0004F33
:107200004FEA01314FF4801C4CEA113102D0404268
:1072100061EB410113F0004F4FEA03334CEA1333A3
:1072200002D0524263EB430394EA050F00F0A780BB
:10723000A4F10104D5F1200E0DDB02FA0EFC22FAB6
:1072400005F2801841F1000103FA0EF2801843FAAA
:1072500005F359410EE0A5F120050EF1200E012A9B
:1072600003FA0EFC28BF4CF0020C43FA05F3C018D9
:1072700051EBE37101F0004507D54FF0000EDCF152
:10728000000C7EEB00006EEB0101B1F5801F1BD3FB
:10729000B1F5001F0CD349085FEA30004FEA3C0CFF
:1072A00004F101044FEA445212F5800F80F09A80F5
:1072B000BCF1004F08BF5FEA500C50F1000041EBF9
:1072C000045141EA050130BD5FEA4C0C404141EBFD
:1072D000010111F4801FA4F10104E9D191F0000F24
:1072E00004BF01460020B1FA81F308BF2033A3F1A7
:1072F0000B03B3F120020CDA0C3208DD02F1140C9E
:10730000C2F10C0201FA0CF021FA02F10CE002F1D8
:107310001402D8BFC2F1200C01FA02F120FA0CFCD1
:10732000DCBF41EA0C019040E41AA2BF01EB04511A
:10733000294330BD6FEA04041F3C1CDA0C340EDC18
:1073400004F11404C4F1200220FA04F001FA02F35B
:1073500040EA030021FA04F345EA030130BDC4F119
:107360000C04C4F1200220FA02F001FA04F340EA0E
:107370000300294630BD21FA04F0294630BD94F0BF
:10738000000F83F4801306BF81F480110134013DA6
:107390004EE77FEA645C18BF7FEA655C29D094EA17
:1073A000050F08BF90EA020F05D054EA000C04BF95
:1073B0001946104630BD91EA030F1EBF0021002080
:1073C00030BD5FEA545C05D14000494128BF41F01F
:1073D000004130BD14F580043CBF01F5801130BD83
:1073E00001F0004545F0FE4141F470014FF000000E
:1073F00030BD7FEA645C1ABF194610467FEA655CBF
:107400001CBF0B46024650EA013406BF52EA033560
:1074100091EA030F41F4002130BD00BF90F0000F4E
:1074200004BF0021704730B54FF4806404F132048A
:107430004FF000054FF0000150E700BF90F0000F43
:1074400004BF0021704730B54FF4806404F132046A
:1074500010F0004548BF40424FF000013EE700BF3A
:1074600042004FEAE2014FEA31014FEA02701FBFCA
:1074700012F07F4393F07F4F81F06051704792F09C
:10748000000F14BF93F07F4F704730B54FF4607416
:1074900001F0004521F0004120E700BF50EA010261
:1074A00008BF704730B54FF000050AE050EA01020E
:1074B00008BF704730B511F0004502D5404261EB7E
:1074C00041014FF4806404F132045FEA915C3FF4BF
:1074D000DCAE4FF003025FEADC0C18BF03325FEA58
:1074E000DC0C18BF033202EBDC02C2F1200300FA0D
:1074F00003FC20FA02F001FA03FE40EA0E0021FA32
:1075000002F11444C1E600BF70B54FF0FF0C4CF41B
:10751000E06C1CEA11541DBF1CEA135594EA0C0FD1
:1075200095EA0C0F00F0DEF82C4481EA030621EA0C
:107530004C5123EA4C5350EA013518BF52EA033547
:1075400041F4801143F4801338D0A0FB02CE4FF0F9
:107550000005E1FB02E506F00042E0FB03E54FF029
:107560000006E1FB03569CF0000F18BF4EF0010E21
:10757000A4F1FF04B6F5007F64F5407404D25FEA1D
:107580004E0E6D4146EB060642EAC62141EA5551D0
:107590004FEAC52040EA5E504FEACE2EB4F1FD0C12
:1075A00088BFBCF5E06F1ED8BEF1004F08BF5FEA90
:1075B000500E50F1000041EB045170BD06F0004642
:1075C00046EA010140EA020081EA0301B4EB5C04EF
:1075D000C2BFD4EB0C0541EA045170BD41F48011E7
:1075E0004FF0000E013C00F3AB8014F1360FDEBF0C
:1075F000002001F0004170BDC4F10004203C35DAE8
:107600000C341BDC04F11404C4F1200500FA05F36A
:1076100020FA04F001FA05F240EA020001F000420B
:1076200021F0004110EBD37021FA04F642EB060181
:107630005EEA430E08BF20EAD37070BDC4F10C04AB
:10764000C4F1200500FA04F320FA05F001FA04F26F
:1076500040EA020001F0004110EBD37041F100015B
:107660005EEA430E08BF20EAD37070BDC4F1200566
:1076700000FA05F24EEA020E20FA04F301FA05F2CE
:1076800043EA020321FA04F001F0004121FA04F276
:1076900020EA020000EBD3705EEA430E08BF20EA46
:1076A000D37070BD94F0000F0FD101F00046400080
:1076B00041EB010111F4801F08BF013CF7D041EA02
:1076C000060195F0000F18BF704703F00046520006
:1076D00043EB030313F4801F08BF013DF7D043EAD7
:1076E0000603704794EA0C0F0CEA135518BF95EA8D
:1076F0000C0F0CD050EA410618BF52EA4306D1D114
:1077000081EA030101F000414FF0000070BD50EA32
:10771000410606BF1046194652EA430619D094EABC
:107720000C0F02D150EA013613D195EA0C0F05D1A6
:1077300052EA03361CBF104619460AD181EA0301FA
:1077400001F0004141F0FE4141F470014FF00000B2
:1077500070BD41F0FE4141F4780170BD70B54FF04D
:10776000FF0C4CF4E06C1CEA11541DBF1CEA1355CD
:1077700094EA0C0F95EA0C0F00F0A7F8A4EB0504AF
:1077800081EA030E52EA03354FEA013100F08880A6
:107790004FEA03334FF0805545EA131343EA12636F
:1077A0004FEA022245EA111545EA10654FEA002624
:1077B0000EF000419D4208BF964244F1FD0404F5DD
:1077C000407402D25B084FEA3202B61A65EB030539
:1077D0005B084FEA32024FF480104FF4002CB6EBF6
:1077E000020E75EB030E22BFB61A754640EA0C0076
:1077F0005B084FEA3202B6EB020E75EB030E22BFB6
:10780000B61A754640EA5C005B084FEA3202B6EBF6
:10781000020E75EB030E22BFB61A754640EA9C00B5
:107820005B084FEA3202B6EB020E75EB030E22BF85
:10783000B61A754640EADC0055EA060E18D04FEA43
:10784000051545EA16754FEA06164FEAC30343EAE3
:1078500052734FEAC2025FEA1C1CC0D111F4801FB0
:107860000BD141EA00014FF000004FF0004CB6E7A9
:1078700011F4801F04BF01430020B4F1FD0C88BF48
:10788000BCF5E06F3FF6AFAEB5EB030C04BFB6EB53
:10789000020C5FEA500C50F1000041EB045170BD46
:1078A0000EF0004E4EEA113114EB5C04C2BFD4EB73
:1078B0000C0541EA045170BD41F480114FF0000EF7
:1078C000013C90E645EA060E8DE60CEA135594EA73
:1078D0000C0F08BF95EA0C0F3FF43BAF94EA0C0F76
:1078E0000AD150EA01347FF434AF95EA0C0F7FF4EB
:1078F00025AF104619462CE795EA0C0F06D152EA3F
:1079000003353FF4FDAE1046194622E750EA410622
:1079100018BF52EA43067FF4C5AE50EA41047FF433
:107920000DAF52EA43057FF4EBAE12E74FEA410296
:10793000B2F1E04324BFB3F5001CDCF1FE5C0DD9CD
:1079400001F0004C4FEAC0024CEA5070B2F1004F17
:1079500040EB830008BF20F00100704711F0804F1A
:1079600021D113F13872BCBF01F00040704741F4DF
:1079700080114FEA5252C2F11802C2F1200C10FAE3
:107980000CF320FA02F018BF40F001004FEAC123C7
:107990004FEAD32303FA0CFC40EA0C0023FA02F36B
:1079A0004FEA4303CCE77FEA625307D150EA013341
:1079B0001EBF4FF0FE4040F44000704701F0004011
:1079C00040F0FE4040F40000704700BF10B5054C89
:1079D00013462CB10A4601460220AFF3008010BDC9
:1079E000204610BD0000000010B5431E0A4491421D
:1079F00004D011F8014B03F8014FF8E710BD88429D
:107A000010B501EB020301D8421E0BE09842FBD2F5
:107A10008118D21AD34204D013F8014D01F8014D58
:107A2000F8E710BD994204D011F8014B02F8014F5C
:107A3000F8E710BD02440346934202D003F8011B4D
:107A4000FAE7704738B5124B1C68A36B0546D3B9EB
:107A50001820FCF7E7FE43F20E33A06303804AF6DA
:107A6000CD33438041F2342383804EF26D63C38073
:107A70004DF6EC630381052343810B2383810122AF
:107A80000023C0E90423A36B00221D615A6138BDA5
:107A9000E4E20320C9B2034610F8012B1AB1914267
:107AA000F9D11846704700290CBF184600207047CE
:107AB00010B50446FFF7EEFF18B9204600F02FF886
:107AC000204410BD10F8012B11F8013B012A28BFFA
:107AD0009A42F7D0D01A7047034611F8012B03F8E9
:107AE000012B002AF9D17047024B0146186800F0BB
:107AF00003B800BFE4E2032070B5064608460C4612
:107B000000F00DF8451C29463046FCF7BBFE064642
:107B100018B12A462146FFF767FF304670BD03467D
:107B200013F8012B002AFBD1181A0138704730B521
:107B300082B1451E013915F8013F11F8014FA342EA
:107B400006D1EC431444E04201D0002BF3D11C4693
:107B5000181B30BD104630BD38B503460D4641B147
:107B6000002429461846FFF795FF30B1431C044610
:107B7000F7E7BDE83840FFF78DBF204638BD00006D
:107B80002DE9F04780464048D0F800900F463D462A
:107B900015F8014B09EB0400407800F0080000F0F4
:107BA000FF0608B12F46F2E72D2C03D1BD1C7C78CF
:107BB000012603E02B2C04BF7C78BD1C13B1102BD5
:107BC0000AD15BE0302C57D1287800F0DF0058282C
:107BD0004DD16C7810230235002E14BF4FF0004CAD
:107BE0006FF0004C0027BCFBF3FA384603FB1ACCBD
:107BF00009EB040E9EF801E01EF0040F01D0303CAA
:107C00000BE01EF0030E1BD0BEF1010F0CBF4FF0B6
:107C1000370E4FF0570ECEEB0404A34210DDB7F140
:107C2000FF3F0AD0504506D801D1644503DC03FB71
:107C30000040012701E04FF0FF3715F8014BD7E76F
:107C40007B1C0CD1002E4FF0220314BF4FF00040DC
:107C50006FF00040C8F800302AB9BDE8F08706B1DF
:107C6000404272B107B1691E1160BDE8F08730244F
:107C7000002BB1D10823AFE70A23ADE7302CA3D006
:107C8000AAE7BDE8F08700BF80E2032013460A465A
:107C9000014602480068FFF773BF00BFE4E203201B
:107CA00021400D005D400D0089400D008D400D000C
:107CB00000000000000000000000000000000000C4
:107CC00000000000A9400D00CD400D0000000000A4
:107CD00000000000D9400D000D410D00D5600D00E1
:107CE000CF400D00766F6C746167653D252E31665F
:107CF000205057523D2564204348473D256400628B
:107D000061747465727900000000000000000000DA
:107D100065490D006B490D00C1490D0079490D0001
:107D200067490D0000000000000000007B4F0D00BF
:107D3000714F0D00674F0D005D4F0D00514F0D004D
:107D4000454F0D00394F0D00314F0D00274F0D00ED
:107D50001D4F0D00E5650D00000000000000000053
:107D6000994F0D00E34F0D00BB4F0D009B4F0D00D1
:107D7000C34F0D00CB4F0D00D34F0D00DB4F0D0057
:107D800000000000000000002D500D001D500D00EF
:107D90001F500D00302E300066616C7365007472E8
:107DA000756500257500252E2A6C66002567006E16
:107DB000756C6C0075253034780000000000000000
:107DC00000000000B1540D00D7540D008B540D007D
:107DD0002F510D0000000000000000002D590D0083
:107DE00041590D0089620D0093540D006261756464
:107DF0000053657269616C0053657269616C310092
:107E00007479706500706172616D00636D64006902
:107E10006400686E64007374726D0066696C74004F
:107E20006C766C0061646448616E646C65720072AB
:107E3000656D6F766548616E646C657200656E7520
:107E40006D48616E646C657273004A534F4E537493
:107E50007265616D4C6F6748616E646C657200613C
:107E6000707000253031307520005D20002C20001E
:107E700028293A2000205B00636F6465203D2000C4
:107E800025690064657461696C73203D20000D0AEA
:107E9000006C6E00666E00636F64650064657461FB
:107EA000696C006E6F6E6500747261636500696E67
:107EB000666F007761726E006572726F720070613A
:107EC0006E696300616C6C0000000000000000003F
:107ED00001590D0019590D00D5600D00CF400D005E
:107EE0000000000000000000AF540D00E5540D003C
:107EF000FD5F0D0095540D00000000000000000023
:107F0000AD540D00F3540D0045580D0001550D0002
:107F100000000000000000005F640D0055640D00CB
:107F20004B640D0041640D0035640D0029640D00A3
:107F30001D640D0015640D000B640D0001640D003F
:107F4000E5650D0000000000000000007D650D00EB
:107F500087650D0091650D009B650D00A5650D0001
:107F6000B1650D00BD650D00C9650D00D1650D0041
:107F7000DB650D00E5650D0000000000000000005D
:107F80000D680D000F680D005A00252B3033643A40
:107F9000253032750025592D256D2D256454254831
:107FA0003A254D3A2553257A0061736374696D65EE
:107FB00000000000000000000000000089690D00C2
:107FC000D9690D00E7690D00C5660D009D690D00BA
:107FD000BF690D00AB690D00D3690D008B690D0001
:107FE0008F690D000000000000000000A56A0D0070
:107FF000F56A0D00036B0D00C5660D00E16A0D000A
:10800000A76A0D00BD6A0D00EF6A0D00D36A0D006E
:10801000A16A0D000000000000000000176C0D00B8
:108020000D6C0D00036C0D00B96B0D00F76B0D00AE
:10803000EB6B0D00DF6B0D00D76B0D00CD6B0D00F2
:10804000C36B0D00E5650D000000202020202020DE
:1080500020202028282828282020202020202020F8
:1080600020202020202020202020881010101010F8
:108070001010101010101010101004040404040448
:10808000040404041010101010101041414141412B
:108090004101010101010101010101010101010190
:1080A0000101010101101010101010424242424221
:1080B0004202020202020202020202020202020260
:1080C0000202020202101010102000000000000046
:1080D00000000000000000000000000000000000A0
:1080E0000000000000000000000000000000000090
:1080F0000000000000000000000000000000000080
:10810000000000000000000000000000000000006F
:10811000000000000000000000000000000000005F
:10812000000000000000000000000000000000004F
:10813000000000000000000000000000000000003F
:10814000000000000000000000000000000000002F
:10815000000000000000000000000000000000001F
:10816000000000000000000000000000000000000F
:1081700000000000000000000000000000000000FF
:1081800000000000000000000000000000000000EF
:1081900000000000000000000000000000000000DF
:1081A000000000000000000000000000430000008C
:1081B00031430D003D490D00854F0D00C5600D0098
:1081C0002D650D00B1660D00F1670D0041690D00D0
:1081D00075690D00216C0D00096F0D00CD6F0D004C
:1081E00051700D00D5700D0000000000000000006F
:0481F000000000008B
:1081F400007F0D00E87E0D00A97F0D0049800D0071
:10820400000000004C810D006C810D008C810D007C
:10821400000000000000000000000000000000005A
:10822400AC810D0000000000000000000000000010
:10823400000000000000000000000000000000003A
:10824400000000000000000000000000000000002A
:10825400000000000000000000000000000000001A
:0482640084E203208D
:10826800FFFFFFFF00000102030405060708090AD3
:108278000B0C0D0E0F101112131415161718191ACE
:088288001B1C1D1E1F20280015
:0482900078563412D6
:04000003D0004020C9
:00000001FF
